{
  "address": "0xc266D6e120A9e300e6294CA5137cA3e85c3c9a9a",
  "abi": [
    {
      "inputs": [
        {
          "internalType": "string",
          "name": "_verifyingKey",
          "type": "string"
        },
        {
          "internalType": "uint256",
          "name": "_feeRate",
          "type": "uint256"
        }
      ],
      "stateMutability": "nonpayable",
      "type": "constructor"
    },
    {
      "inputs": [
        {
          "internalType": "uint256",
          "name": "fundsRequired",
          "type": "uint256"
        },
        {
          "internalType": "uint256",
          "name": "fundsProvided",
          "type": "uint256"
        }
      ],
      "name": "InvalidFunding",
      "type": "error"
    },
    {
      "inputs": [
        {
          "internalType": "uint256",
          "name": "subscriptionId",
          "type": "uint256"
        },
        {
          "internalType": "address",
          "name": "caller",
          "type": "address"
        }
      ],
      "name": "NotSubscriptionConsumer",
      "type": "error"
    },
    {
      "inputs": [
        {
          "internalType": "uint256",
          "name": "subscriptionId",
          "type": "uint256"
        },
        {
          "internalType": "address",
          "name": "caller",
          "type": "address"
        }
      ],
      "name": "NotSubscriptionOwner",
      "type": "error"
    },
    {
      "inputs": [
        {
          "internalType": "uint256",
          "name": "subscriptionId",
          "type": "uint256"
        }
      ],
      "name": "SubscriptionExpired",
      "type": "error"
    },
    {
      "anonymous": false,
      "inputs": [
        {
          "indexed": true,
          "internalType": "uint256",
          "name": "subscriptionId",
          "type": "uint256"
        },
        {
          "indexed": true,
          "internalType": "address",
          "name": "consumer",
          "type": "address"
        }
      ],
      "name": "ConsumerAdded",
      "type": "event"
    },
    {
      "anonymous": false,
      "inputs": [
        {
          "indexed": true,
          "internalType": "address",
          "name": "previousOwner",
          "type": "address"
        },
        {
          "indexed": true,
          "internalType": "address",
          "name": "newOwner",
          "type": "address"
        }
      ],
      "name": "OwnershipTransferred",
      "type": "event"
    },
    {
      "anonymous": false,
      "inputs": [
        {
          "indexed": true,
          "internalType": "uint256",
          "name": "subscriptionId",
          "type": "uint256"
        },
        {
          "indexed": true,
          "internalType": "address",
          "name": "consumer",
          "type": "address"
        },
        {
          "indexed": true,
          "internalType": "bytes16",
          "name": "policyId",
          "type": "bytes16"
        },
        {
          "indexed": false,
          "internalType": "string",
          "name": "label",
          "type": "string"
        },
        {
          "components": [
            {
              "internalType": "uint16",
              "name": "size",
              "type": "uint16"
            },
            {
              "internalType": "uint16",
              "name": "threshold",
              "type": "uint16"
            },
            {
              "internalType": "string",
              "name": "verifyingKey",
              "type": "string"
            },
            {
              "internalType": "string",
              "name": "decryptingKey",
              "type": "string"
            },
            {
              "internalType": "uint32",
              "name": "startTimestamp",
              "type": "uint32"
            },
            {
              "internalType": "uint32",
              "name": "endTimestamp",
              "type": "uint32"
            }
          ],
          "indexed": false,
          "internalType": "struct PolicyRequest",
          "name": "policyRequest",
          "type": "tuple"
        }
      ],
      "name": "PolicyRequested",
      "type": "event"
    },
    {
      "anonymous": false,
      "inputs": [
        {
          "indexed": true,
          "internalType": "uint256",
          "name": "subscriptionId",
          "type": "uint256"
        },
        {
          "indexed": true,
          "internalType": "address",
          "name": "owner",
          "type": "address"
        },
        {
          "indexed": false,
          "internalType": "uint16",
          "name": "dkgNodes",
          "type": "uint16"
        },
        {
          "indexed": false,
          "internalType": "uint32",
          "name": "endTimestamp",
          "type": "uint32"
        }
      ],
      "name": "SubscriptionCreated",
      "type": "event"
    },
    {
      "inputs": [
        {
          "internalType": "uint256",
          "name": "_subscriptionId",
          "type": "uint256"
        },
        {
          "internalType": "address",
          "name": "_consumer",
          "type": "address"
        }
      ],
      "name": "addConsumer",
      "outputs": [],
      "stateMutability": "nonpayable",
      "type": "function"
    },
    {
      "inputs": [
        {
          "internalType": "address",
          "name": "",
          "type": "address"
        },
        {
          "internalType": "uint256",
          "name": "",
          "type": "uint256"
        }
      ],
      "name": "consumers",
      "outputs": [
        {
          "internalType": "uint256",
          "name": "",
          "type": "uint256"
        }
      ],
      "stateMutability": "view",
      "type": "function"
    },
    {
      "inputs": [
        {
          "internalType": "uint16",
          "name": "_dkgNodes",
          "type": "uint16"
        },
        {
          "internalType": "uint32",
          "name": "_duration",
          "type": "uint32"
        }
      ],
      "name": "createSubscription",
      "outputs": [
        {
          "internalType": "uint256",
          "name": "subscriptionId",
          "type": "uint256"
        }
      ],
      "stateMutability": "payable",
      "type": "function"
    },
    {
      "inputs": [],
      "name": "feeRate",
      "outputs": [
        {
          "internalType": "uint256",
          "name": "",
          "type": "uint256"
        }
      ],
      "stateMutability": "view",
      "type": "function"
    },
    {
      "inputs": [],
      "name": "owner",
      "outputs": [
        {
          "internalType": "address",
          "name": "",
          "type": "address"
        }
      ],
      "stateMutability": "view",
      "type": "function"
    },
    {
      "inputs": [],
      "name": "renounceOwnership",
      "outputs": [],
      "stateMutability": "nonpayable",
      "type": "function"
    },
    {
      "inputs": [
        {
          "internalType": "uint256",
          "name": "_subscriptionId",
          "type": "uint256"
        },
        {
          "internalType": "string",
          "name": "_labelSuffix",
          "type": "string"
        },
        {
          "components": [
            {
              "internalType": "uint16",
              "name": "size",
              "type": "uint16"
            },
            {
              "internalType": "uint16",
              "name": "threshold",
              "type": "uint16"
            },
            {
              "internalType": "string",
              "name": "verifyingKey",
              "type": "string"
            },
            {
              "internalType": "string",
              "name": "decryptingKey",
              "type": "string"
            },
            {
              "internalType": "uint32",
              "name": "startTimestamp",
              "type": "uint32"
            },
            {
              "internalType": "uint32",
              "name": "endTimestamp",
              "type": "uint32"
            }
          ],
          "internalType": "struct PolicyRequest",
          "name": "_policyRequest",
          "type": "tuple"
        }
      ],
      "name": "requestPolicy",
      "outputs": [
        {
          "internalType": "bytes16",
          "name": "policyId",
          "type": "bytes16"
        },
        {
          "internalType": "string",
          "name": "label",
          "type": "string"
        }
      ],
      "stateMutability": "nonpayable",
      "type": "function"
    },
    {
      "inputs": [
        {
          "internalType": "uint256",
          "name": "",
          "type": "uint256"
        }
      ],
      "name": "subscriptions",
      "outputs": [
        {
          "internalType": "address payable",
          "name": "owner",
          "type": "address"
        },
        {
          "internalType": "uint16",
          "name": "dkgNodes",
          "type": "uint16"
        },
        {
          "internalType": "uint32",
          "name": "endTimestamp",
          "type": "uint32"
        },
        {
          "internalType": "uint16",
          "name": "numConsumers",
          "type": "uint16"
        }
      ],
      "stateMutability": "view",
      "type": "function"
    },
    {
      "inputs": [
        {
          "internalType": "address payable",
          "name": "recipient",
          "type": "address"
        }
      ],
      "name": "sweep",
      "outputs": [],
      "stateMutability": "nonpayable",
      "type": "function"
    },
    {
      "inputs": [
        {
          "internalType": "address",
          "name": "newOwner",
          "type": "address"
        }
      ],
      "name": "transferOwnership",
      "outputs": [],
      "stateMutability": "nonpayable",
      "type": "function"
    },
    {
      "inputs": [],
      "name": "verifyingKey",
      "outputs": [
        {
          "internalType": "string",
          "name": "",
          "type": "string"
        }
      ],
      "stateMutability": "view",
      "type": "function"
    }
  ],
  "transactionHash": "0x0173002f804d7e4893585e8cbcd5183e0352b56851c1090e7538eabde5195ba0",
  "args": [
    "0x036bd8188183e5c251065d1b22cb52c20f31a88fbf01b1eb75b5cbd5896d76c3e0",
    1000000000
  ],
  "solcInputHash": "3c33c6b12dafba3a347b4d97d673c8db",
  "bytecode": "0x60806040523480156200001157600080fd5b5060405162002595380380620025958339818101604052810190620000379190620003d3565b620000576200004b6200007f60201b60201c565b6200008760201b60201c565b81600190805190602001906200006f9291906200014b565b508060028190555050506200049d565b600033905090565b60008060009054906101000a900473ffffffffffffffffffffffffffffffffffffffff169050816000806101000a81548173ffffffffffffffffffffffffffffffffffffffff021916908373ffffffffffffffffffffffffffffffffffffffff1602179055508173ffffffffffffffffffffffffffffffffffffffff168173ffffffffffffffffffffffffffffffffffffffff167f8be0079c531659141344cd1fd0a4f28419497f9722a3daafe3b4186f6b6457e060405160405180910390a35050565b828054620001599062000468565b90600052602060002090601f0160209004810192826200017d5760008555620001c9565b82601f106200019857805160ff1916838001178555620001c9565b82800160010185558215620001c9579182015b82811115620001c8578251825591602001919060010190620001ab565b5b509050620001d89190620001dc565b5090565b5b80821115620001f7576000816000905550600101620001dd565b5090565b6000604051905090565b600080fd5b600080fd5b600080fd5b600080fd5b6000601f19601f8301169050919050565b7f4e487b7100000000000000000000000000000000000000000000000000000000600052604160045260246000fd5b620002648262000219565b810181811067ffffffffffffffff821117156200028657620002856200022a565b5b80604052505050565b60006200029b620001fb565b9050620002a9828262000259565b919050565b600067ffffffffffffffff821115620002cc57620002cb6200022a565b5b620002d78262000219565b9050602081019050919050565b60005b8381101562000304578082015181840152602081019050620002e7565b8381111562000314576000848401525b50505050565b6000620003316200032b84620002ae565b6200028f565b90508281526020810184848401111562000350576200034f62000214565b5b6200035d848285620002e4565b509392505050565b600082601f8301126200037d576200037c6200020f565b5b81516200038f8482602086016200031a565b91505092915050565b6000819050919050565b620003ad8162000398565b8114620003b957600080fd5b50565b600081519050620003cd81620003a2565b92915050565b60008060408385031215620003ed57620003ec62000205565b5b600083015167ffffffffffffffff8111156200040e576200040d6200020a565b5b6200041c8582860162000365565b92505060206200042f85828601620003bc565b9150509250929050565b7f4e487b7100000000000000000000000000000000000000000000000000000000600052602260045260246000fd5b600060028204905060018216806200048157607f821691505b60208210810362000497576200049662000439565b5b50919050565b6120e880620004ad6000396000f3fe60806040526004361061009c5760003560e01c80637950c5f8116100645780637950c5f81461018f5780638da5cb5b146101ba578063978bbdb9146101e5578063add6f41e14610210578063bec4c08c1461024d578063f2fde38b146102765761009c565b806301681a62146100a15780632d5bbf60146100ca5780633378639e1461010a57806366a699a114610148578063715018a614610178575b600080fd5b3480156100ad57600080fd5b506100c860048036038101906100c3919061133b565b61029f565b005b3480156100d657600080fd5b506100f160048036038101906100ec919061139e565b6103d1565b6040516101019493929190611416565b60405180910390f35b34801561011657600080fd5b50610131600480360381019061012c91906116db565b61044d565b60405161013f929190611829565b60405180910390f35b610162600480360381019061015d9190611859565b610682565b60405161016f91906118a8565b60405180910390f35b34801561018457600080fd5b5061018d610927565b005b34801561019b57600080fd5b506101a46109af565b6040516101b191906118c3565b60405180910390f35b3480156101c657600080fd5b506101cf610a3d565b6040516101dc9190611906565b60405180910390f35b3480156101f157600080fd5b506101fa610a66565b60405161020791906118a8565b60405180910390f35b34801561021c57600080fd5b506102376004803603810190610232919061194d565b610a6c565b60405161024491906118a8565b60405180910390f35b34801561025957600080fd5b50610274600480360381019061026f919061198d565b610a91565b005b34801561028257600080fd5b5061029d600480360381019061029891906119cd565b610c27565b005b6102a7610d1e565b73ffffffffffffffffffffffffffffffffffffffff166102c5610a3d565b73ffffffffffffffffffffffffffffffffffffffff161461031b576040517f08c379a000000000000000000000000000000000000000000000000000000000815260040161031290611a46565b60405180910390fd5b600047905060008273ffffffffffffffffffffffffffffffffffffffff168260405161034690611a97565b60006040518083038185875af1925050503d8060008114610383576040519150601f19603f3d011682016040523d82523d6000602084013e610388565b606091505b50509050806103cc576040517f08c379a00000000000000000000000000000000000000000000000000000000081526004016103c390611af8565b60405180910390fd5b505050565b60046020528060005260406000206000915090508060000160009054906101000a900473ffffffffffffffffffffffffffffffffffffffff16908060000160149054906101000a900461ffff16908060000160169054906101000a900463ffffffff169080600001601a9054906101000a900461ffff16905084565b60006060846000600560003373ffffffffffffffffffffffffffffffffffffffff1673ffffffffffffffffffffffffffffffffffffffff168152602001908152602001600020600083815260200190815260200160002054036104e95780336040517f760befb60000000000000000000000000000000000000000000000000000000081526004016104e0929190611b18565b60405180910390fd5b426004600088815260200190815260200160002060000160169054906101000a900463ffffffff1663ffffffff16101561055a57856040517f3ba88dbd00000000000000000000000000000000000000000000000000000000815260040161055191906118a8565b60405180910390fd5b61056d3386610d2690919063ffffffff16565b91506106126001805461057f90611b70565b80601f01602080910402602001604051908101604052809291908181526020018280546105ab90611b70565b80156105f85780601f106105cd576101008083540402835291602001916105f8565b820191906000526020600020905b8154815290600101906020018083116105db57829003601f168201915b5050505050856040015184610d649092919063ffffffff16565b9250826fffffffffffffffffffffffffffffffff19163373ffffffffffffffffffffffffffffffffffffffff16877ff92c5180a116bf26f78f725f6e58d98e06269178f19ad59d43ddf15a2038428e8588604051610671929190611c99565b60405180910390a450935093915050565b600080600254838561ffff166106989190611cff565b63ffffffff166106a89190611d3d565b90503481146106f05780346040517f69723a660000000000000000000000000000000000000000000000000000000081526004016106e7929190611d97565b60405180910390fd5b60008363ffffffff16426107049190611dc0565b905060405180608001604052803373ffffffffffffffffffffffffffffffffffffffff1681526020018661ffff1681526020018263ffffffff168152602001600161ffff1681525060046000600354815260200190815260200160002060008201518160000160006101000a81548173ffffffffffffffffffffffffffffffffffffffff021916908373ffffffffffffffffffffffffffffffffffffffff16021790555060208201518160000160146101000a81548161ffff021916908361ffff16021790555060408201518160000160166101000a81548163ffffffff021916908363ffffffff160217905550606082015181600001601a6101000a81548161ffff021916908361ffff1602179055509050506001600560003373ffffffffffffffffffffffffffffffffffffffff1673ffffffffffffffffffffffffffffffffffffffff16815260200190815260200160002060006003548152602001908152602001600020819055506001600360008282546108839190611dc0565b925050819055503373ffffffffffffffffffffffffffffffffffffffff16837f196ce8f4a280af33a10508cd782ec513d21671e20b0d59ce80fc3ffc28259bb087846040516108d3929190611e16565b60405180910390a33373ffffffffffffffffffffffffffffffffffffffff16837f4e5aab67fb6878a7c5437d638d002992f2b503107c053f38483f6b294948749360405160405180910390a3505092915050565b61092f610d1e565b73ffffffffffffffffffffffffffffffffffffffff1661094d610a3d565b73ffffffffffffffffffffffffffffffffffffffff16146109a3576040517f08c379a000000000000000000000000000000000000000000000000000000000815260040161099a90611a46565b60405180910390fd5b6109ad6000610d9a565b565b600180546109bc90611b70565b80601f01602080910402602001604051908101604052809291908181526020018280546109e890611b70565b8015610a355780601f10610a0a57610100808354040283529160200191610a35565b820191906000526020600020905b815481529060010190602001808311610a1857829003601f168201915b505050505081565b60008060009054906101000a900473ffffffffffffffffffffffffffffffffffffffff16905090565b60025481565b6005602052816000526040600020602052806000526040600020600091509150505481565b813373ffffffffffffffffffffffffffffffffffffffff166004600083815260200190815260200160002060000160009054906101000a900473ffffffffffffffffffffffffffffffffffffffff1673ffffffffffffffffffffffffffffffffffffffff1614610b3a5780336040517f55f541b9000000000000000000000000000000000000000000000000000000008152600401610b31929190611b18565b60405180910390fd5b6001600560008473ffffffffffffffffffffffffffffffffffffffff1673ffffffffffffffffffffffffffffffffffffffff168152602001908152602001600020600085815260200190815260200160002081905550600160046000858152602001908152602001600020600001601a8282829054906101000a900461ffff16610bc49190611e3f565b92506101000a81548161ffff021916908361ffff1602179055508173ffffffffffffffffffffffffffffffffffffffff16837f4e5aab67fb6878a7c5437d638d002992f2b503107c053f38483f6b294948749360405160405180910390a3505050565b610c2f610d1e565b73ffffffffffffffffffffffffffffffffffffffff16610c4d610a3d565b73ffffffffffffffffffffffffffffffffffffffff1614610ca3576040517f08c379a0000000000000000000000000000000000000000000000000000000008152600401610c9a90611a46565b60405180910390fd5b600073ffffffffffffffffffffffffffffffffffffffff168173ffffffffffffffffffffffffffffffffffffffff1603610d12576040517f08c379a0000000000000000000000000000000000000000000000000000000008152600401610d0990611ee9565b60405180910390fd5b610d1b81610d9a565b50565b600033905090565b6060610d3182610e5e565b610d3a46611169565b84604051602001610d4d93929190611f45565b604051602081830303815290604052905092915050565b6000828285604051602001610d7b93929190611f45565b6040516020818303038152906040528051906020012090509392505050565b60008060009054906101000a900473ffffffffffffffffffffffffffffffffffffffff169050816000806101000a81548173ffffffffffffffffffffffffffffffffffffffff021916908373ffffffffffffffffffffffffffffffffffffffff1602179055508173ffffffffffffffffffffffffffffffffffffffff168173ffffffffffffffffffffffffffffffffffffffff167f8be0079c531659141344cd1fd0a4f28419497f9722a3daafe3b4186f6b6457e060405160405180910390a35050565b606060008273ffffffffffffffffffffffffffffffffffffffff1660001b905060006040518060400160405280601081526020017f303132333435363738396162636465660000000000000000000000000000000081525090506000602a67ffffffffffffffff811115610ed557610ed4611476565b5b6040519080825280601f01601f191660200182016040528015610f075781602001600182028036833780820191505090505b5090507f300000000000000000000000000000000000000000000000000000000000000081600081518110610f3f57610f3e611f76565b5b60200101907effffffffffffffffffffffffffffffffffffffffffffffffffffffffffffff1916908160001a9053507f780000000000000000000000000000000000000000000000000000000000000081600181518110610fa357610fa2611f76565b5b60200101907effffffffffffffffffffffffffffffffffffffffffffffffffffffffffffff1916908160001a90535060005b601481101561115d5782600485600c84610fef9190611dc0565b6020811061100057610fff611f76565b5b1a60f81b7effffffffffffffffffffffffffffffffffffffffffffffffffffffffffffff1916901c60f81c60ff168151811061103f5761103e611f76565b5b602001015160f81c60f81b826002836110589190611d3d565b60026110649190611dc0565b8151811061107557611074611f76565b5b60200101907effffffffffffffffffffffffffffffffffffffffffffffffffffffffffffff1916908160001a90535082600f60f81b85600c846110b89190611dc0565b602081106110c9576110c8611f76565b5b1a60f81b1660f81c60ff16815181106110e5576110e4611f76565b5b602001015160f81c60f81b826002836110fe9190611d3d565b600361110a9190611dc0565b8151811061111b5761111a611f76565b5b60200101907effffffffffffffffffffffffffffffffffffffffffffffffffffffffffffff1916908160001a905350808061115590611fa5565b915050610fd5565b50809350505050919050565b6060600082036111b0576040518060400160405280600181526020017f300000000000000000000000000000000000000000000000000000000000000081525090506112c4565b600082905060005b600082146111e25780806111cb90611fa5565b915050600a826111db919061201c565b91506111b8565b60008167ffffffffffffffff8111156111fe576111fd611476565b5b6040519080825280601f01601f1916602001820160405280156112305781602001600182028036833780820191505090505b5090505b600085146112bd57600182611249919061204d565b9150600a856112589190612081565b60306112649190611dc0565b60f81b81838151811061127a57611279611f76565b5b60200101907effffffffffffffffffffffffffffffffffffffffffffffffffffffffffffff1916908160001a905350600a856112b6919061201c565b9450611234565b8093505050505b919050565b6000604051905090565b600080fd5b600080fd5b600073ffffffffffffffffffffffffffffffffffffffff82169050919050565b6000611308826112dd565b9050919050565b611318816112fd565b811461132357600080fd5b50565b6000813590506113358161130f565b92915050565b600060208284031215611351576113506112d3565b5b600061135f84828501611326565b91505092915050565b6000819050919050565b61137b81611368565b811461138657600080fd5b50565b60008135905061139881611372565b92915050565b6000602082840312156113b4576113b36112d3565b5b60006113c284828501611389565b91505092915050565b6113d4816112fd565b82525050565b600061ffff82169050919050565b6113f1816113da565b82525050565b600063ffffffff82169050919050565b611410816113f7565b82525050565b600060808201905061142b60008301876113cb565b61143860208301866113e8565b6114456040830185611407565b61145260608301846113e8565b95945050505050565b600080fd5b600080fd5b6000601f19601f8301169050919050565b7f4e487b7100000000000000000000000000000000000000000000000000000000600052604160045260246000fd5b6114ae82611465565b810181811067ffffffffffffffff821117156114cd576114cc611476565b5b80604052505050565b60006114e06112c9565b90506114ec82826114a5565b919050565b600067ffffffffffffffff82111561150c5761150b611476565b5b61151582611465565b9050602081019050919050565b82818337600083830152505050565b600061154461153f846114f1565b6114d6565b9050828152602081018484840111156115605761155f611460565b5b61156b848285611522565b509392505050565b600082601f8301126115885761158761145b565b5b8135611598848260208601611531565b91505092915050565b600080fd5b600080fd5b6115b4816113da565b81146115bf57600080fd5b50565b6000813590506115d1816115ab565b92915050565b6115e0816113f7565b81146115eb57600080fd5b50565b6000813590506115fd816115d7565b92915050565b600060c08284031215611619576116186115a1565b5b61162360c06114d6565b90506000611633848285016115c2565b6000830152506020611647848285016115c2565b602083015250604082013567ffffffffffffffff81111561166b5761166a6115a6565b5b61167784828501611573565b604083015250606082013567ffffffffffffffff81111561169b5761169a6115a6565b5b6116a784828501611573565b60608301525060806116bb848285016115ee565b60808301525060a06116cf848285016115ee565b60a08301525092915050565b6000806000606084860312156116f4576116f36112d3565b5b600061170286828701611389565b935050602084013567ffffffffffffffff811115611723576117226112d8565b5b61172f86828701611573565b925050604084013567ffffffffffffffff8111156117505761174f6112d8565b5b61175c86828701611603565b9150509250925092565b60007fffffffffffffffffffffffffffffffff0000000000000000000000000000000082169050919050565b61179b81611766565b82525050565b600081519050919050565b600082825260208201905092915050565b60005b838110156117db5780820151818401526020810190506117c0565b838111156117ea576000848401525b50505050565b60006117fb826117a1565b61180581856117ac565b93506118158185602086016117bd565b61181e81611465565b840191505092915050565b600060408201905061183e6000830185611792565b818103602083015261185081846117f0565b90509392505050565b600080604083850312156118705761186f6112d3565b5b600061187e858286016115c2565b925050602061188f858286016115ee565b9150509250929050565b6118a281611368565b82525050565b60006020820190506118bd6000830184611899565b92915050565b600060208201905081810360008301526118dd81846117f0565b905092915050565b60006118f0826112dd565b9050919050565b611900816118e5565b82525050565b600060208201905061191b60008301846118f7565b92915050565b61192a816118e5565b811461193557600080fd5b50565b60008135905061194781611921565b92915050565b60008060408385031215611964576119636112d3565b5b600061197285828601611938565b925050602061198385828601611389565b9150509250929050565b600080604083850312156119a4576119a36112d3565b5b60006119b285828601611389565b92505060206119c385828601611938565b9150509250929050565b6000602082840312156119e3576119e26112d3565b5b60006119f184828501611938565b91505092915050565b7f4f776e61626c653a2063616c6c6572206973206e6f7420746865206f776e6572600082015250565b6000611a306020836117ac565b9150611a3b826119fa565b602082019050919050565b60006020820190508181036000830152611a5f81611a23565b9050919050565b600081905092915050565b50565b6000611a81600083611a66565b9150611a8c82611a71565b600082019050919050565b6000611aa282611a74565b9150819050919050565b7f4661696c6564207472616e736665720000000000000000000000000000000000600082015250565b6000611ae2600f836117ac565b9150611aed82611aac565b602082019050919050565b60006020820190508181036000830152611b1181611ad5565b9050919050565b6000604082019050611b2d6000830185611899565b611b3a60208301846118f7565b9392505050565b7f4e487b7100000000000000000000000000000000000000000000000000000000600052602260045260246000fd5b60006002820490506001821680611b8857607f821691505b602082108103611b9b57611b9a611b41565b5b50919050565b611baa816113da565b82525050565b600082825260208201905092915050565b6000611bcc826117a1565b611bd68185611bb0565b9350611be68185602086016117bd565b611bef81611465565b840191505092915050565b611c03816113f7565b82525050565b600060c083016000830151611c216000860182611ba1565b506020830151611c346020860182611ba1565b5060408301518482036040860152611c4c8282611bc1565b91505060608301518482036060860152611c668282611bc1565b9150506080830151611c7b6080860182611bfa565b5060a0830151611c8e60a0860182611bfa565b508091505092915050565b60006040820190508181036000830152611cb381856117f0565b90508181036020830152611cc78184611c09565b90509392505050565b7f4e487b7100000000000000000000000000000000000000000000000000000000600052601160045260246000fd5b6000611d0a826113f7565b9150611d15836113f7565b92508163ffffffff0483118215151615611d3257611d31611cd0565b5b828202905092915050565b6000611d4882611368565b9150611d5383611368565b9250817fffffffffffffffffffffffffffffffffffffffffffffffffffffffffffffffff0483118215151615611d8c57611d8b611cd0565b5b828202905092915050565b6000604082019050611dac6000830185611899565b611db96020830184611899565b9392505050565b6000611dcb82611368565b9150611dd683611368565b9250827fffffffffffffffffffffffffffffffffffffffffffffffffffffffffffffffff03821115611e0b57611e0a611cd0565b5b828201905092915050565b6000604082019050611e2b60008301856113e8565b611e386020830184611407565b9392505050565b6000611e4a826113da565b9150611e55836113da565b92508261ffff03821115611e6c57611e6b611cd0565b5b828201905092915050565b7f4f776e61626c653a206e6577206f776e657220697320746865207a65726f206160008201527f6464726573730000000000000000000000000000000000000000000000000000602082015250565b6000611ed36026836117ac565b9150611ede82611e77565b604082019050919050565b60006020820190508181036000830152611f0281611ec6565b9050919050565b600081905092915050565b6000611f1f826117a1565b611f298185611f09565b9350611f398185602086016117bd565b80840191505092915050565b6000611f518286611f14565b9150611f5d8285611f14565b9150611f698284611f14565b9150819050949350505050565b7f4e487b7100000000000000000000000000000000000000000000000000000000600052603260045260246000fd5b6000611fb082611368565b91507fffffffffffffffffffffffffffffffffffffffffffffffffffffffffffffffff8203611fe257611fe1611cd0565b5b600182019050919050565b7f4e487b7100000000000000000000000000000000000000000000000000000000600052601260045260246000fd5b600061202782611368565b915061203283611368565b92508261204257612041611fed565b5b828204905092915050565b600061205882611368565b915061206383611368565b92508282101561207657612075611cd0565b5b828203905092915050565b600061208c82611368565b915061209783611368565b9250826120a7576120a6611fed565b5b82820690509291505056fea2646970667358221220f84c81dc187ccb4cb9c24d7758fd73965ee09d4ff165cfe5cc1046182c1b8e9364736f6c634300080d0033",
  "devdoc": {
    "kind": "dev",
    "methods": {
      "owner()": {
        "details": "Returns the address of the current owner."
      },
      "renounceOwnership()": {
        "details": "Leaves the contract without owner. It will not be possible to call `onlyOwner` functions anymore. Can only be called by the current owner. NOTE: Renouncing ownership will leave the contract without an owner, thereby removing any functionality that is only available to the owner."
      },
      "requestPolicy(uint256,string,(uint16,uint16,string,string,uint32,uint32))": {
        "details": "consumer is responsible for making sure that these parameters line up withpolcy created on PRE SubscriptionManager"
      },
      "transferOwnership(address)": {
        "details": "Transfers ownership of the contract to a new account (`newOwner`). Can only be called by the current owner."
      }
    },
    "version": 1
  },
  "userdoc": {
    "kind": "user",
    "methods": {},
    "version": 1
  },
  "storageLayout": {
    "storage": [
      {
        "astId": 1677,
        "contract": "contracts/v2/DKGSubscriptionManager.sol:DKGSubscriptionManager",
        "label": "_owner",
        "offset": 0,
        "slot": "0",
        "type": "t_address"
      },
      {
        "astId": 2399,
        "contract": "contracts/v2/DKGSubscriptionManager.sol:DKGSubscriptionManager",
        "label": "verifyingKey",
        "offset": 0,
        "slot": "1",
        "type": "t_string_storage"
      },
      {
        "astId": 2401,
        "contract": "contracts/v2/DKGSubscriptionManager.sol:DKGSubscriptionManager",
        "label": "feeRate",
        "offset": 0,
        "slot": "2",
        "type": "t_uint256"
      },
      {
        "astId": 2403,
        "contract": "contracts/v2/DKGSubscriptionManager.sol:DKGSubscriptionManager",
        "label": "subscriptionNonce",
        "offset": 0,
        "slot": "3",
        "type": "t_uint256"
      },
      {
        "astId": 2408,
        "contract": "contracts/v2/DKGSubscriptionManager.sol:DKGSubscriptionManager",
        "label": "subscriptions",
        "offset": 0,
        "slot": "4",
        "type": "t_mapping(t_uint256,t_struct(SubscriptionConfig)2397_storage)"
      },
      {
        "astId": 2414,
        "contract": "contracts/v2/DKGSubscriptionManager.sol:DKGSubscriptionManager",
        "label": "consumers",
        "offset": 0,
        "slot": "5",
        "type": "t_mapping(t_address,t_mapping(t_uint256,t_uint256))"
      }
    ],
    "types": {
      "t_address": {
        "encoding": "inplace",
        "label": "address",
        "numberOfBytes": "20"
      },
      "t_address_payable": {
        "encoding": "inplace",
        "label": "address payable",
        "numberOfBytes": "20"
      },
      "t_mapping(t_address,t_mapping(t_uint256,t_uint256))": {
        "encoding": "mapping",
        "key": "t_address",
        "label": "mapping(address => mapping(uint256 => uint256))",
        "numberOfBytes": "32",
        "value": "t_mapping(t_uint256,t_uint256)"
      },
      "t_mapping(t_uint256,t_struct(SubscriptionConfig)2397_storage)": {
        "encoding": "mapping",
        "key": "t_uint256",
        "label": "mapping(uint256 => struct DKGSubscriptionManager.SubscriptionConfig)",
        "numberOfBytes": "32",
        "value": "t_struct(SubscriptionConfig)2397_storage"
      },
      "t_mapping(t_uint256,t_uint256)": {
        "encoding": "mapping",
        "key": "t_uint256",
        "label": "mapping(uint256 => uint256)",
        "numberOfBytes": "32",
        "value": "t_uint256"
      },
      "t_string_storage": {
        "encoding": "bytes",
        "label": "string",
        "numberOfBytes": "32"
      },
      "t_struct(SubscriptionConfig)2397_storage": {
        "encoding": "inplace",
        "label": "struct DKGSubscriptionManager.SubscriptionConfig",
        "members": [
          {
            "astId": 2390,
            "contract": "contracts/v2/DKGSubscriptionManager.sol:DKGSubscriptionManager",
            "label": "owner",
            "offset": 0,
            "slot": "0",
            "type": "t_address_payable"
          },
          {
            "astId": 2392,
            "contract": "contracts/v2/DKGSubscriptionManager.sol:DKGSubscriptionManager",
            "label": "dkgNodes",
            "offset": 20,
            "slot": "0",
            "type": "t_uint16"
          },
          {
            "astId": 2394,
            "contract": "contracts/v2/DKGSubscriptionManager.sol:DKGSubscriptionManager",
            "label": "endTimestamp",
            "offset": 22,
            "slot": "0",
            "type": "t_uint32"
          },
          {
            "astId": 2396,
            "contract": "contracts/v2/DKGSubscriptionManager.sol:DKGSubscriptionManager",
            "label": "numConsumers",
            "offset": 26,
            "slot": "0",
            "type": "t_uint16"
          }
        ],
        "numberOfBytes": "32"
      },
      "t_uint16": {
        "encoding": "inplace",
        "label": "uint16",
        "numberOfBytes": "2"
      },
      "t_uint256": {
        "encoding": "inplace",
        "label": "uint256",
        "numberOfBytes": "32"
      },
      "t_uint32": {
        "encoding": "inplace",
        "label": "uint32",
        "numberOfBytes": "4"
      }
    }
  }
}