{
  "address": "0xe72Da2C779E358Df948809EA11F47fC2f9184715",
  "abi": [
    {
      "inputs": [
        {
          "internalType": "uint256",
          "name": "fundsRequired",
          "type": "uint256"
        },
        {
          "internalType": "uint256",
          "name": "fundsReceived",
          "type": "uint256"
        }
      ],
      "name": "InsufficientMintFunds",
      "type": "error"
    },
    {
      "anonymous": false,
      "inputs": [
        {
          "indexed": true,
          "internalType": "address",
          "name": "owner",
          "type": "address"
        },
        {
          "indexed": true,
          "internalType": "address",
          "name": "approved",
          "type": "address"
        },
        {
          "indexed": true,
          "internalType": "uint256",
          "name": "tokenId",
          "type": "uint256"
        }
      ],
      "name": "Approval",
      "type": "event"
    },
    {
      "anonymous": false,
      "inputs": [
        {
          "indexed": true,
          "internalType": "address",
          "name": "owner",
          "type": "address"
        },
        {
          "indexed": true,
          "internalType": "address",
          "name": "operator",
          "type": "address"
        },
        {
          "indexed": false,
          "internalType": "bool",
          "name": "approved",
          "type": "bool"
        }
      ],
      "name": "ApprovalForAll",
      "type": "event"
    },
    {
      "anonymous": false,
      "inputs": [
        {
          "indexed": true,
          "internalType": "address",
          "name": "from",
          "type": "address"
        },
        {
          "indexed": true,
          "internalType": "address",
          "name": "to",
          "type": "address"
        },
        {
          "indexed": true,
          "internalType": "uint256",
          "name": "tokenId",
          "type": "uint256"
        }
      ],
      "name": "Transfer",
      "type": "event"
    },
    {
      "inputs": [
        {
          "internalType": "address",
          "name": "to",
          "type": "address"
        },
        {
          "internalType": "uint256",
          "name": "tokenId",
          "type": "uint256"
        }
      ],
      "name": "approve",
      "outputs": [],
      "stateMutability": "nonpayable",
      "type": "function"
    },
    {
      "inputs": [
        {
          "internalType": "address",
          "name": "owner",
          "type": "address"
        }
      ],
      "name": "balanceOf",
      "outputs": [
        {
          "internalType": "uint256",
          "name": "",
          "type": "uint256"
        }
      ],
      "stateMutability": "view",
      "type": "function"
    },
    {
      "inputs": [
        {
          "internalType": "uint256",
          "name": "tokenId",
          "type": "uint256"
        }
      ],
      "name": "getApproved",
      "outputs": [
        {
          "internalType": "address",
          "name": "",
          "type": "address"
        }
      ],
      "stateMutability": "view",
      "type": "function"
    },
    {
      "inputs": [
        {
          "internalType": "contract DKGSubscriptionManager",
          "name": "dkgManager_",
          "type": "address"
        },
        {
          "internalType": "contract IPRESubscriptionManager",
          "name": "preManager_",
          "type": "address"
        },
        {
          "internalType": "string",
          "name": "name_",
          "type": "string"
        },
        {
          "internalType": "string",
          "name": "symbol_",
          "type": "string"
        }
      ],
      "name": "initialize",
      "outputs": [],
      "stateMutability": "nonpayable",
      "type": "function"
    },
    {
      "inputs": [
        {
          "internalType": "address",
          "name": "owner",
          "type": "address"
        },
        {
          "internalType": "address",
          "name": "operator",
          "type": "address"
        }
      ],
      "name": "isApprovedForAll",
      "outputs": [
        {
          "internalType": "bool",
          "name": "",
          "type": "bool"
        }
      ],
      "stateMutability": "view",
      "type": "function"
    },
    {
      "inputs": [
        {
          "internalType": "uint256",
          "name": "tokenId",
          "type": "uint256"
        }
      ],
      "name": "mint",
      "outputs": [],
      "stateMutability": "payable",
      "type": "function"
    },
    {
      "inputs": [],
      "name": "name",
      "outputs": [
        {
          "internalType": "string",
          "name": "",
          "type": "string"
        }
      ],
      "stateMutability": "view",
      "type": "function"
    },
    {
      "inputs": [
        {
          "internalType": "uint256",
          "name": "tokenId",
          "type": "uint256"
        }
      ],
      "name": "ownerOf",
      "outputs": [
        {
          "internalType": "address",
          "name": "",
          "type": "address"
        }
      ],
      "stateMutability": "view",
      "type": "function"
    },
    {
      "inputs": [
        {
          "internalType": "address",
          "name": "from",
          "type": "address"
        },
        {
          "internalType": "address",
          "name": "to",
          "type": "address"
        },
        {
          "internalType": "uint256",
          "name": "tokenId",
          "type": "uint256"
        }
      ],
      "name": "safeTransferFrom",
      "outputs": [],
      "stateMutability": "nonpayable",
      "type": "function"
    },
    {
      "inputs": [
        {
          "internalType": "address",
          "name": "from",
          "type": "address"
        },
        {
          "internalType": "address",
          "name": "to",
          "type": "address"
        },
        {
          "internalType": "uint256",
          "name": "tokenId",
          "type": "uint256"
        },
        {
          "internalType": "bytes",
          "name": "_data",
          "type": "bytes"
        }
      ],
      "name": "safeTransferFrom",
      "outputs": [],
      "stateMutability": "nonpayable",
      "type": "function"
    },
    {
      "inputs": [
        {
          "internalType": "address",
          "name": "operator",
          "type": "address"
        },
        {
          "internalType": "bool",
          "name": "approved",
          "type": "bool"
        }
      ],
      "name": "setApprovalForAll",
      "outputs": [],
      "stateMutability": "nonpayable",
      "type": "function"
    },
    {
      "inputs": [
        {
          "internalType": "bytes4",
          "name": "interfaceId",
          "type": "bytes4"
        }
      ],
      "name": "supportsInterface",
      "outputs": [
        {
          "internalType": "bool",
          "name": "",
          "type": "bool"
        }
      ],
      "stateMutability": "view",
      "type": "function"
    },
    {
      "inputs": [],
      "name": "symbol",
      "outputs": [
        {
          "internalType": "string",
          "name": "",
          "type": "string"
        }
      ],
      "stateMutability": "view",
      "type": "function"
    },
    {
      "inputs": [
        {
          "internalType": "uint256",
          "name": "tokenId",
          "type": "uint256"
        }
      ],
      "name": "tokenURI",
      "outputs": [
        {
          "internalType": "string",
          "name": "",
          "type": "string"
        }
      ],
      "stateMutability": "view",
      "type": "function"
    },
    {
      "inputs": [
        {
          "internalType": "address",
          "name": "from",
          "type": "address"
        },
        {
          "internalType": "address",
          "name": "to",
          "type": "address"
        },
        {
          "internalType": "uint256",
          "name": "tokenId",
          "type": "uint256"
        }
      ],
      "name": "transferFrom",
      "outputs": [],
      "stateMutability": "nonpayable",
      "type": "function"
    }
  ],
  "transactionHash": "0x12a9bc9a63a885bc839d30fbe202aaa70740bd0fe14ccac56ef1beace948d7ac",
  "args": [],
  "solcInputHash": "21350d650e0a7cbb125b4b6df5ebfd01",
  "bytecode": "0x608060405234801561001057600080fd5b50613b38806100206000396000f3fe6080604052600436106100e85760003560e01c80636352211e1161008a578063a22cb46511610059578063a22cb465146102f7578063b88d4fde14610320578063c87b56dd14610349578063e985e9c514610386576100e8565b80636352211e1461023657806370a082311461027357806395d89b41146102b0578063a0712d68146102db576100e8565b8063095ea7b3116100c6578063095ea7b3146101925780632016a0d2146101bb57806323b872dd146101e457806342842e0e1461020d576100e8565b806301ffc9a7146100ed57806306fdde031461012a578063081812fc14610155575b600080fd5b3480156100f957600080fd5b50610114600480360381019061010f9190612354565b6103c3565b604051610121919061239c565b60405180910390f35b34801561013657600080fd5b5061013f6104a5565b60405161014c9190612450565b60405180910390f35b34801561016157600080fd5b5061017c600480360381019061017791906124a8565b610537565b6040516101899190612516565b60405180910390f35b34801561019e57600080fd5b506101b960048036038101906101b4919061255d565b6105bc565b005b3480156101c757600080fd5b506101e260048036038101906101dd919061274e565b6106d3565b005b3480156101f057600080fd5b5061020b600480360381019061020691906127ed565b610818565b005b34801561021957600080fd5b50610234600480360381019061022f91906127ed565b610878565b005b34801561024257600080fd5b5061025d600480360381019061025891906124a8565b610898565b60405161026a9190612516565b60405180910390f35b34801561027f57600080fd5b5061029a60048036038101906102959190612840565b610949565b6040516102a7919061287c565b60405180910390f35b3480156102bc57600080fd5b506102c5610a00565b6040516102d29190612450565b60405180910390f35b6102f560048036038101906102f091906124a8565b610a92565b005b34801561030357600080fd5b5061031e600480360381019061031991906128c3565b610b6f565b005b34801561032c57600080fd5b50610347600480360381019061034291906129a4565b610b85565b005b34801561035557600080fd5b50610370600480360381019061036b91906124a8565b610be7565b60405161037d9190612450565b60405180910390f35b34801561039257600080fd5b506103ad60048036038101906103a89190612a27565b610c8e565b6040516103ba919061239c565b60405180910390f35b60007f80ac58cd000000000000000000000000000000000000000000000000000000007bffffffffffffffffffffffffffffffffffffffffffffffffffffffff1916827bffffffffffffffffffffffffffffffffffffffffffffffffffffffff1916148061048e57507f5b5e139f000000000000000000000000000000000000000000000000000000007bffffffffffffffffffffffffffffffffffffffffffffffffffffffff1916827bffffffffffffffffffffffffffffffffffffffffffffffffffffffff1916145b8061049e575061049d82610d22565b5b9050919050565b6060606580546104b490612a96565b80601f01602080910402602001604051908101604052809291908181526020018280546104e090612a96565b801561052d5780601f106105025761010080835404028352916020019161052d565b820191906000526020600020905b81548152906001019060200180831161051057829003601f168201915b5050505050905090565b600061054282610d8c565b610581576040517f08c379a000000000000000000000000000000000000000000000000000000000815260040161057890612b39565b60405180910390fd5b6069600083815260200190815260200160002060009054906101000a900473ffffffffffffffffffffffffffffffffffffffff169050919050565b60006105c782610898565b90508073ffffffffffffffffffffffffffffffffffffffff168373ffffffffffffffffffffffffffffffffffffffff1603610637576040517f08c379a000000000000000000000000000000000000000000000000000000000815260040161062e90612bcb565b60405180910390fd5b8073ffffffffffffffffffffffffffffffffffffffff16610656610df8565b73ffffffffffffffffffffffffffffffffffffffff16148061068557506106848161067f610df8565b610c8e565b5b6106c4576040517f08c379a00000000000000000000000000000000000000000000000000000000081526004016106bb90612c5d565b60405180910390fd5b6106ce8383610e00565b505050565b600060019054906101000a900460ff166106fb5760008054906101000a900460ff1615610704565b610703610eb9565b5b610743576040517f08c379a000000000000000000000000000000000000000000000000000000000815260040161073a90612cef565b60405180910390fd5b60008060019054906101000a900460ff161590508015610793576001600060016101000a81548160ff02191690831515021790555060016000806101000a81548160ff0219169083151502179055505b61079d8383610eca565b6107a5610f27565b6107af8585610f78565b33609960006101000a81548173ffffffffffffffffffffffffffffffffffffffff021916908373ffffffffffffffffffffffffffffffffffffffff16021790555080156108115760008060016101000a81548160ff0219169083151502179055505b5050505050565b610829610823610df8565b8261104d565b610868576040517f08c379a000000000000000000000000000000000000000000000000000000000815260040161085f90612d81565b60405180910390fd5b61087383838361112b565b505050565b61089383838360405180602001604052806000815250610b85565b505050565b6000806067600084815260200190815260200160002060009054906101000a900473ffffffffffffffffffffffffffffffffffffffff169050600073ffffffffffffffffffffffffffffffffffffffff168173ffffffffffffffffffffffffffffffffffffffff1603610940576040517f08c379a000000000000000000000000000000000000000000000000000000000815260040161093790612e13565b60405180910390fd5b80915050919050565b60008073ffffffffffffffffffffffffffffffffffffffff168273ffffffffffffffffffffffffffffffffffffffff16036109b9576040517f08c379a00000000000000000000000000000000000000000000000000000000081526004016109b090612ea5565b60405180910390fd5b606860008373ffffffffffffffffffffffffffffffffffffffff1673ffffffffffffffffffffffffffffffffffffffff168152602001908152602001600020549050919050565b606060668054610a0f90612a96565b80601f0160208091040260200160405190810160405280929190818152602001828054610a3b90612a96565b8015610a885780601f10610a5d57610100808354040283529160200191610a88565b820191906000526020600020905b815481529060010190602001808311610a6b57829003601f168201915b5050505050905090565b610ad06040518060400160405280600781526020017f72756e6e696e6700000000000000000000000000000000000000000000000000815250611391565b6000665ba8f69b348000905080341015610b6157610b226040518060400160405280600781526020017f6661696c696e6700000000000000000000000000000000000000000000000000815250611391565b80346040517f921ecd9b000000000000000000000000000000000000000000000000000000008152600401610b58929190612ec5565b60405180910390fd5b610b6b338361142a565b5050565b610b81610b7a610df8565b8383611448565b5050565b610b96610b90610df8565b8361104d565b610bd5576040517f08c379a0000000000000000000000000000000000000000000000000000000008152600401610bcc90612d81565b60405180910390fd5b610be1848484846115b4565b50505050565b6060610bf282610d8c565b610c31576040517f08c379a0000000000000000000000000000000000000000000000000000000008152600401610c2890612f60565b60405180910390fd5b6000610c3b611610565b90506000815111610c5b5760405180602001604052806000815250610c86565b80610c6584611627565b604051602001610c76929190612fbc565b6040516020818303038152906040525b915050919050565b6000606a60008473ffffffffffffffffffffffffffffffffffffffff1673ffffffffffffffffffffffffffffffffffffffff16815260200190815260200160002060008373ffffffffffffffffffffffffffffffffffffffff1673ffffffffffffffffffffffffffffffffffffffff16815260200190815260200160002060009054906101000a900460ff16905092915050565b60007f01ffc9a7000000000000000000000000000000000000000000000000000000007bffffffffffffffffffffffffffffffffffffffffffffffffffffffff1916827bffffffffffffffffffffffffffffffffffffffffffffffffffffffff1916149050919050565b60008073ffffffffffffffffffffffffffffffffffffffff166067600084815260200190815260200160002060009054906101000a900473ffffffffffffffffffffffffffffffffffffffff1673ffffffffffffffffffffffffffffffffffffffff1614159050919050565b600033905090565b816069600083815260200190815260200160002060006101000a81548173ffffffffffffffffffffffffffffffffffffffff021916908373ffffffffffffffffffffffffffffffffffffffff160217905550808273ffffffffffffffffffffffffffffffffffffffff16610e7383610898565b73ffffffffffffffffffffffffffffffffffffffff167f8c5be1e5ebec7d5bd14f71427d1e84f3dd0314c0f7b2291e5b200ac8c7c3b92560405160405180910390a45050565b6000610ec430611787565b15905090565b600060019054906101000a900460ff16610f19576040517f08c379a0000000000000000000000000000000000000000000000000000000008152600401610f1090613052565b60405180910390fd5b610f2382826117aa565b5050565b600060019054906101000a900460ff16610f76576040517f08c379a0000000000000000000000000000000000000000000000000000000008152600401610f6d90613052565b60405180910390fd5b565b600060019054906101000a900460ff16610fc7576040517f08c379a0000000000000000000000000000000000000000000000000000000008152600401610fbe90613052565b60405180910390fd5b81609760006101000a81548173ffffffffffffffffffffffffffffffffffffffff021916908373ffffffffffffffffffffffffffffffffffffffff16021790555080609860006101000a81548173ffffffffffffffffffffffffffffffffffffffff021916908373ffffffffffffffffffffffffffffffffffffffff1602179055505050565b600061105882610d8c565b611097576040517f08c379a000000000000000000000000000000000000000000000000000000000815260040161108e906130e4565b60405180910390fd5b60006110a283610898565b90508073ffffffffffffffffffffffffffffffffffffffff168473ffffffffffffffffffffffffffffffffffffffff16148061111157508373ffffffffffffffffffffffffffffffffffffffff166110f984610537565b73ffffffffffffffffffffffffffffffffffffffff16145b8061112257506111218185610c8e565b5b91505092915050565b8273ffffffffffffffffffffffffffffffffffffffff1661114b82610898565b73ffffffffffffffffffffffffffffffffffffffff16146111a1576040517f08c379a000000000000000000000000000000000000000000000000000000000815260040161119890613176565b60405180910390fd5b600073ffffffffffffffffffffffffffffffffffffffff168273ffffffffffffffffffffffffffffffffffffffff1603611210576040517f08c379a000000000000000000000000000000000000000000000000000000000815260040161120790613208565b60405180910390fd5b61121b83838361182b565b611226600082610e00565b6001606860008573ffffffffffffffffffffffffffffffffffffffff1673ffffffffffffffffffffffffffffffffffffffff16815260200190815260200160002060008282546112769190613257565b925050819055506001606860008473ffffffffffffffffffffffffffffffffffffffff1673ffffffffffffffffffffffffffffffffffffffff16815260200190815260200160002060008282546112cd919061328b565b92505081905550816067600083815260200190815260200160002060006101000a81548173ffffffffffffffffffffffffffffffffffffffff021916908373ffffffffffffffffffffffffffffffffffffffff160217905550808273ffffffffffffffffffffffffffffffffffffffff168473ffffffffffffffffffffffffffffffffffffffff167fddf252ad1be2c89b69c2b068fc378daa952ba7f163c4a11628f55a4df523b3ef60405160405180910390a461138c838383611ac3565b505050565b611427816040516024016113a59190612450565b6040516020818303038152906040527f41304fac000000000000000000000000000000000000000000000000000000007bffffffffffffffffffffffffffffffffffffffffffffffffffffffff19166020820180517bffffffffffffffffffffffffffffffffffffffffffffffffffffffff8381831617835250505050611ac8565b50565b611444828260405180602001604052806000815250611af1565b5050565b8173ffffffffffffffffffffffffffffffffffffffff168373ffffffffffffffffffffffffffffffffffffffff16036114b6576040517f08c379a00000000000000000000000000000000000000000000000000000000081526004016114ad9061332d565b60405180910390fd5b80606a60008573ffffffffffffffffffffffffffffffffffffffff1673ffffffffffffffffffffffffffffffffffffffff16815260200190815260200160002060008473ffffffffffffffffffffffffffffffffffffffff1673ffffffffffffffffffffffffffffffffffffffff16815260200190815260200160002060006101000a81548160ff0219169083151502179055508173ffffffffffffffffffffffffffffffffffffffff168373ffffffffffffffffffffffffffffffffffffffff167f17307eab39ab6107e8899845ad3d59bd9653f200f220920489ca2b5937696c31836040516115a7919061239c565b60405180910390a3505050565b6115bf84848461112b565b6115cb84848484611b4c565b61160a576040517f08c379a0000000000000000000000000000000000000000000000000000000008152600401611601906133bf565b60405180910390fd5b50505050565b606060405180602001604052806000815250905090565b60606000820361166e576040518060400160405280600181526020017f30000000000000000000000000000000000000000000000000000000000000008152509050611782565b600082905060005b600082146116a0578080611689906133df565b915050600a826116999190613456565b9150611676565b60008167ffffffffffffffff8111156116bc576116bb612623565b5b6040519080825280601f01601f1916602001820160405280156116ee5781602001600182028036833780820191505090505b5090505b6000851461177b576001826117079190613257565b9150600a856117169190613487565b6030611722919061328b565b60f81b818381518110611738576117376134b8565b5b60200101907effffffffffffffffffffffffffffffffffffffffffffffffffffffffffffff1916908160001a905350600a856117749190613456565b94506116f2565b8093505050505b919050565b6000808273ffffffffffffffffffffffffffffffffffffffff163b119050919050565b600060019054906101000a900460ff166117f9576040517f08c379a00000000000000000000000000000000000000000000000000000000081526004016117f090613052565b60405180910390fd5b816065908051906020019061180f929190612245565b508060669080519060200190611826929190612245565b505050565b6118696040518060400160405280601481526020017f5f6265666f7265546f6b656e5472616e73666572000000000000000000000000815250611391565b600061187482611cd3565b905060006118a1609a600085815260200190815260200160002060009054906101000a900460801b611e33565b6118df6040518060400160405280601581526020017f72657175657374696e67206e657720706f6c6963790000000000000000000000815250611391565b600080609960009054906101000a900473ffffffffffffffffffffffffffffffffffffffff1673ffffffffffffffffffffffffffffffffffffffff1663e03aefc2876040518263ffffffff1660e01b815260040161193d9190612516565b6000604051808303816000875af115801561195c573d6000803e3d6000fd5b505050506040513d6000823e3d601f19601f820116820180604052508101906119859190613557565b915091506119c76040518060400160405280601e81526020017f63616c6c696e6720696e7465726e616c2063726561746520706f6c6963790000815250611391565b611a7d600360024262014ff063ffffffff16426119e4919061328b565b609960009054906101000a900473ffffffffffffffffffffffffffffffffffffffff1673ffffffffffffffffffffffffffffffffffffffff166309c1ba2e6040518163ffffffff1660e01b8152600401602060405180830381865afa158015611a51573d6000803e3d6000fd5b505050506040513d601f19601f82011682018060405250810190611a7591906135e4565b898888611e36565b925082609a600087815260200190815260200160002060006101000a8154816fffffffffffffffffffffffffffffffff021916908360801c021790555050505050505050565b505050565b60008151905060006a636f6e736f6c652e6c6f679050602083016000808483855afa5050505050565b611afb838361206c565b611b086000848484611b4c565b611b47576040517f08c379a0000000000000000000000000000000000000000000000000000000008152600401611b3e906133bf565b60405180910390fd5b505050565b6000611b6d8473ffffffffffffffffffffffffffffffffffffffff16611787565b15611cc6578373ffffffffffffffffffffffffffffffffffffffff1663150b7a02611b96610df8565b8786866040518563ffffffff1660e01b8152600401611bb89493929190613666565b6020604051808303816000875af1925050508015611bf457506040513d601f19601f82011682018060405250810190611bf191906136c7565b60015b611c76573d8060008114611c24576040519150601f19603f3d011682016040523d82523d6000602084013e611c29565b606091505b506000815103611c6e576040517f08c379a0000000000000000000000000000000000000000000000000000000008152600401611c65906133bf565b60405180910390fd5b805181602001fd5b63150b7a0260e01b7bffffffffffffffffffffffffffffffffffffffffffffffffffffffff1916817bffffffffffffffffffffffffffffffffffffffffffffffffffffffff191614915050611ccb565b600190505b949350505050565b606060008203611d1a576040518060400160405280600181526020017f30000000000000000000000000000000000000000000000000000000000000008152509050611e2e565b600082905060005b60008214611d4c578080611d35906133df565b915050600a82611d459190613456565b9150611d22565b60008167ffffffffffffffff811115611d6857611d67612623565b5b6040519080825280601f01601f191660200182016040528015611d9a5781602001600182028036833780820191505090505b5090505b60008514611e2757600182611db39190613257565b9150600a85611dc29190613487565b6030611dce919061328b565b60f81b818381518110611de457611de36134b8565b5b60200101907effffffffffffffffffffffffffffffffffffffffffffffffffffffffffffff1916908160001a905350600a85611e209190613456565b9450611d9e565b8093505050505b919050565b50565b6000609760009054906101000a900473ffffffffffffffffffffffffffffffffffffffff1673ffffffffffffffffffffffffffffffffffffffff1663351734bb86866040518060c001604052808e61ffff1681526020018d61ffff1681526020018881526020018781526020018c63ffffffff1681526020018b63ffffffff168152506040518463ffffffff1660e01b8152600401611ed79392919061380a565b6000604051808303816000875af1158015611ef6573d6000803e3d6000fd5b505050506040513d6000823e3d601f19601f82011682018060405250810190611f1f9190613917565b50809150506000609860009054906101000a900473ffffffffffffffffffffffffffffffffffffffff1673ffffffffffffffffffffffffffffffffffffffff166358db2a728b8a8a6040518463ffffffff1660e01b8152600401611f8593929190613991565b602060405180830381865afa158015611fa2573d6000803e3d6000fd5b505050506040513d601f19601f82011682018060405250810190611fc691906135e4565b9050609860009054906101000a900473ffffffffffffffffffffffffffffffffffffffff1673ffffffffffffffffffffffffffffffffffffffff16634f004041828460008e8d8d6040518763ffffffff1660e01b815260040161202d9594939291906139d7565b6000604051808303818588803b15801561204657600080fd5b505af115801561205a573d6000803e3d6000fd5b50505050505098975050505050505050565b600073ffffffffffffffffffffffffffffffffffffffff168273ffffffffffffffffffffffffffffffffffffffff16036120db576040517f08c379a00000000000000000000000000000000000000000000000000000000081526004016120d290613a76565b60405180910390fd5b6120e481610d8c565b15612124576040517f08c379a000000000000000000000000000000000000000000000000000000000815260040161211b90613ae2565b60405180910390fd5b6121306000838361182b565b6001606860008473ffffffffffffffffffffffffffffffffffffffff1673ffffffffffffffffffffffffffffffffffffffff1681526020019081526020016000206000828254612180919061328b565b92505081905550816067600083815260200190815260200160002060006101000a81548173ffffffffffffffffffffffffffffffffffffffff021916908373ffffffffffffffffffffffffffffffffffffffff160217905550808273ffffffffffffffffffffffffffffffffffffffff16600073ffffffffffffffffffffffffffffffffffffffff167fddf252ad1be2c89b69c2b068fc378daa952ba7f163c4a11628f55a4df523b3ef60405160405180910390a461224160008383611ac3565b5050565b82805461225190612a96565b90600052602060002090601f01602090048101928261227357600085556122ba565b82601f1061228c57805160ff19168380011785556122ba565b828001600101855582156122ba579182015b828111156122b957825182559160200191906001019061229e565b5b5090506122c791906122cb565b5090565b5b808211156122e45760008160009055506001016122cc565b5090565b6000604051905090565b600080fd5b600080fd5b60007fffffffff0000000000000000000000000000000000000000000000000000000082169050919050565b612331816122fc565b811461233c57600080fd5b50565b60008135905061234e81612328565b92915050565b60006020828403121561236a576123696122f2565b5b60006123788482850161233f565b91505092915050565b60008115159050919050565b61239681612381565b82525050565b60006020820190506123b1600083018461238d565b92915050565b600081519050919050565b600082825260208201905092915050565b60005b838110156123f15780820151818401526020810190506123d6565b83811115612400576000848401525b50505050565b6000601f19601f8301169050919050565b6000612422826123b7565b61242c81856123c2565b935061243c8185602086016123d3565b61244581612406565b840191505092915050565b6000602082019050818103600083015261246a8184612417565b905092915050565b6000819050919050565b61248581612472565b811461249057600080fd5b50565b6000813590506124a28161247c565b92915050565b6000602082840312156124be576124bd6122f2565b5b60006124cc84828501612493565b91505092915050565b600073ffffffffffffffffffffffffffffffffffffffff82169050919050565b6000612500826124d5565b9050919050565b612510816124f5565b82525050565b600060208201905061252b6000830184612507565b92915050565b61253a816124f5565b811461254557600080fd5b50565b60008135905061255781612531565b92915050565b60008060408385031215612574576125736122f2565b5b600061258285828601612548565b925050602061259385828601612493565b9150509250929050565b60006125a8826124f5565b9050919050565b6125b88161259d565b81146125c357600080fd5b50565b6000813590506125d5816125af565b92915050565b60006125e6826124f5565b9050919050565b6125f6816125db565b811461260157600080fd5b50565b600081359050612613816125ed565b92915050565b600080fd5b600080fd5b7f4e487b7100000000000000000000000000000000000000000000000000000000600052604160045260246000fd5b61265b82612406565b810181811067ffffffffffffffff8211171561267a57612679612623565b5b80604052505050565b600061268d6122e8565b90506126998282612652565b919050565b600067ffffffffffffffff8211156126b9576126b8612623565b5b6126c282612406565b9050602081019050919050565b82818337600083830152505050565b60006126f16126ec8461269e565b612683565b90508281526020810184848401111561270d5761270c61261e565b5b6127188482856126cf565b509392505050565b600082601f83011261273557612734612619565b5b81356127458482602086016126de565b91505092915050565b60008060008060808587031215612768576127676122f2565b5b6000612776878288016125c6565b945050602061278787828801612604565b935050604085013567ffffffffffffffff8111156127a8576127a76122f7565b5b6127b487828801612720565b925050606085013567ffffffffffffffff8111156127d5576127d46122f7565b5b6127e187828801612720565b91505092959194509250565b600080600060608486031215612806576128056122f2565b5b600061281486828701612548565b935050602061282586828701612548565b925050604061283686828701612493565b9150509250925092565b600060208284031215612856576128556122f2565b5b600061286484828501612548565b91505092915050565b61287681612472565b82525050565b6000602082019050612891600083018461286d565b92915050565b6128a081612381565b81146128ab57600080fd5b50565b6000813590506128bd81612897565b92915050565b600080604083850312156128da576128d96122f2565b5b60006128e885828601612548565b92505060206128f9858286016128ae565b9150509250929050565b600067ffffffffffffffff82111561291e5761291d612623565b5b61292782612406565b9050602081019050919050565b600061294761294284612903565b612683565b9050828152602081018484840111156129635761296261261e565b5b61296e8482856126cf565b509392505050565b600082601f83011261298b5761298a612619565b5b813561299b848260208601612934565b91505092915050565b600080600080608085870312156129be576129bd6122f2565b5b60006129cc87828801612548565b94505060206129dd87828801612548565b93505060406129ee87828801612493565b925050606085013567ffffffffffffffff811115612a0f57612a0e6122f7565b5b612a1b87828801612976565b91505092959194509250565b60008060408385031215612a3e57612a3d6122f2565b5b6000612a4c85828601612548565b9250506020612a5d85828601612548565b9150509250929050565b7f4e487b7100000000000000000000000000000000000000000000000000000000600052602260045260246000fd5b60006002820490506001821680612aae57607f821691505b602082108103612ac157612ac0612a67565b5b50919050565b7f4552433732313a20617070726f76656420717565727920666f72206e6f6e657860008201527f697374656e7420746f6b656e0000000000000000000000000000000000000000602082015250565b6000612b23602c836123c2565b9150612b2e82612ac7565b604082019050919050565b60006020820190508181036000830152612b5281612b16565b9050919050565b7f4552433732313a20617070726f76616c20746f2063757272656e74206f776e6560008201527f7200000000000000000000000000000000000000000000000000000000000000602082015250565b6000612bb56021836123c2565b9150612bc082612b59565b604082019050919050565b60006020820190508181036000830152612be481612ba8565b9050919050565b7f4552433732313a20617070726f76652063616c6c6572206973206e6f74206f7760008201527f6e6572206e6f7220617070726f76656420666f7220616c6c0000000000000000602082015250565b6000612c476038836123c2565b9150612c5282612beb565b604082019050919050565b60006020820190508181036000830152612c7681612c3a565b9050919050565b7f496e697469616c697a61626c653a20636f6e747261637420697320616c72656160008201527f647920696e697469616c697a6564000000000000000000000000000000000000602082015250565b6000612cd9602e836123c2565b9150612ce482612c7d565b604082019050919050565b60006020820190508181036000830152612d0881612ccc565b9050919050565b7f4552433732313a207472616e736665722063616c6c6572206973206e6f74206f60008201527f776e6572206e6f7220617070726f766564000000000000000000000000000000602082015250565b6000612d6b6031836123c2565b9150612d7682612d0f565b604082019050919050565b60006020820190508181036000830152612d9a81612d5e565b9050919050565b7f4552433732313a206f776e657220717565727920666f72206e6f6e657869737460008201527f656e7420746f6b656e0000000000000000000000000000000000000000000000602082015250565b6000612dfd6029836123c2565b9150612e0882612da1565b604082019050919050565b60006020820190508181036000830152612e2c81612df0565b9050919050565b7f4552433732313a2062616c616e636520717565727920666f7220746865207a6560008201527f726f206164647265737300000000000000000000000000000000000000000000602082015250565b6000612e8f602a836123c2565b9150612e9a82612e33565b604082019050919050565b60006020820190508181036000830152612ebe81612e82565b9050919050565b6000604082019050612eda600083018561286d565b612ee7602083018461286d565b9392505050565b7f4552433732314d657461646174613a2055524920717565727920666f72206e6f60008201527f6e6578697374656e7420746f6b656e0000000000000000000000000000000000602082015250565b6000612f4a602f836123c2565b9150612f5582612eee565b604082019050919050565b60006020820190508181036000830152612f7981612f3d565b9050919050565b600081905092915050565b6000612f96826123b7565b612fa08185612f80565b9350612fb08185602086016123d3565b80840191505092915050565b6000612fc88285612f8b565b9150612fd48284612f8b565b91508190509392505050565b7f496e697469616c697a61626c653a20636f6e7472616374206973206e6f74206960008201527f6e697469616c697a696e67000000000000000000000000000000000000000000602082015250565b600061303c602b836123c2565b915061304782612fe0565b604082019050919050565b6000602082019050818103600083015261306b8161302f565b9050919050565b7f4552433732313a206f70657261746f7220717565727920666f72206e6f6e657860008201527f697374656e7420746f6b656e0000000000000000000000000000000000000000602082015250565b60006130ce602c836123c2565b91506130d982613072565b604082019050919050565b600060208201905081810360008301526130fd816130c1565b9050919050565b7f4552433732313a207472616e736665722066726f6d20696e636f72726563742060008201527f6f776e6572000000000000000000000000000000000000000000000000000000602082015250565b60006131606025836123c2565b915061316b82613104565b604082019050919050565b6000602082019050818103600083015261318f81613153565b9050919050565b7f4552433732313a207472616e7366657220746f20746865207a65726f2061646460008201527f7265737300000000000000000000000000000000000000000000000000000000602082015250565b60006131f26024836123c2565b91506131fd82613196565b604082019050919050565b60006020820190508181036000830152613221816131e5565b9050919050565b7f4e487b7100000000000000000000000000000000000000000000000000000000600052601160045260246000fd5b600061326282612472565b915061326d83612472565b9250828210156132805761327f613228565b5b828203905092915050565b600061329682612472565b91506132a183612472565b9250827fffffffffffffffffffffffffffffffffffffffffffffffffffffffffffffffff038211156132d6576132d5613228565b5b828201905092915050565b7f4552433732313a20617070726f766520746f2063616c6c657200000000000000600082015250565b60006133176019836123c2565b9150613322826132e1565b602082019050919050565b600060208201905081810360008301526133468161330a565b9050919050565b7f4552433732313a207472616e7366657220746f206e6f6e20455243373231526560008201527f63656976657220696d706c656d656e7465720000000000000000000000000000602082015250565b60006133a96032836123c2565b91506133b48261334d565b604082019050919050565b600060208201905081810360008301526133d88161339c565b9050919050565b60006133ea82612472565b91507fffffffffffffffffffffffffffffffffffffffffffffffffffffffffffffffff820361341c5761341b613228565b5b600182019050919050565b7f4e487b7100000000000000000000000000000000000000000000000000000000600052601260045260246000fd5b600061346182612472565b915061346c83612472565b92508261347c5761347b613427565b5b828204905092915050565b600061349282612472565b915061349d83612472565b9250826134ad576134ac613427565b5b828206905092915050565b7f4e487b7100000000000000000000000000000000000000000000000000000000600052603260045260246000fd5b60006134fa6134f584612903565b612683565b9050828152602081018484840111156135165761351561261e565b5b6135218482856123d3565b509392505050565b600082601f83011261353e5761353d612619565b5b815161354e8482602086016134e7565b91505092915050565b6000806040838503121561356e5761356d6122f2565b5b600083015167ffffffffffffffff81111561358c5761358b6122f7565b5b61359885828601613529565b925050602083015167ffffffffffffffff8111156135b9576135b86122f7565b5b6135c585828601613529565b9150509250929050565b6000815190506135de8161247c565b92915050565b6000602082840312156135fa576135f96122f2565b5b6000613608848285016135cf565b91505092915050565b600081519050919050565b600082825260208201905092915050565b600061363882613611565b613642818561361c565b93506136528185602086016123d3565b61365b81612406565b840191505092915050565b600060808201905061367b6000830187612507565b6136886020830186612507565b613695604083018561286d565b81810360608301526136a7818461362d565b905095945050505050565b6000815190506136c181612328565b92915050565b6000602082840312156136dd576136dc6122f2565b5b60006136eb848285016136b2565b91505092915050565b600061ffff82169050919050565b61370b816136f4565b82525050565b600082825260208201905092915050565b600061372d82613611565b6137378185613711565b93506137478185602086016123d3565b61375081612406565b840191505092915050565b600063ffffffff82169050919050565b6137748161375b565b82525050565b600060c0830160008301516137926000860182613702565b5060208301516137a56020860182613702565b50604083015184820360408601526137bd8282613722565b915050606083015184820360608601526137d78282613722565b91505060808301516137ec608086018261376b565b5060a08301516137ff60a086018261376b565b508091505092915050565b600060608201905061381f600083018661286d565b81810360208301526138318185612417565b90508181036040830152613845818461377a565b9050949350505050565b60007fffffffffffffffffffffffffffffffff0000000000000000000000000000000082169050919050565b6138848161384f565b811461388f57600080fd5b50565b6000815190506138a18161387b565b92915050565b60006138ba6138b58461269e565b612683565b9050828152602081018484840111156138d6576138d561261e565b5b6138e18482856123d3565b509392505050565b600082601f8301126138fe576138fd612619565b5b815161390e8482602086016138a7565b91505092915050565b6000806040838503121561392e5761392d6122f2565b5b600061393c85828601613892565b925050602083015167ffffffffffffffff81111561395d5761395c6122f7565b5b613969858286016138e9565b9150509250929050565b61397c816136f4565b82525050565b61398b8161375b565b82525050565b60006060820190506139a66000830186613973565b6139b36020830185613982565b6139c06040830184613982565b949350505050565b6139d18161384f565b82525050565b600060a0820190506139ec60008301886139c8565b6139f96020830187612507565b613a066040830186613973565b613a136060830185613982565b613a206080830184613982565b9695505050505050565b7f4552433732313a206d696e7420746f20746865207a65726f2061646472657373600082015250565b6000613a606020836123c2565b9150613a6b82613a2a565b602082019050919050565b60006020820190508181036000830152613a8f81613a53565b9050919050565b7f4552433732313a20746f6b656e20616c7265616479206d696e74656400000000600082015250565b6000613acc601c836123c2565b9150613ad782613a96565b602082019050919050565b60006020820190508181036000830152613afb81613abf565b905091905056fea2646970667358221220107f1670b77de62e8e9c8f966a5c46459e404fad0ad0cf69d6549c7c09d1409064736f6c634300080d0033",
  "devdoc": {
    "kind": "dev",
    "methods": {
      "approve(address,uint256)": {
        "details": "See {IERC721-approve}."
      },
      "balanceOf(address)": {
        "details": "See {IERC721-balanceOf}."
      },
      "getApproved(uint256)": {
        "details": "See {IERC721-getApproved}."
      },
      "isApprovedForAll(address,address)": {
        "details": "See {IERC721-isApprovedForAll}."
      },
      "name()": {
        "details": "See {IERC721Metadata-name}."
      },
      "ownerOf(uint256)": {
        "details": "See {IERC721-ownerOf}."
      },
      "safeTransferFrom(address,address,uint256)": {
        "details": "See {IERC721-safeTransferFrom}."
      },
      "safeTransferFrom(address,address,uint256,bytes)": {
        "details": "See {IERC721-safeTransferFrom}."
      },
      "setApprovalForAll(address,bool)": {
        "details": "See {IERC721-setApprovalForAll}."
      },
      "supportsInterface(bytes4)": {
        "details": "See {IERC165-supportsInterface}."
      },
      "symbol()": {
        "details": "See {IERC721Metadata-symbol}."
      },
      "tokenURI(uint256)": {
        "details": "See {IERC721Metadata-tokenURI}."
      },
      "transferFrom(address,address,uint256)": {
        "details": "See {IERC721-transferFrom}."
      }
    },
    "version": 1
  },
  "userdoc": {
    "kind": "user",
    "methods": {},
    "version": 1
  },
  "storageLayout": {
    "storage": [
      {
        "astId": 6,
        "contract": "contracts/v2/OpenDRM721.sol:OpenDRM721v2",
        "label": "_initialized",
        "offset": 0,
        "slot": "0",
        "type": "t_bool"
      },
      {
        "astId": 9,
        "contract": "contracts/v2/OpenDRM721.sol:OpenDRM721v2",
        "label": "_initializing",
        "offset": 1,
        "slot": "0",
        "type": "t_bool"
      },
      {
        "astId": 1409,
        "contract": "contracts/v2/OpenDRM721.sol:OpenDRM721v2",
        "label": "__gap",
        "offset": 0,
        "slot": "1",
        "type": "t_array(t_uint256)50_storage"
      },
      {
        "astId": 1656,
        "contract": "contracts/v2/OpenDRM721.sol:OpenDRM721v2",
        "label": "__gap",
        "offset": 0,
        "slot": "51",
        "type": "t_array(t_uint256)50_storage"
      },
      {
        "astId": 102,
        "contract": "contracts/v2/OpenDRM721.sol:OpenDRM721v2",
        "label": "_name",
        "offset": 0,
        "slot": "101",
        "type": "t_string_storage"
      },
      {
        "astId": 104,
        "contract": "contracts/v2/OpenDRM721.sol:OpenDRM721v2",
        "label": "_symbol",
        "offset": 0,
        "slot": "102",
        "type": "t_string_storage"
      },
      {
        "astId": 108,
        "contract": "contracts/v2/OpenDRM721.sol:OpenDRM721v2",
        "label": "_owners",
        "offset": 0,
        "slot": "103",
        "type": "t_mapping(t_uint256,t_address)"
      },
      {
        "astId": 112,
        "contract": "contracts/v2/OpenDRM721.sol:OpenDRM721v2",
        "label": "_balances",
        "offset": 0,
        "slot": "104",
        "type": "t_mapping(t_address,t_uint256)"
      },
      {
        "astId": 116,
        "contract": "contracts/v2/OpenDRM721.sol:OpenDRM721v2",
        "label": "_tokenApprovals",
        "offset": 0,
        "slot": "105",
        "type": "t_mapping(t_uint256,t_address)"
      },
      {
        "astId": 122,
        "contract": "contracts/v2/OpenDRM721.sol:OpenDRM721v2",
        "label": "_operatorApprovals",
        "offset": 0,
        "slot": "106",
        "type": "t_mapping(t_address,t_mapping(t_address,t_bool))"
      },
      {
        "astId": 963,
        "contract": "contracts/v2/OpenDRM721.sol:OpenDRM721v2",
        "label": "__gap",
        "offset": 0,
        "slot": "107",
        "type": "t_array(t_uint256)44_storage"
      },
      {
        "astId": 2972,
        "contract": "contracts/v2/OpenDRM721.sol:OpenDRM721v2",
        "label": "_dkgManager",
        "offset": 0,
        "slot": "151",
        "type": "t_contract(DKGSubscriptionManager)2675"
      },
      {
        "astId": 2975,
        "contract": "contracts/v2/OpenDRM721.sol:OpenDRM721v2",
        "label": "_preManager",
        "offset": 0,
        "slot": "152",
        "type": "t_contract(IPRESubscriptionManager)2734"
      },
      {
        "astId": 2770,
        "contract": "contracts/v2/OpenDRM721.sol:OpenDRM721v2",
        "label": "_openDrmCoordinator",
        "offset": 0,
        "slot": "153",
        "type": "t_contract(OpenDRMCoordinator)3263"
      },
      {
        "astId": 2774,
        "contract": "contracts/v2/OpenDRM721.sol:OpenDRM721v2",
        "label": "policies",
        "offset": 0,
        "slot": "154",
        "type": "t_mapping(t_uint256,t_bytes16)"
      }
    ],
    "types": {
      "t_address": {
        "encoding": "inplace",
        "label": "address",
        "numberOfBytes": "20"
      },
      "t_array(t_uint256)44_storage": {
        "base": "t_uint256",
        "encoding": "inplace",
        "label": "uint256[44]",
        "numberOfBytes": "1408"
      },
      "t_array(t_uint256)50_storage": {
        "base": "t_uint256",
        "encoding": "inplace",
        "label": "uint256[50]",
        "numberOfBytes": "1600"
      },
      "t_bool": {
        "encoding": "inplace",
        "label": "bool",
        "numberOfBytes": "1"
      },
      "t_bytes16": {
        "encoding": "inplace",
        "label": "bytes16",
        "numberOfBytes": "16"
      },
      "t_contract(DKGSubscriptionManager)2675": {
        "encoding": "inplace",
        "label": "contract DKGSubscriptionManager",
        "numberOfBytes": "20"
      },
      "t_contract(IPRESubscriptionManager)2734": {
        "encoding": "inplace",
        "label": "contract IPRESubscriptionManager",
        "numberOfBytes": "20"
      },
      "t_contract(OpenDRMCoordinator)3263": {
        "encoding": "inplace",
        "label": "contract OpenDRMCoordinator",
        "numberOfBytes": "20"
      },
      "t_mapping(t_address,t_bool)": {
        "encoding": "mapping",
        "key": "t_address",
        "label": "mapping(address => bool)",
        "numberOfBytes": "32",
        "value": "t_bool"
      },
      "t_mapping(t_address,t_mapping(t_address,t_bool))": {
        "encoding": "mapping",
        "key": "t_address",
        "label": "mapping(address => mapping(address => bool))",
        "numberOfBytes": "32",
        "value": "t_mapping(t_address,t_bool)"
      },
      "t_mapping(t_address,t_uint256)": {
        "encoding": "mapping",
        "key": "t_address",
        "label": "mapping(address => uint256)",
        "numberOfBytes": "32",
        "value": "t_uint256"
      },
      "t_mapping(t_uint256,t_address)": {
        "encoding": "mapping",
        "key": "t_uint256",
        "label": "mapping(uint256 => address)",
        "numberOfBytes": "32",
        "value": "t_address"
      },
      "t_mapping(t_uint256,t_bytes16)": {
        "encoding": "mapping",
        "key": "t_uint256",
        "label": "mapping(uint256 => bytes16)",
        "numberOfBytes": "32",
        "value": "t_bytes16"
      },
      "t_string_storage": {
        "encoding": "bytes",
        "label": "string",
        "numberOfBytes": "32"
      },
      "t_uint256": {
        "encoding": "inplace",
        "label": "uint256",
        "numberOfBytes": "32"
      }
    }
  }
}