{
  "address": "0xEe4ac827F80167B6526EE32Ba75eBB9669665C14",
  "abi": [
    {
      "inputs": [
        {
          "internalType": "contract DKGSubscriptionManager",
          "name": "_dkgManager",
          "type": "address"
        },
        {
          "internalType": "contract IPRESubscriptionManager",
          "name": "_preManager",
          "type": "address"
        },
        {
          "internalType": "address",
          "name": "_odrm721Implementation",
          "type": "address"
        },
        {
          "internalType": "uint16",
          "name": "_dkgNodes",
          "type": "uint16"
        },
        {
          "internalType": "uint32",
          "name": "_duration",
          "type": "uint32"
        }
      ],
      "stateMutability": "payable",
      "type": "constructor"
    },
    {
      "inputs": [
        {
          "internalType": "address",
          "name": "caller",
          "type": "address"
        }
      ],
      "name": "NotChildRequest",
      "type": "error"
    },
    {
      "inputs": [
        {
          "internalType": "address",
          "name": "user",
          "type": "address"
        }
      ],
      "name": "checkRegistry",
      "outputs": [
        {
          "internalType": "bytes",
          "name": "verifyingKey",
          "type": "bytes"
        },
        {
          "internalType": "bytes",
          "name": "decryptingKey",
          "type": "bytes"
        }
      ],
      "stateMutability": "nonpayable",
      "type": "function"
    },
    {
      "inputs": [
        {
          "internalType": "string",
          "name": "_name",
          "type": "string"
        },
        {
          "internalType": "string",
          "name": "_symbol",
          "type": "string"
        }
      ],
      "name": "deployOpenDRM",
      "outputs": [],
      "stateMutability": "nonpayable",
      "type": "function"
    },
    {
      "inputs": [],
      "name": "dkgManager",
      "outputs": [
        {
          "internalType": "contract DKGSubscriptionManager",
          "name": "",
          "type": "address"
        }
      ],
      "stateMutability": "view",
      "type": "function"
    },
    {
      "inputs": [],
      "name": "getNextDeployment",
      "outputs": [
        {
          "internalType": "address",
          "name": "deployment",
          "type": "address"
        }
      ],
      "stateMutability": "view",
      "type": "function"
    },
    {
      "inputs": [],
      "name": "odrm721Implementation",
      "outputs": [
        {
          "internalType": "address",
          "name": "",
          "type": "address"
        }
      ],
      "stateMutability": "view",
      "type": "function"
    },
    {
      "inputs": [],
      "name": "preManager",
      "outputs": [
        {
          "internalType": "contract IPRESubscriptionManager",
          "name": "",
          "type": "address"
        }
      ],
      "stateMutability": "view",
      "type": "function"
    },
    {
      "inputs": [
        {
          "internalType": "bytes",
          "name": "_verifyingKey",
          "type": "bytes"
        },
        {
          "internalType": "bytes",
          "name": "_decryptingKey",
          "type": "bytes"
        }
      ],
      "name": "register",
      "outputs": [],
      "stateMutability": "nonpayable",
      "type": "function"
    },
    {
      "inputs": [
        {
          "internalType": "address",
          "name": "",
          "type": "address"
        }
      ],
      "name": "registry",
      "outputs": [
        {
          "internalType": "bytes",
          "name": "verifyingKey",
          "type": "bytes"
        },
        {
          "internalType": "bytes",
          "name": "decryptingKey",
          "type": "bytes"
        }
      ],
      "stateMutability": "view",
      "type": "function"
    },
    {
      "inputs": [],
      "name": "subscriptionId",
      "outputs": [
        {
          "internalType": "uint256",
          "name": "",
          "type": "uint256"
        }
      ],
      "stateMutability": "view",
      "type": "function"
    }
  ],
  "transactionHash": "0x76852e35e8491e9e10a68412c81d979996d390ee3b26973f48fa57d8bf62d0cd",
  "args": [
    "0x2fE22B86F9A4D6a8ad2Ea5FD370Fbf41d818A845",
    "0xb9015d7B35Ce7c81ddE38eF7136Baa3B1044f313",
    "0xe72Da2C779E358Df948809EA11F47fC2f9184715",
    3,
    31536000
  ],
  "solcInputHash": "21350d650e0a7cbb125b4b6df5ebfd01",
  "bytecode": "0x608060405262015180600555604051620015873803806200158783398181016040528101906200003091906200031b565b846000806101000a81548173ffffffffffffffffffffffffffffffffffffffff021916908373ffffffffffffffffffffffffffffffffffffffff16021790555083600160006101000a81548173ffffffffffffffffffffffffffffffffffffffff021916908373ffffffffffffffffffffffffffffffffffffffff16021790555082600260006101000a81548173ffffffffffffffffffffffffffffffffffffffff021916908373ffffffffffffffffffffffffffffffffffffffff16021790555060008054906101000a900473ffffffffffffffffffffffffffffffffffffffff1673ffffffffffffffffffffffffffffffffffffffff166366a699a13484846040518463ffffffff1660e01b815260040162000150929190620003c5565b60206040518083038185885af11580156200016f573d6000803e3d6000fd5b50505050506040513d601f19601f820116820180604052508101906200019691906200042d565b60048190555050505050506200045f565b600080fd5b600073ffffffffffffffffffffffffffffffffffffffff82169050919050565b6000620001d982620001ac565b9050919050565b6000620001ed82620001cc565b9050919050565b620001ff81620001e0565b81146200020b57600080fd5b50565b6000815190506200021f81620001f4565b92915050565b60006200023282620001cc565b9050919050565b620002448162000225565b81146200025057600080fd5b50565b600081519050620002648162000239565b92915050565b6200027581620001cc565b81146200028157600080fd5b50565b60008151905062000295816200026a565b92915050565b600061ffff82169050919050565b620002b4816200029b565b8114620002c057600080fd5b50565b600081519050620002d481620002a9565b92915050565b600063ffffffff82169050919050565b620002f581620002da565b81146200030157600080fd5b50565b6000815190506200031581620002ea565b92915050565b600080600080600060a086880312156200033a5762000339620001a7565b5b60006200034a888289016200020e565b95505060206200035d8882890162000253565b9450506040620003708882890162000284565b93505060606200038388828901620002c3565b9250506080620003968882890162000304565b9150509295509295909350565b620003ae816200029b565b82525050565b620003bf81620002da565b82525050565b6000604082019050620003dc6000830185620003a3565b620003eb6020830184620003b4565b9392505050565b6000819050919050565b6200040781620003f2565b81146200041357600080fd5b50565b6000815190506200042781620003fc565b92915050565b600060208284031215620004465762000445620001a7565b5b6000620004568482850162000416565b91505092915050565b611118806200046f6000396000f3fe608060405234801561001057600080fd5b50600436106100935760003560e01c806321e521391161006657806321e52139146101235780633019cc6414610141578063a3747fef1461015d578063bd7a45c914610179578063e03aefc21461019757610093565b8063038defd714610098578063052952d6146100c957806309c1ba2e146100e75780631425083214610105575b600080fd5b6100b260048036038101906100ad9190610aa6565b6101c8565b6040516100c0929190610b6c565b60405180910390f35b6100d16102fc565b6040516100de9190610bb2565b60405180910390f35b6100ef610322565b6040516100fc9190610be6565b60405180910390f35b61010d610328565b60405161011a9190610bb2565b60405180910390f35b61012b610360565b6040516101389190610c60565b60405180910390f35b61015b60048036038101906101569190610db0565b610386565b005b61017760048036038101906101729190610e88565b61055a565b005b610181610679565b60405161018e9190610f2a565b60405180910390f35b6101b160048036038101906101ac9190610aa6565b61069d565b6040516101bf929190610b6c565b60405180910390f35b60076020528060005260406000206000915090508060000180546101eb90610f74565b80601f016020809104026020016040519081016040528092919081815260200182805461021790610f74565b80156102645780601f1061023957610100808354040283529160200191610264565b820191906000526020600020905b81548152906001019060200180831161024757829003601f168201915b50505050509080600101805461027990610f74565b80601f01602080910402602001604051908101604052809291908181526020018280546102a590610f74565b80156102f25780601f106102c7576101008083540402835291602001916102f2565b820191906000526020600020905b8154815290600101906020018083116102d557829003601f168201915b5050505050905082565b600260009054906101000a900473ffffffffffffffffffffffffffffffffffffffff1681565b60045481565b600061035b600260009054906101000a900473ffffffffffffffffffffffffffffffffffffffff1660035460001b610826565b905090565b600160009054906101000a900473ffffffffffffffffffffffffffffffffffffffff1681565b60006103b9600260009054906101000a900473ffffffffffffffffffffffffffffffffffffffff1660035460001b61083b565b90508073ffffffffffffffffffffffffffffffffffffffff16632016a0d260008054906101000a900473ffffffffffffffffffffffffffffffffffffffff16600160009054906101000a900473ffffffffffffffffffffffffffffffffffffffff1686866040518563ffffffff1660e01b815260040161043c9493929190610ffa565b600060405180830381600087803b15801561045657600080fd5b505af115801561046a573d6000803e3d6000fd5b5050505060008054906101000a900473ffffffffffffffffffffffffffffffffffffffff1673ffffffffffffffffffffffffffffffffffffffff1663bec4c08c600454836040518363ffffffff1660e01b81526004016104cb92919061104d565b600060405180830381600087803b1580156104e557600080fd5b505af11580156104f9573d6000803e3d6000fd5b505050506001600660008373ffffffffffffffffffffffffffffffffffffffff1673ffffffffffffffffffffffffffffffffffffffff16815260200190815260200160002060006101000a81548160ff021916908315150217905550505050565b604051806040016040528085858080601f016020809104026020016040519081016040528093929190818152602001838380828437600081840152601f19601f82011690508083019250505050505050815260200183838080601f016020809104026020016040519081016040528093929190818152602001838380828437600081840152601f19601f82011690508083019250505050505050815250600760003373ffffffffffffffffffffffffffffffffffffffff1673ffffffffffffffffffffffffffffffffffffffff1681526020019081526020016000206000820151816000019080519060200190610652929190610991565b50602082015181600101908051906020019061066f929190610991565b5090505050505050565b60008054906101000a900473ffffffffffffffffffffffffffffffffffffffff1681565b6060806000600760008573ffffffffffffffffffffffffffffffffffffffff1673ffffffffffffffffffffffffffffffffffffffff1681526020019081526020016000206040518060400160405290816000820180546106fc90610f74565b80601f016020809104026020016040519081016040528092919081815260200182805461072890610f74565b80156107755780601f1061074a57610100808354040283529160200191610775565b820191906000526020600020905b81548152906001019060200180831161075857829003601f168201915b5050505050815260200160018201805461078e90610f74565b80601f01602080910402602001604051908101604052809291908181526020018280546107ba90610f74565b80156108075780601f106107dc57610100808354040283529160200191610807565b820191906000526020600020905b8154815290600101906020018083116107ea57829003601f168201915b5050505050815250509050806000015181602001519250925050915091565b6000610833838330610911565b905092915050565b60006040517f3d602d80600a3d3981f3363d3d373d3d3d363d7300000000000000000000000081528360601b60148201527f5af43d82803e903d91602b57fd5bf300000000000000000000000000000000006028820152826037826000f5915050600073ffffffffffffffffffffffffffffffffffffffff168173ffffffffffffffffffffffffffffffffffffffff160361090b576040517f08c379a0000000000000000000000000000000000000000000000000000000008152600401610902906110c2565b60405180910390fd5b92915050565b60006040517f3d602d80600a3d3981f3363d3d373d3d3d363d7300000000000000000000000081528460601b60148201527f5af43d82803e903d91602b57fd5bf3ff0000000000000000000000000000000060288201528260601b603882015283604c82015260378120606c820152605560378201209150509392505050565b82805461099d90610f74565b90600052602060002090601f0160209004810192826109bf5760008555610a06565b82601f106109d857805160ff1916838001178555610a06565b82800160010185558215610a06579182015b82811115610a055782518255916020019190600101906109ea565b5b509050610a139190610a17565b5090565b5b80821115610a30576000816000905550600101610a18565b5090565b6000604051905090565b600080fd5b600080fd5b600073ffffffffffffffffffffffffffffffffffffffff82169050919050565b6000610a7382610a48565b9050919050565b610a8381610a68565b8114610a8e57600080fd5b50565b600081359050610aa081610a7a565b92915050565b600060208284031215610abc57610abb610a3e565b5b6000610aca84828501610a91565b91505092915050565b600081519050919050565b600082825260208201905092915050565b60005b83811015610b0d578082015181840152602081019050610af2565b83811115610b1c576000848401525b50505050565b6000601f19601f8301169050919050565b6000610b3e82610ad3565b610b488185610ade565b9350610b58818560208601610aef565b610b6181610b22565b840191505092915050565b60006040820190508181036000830152610b868185610b33565b90508181036020830152610b9a8184610b33565b90509392505050565b610bac81610a68565b82525050565b6000602082019050610bc76000830184610ba3565b92915050565b6000819050919050565b610be081610bcd565b82525050565b6000602082019050610bfb6000830184610bd7565b92915050565b6000819050919050565b6000610c26610c21610c1c84610a48565b610c01565b610a48565b9050919050565b6000610c3882610c0b565b9050919050565b6000610c4a82610c2d565b9050919050565b610c5a81610c3f565b82525050565b6000602082019050610c756000830184610c51565b92915050565b600080fd5b600080fd5b7f4e487b7100000000000000000000000000000000000000000000000000000000600052604160045260246000fd5b610cbd82610b22565b810181811067ffffffffffffffff82111715610cdc57610cdb610c85565b5b80604052505050565b6000610cef610a34565b9050610cfb8282610cb4565b919050565b600067ffffffffffffffff821115610d1b57610d1a610c85565b5b610d2482610b22565b9050602081019050919050565b82818337600083830152505050565b6000610d53610d4e84610d00565b610ce5565b905082815260208101848484011115610d6f57610d6e610c80565b5b610d7a848285610d31565b509392505050565b600082601f830112610d9757610d96610c7b565b5b8135610da7848260208601610d40565b91505092915050565b60008060408385031215610dc757610dc6610a3e565b5b600083013567ffffffffffffffff811115610de557610de4610a43565b5b610df185828601610d82565b925050602083013567ffffffffffffffff811115610e1257610e11610a43565b5b610e1e85828601610d82565b9150509250929050565b600080fd5b600080fd5b60008083601f840112610e4857610e47610c7b565b5b8235905067ffffffffffffffff811115610e6557610e64610e28565b5b602083019150836001820283011115610e8157610e80610e2d565b5b9250929050565b60008060008060408587031215610ea257610ea1610a3e565b5b600085013567ffffffffffffffff811115610ec057610ebf610a43565b5b610ecc87828801610e32565b9450945050602085013567ffffffffffffffff811115610eef57610eee610a43565b5b610efb87828801610e32565b925092505092959194509250565b6000610f1482610c2d565b9050919050565b610f2481610f09565b82525050565b6000602082019050610f3f6000830184610f1b565b92915050565b7f4e487b7100000000000000000000000000000000000000000000000000000000600052602260045260246000fd5b60006002820490506001821680610f8c57607f821691505b602082108103610f9f57610f9e610f45565b5b50919050565b600081519050919050565b600082825260208201905092915050565b6000610fcc82610fa5565b610fd68185610fb0565b9350610fe6818560208601610aef565b610fef81610b22565b840191505092915050565b600060808201905061100f6000830187610f1b565b61101c6020830186610c51565b818103604083015261102e8185610fc1565b905081810360608301526110428184610fc1565b905095945050505050565b60006040820190506110626000830185610bd7565b61106f6020830184610ba3565b9392505050565b7f455243313136373a2063726561746532206661696c6564000000000000000000600082015250565b60006110ac601783610fb0565b91506110b782611076565b602082019050919050565b600060208201905081810360008301526110db8161109f565b905091905056fea2646970667358221220212daf729d632f2d07109bd5f84aba4495a405f9d2fdaed5cf7792d8d248b58064736f6c634300080d0033",
  "devdoc": {
    "kind": "dev",
    "methods": {},
    "version": 1
  },
  "userdoc": {
    "kind": "user",
    "methods": {},
    "version": 1
  },
  "storageLayout": {
    "storage": [
      {
        "astId": 3083,
        "contract": "contracts/v2/OpenDRMCoordinator.sol:OpenDRMCoordinator",
        "label": "dkgManager",
        "offset": 0,
        "slot": "0",
        "type": "t_contract(DKGSubscriptionManager)2675"
      },
      {
        "astId": 3086,
        "contract": "contracts/v2/OpenDRMCoordinator.sol:OpenDRMCoordinator",
        "label": "preManager",
        "offset": 0,
        "slot": "1",
        "type": "t_contract(IPRESubscriptionManager)2734"
      },
      {
        "astId": 3088,
        "contract": "contracts/v2/OpenDRMCoordinator.sol:OpenDRMCoordinator",
        "label": "odrm721Implementation",
        "offset": 0,
        "slot": "2",
        "type": "t_address"
      },
      {
        "astId": 3090,
        "contract": "contracts/v2/OpenDRMCoordinator.sol:OpenDRMCoordinator",
        "label": "_salt",
        "offset": 0,
        "slot": "3",
        "type": "t_uint256"
      },
      {
        "astId": 3092,
        "contract": "contracts/v2/OpenDRMCoordinator.sol:OpenDRMCoordinator",
        "label": "subscriptionId",
        "offset": 0,
        "slot": "4",
        "type": "t_uint256"
      },
      {
        "astId": 3095,
        "contract": "contracts/v2/OpenDRMCoordinator.sol:OpenDRMCoordinator",
        "label": "_policyLength",
        "offset": 0,
        "slot": "5",
        "type": "t_uint256"
      },
      {
        "astId": 3099,
        "contract": "contracts/v2/OpenDRMCoordinator.sol:OpenDRMCoordinator",
        "label": "isChild",
        "offset": 0,
        "slot": "6",
        "type": "t_mapping(t_address,t_bool)"
      },
      {
        "astId": 3109,
        "contract": "contracts/v2/OpenDRMCoordinator.sol:OpenDRMCoordinator",
        "label": "registry",
        "offset": 0,
        "slot": "7",
        "type": "t_mapping(t_address,t_struct(Bob)3104_storage)"
      }
    ],
    "types": {
      "t_address": {
        "encoding": "inplace",
        "label": "address",
        "numberOfBytes": "20"
      },
      "t_bool": {
        "encoding": "inplace",
        "label": "bool",
        "numberOfBytes": "1"
      },
      "t_bytes_storage": {
        "encoding": "bytes",
        "label": "bytes",
        "numberOfBytes": "32"
      },
      "t_contract(DKGSubscriptionManager)2675": {
        "encoding": "inplace",
        "label": "contract DKGSubscriptionManager",
        "numberOfBytes": "20"
      },
      "t_contract(IPRESubscriptionManager)2734": {
        "encoding": "inplace",
        "label": "contract IPRESubscriptionManager",
        "numberOfBytes": "20"
      },
      "t_mapping(t_address,t_bool)": {
        "encoding": "mapping",
        "key": "t_address",
        "label": "mapping(address => bool)",
        "numberOfBytes": "32",
        "value": "t_bool"
      },
      "t_mapping(t_address,t_struct(Bob)3104_storage)": {
        "encoding": "mapping",
        "key": "t_address",
        "label": "mapping(address => struct OpenDRMCoordinator.Bob)",
        "numberOfBytes": "32",
        "value": "t_struct(Bob)3104_storage"
      },
      "t_struct(Bob)3104_storage": {
        "encoding": "inplace",
        "label": "struct OpenDRMCoordinator.Bob",
        "members": [
          {
            "astId": 3101,
            "contract": "contracts/v2/OpenDRMCoordinator.sol:OpenDRMCoordinator",
            "label": "verifyingKey",
            "offset": 0,
            "slot": "0",
            "type": "t_bytes_storage"
          },
          {
            "astId": 3103,
            "contract": "contracts/v2/OpenDRMCoordinator.sol:OpenDRMCoordinator",
            "label": "decryptingKey",
            "offset": 0,
            "slot": "1",
            "type": "t_bytes_storage"
          }
        ],
        "numberOfBytes": "64"
      },
      "t_uint256": {
        "encoding": "inplace",
        "label": "uint256",
        "numberOfBytes": "32"
      }
    }
  }
}