{
  "address": "0x95d177EAE21988DDEb2c3244f9B12F103DC61d3d",
  "abi": [
    {
      "inputs": [
        {
          "internalType": "uint256",
          "name": "fundsRequired",
          "type": "uint256"
        },
        {
          "internalType": "uint256",
          "name": "fundsReceived",
          "type": "uint256"
        }
      ],
      "name": "InsufficientMintFunds",
      "type": "error"
    },
    {
      "anonymous": false,
      "inputs": [
        {
          "indexed": true,
          "internalType": "address",
          "name": "owner",
          "type": "address"
        },
        {
          "indexed": true,
          "internalType": "address",
          "name": "approved",
          "type": "address"
        },
        {
          "indexed": true,
          "internalType": "uint256",
          "name": "tokenId",
          "type": "uint256"
        }
      ],
      "name": "Approval",
      "type": "event"
    },
    {
      "anonymous": false,
      "inputs": [
        {
          "indexed": true,
          "internalType": "address",
          "name": "owner",
          "type": "address"
        },
        {
          "indexed": true,
          "internalType": "address",
          "name": "operator",
          "type": "address"
        },
        {
          "indexed": false,
          "internalType": "bool",
          "name": "approved",
          "type": "bool"
        }
      ],
      "name": "ApprovalForAll",
      "type": "event"
    },
    {
      "anonymous": false,
      "inputs": [
        {
          "indexed": true,
          "internalType": "address",
          "name": "from",
          "type": "address"
        },
        {
          "indexed": true,
          "internalType": "address",
          "name": "to",
          "type": "address"
        },
        {
          "indexed": true,
          "internalType": "uint256",
          "name": "tokenId",
          "type": "uint256"
        }
      ],
      "name": "Transfer",
      "type": "event"
    },
    {
      "inputs": [
        {
          "internalType": "address",
          "name": "to",
          "type": "address"
        },
        {
          "internalType": "uint256",
          "name": "tokenId",
          "type": "uint256"
        }
      ],
      "name": "approve",
      "outputs": [],
      "stateMutability": "nonpayable",
      "type": "function"
    },
    {
      "inputs": [
        {
          "internalType": "address",
          "name": "owner",
          "type": "address"
        }
      ],
      "name": "balanceOf",
      "outputs": [
        {
          "internalType": "uint256",
          "name": "",
          "type": "uint256"
        }
      ],
      "stateMutability": "view",
      "type": "function"
    },
    {
      "inputs": [
        {
          "internalType": "uint256",
          "name": "tokenId",
          "type": "uint256"
        }
      ],
      "name": "getApproved",
      "outputs": [
        {
          "internalType": "address",
          "name": "",
          "type": "address"
        }
      ],
      "stateMutability": "view",
      "type": "function"
    },
    {
      "inputs": [
        {
          "internalType": "contract DKGSubscriptionManager",
          "name": "dkgManager_",
          "type": "address"
        },
        {
          "internalType": "contract IPRESubscriptionManager",
          "name": "preManager_",
          "type": "address"
        },
        {
          "internalType": "string",
          "name": "name_",
          "type": "string"
        },
        {
          "internalType": "string",
          "name": "symbol_",
          "type": "string"
        }
      ],
      "name": "initialize",
      "outputs": [],
      "stateMutability": "nonpayable",
      "type": "function"
    },
    {
      "inputs": [
        {
          "internalType": "address",
          "name": "owner",
          "type": "address"
        },
        {
          "internalType": "address",
          "name": "operator",
          "type": "address"
        }
      ],
      "name": "isApprovedForAll",
      "outputs": [
        {
          "internalType": "bool",
          "name": "",
          "type": "bool"
        }
      ],
      "stateMutability": "view",
      "type": "function"
    },
    {
      "inputs": [
        {
          "internalType": "uint256",
          "name": "tokenId",
          "type": "uint256"
        }
      ],
      "name": "mint",
      "outputs": [],
      "stateMutability": "payable",
      "type": "function"
    },
    {
      "inputs": [],
      "name": "name",
      "outputs": [
        {
          "internalType": "string",
          "name": "",
          "type": "string"
        }
      ],
      "stateMutability": "view",
      "type": "function"
    },
    {
      "inputs": [
        {
          "internalType": "uint256",
          "name": "tokenId",
          "type": "uint256"
        }
      ],
      "name": "ownerOf",
      "outputs": [
        {
          "internalType": "address",
          "name": "",
          "type": "address"
        }
      ],
      "stateMutability": "view",
      "type": "function"
    },
    {
      "inputs": [
        {
          "internalType": "address",
          "name": "from",
          "type": "address"
        },
        {
          "internalType": "address",
          "name": "to",
          "type": "address"
        },
        {
          "internalType": "uint256",
          "name": "tokenId",
          "type": "uint256"
        }
      ],
      "name": "safeTransferFrom",
      "outputs": [],
      "stateMutability": "nonpayable",
      "type": "function"
    },
    {
      "inputs": [
        {
          "internalType": "address",
          "name": "from",
          "type": "address"
        },
        {
          "internalType": "address",
          "name": "to",
          "type": "address"
        },
        {
          "internalType": "uint256",
          "name": "tokenId",
          "type": "uint256"
        },
        {
          "internalType": "bytes",
          "name": "_data",
          "type": "bytes"
        }
      ],
      "name": "safeTransferFrom",
      "outputs": [],
      "stateMutability": "nonpayable",
      "type": "function"
    },
    {
      "inputs": [
        {
          "internalType": "address",
          "name": "operator",
          "type": "address"
        },
        {
          "internalType": "bool",
          "name": "approved",
          "type": "bool"
        }
      ],
      "name": "setApprovalForAll",
      "outputs": [],
      "stateMutability": "nonpayable",
      "type": "function"
    },
    {
      "inputs": [
        {
          "internalType": "bytes4",
          "name": "interfaceId",
          "type": "bytes4"
        }
      ],
      "name": "supportsInterface",
      "outputs": [
        {
          "internalType": "bool",
          "name": "",
          "type": "bool"
        }
      ],
      "stateMutability": "view",
      "type": "function"
    },
    {
      "inputs": [],
      "name": "symbol",
      "outputs": [
        {
          "internalType": "string",
          "name": "",
          "type": "string"
        }
      ],
      "stateMutability": "view",
      "type": "function"
    },
    {
      "inputs": [
        {
          "internalType": "uint256",
          "name": "tokenId",
          "type": "uint256"
        }
      ],
      "name": "tokenURI",
      "outputs": [
        {
          "internalType": "string",
          "name": "",
          "type": "string"
        }
      ],
      "stateMutability": "view",
      "type": "function"
    },
    {
      "inputs": [
        {
          "internalType": "address",
          "name": "from",
          "type": "address"
        },
        {
          "internalType": "address",
          "name": "to",
          "type": "address"
        },
        {
          "internalType": "uint256",
          "name": "tokenId",
          "type": "uint256"
        }
      ],
      "name": "transferFrom",
      "outputs": [],
      "stateMutability": "nonpayable",
      "type": "function"
    }
  ],
  "transactionHash": "0x9b9d0b1e7699181a727ddf60f71efe771aef15b479ae187302a00bec351b30d8",
  "args": [],
  "solcInputHash": "adde69f235722b4842150f62dcf3cc98",
  "bytecode": "0x608060405234801561001057600080fd5b50613a58806100206000396000f3fe6080604052600436106100e85760003560e01c80636352211e1161008a578063a22cb46511610059578063a22cb465146102f7578063b88d4fde14610320578063c87b56dd14610349578063e985e9c514610386576100e8565b80636352211e1461023657806370a082311461027357806395d89b41146102b0578063a0712d68146102db576100e8565b8063095ea7b3116100c6578063095ea7b3146101925780632016a0d2146101bb57806323b872dd146101e457806342842e0e1461020d576100e8565b806301ffc9a7146100ed57806306fdde031461012a578063081812fc14610155575b600080fd5b3480156100f957600080fd5b50610114600480360381019061010f919061231e565b6103c3565b6040516101219190612366565b60405180910390f35b34801561013657600080fd5b5061013f6104a5565b60405161014c919061241a565b60405180910390f35b34801561016157600080fd5b5061017c60048036038101906101779190612472565b610537565b60405161018991906124e0565b60405180910390f35b34801561019e57600080fd5b506101b960048036038101906101b49190612527565b6105bc565b005b3480156101c757600080fd5b506101e260048036038101906101dd9190612718565b6106d3565b005b3480156101f057600080fd5b5061020b600480360381019061020691906127b7565b610818565b005b34801561021957600080fd5b50610234600480360381019061022f91906127b7565b610878565b005b34801561024257600080fd5b5061025d60048036038101906102589190612472565b610898565b60405161026a91906124e0565b60405180910390f35b34801561027f57600080fd5b5061029a6004803603810190610295919061280a565b610949565b6040516102a79190612846565b60405180910390f35b3480156102bc57600080fd5b506102c5610a00565b6040516102d2919061241a565b60405180910390f35b6102f560048036038101906102f09190612472565b610a92565b005b34801561030357600080fd5b5061031e6004803603810190610319919061288d565b610b6f565b005b34801561032c57600080fd5b506103476004803603810190610342919061296e565b610b85565b005b34801561035557600080fd5b50610370600480360381019061036b9190612472565b610be7565b60405161037d919061241a565b60405180910390f35b34801561039257600080fd5b506103ad60048036038101906103a891906129f1565b610c8e565b6040516103ba9190612366565b60405180910390f35b60007f80ac58cd000000000000000000000000000000000000000000000000000000007bffffffffffffffffffffffffffffffffffffffffffffffffffffffff1916827bffffffffffffffffffffffffffffffffffffffffffffffffffffffff1916148061048e57507f5b5e139f000000000000000000000000000000000000000000000000000000007bffffffffffffffffffffffffffffffffffffffffffffffffffffffff1916827bffffffffffffffffffffffffffffffffffffffffffffffffffffffff1916145b8061049e575061049d82610d22565b5b9050919050565b6060606580546104b490612a60565b80601f01602080910402602001604051908101604052809291908181526020018280546104e090612a60565b801561052d5780601f106105025761010080835404028352916020019161052d565b820191906000526020600020905b81548152906001019060200180831161051057829003601f168201915b5050505050905090565b600061054282610d8c565b610581576040517f08c379a000000000000000000000000000000000000000000000000000000000815260040161057890612b03565b60405180910390fd5b6069600083815260200190815260200160002060009054906101000a900473ffffffffffffffffffffffffffffffffffffffff169050919050565b60006105c782610898565b90508073ffffffffffffffffffffffffffffffffffffffff168373ffffffffffffffffffffffffffffffffffffffff1603610637576040517f08c379a000000000000000000000000000000000000000000000000000000000815260040161062e90612b95565b60405180910390fd5b8073ffffffffffffffffffffffffffffffffffffffff16610656610df8565b73ffffffffffffffffffffffffffffffffffffffff16148061068557506106848161067f610df8565b610c8e565b5b6106c4576040517f08c379a00000000000000000000000000000000000000000000000000000000081526004016106bb90612c27565b60405180910390fd5b6106ce8383610e00565b505050565b600060019054906101000a900460ff166106fb5760008054906101000a900460ff1615610704565b610703610eb9565b5b610743576040517f08c379a000000000000000000000000000000000000000000000000000000000815260040161073a90612cb9565b60405180910390fd5b60008060019054906101000a900460ff161590508015610793576001600060016101000a81548160ff02191690831515021790555060016000806101000a81548160ff0219169083151502179055505b61079d8383610eca565b6107a5610f27565b6107af8585610f78565b33609960006101000a81548173ffffffffffffffffffffffffffffffffffffffff021916908373ffffffffffffffffffffffffffffffffffffffff16021790555080156108115760008060016101000a81548160ff0219169083151502179055505b5050505050565b610829610823610df8565b8261104d565b610868576040517f08c379a000000000000000000000000000000000000000000000000000000000815260040161085f90612d4b565b60405180910390fd5b61087383838361112b565b505050565b61089383838360405180602001604052806000815250610b85565b505050565b6000806067600084815260200190815260200160002060009054906101000a900473ffffffffffffffffffffffffffffffffffffffff169050600073ffffffffffffffffffffffffffffffffffffffff168173ffffffffffffffffffffffffffffffffffffffff1603610940576040517f08c379a000000000000000000000000000000000000000000000000000000000815260040161093790612ddd565b60405180910390fd5b80915050919050565b60008073ffffffffffffffffffffffffffffffffffffffff168273ffffffffffffffffffffffffffffffffffffffff16036109b9576040517f08c379a00000000000000000000000000000000000000000000000000000000081526004016109b090612e6f565b60405180910390fd5b606860008373ffffffffffffffffffffffffffffffffffffffff1673ffffffffffffffffffffffffffffffffffffffff168152602001908152602001600020549050919050565b606060668054610a0f90612a60565b80601f0160208091040260200160405190810160405280929190818152602001828054610a3b90612a60565b8015610a885780601f10610a5d57610100808354040283529160200191610a88565b820191906000526020600020905b815481529060010190602001808311610a6b57829003601f168201915b5050505050905090565b610ad06040518060400160405280600781526020017f72756e6e696e6700000000000000000000000000000000000000000000000000815250611391565b6000665ba8f69b348000905080341015610b6157610b226040518060400160405280600781526020017f6661696c696e6700000000000000000000000000000000000000000000000000815250611391565b80346040517f921ecd9b000000000000000000000000000000000000000000000000000000008152600401610b58929190612e8f565b60405180910390fd5b610b6b338361142a565b5050565b610b81610b7a610df8565b8383611448565b5050565b610b96610b90610df8565b8361104d565b610bd5576040517f08c379a0000000000000000000000000000000000000000000000000000000008152600401610bcc90612d4b565b60405180910390fd5b610be1848484846115b4565b50505050565b6060610bf282610d8c565b610c31576040517f08c379a0000000000000000000000000000000000000000000000000000000008152600401610c2890612f2a565b60405180910390fd5b6000610c3b611610565b90506000815111610c5b5760405180602001604052806000815250610c86565b80610c6584611627565b604051602001610c76929190612f86565b6040516020818303038152906040525b915050919050565b6000606a60008473ffffffffffffffffffffffffffffffffffffffff1673ffffffffffffffffffffffffffffffffffffffff16815260200190815260200160002060008373ffffffffffffffffffffffffffffffffffffffff1673ffffffffffffffffffffffffffffffffffffffff16815260200190815260200160002060009054906101000a900460ff16905092915050565b60007f01ffc9a7000000000000000000000000000000000000000000000000000000007bffffffffffffffffffffffffffffffffffffffffffffffffffffffff1916827bffffffffffffffffffffffffffffffffffffffffffffffffffffffff1916149050919050565b60008073ffffffffffffffffffffffffffffffffffffffff166067600084815260200190815260200160002060009054906101000a900473ffffffffffffffffffffffffffffffffffffffff1673ffffffffffffffffffffffffffffffffffffffff1614159050919050565b600033905090565b816069600083815260200190815260200160002060006101000a81548173ffffffffffffffffffffffffffffffffffffffff021916908373ffffffffffffffffffffffffffffffffffffffff160217905550808273ffffffffffffffffffffffffffffffffffffffff16610e7383610898565b73ffffffffffffffffffffffffffffffffffffffff167f8c5be1e5ebec7d5bd14f71427d1e84f3dd0314c0f7b2291e5b200ac8c7c3b92560405160405180910390a45050565b6000610ec430611787565b15905090565b600060019054906101000a900460ff16610f19576040517f08c379a0000000000000000000000000000000000000000000000000000000008152600401610f109061301c565b60405180910390fd5b610f2382826117aa565b5050565b600060019054906101000a900460ff16610f76576040517f08c379a0000000000000000000000000000000000000000000000000000000008152600401610f6d9061301c565b60405180910390fd5b565b600060019054906101000a900460ff16610fc7576040517f08c379a0000000000000000000000000000000000000000000000000000000008152600401610fbe9061301c565b60405180910390fd5b81609760006101000a81548173ffffffffffffffffffffffffffffffffffffffff021916908373ffffffffffffffffffffffffffffffffffffffff16021790555080609860006101000a81548173ffffffffffffffffffffffffffffffffffffffff021916908373ffffffffffffffffffffffffffffffffffffffff1602179055505050565b600061105882610d8c565b611097576040517f08c379a000000000000000000000000000000000000000000000000000000000815260040161108e906130ae565b60405180910390fd5b60006110a283610898565b90508073ffffffffffffffffffffffffffffffffffffffff168473ffffffffffffffffffffffffffffffffffffffff16148061111157508373ffffffffffffffffffffffffffffffffffffffff166110f984610537565b73ffffffffffffffffffffffffffffffffffffffff16145b8061112257506111218185610c8e565b5b91505092915050565b8273ffffffffffffffffffffffffffffffffffffffff1661114b82610898565b73ffffffffffffffffffffffffffffffffffffffff16146111a1576040517f08c379a000000000000000000000000000000000000000000000000000000000815260040161119890613140565b60405180910390fd5b600073ffffffffffffffffffffffffffffffffffffffff168273ffffffffffffffffffffffffffffffffffffffff1603611210576040517f08c379a0000000000000000000000000000000000000000000000000000000008152600401611207906131d2565b60405180910390fd5b61121b83838361182b565b611226600082610e00565b6001606860008573ffffffffffffffffffffffffffffffffffffffff1673ffffffffffffffffffffffffffffffffffffffff16815260200190815260200160002060008282546112769190613221565b925050819055506001606860008473ffffffffffffffffffffffffffffffffffffffff1673ffffffffffffffffffffffffffffffffffffffff16815260200190815260200160002060008282546112cd9190613255565b92505081905550816067600083815260200190815260200160002060006101000a81548173ffffffffffffffffffffffffffffffffffffffff021916908373ffffffffffffffffffffffffffffffffffffffff160217905550808273ffffffffffffffffffffffffffffffffffffffff168473ffffffffffffffffffffffffffffffffffffffff167fddf252ad1be2c89b69c2b068fc378daa952ba7f163c4a11628f55a4df523b3ef60405160405180910390a461138c838383611ac3565b505050565b611427816040516024016113a5919061241a565b6040516020818303038152906040527f41304fac000000000000000000000000000000000000000000000000000000007bffffffffffffffffffffffffffffffffffffffffffffffffffffffff19166020820180517bffffffffffffffffffffffffffffffffffffffffffffffffffffffff8381831617835250505050611ac8565b50565b611444828260405180602001604052806000815250611af1565b5050565b8173ffffffffffffffffffffffffffffffffffffffff168373ffffffffffffffffffffffffffffffffffffffff16036114b6576040517f08c379a00000000000000000000000000000000000000000000000000000000081526004016114ad906132f7565b60405180910390fd5b80606a60008573ffffffffffffffffffffffffffffffffffffffff1673ffffffffffffffffffffffffffffffffffffffff16815260200190815260200160002060008473ffffffffffffffffffffffffffffffffffffffff1673ffffffffffffffffffffffffffffffffffffffff16815260200190815260200160002060006101000a81548160ff0219169083151502179055508173ffffffffffffffffffffffffffffffffffffffff168373ffffffffffffffffffffffffffffffffffffffff167f17307eab39ab6107e8899845ad3d59bd9653f200f220920489ca2b5937696c31836040516115a79190612366565b60405180910390a3505050565b6115bf84848461112b565b6115cb84848484611b4c565b61160a576040517f08c379a000000000000000000000000000000000000000000000000000000000815260040161160190613389565b60405180910390fd5b50505050565b606060405180602001604052806000815250905090565b60606000820361166e576040518060400160405280600181526020017f30000000000000000000000000000000000000000000000000000000000000008152509050611782565b600082905060005b600082146116a0578080611689906133a9565b915050600a826116999190613420565b9150611676565b60008167ffffffffffffffff8111156116bc576116bb6125ed565b5b6040519080825280601f01601f1916602001820160405280156116ee5781602001600182028036833780820191505090505b5090505b6000851461177b576001826117079190613221565b9150600a856117169190613451565b60306117229190613255565b60f81b81838151811061173857611737613482565b5b60200101907effffffffffffffffffffffffffffffffffffffffffffffffffffffffffffff1916908160001a905350600a856117749190613420565b94506116f2565b8093505050505b919050565b6000808273ffffffffffffffffffffffffffffffffffffffff163b119050919050565b600060019054906101000a900460ff166117f9576040517f08c379a00000000000000000000000000000000000000000000000000000000081526004016117f09061301c565b60405180910390fd5b816065908051906020019061180f92919061220f565b50806066908051906020019061182692919061220f565b505050565b6118696040518060400160405280601481526020017f5f6265666f7265546f6b656e5472616e73666572000000000000000000000000815250611391565b600061187482611cd3565b905060006118a1609a600085815260200190815260200160002060009054906101000a900460801b611e33565b6118df6040518060400160405280601581526020017f72657175657374696e67206e657720706f6c6963790000000000000000000000815250611391565b600080609960009054906101000a900473ffffffffffffffffffffffffffffffffffffffff1673ffffffffffffffffffffffffffffffffffffffff1663e03aefc2876040518263ffffffff1660e01b815260040161193d91906124e0565b6000604051808303816000875af115801561195c573d6000803e3d6000fd5b505050506040513d6000823e3d601f19601f820116820180604052508101906119859190613521565b915091506119c76040518060400160405280601e81526020017f63616c6c696e6720696e7465726e616c2063726561746520706f6c6963790000815250611391565b611a7d600360024262014ff063ffffffff16426119e49190613255565b609960009054906101000a900473ffffffffffffffffffffffffffffffffffffffff1673ffffffffffffffffffffffffffffffffffffffff166309c1ba2e6040518163ffffffff1660e01b8152600401602060405180830381865afa158015611a51573d6000803e3d6000fd5b505050506040513d601f19601f82011682018060405250810190611a7591906135ae565b898888611e36565b925082609a600087815260200190815260200160002060006101000a8154816fffffffffffffffffffffffffffffffff021916908360801c021790555050505050505050565b505050565b60008151905060006a636f6e736f6c652e6c6f679050602083016000808483855afa5050505050565b611afb8383612036565b611b086000848484611b4c565b611b47576040517f08c379a0000000000000000000000000000000000000000000000000000000008152600401611b3e90613389565b60405180910390fd5b505050565b6000611b6d8473ffffffffffffffffffffffffffffffffffffffff16611787565b15611cc6578373ffffffffffffffffffffffffffffffffffffffff1663150b7a02611b96610df8565b8786866040518563ffffffff1660e01b8152600401611bb89493929190613630565b6020604051808303816000875af1925050508015611bf457506040513d601f19601f82011682018060405250810190611bf19190613691565b60015b611c76573d8060008114611c24576040519150601f19603f3d011682016040523d82523d6000602084013e611c29565b606091505b506000815103611c6e576040517f08c379a0000000000000000000000000000000000000000000000000000000008152600401611c6590613389565b60405180910390fd5b805181602001fd5b63150b7a0260e01b7bffffffffffffffffffffffffffffffffffffffffffffffffffffffff1916817bffffffffffffffffffffffffffffffffffffffffffffffffffffffff191614915050611ccb565b600190505b949350505050565b606060008203611d1a576040518060400160405280600181526020017f30000000000000000000000000000000000000000000000000000000000000008152509050611e2e565b600082905060005b60008214611d4c578080611d35906133a9565b915050600a82611d459190613420565b9150611d22565b60008167ffffffffffffffff811115611d6857611d676125ed565b5b6040519080825280601f01601f191660200182016040528015611d9a5781602001600182028036833780820191505090505b5090505b60008514611e2757600182611db39190613221565b9150600a85611dc29190613451565b6030611dce9190613255565b60f81b818381518110611de457611de3613482565b5b60200101907effffffffffffffffffffffffffffffffffffffffffffffffffffffffffffff1916908160001a905350600a85611e209190613420565b9450611d9e565b8093505050505b919050565b50565b6000609760009054906101000a900473ffffffffffffffffffffffffffffffffffffffff1673ffffffffffffffffffffffffffffffffffffffff1663869241fb868686868e8e8e8e6040518963ffffffff1660e01b8152600401611ea19897969594939291906136fa565b6000604051808303816000875af1158015611ec0573d6000803e3d6000fd5b505050506040513d6000823e3d601f19601f82011682018060405250810190611ee99190613855565b50809150506000609860009054906101000a900473ffffffffffffffffffffffffffffffffffffffff1673ffffffffffffffffffffffffffffffffffffffff166358db2a728b8a8a6040518463ffffffff1660e01b8152600401611f4f939291906138b1565b602060405180830381865afa158015611f6c573d6000803e3d6000fd5b505050506040513d601f19601f82011682018060405250810190611f9091906135ae565b9050609860009054906101000a900473ffffffffffffffffffffffffffffffffffffffff1673ffffffffffffffffffffffffffffffffffffffff16634f004041828460008e8d8d6040518763ffffffff1660e01b8152600401611ff79594939291906138f7565b6000604051808303818588803b15801561201057600080fd5b505af1158015612024573d6000803e3d6000fd5b50505050505098975050505050505050565b600073ffffffffffffffffffffffffffffffffffffffff168273ffffffffffffffffffffffffffffffffffffffff16036120a5576040517f08c379a000000000000000000000000000000000000000000000000000000000815260040161209c90613996565b60405180910390fd5b6120ae81610d8c565b156120ee576040517f08c379a00000000000000000000000000000000000000000000000000000000081526004016120e590613a02565b60405180910390fd5b6120fa6000838361182b565b6001606860008473ffffffffffffffffffffffffffffffffffffffff1673ffffffffffffffffffffffffffffffffffffffff168152602001908152602001600020600082825461214a9190613255565b92505081905550816067600083815260200190815260200160002060006101000a81548173ffffffffffffffffffffffffffffffffffffffff021916908373ffffffffffffffffffffffffffffffffffffffff160217905550808273ffffffffffffffffffffffffffffffffffffffff16600073ffffffffffffffffffffffffffffffffffffffff167fddf252ad1be2c89b69c2b068fc378daa952ba7f163c4a11628f55a4df523b3ef60405160405180910390a461220b60008383611ac3565b5050565b82805461221b90612a60565b90600052602060002090601f01602090048101928261223d5760008555612284565b82601f1061225657805160ff1916838001178555612284565b82800160010185558215612284579182015b82811115612283578251825591602001919060010190612268565b5b5090506122919190612295565b5090565b5b808211156122ae576000816000905550600101612296565b5090565b6000604051905090565b600080fd5b600080fd5b60007fffffffff0000000000000000000000000000000000000000000000000000000082169050919050565b6122fb816122c6565b811461230657600080fd5b50565b600081359050612318816122f2565b92915050565b600060208284031215612334576123336122bc565b5b600061234284828501612309565b91505092915050565b60008115159050919050565b6123608161234b565b82525050565b600060208201905061237b6000830184612357565b92915050565b600081519050919050565b600082825260208201905092915050565b60005b838110156123bb5780820151818401526020810190506123a0565b838111156123ca576000848401525b50505050565b6000601f19601f8301169050919050565b60006123ec82612381565b6123f6818561238c565b935061240681856020860161239d565b61240f816123d0565b840191505092915050565b6000602082019050818103600083015261243481846123e1565b905092915050565b6000819050919050565b61244f8161243c565b811461245a57600080fd5b50565b60008135905061246c81612446565b92915050565b600060208284031215612488576124876122bc565b5b60006124968482850161245d565b91505092915050565b600073ffffffffffffffffffffffffffffffffffffffff82169050919050565b60006124ca8261249f565b9050919050565b6124da816124bf565b82525050565b60006020820190506124f560008301846124d1565b92915050565b612504816124bf565b811461250f57600080fd5b50565b600081359050612521816124fb565b92915050565b6000806040838503121561253e5761253d6122bc565b5b600061254c85828601612512565b925050602061255d8582860161245d565b9150509250929050565b6000612572826124bf565b9050919050565b61258281612567565b811461258d57600080fd5b50565b60008135905061259f81612579565b92915050565b60006125b0826124bf565b9050919050565b6125c0816125a5565b81146125cb57600080fd5b50565b6000813590506125dd816125b7565b92915050565b600080fd5b600080fd5b7f4e487b7100000000000000000000000000000000000000000000000000000000600052604160045260246000fd5b612625826123d0565b810181811067ffffffffffffffff82111715612644576126436125ed565b5b80604052505050565b60006126576122b2565b9050612663828261261c565b919050565b600067ffffffffffffffff821115612683576126826125ed565b5b61268c826123d0565b9050602081019050919050565b82818337600083830152505050565b60006126bb6126b684612668565b61264d565b9050828152602081018484840111156126d7576126d66125e8565b5b6126e2848285612699565b509392505050565b600082601f8301126126ff576126fe6125e3565b5b813561270f8482602086016126a8565b91505092915050565b60008060008060808587031215612732576127316122bc565b5b600061274087828801612590565b9450506020612751878288016125ce565b935050604085013567ffffffffffffffff811115612772576127716122c1565b5b61277e878288016126ea565b925050606085013567ffffffffffffffff81111561279f5761279e6122c1565b5b6127ab878288016126ea565b91505092959194509250565b6000806000606084860312156127d0576127cf6122bc565b5b60006127de86828701612512565b93505060206127ef86828701612512565b92505060406128008682870161245d565b9150509250925092565b6000602082840312156128205761281f6122bc565b5b600061282e84828501612512565b91505092915050565b6128408161243c565b82525050565b600060208201905061285b6000830184612837565b92915050565b61286a8161234b565b811461287557600080fd5b50565b60008135905061288781612861565b92915050565b600080604083850312156128a4576128a36122bc565b5b60006128b285828601612512565b92505060206128c385828601612878565b9150509250929050565b600067ffffffffffffffff8211156128e8576128e76125ed565b5b6128f1826123d0565b9050602081019050919050565b600061291161290c846128cd565b61264d565b90508281526020810184848401111561292d5761292c6125e8565b5b612938848285612699565b509392505050565b600082601f830112612955576129546125e3565b5b81356129658482602086016128fe565b91505092915050565b60008060008060808587031215612988576129876122bc565b5b600061299687828801612512565b94505060206129a787828801612512565b93505060406129b88782880161245d565b925050606085013567ffffffffffffffff8111156129d9576129d86122c1565b5b6129e587828801612940565b91505092959194509250565b60008060408385031215612a0857612a076122bc565b5b6000612a1685828601612512565b9250506020612a2785828601612512565b9150509250929050565b7f4e487b7100000000000000000000000000000000000000000000000000000000600052602260045260246000fd5b60006002820490506001821680612a7857607f821691505b602082108103612a8b57612a8a612a31565b5b50919050565b7f4552433732313a20617070726f76656420717565727920666f72206e6f6e657860008201527f697374656e7420746f6b656e0000000000000000000000000000000000000000602082015250565b6000612aed602c8361238c565b9150612af882612a91565b604082019050919050565b60006020820190508181036000830152612b1c81612ae0565b9050919050565b7f4552433732313a20617070726f76616c20746f2063757272656e74206f776e6560008201527f7200000000000000000000000000000000000000000000000000000000000000602082015250565b6000612b7f60218361238c565b9150612b8a82612b23565b604082019050919050565b60006020820190508181036000830152612bae81612b72565b9050919050565b7f4552433732313a20617070726f76652063616c6c6572206973206e6f74206f7760008201527f6e6572206e6f7220617070726f76656420666f7220616c6c0000000000000000602082015250565b6000612c1160388361238c565b9150612c1c82612bb5565b604082019050919050565b60006020820190508181036000830152612c4081612c04565b9050919050565b7f496e697469616c697a61626c653a20636f6e747261637420697320616c72656160008201527f647920696e697469616c697a6564000000000000000000000000000000000000602082015250565b6000612ca3602e8361238c565b9150612cae82612c47565b604082019050919050565b60006020820190508181036000830152612cd281612c96565b9050919050565b7f4552433732313a207472616e736665722063616c6c6572206973206e6f74206f60008201527f776e6572206e6f7220617070726f766564000000000000000000000000000000602082015250565b6000612d3560318361238c565b9150612d4082612cd9565b604082019050919050565b60006020820190508181036000830152612d6481612d28565b9050919050565b7f4552433732313a206f776e657220717565727920666f72206e6f6e657869737460008201527f656e7420746f6b656e0000000000000000000000000000000000000000000000602082015250565b6000612dc760298361238c565b9150612dd282612d6b565b604082019050919050565b60006020820190508181036000830152612df681612dba565b9050919050565b7f4552433732313a2062616c616e636520717565727920666f7220746865207a6560008201527f726f206164647265737300000000000000000000000000000000000000000000602082015250565b6000612e59602a8361238c565b9150612e6482612dfd565b604082019050919050565b60006020820190508181036000830152612e8881612e4c565b9050919050565b6000604082019050612ea46000830185612837565b612eb16020830184612837565b9392505050565b7f4552433732314d657461646174613a2055524920717565727920666f72206e6f60008201527f6e6578697374656e7420746f6b656e0000000000000000000000000000000000602082015250565b6000612f14602f8361238c565b9150612f1f82612eb8565b604082019050919050565b60006020820190508181036000830152612f4381612f07565b9050919050565b600081905092915050565b6000612f6082612381565b612f6a8185612f4a565b9350612f7a81856020860161239d565b80840191505092915050565b6000612f928285612f55565b9150612f9e8284612f55565b91508190509392505050565b7f496e697469616c697a61626c653a20636f6e7472616374206973206e6f74206960008201527f6e697469616c697a696e67000000000000000000000000000000000000000000602082015250565b6000613006602b8361238c565b915061301182612faa565b604082019050919050565b6000602082019050818103600083015261303581612ff9565b9050919050565b7f4552433732313a206f70657261746f7220717565727920666f72206e6f6e657860008201527f697374656e7420746f6b656e0000000000000000000000000000000000000000602082015250565b6000613098602c8361238c565b91506130a38261303c565b604082019050919050565b600060208201905081810360008301526130c78161308b565b9050919050565b7f4552433732313a207472616e736665722066726f6d20696e636f72726563742060008201527f6f776e6572000000000000000000000000000000000000000000000000000000602082015250565b600061312a60258361238c565b9150613135826130ce565b604082019050919050565b600060208201905081810360008301526131598161311d565b9050919050565b7f4552433732313a207472616e7366657220746f20746865207a65726f2061646460008201527f7265737300000000000000000000000000000000000000000000000000000000602082015250565b60006131bc60248361238c565b91506131c782613160565b604082019050919050565b600060208201905081810360008301526131eb816131af565b9050919050565b7f4e487b7100000000000000000000000000000000000000000000000000000000600052601160045260246000fd5b600061322c8261243c565b91506132378361243c565b92508282101561324a576132496131f2565b5b828203905092915050565b60006132608261243c565b915061326b8361243c565b9250827fffffffffffffffffffffffffffffffffffffffffffffffffffffffffffffffff038211156132a05761329f6131f2565b5b828201905092915050565b7f4552433732313a20617070726f766520746f2063616c6c657200000000000000600082015250565b60006132e160198361238c565b91506132ec826132ab565b602082019050919050565b60006020820190508181036000830152613310816132d4565b9050919050565b7f4552433732313a207472616e7366657220746f206e6f6e20455243373231526560008201527f63656976657220696d706c656d656e7465720000000000000000000000000000602082015250565b600061337360328361238c565b915061337e82613317565b604082019050919050565b600060208201905081810360008301526133a281613366565b9050919050565b60006133b48261243c565b91507fffffffffffffffffffffffffffffffffffffffffffffffffffffffffffffffff82036133e6576133e56131f2565b5b600182019050919050565b7f4e487b7100000000000000000000000000000000000000000000000000000000600052601260045260246000fd5b600061342b8261243c565b91506134368361243c565b925082613446576134456133f1565b5b828204905092915050565b600061345c8261243c565b91506134678361243c565b925082613477576134766133f1565b5b828206905092915050565b7f4e487b7100000000000000000000000000000000000000000000000000000000600052603260045260246000fd5b60006134c46134bf846128cd565b61264d565b9050828152602081018484840111156134e0576134df6125e8565b5b6134eb84828561239d565b509392505050565b600082601f830112613508576135076125e3565b5b81516135188482602086016134b1565b91505092915050565b60008060408385031215613538576135376122bc565b5b600083015167ffffffffffffffff811115613556576135556122c1565b5b613562858286016134f3565b925050602083015167ffffffffffffffff811115613583576135826122c1565b5b61358f858286016134f3565b9150509250929050565b6000815190506135a881612446565b92915050565b6000602082840312156135c4576135c36122bc565b5b60006135d284828501613599565b91505092915050565b600081519050919050565b600082825260208201905092915050565b6000613602826135db565b61360c81856135e6565b935061361c81856020860161239d565b613625816123d0565b840191505092915050565b600060808201905061364560008301876124d1565b61365260208301866124d1565b61365f6040830185612837565b818103606083015261367181846135f7565b905095945050505050565b60008151905061368b816122f2565b92915050565b6000602082840312156136a7576136a66122bc565b5b60006136b58482850161367c565b91505092915050565b600061ffff82169050919050565b6136d5816136be565b82525050565b600063ffffffff82169050919050565b6136f4816136db565b82525050565b600061010082019050613710600083018b612837565b8181036020830152613722818a6123e1565b9050818103604083015261373681896135f7565b9050818103606083015261374a81886135f7565b905061375960808301876136cc565b61376660a08301866136cc565b61377360c08301856136eb565b61378060e08301846136eb565b9998505050505050505050565b60007fffffffffffffffffffffffffffffffff0000000000000000000000000000000082169050919050565b6137c28161378d565b81146137cd57600080fd5b50565b6000815190506137df816137b9565b92915050565b60006137f86137f384612668565b61264d565b905082815260208101848484011115613814576138136125e8565b5b61381f84828561239d565b509392505050565b600082601f83011261383c5761383b6125e3565b5b815161384c8482602086016137e5565b91505092915050565b6000806040838503121561386c5761386b6122bc565b5b600061387a858286016137d0565b925050602083015167ffffffffffffffff81111561389b5761389a6122c1565b5b6138a785828601613827565b9150509250929050565b60006060820190506138c660008301866136cc565b6138d360208301856136eb565b6138e060408301846136eb565b949350505050565b6138f18161378d565b82525050565b600060a08201905061390c60008301886138e8565b61391960208301876124d1565b61392660408301866136cc565b61393360608301856136eb565b61394060808301846136eb565b9695505050505050565b7f4552433732313a206d696e7420746f20746865207a65726f2061646472657373600082015250565b600061398060208361238c565b915061398b8261394a565b602082019050919050565b600060208201905081810360008301526139af81613973565b9050919050565b7f4552433732313a20746f6b656e20616c7265616479206d696e74656400000000600082015250565b60006139ec601c8361238c565b91506139f7826139b6565b602082019050919050565b60006020820190508181036000830152613a1b816139df565b905091905056fea264697066735822122043f772c75f009fe74011aa6e2d4e458c3f2e0c22282a13b5d5c2a421385534e764736f6c634300080d0033",
  "devdoc": {
    "kind": "dev",
    "methods": {
      "approve(address,uint256)": {
        "details": "See {IERC721-approve}."
      },
      "balanceOf(address)": {
        "details": "See {IERC721-balanceOf}."
      },
      "getApproved(uint256)": {
        "details": "See {IERC721-getApproved}."
      },
      "isApprovedForAll(address,address)": {
        "details": "See {IERC721-isApprovedForAll}."
      },
      "name()": {
        "details": "See {IERC721Metadata-name}."
      },
      "ownerOf(uint256)": {
        "details": "See {IERC721-ownerOf}."
      },
      "safeTransferFrom(address,address,uint256)": {
        "details": "See {IERC721-safeTransferFrom}."
      },
      "safeTransferFrom(address,address,uint256,bytes)": {
        "details": "See {IERC721-safeTransferFrom}."
      },
      "setApprovalForAll(address,bool)": {
        "details": "See {IERC721-setApprovalForAll}."
      },
      "supportsInterface(bytes4)": {
        "details": "See {IERC165-supportsInterface}."
      },
      "symbol()": {
        "details": "See {IERC721Metadata-symbol}."
      },
      "tokenURI(uint256)": {
        "details": "See {IERC721Metadata-tokenURI}."
      },
      "transferFrom(address,address,uint256)": {
        "details": "See {IERC721-transferFrom}."
      }
    },
    "version": 1
  },
  "userdoc": {
    "kind": "user",
    "methods": {},
    "version": 1
  },
  "storageLayout": {
    "storage": [
      {
        "astId": 6,
        "contract": "contracts/v2/OpenDRM721.sol:OpenDRM721v2",
        "label": "_initialized",
        "offset": 0,
        "slot": "0",
        "type": "t_bool"
      },
      {
        "astId": 9,
        "contract": "contracts/v2/OpenDRM721.sol:OpenDRM721v2",
        "label": "_initializing",
        "offset": 1,
        "slot": "0",
        "type": "t_bool"
      },
      {
        "astId": 1409,
        "contract": "contracts/v2/OpenDRM721.sol:OpenDRM721v2",
        "label": "__gap",
        "offset": 0,
        "slot": "1",
        "type": "t_array(t_uint256)50_storage"
      },
      {
        "astId": 1656,
        "contract": "contracts/v2/OpenDRM721.sol:OpenDRM721v2",
        "label": "__gap",
        "offset": 0,
        "slot": "51",
        "type": "t_array(t_uint256)50_storage"
      },
      {
        "astId": 102,
        "contract": "contracts/v2/OpenDRM721.sol:OpenDRM721v2",
        "label": "_name",
        "offset": 0,
        "slot": "101",
        "type": "t_string_storage"
      },
      {
        "astId": 104,
        "contract": "contracts/v2/OpenDRM721.sol:OpenDRM721v2",
        "label": "_symbol",
        "offset": 0,
        "slot": "102",
        "type": "t_string_storage"
      },
      {
        "astId": 108,
        "contract": "contracts/v2/OpenDRM721.sol:OpenDRM721v2",
        "label": "_owners",
        "offset": 0,
        "slot": "103",
        "type": "t_mapping(t_uint256,t_address)"
      },
      {
        "astId": 112,
        "contract": "contracts/v2/OpenDRM721.sol:OpenDRM721v2",
        "label": "_balances",
        "offset": 0,
        "slot": "104",
        "type": "t_mapping(t_address,t_uint256)"
      },
      {
        "astId": 116,
        "contract": "contracts/v2/OpenDRM721.sol:OpenDRM721v2",
        "label": "_tokenApprovals",
        "offset": 0,
        "slot": "105",
        "type": "t_mapping(t_uint256,t_address)"
      },
      {
        "astId": 122,
        "contract": "contracts/v2/OpenDRM721.sol:OpenDRM721v2",
        "label": "_operatorApprovals",
        "offset": 0,
        "slot": "106",
        "type": "t_mapping(t_address,t_mapping(t_address,t_bool))"
      },
      {
        "astId": 963,
        "contract": "contracts/v2/OpenDRM721.sol:OpenDRM721v2",
        "label": "__gap",
        "offset": 0,
        "slot": "107",
        "type": "t_array(t_uint256)44_storage"
      },
      {
        "astId": 2988,
        "contract": "contracts/v2/OpenDRM721.sol:OpenDRM721v2",
        "label": "_dkgManager",
        "offset": 0,
        "slot": "151",
        "type": "t_contract(DKGSubscriptionManager)2692"
      },
      {
        "astId": 2991,
        "contract": "contracts/v2/OpenDRM721.sol:OpenDRM721v2",
        "label": "_preManager",
        "offset": 0,
        "slot": "152",
        "type": "t_contract(IPRESubscriptionManager)2751"
      },
      {
        "astId": 2787,
        "contract": "contracts/v2/OpenDRM721.sol:OpenDRM721v2",
        "label": "_openDrmCoordinator",
        "offset": 0,
        "slot": "153",
        "type": "t_contract(OpenDRMCoordinator)3277"
      },
      {
        "astId": 2791,
        "contract": "contracts/v2/OpenDRM721.sol:OpenDRM721v2",
        "label": "policies",
        "offset": 0,
        "slot": "154",
        "type": "t_mapping(t_uint256,t_bytes16)"
      }
    ],
    "types": {
      "t_address": {
        "encoding": "inplace",
        "label": "address",
        "numberOfBytes": "20"
      },
      "t_array(t_uint256)44_storage": {
        "base": "t_uint256",
        "encoding": "inplace",
        "label": "uint256[44]",
        "numberOfBytes": "1408"
      },
      "t_array(t_uint256)50_storage": {
        "base": "t_uint256",
        "encoding": "inplace",
        "label": "uint256[50]",
        "numberOfBytes": "1600"
      },
      "t_bool": {
        "encoding": "inplace",
        "label": "bool",
        "numberOfBytes": "1"
      },
      "t_bytes16": {
        "encoding": "inplace",
        "label": "bytes16",
        "numberOfBytes": "16"
      },
      "t_contract(DKGSubscriptionManager)2692": {
        "encoding": "inplace",
        "label": "contract DKGSubscriptionManager",
        "numberOfBytes": "20"
      },
      "t_contract(IPRESubscriptionManager)2751": {
        "encoding": "inplace",
        "label": "contract IPRESubscriptionManager",
        "numberOfBytes": "20"
      },
      "t_contract(OpenDRMCoordinator)3277": {
        "encoding": "inplace",
        "label": "contract OpenDRMCoordinator",
        "numberOfBytes": "20"
      },
      "t_mapping(t_address,t_bool)": {
        "encoding": "mapping",
        "key": "t_address",
        "label": "mapping(address => bool)",
        "numberOfBytes": "32",
        "value": "t_bool"
      },
      "t_mapping(t_address,t_mapping(t_address,t_bool))": {
        "encoding": "mapping",
        "key": "t_address",
        "label": "mapping(address => mapping(address => bool))",
        "numberOfBytes": "32",
        "value": "t_mapping(t_address,t_bool)"
      },
      "t_mapping(t_address,t_uint256)": {
        "encoding": "mapping",
        "key": "t_address",
        "label": "mapping(address => uint256)",
        "numberOfBytes": "32",
        "value": "t_uint256"
      },
      "t_mapping(t_uint256,t_address)": {
        "encoding": "mapping",
        "key": "t_uint256",
        "label": "mapping(uint256 => address)",
        "numberOfBytes": "32",
        "value": "t_address"
      },
      "t_mapping(t_uint256,t_bytes16)": {
        "encoding": "mapping",
        "key": "t_uint256",
        "label": "mapping(uint256 => bytes16)",
        "numberOfBytes": "32",
        "value": "t_bytes16"
      },
      "t_string_storage": {
        "encoding": "bytes",
        "label": "string",
        "numberOfBytes": "32"
      },
      "t_uint256": {
        "encoding": "inplace",
        "label": "uint256",
        "numberOfBytes": "32"
      }
    }
  }
}