{
  "address": "0x6517170aaD6f68717D85086332079ba786124A4a",
  "abi": [
    {
      "inputs": [
        {
          "internalType": "contract IPolicyManager",
          "name": "_policyManager",
          "type": "address"
        },
        {
          "internalType": "bytes",
          "name": "_verifyingKey",
          "type": "bytes"
        }
      ],
      "stateMutability": "nonpayable",
      "type": "constructor"
    },
    {
      "anonymous": false,
      "inputs": [
        {
          "indexed": true,
          "internalType": "bytes16",
          "name": "policyId",
          "type": "bytes16"
        },
        {
          "indexed": false,
          "internalType": "address",
          "name": "ursula",
          "type": "address"
        },
        {
          "indexed": false,
          "internalType": "bytes",
          "name": "kfrag",
          "type": "bytes"
        }
      ],
      "name": "KfragsCreated",
      "type": "event"
    },
    {
      "anonymous": false,
      "inputs": [
        {
          "indexed": true,
          "internalType": "address",
          "name": "requestor",
          "type": "address"
        },
        {
          "indexed": true,
          "internalType": "address",
          "name": "recipient",
          "type": "address"
        },
        {
          "indexed": false,
          "internalType": "string",
          "name": "label",
          "type": "string"
        }
      ],
      "name": "PolicyRequested",
      "type": "event"
    },
    {
      "anonymous": false,
      "inputs": [
        {
          "indexed": true,
          "internalType": "address",
          "name": "user",
          "type": "address"
        },
        {
          "indexed": false,
          "internalType": "bytes",
          "name": "verifyingKey",
          "type": "bytes"
        },
        {
          "indexed": false,
          "internalType": "bytes",
          "name": "decryptingKey",
          "type": "bytes"
        }
      ],
      "name": "UserRegistered",
      "type": "event"
    },
    {
      "inputs": [
        {
          "internalType": "bytes16",
          "name": "_policyId",
          "type": "bytes16"
        },
        {
          "internalType": "uint64",
          "name": "_endTimestamp",
          "type": "uint64"
        },
        {
          "internalType": "address[]",
          "name": "_nodes",
          "type": "address[]"
        },
        {
          "internalType": "bytes[]",
          "name": "_kfrags",
          "type": "bytes[]"
        }
      ],
      "name": "createPolicy",
      "outputs": [],
      "stateMutability": "payable",
      "type": "function"
    },
    {
      "inputs": [
        {
          "internalType": "bytes",
          "name": "_bobVerifyingKey",
          "type": "bytes"
        },
        {
          "internalType": "bytes",
          "name": "_bobDecryptingKey",
          "type": "bytes"
        }
      ],
      "name": "registerMe",
      "outputs": [],
      "stateMutability": "nonpayable",
      "type": "function"
    },
    {
      "inputs": [
        {
          "internalType": "address",
          "name": "",
          "type": "address"
        }
      ],
      "name": "registry",
      "outputs": [
        {
          "internalType": "bytes",
          "name": "bobVerifyingKey",
          "type": "bytes"
        },
        {
          "internalType": "bytes",
          "name": "bobDecryptingKey",
          "type": "bytes"
        }
      ],
      "stateMutability": "view",
      "type": "function"
    },
    {
      "inputs": [
        {
          "internalType": "string",
          "name": "_label",
          "type": "string"
        },
        {
          "internalType": "address",
          "name": "_recipient",
          "type": "address"
        }
      ],
      "name": "requestPolicy",
      "outputs": [],
      "stateMutability": "payable",
      "type": "function"
    },
    {
      "inputs": [
        {
          "internalType": "bytes16",
          "name": "",
          "type": "bytes16"
        }
      ],
      "name": "requests",
      "outputs": [
        {
          "internalType": "address",
          "name": "recipient",
          "type": "address"
        },
        {
          "internalType": "address",
          "name": "policyOwner",
          "type": "address"
        },
        {
          "internalType": "uint256",
          "name": "timestamp",
          "type": "uint256"
        },
        {
          "internalType": "string",
          "name": "label",
          "type": "string"
        }
      ],
      "stateMutability": "view",
      "type": "function"
    },
    {
      "inputs": [],
      "name": "verifyingKey",
      "outputs": [
        {
          "internalType": "bytes",
          "name": "",
          "type": "bytes"
        }
      ],
      "stateMutability": "view",
      "type": "function"
    },
    {
      "stateMutability": "payable",
      "type": "receive"
    }
  ],
  "transactionHash": "0x4b944c9db41ebdcd110e4f03a2981e340ac40f09e381dea607537a8341207516",
  "args": [
    "0xaC5e34d3FD41809873968c349d1194D23045b9D2",
    "0x036bd8188183e5c251065d1b22cb52c20f31a88fbf01b1eb75b5cbd5896d76c3e0"
  ],
  "solcInputHash": "c398d27f2287cae24f771d620b138ea4",
  "bytecode": "0x60806040523480156200001157600080fd5b5060405162001b6538038062001b658339818101604052810190620000379190620001d1565b816000806101000a81548173ffffffffffffffffffffffffffffffffffffffff021916908373ffffffffffffffffffffffffffffffffffffffff16021790555080600190805190602001906200008f92919062000098565b505050620003fd565b828054620000a69062000308565b90600052602060002090601f016020900481019282620000ca576000855562000116565b82601f10620000e557805160ff191683800117855562000116565b8280016001018555821562000116579182015b8281111562000115578251825591602001919060010190620000f8565b5b50905062000125919062000129565b5090565b5b80821115620001445760008160009055506001016200012a565b5090565b60006200015f620001598462000254565b6200022b565b9050828152602081018484840111156200017857600080fd5b62000185848285620002d2565b509392505050565b600082601f8301126200019f57600080fd5b8151620001b184826020860162000148565b91505092915050565b600081519050620001cb81620003e3565b92915050565b60008060408385031215620001e557600080fd5b6000620001f585828601620001ba565b925050602083015167ffffffffffffffff8111156200021357600080fd5b62000221858286016200018d565b9150509250929050565b6000620002376200024a565b90506200024582826200033e565b919050565b6000604051905090565b600067ffffffffffffffff821115620002725762000271620003a3565b5b6200027d82620003d2565b9050602081019050919050565b60006200029782620002b2565b9050919050565b6000620002ab826200028a565b9050919050565b600073ffffffffffffffffffffffffffffffffffffffff82169050919050565b60005b83811015620002f2578082015181840152602081019050620002d5565b8381111562000302576000848401525b50505050565b600060028204905060018216806200032157607f821691505b6020821081141562000338576200033762000374565b5b50919050565b6200034982620003d2565b810181811067ffffffffffffffff821117156200036b576200036a620003a3565b5b80604052505050565b7f4e487b7100000000000000000000000000000000000000000000000000000000600052602260045260246000fd5b7f4e487b7100000000000000000000000000000000000000000000000000000000600052604160045260246000fd5b6000601f19601f8301169050919050565b620003ee816200029e565b8114620003fa57600080fd5b50565b611758806200040d6000396000f3fe6080604052600436106100595760003560e01c8063038defd71461006e5780631a8370dd146100ac57806354b50895146100ec578063574267fa1461010857806360c37bd6146101315780637950c5f81461014d57610069565b366100695761006734610178565b005b600080fd5b34801561007a57600080fd5b5061009560048036038101906100909190610de3565b610211565b6040516100a392919061131d565b60405180910390f35b3480156100b857600080fd5b506100d360048036038101906100ce9190610e0c565b610345565b6040516100e394939291906111d9565b60405180910390f35b61010660048036038101906101019190610e35565b61043d565b005b34801561011457600080fd5b5061012f600480360381019061012a9190610ed0565b61063c565b005b61014b60048036038101906101469190610f45565b6107af565b005b34801561015957600080fd5b5061016261096e565b60405161016f91906112fb565b60405180910390f35b61020e8160405160240161018c9190611376565b6040516020818303038152906040527ff5b1bba9000000000000000000000000000000000000000000000000000000007bffffffffffffffffffffffffffffffffffffffffffffffffffffffff19166020820180517bffffffffffffffffffffffffffffffffffffffffffffffffffffffff83818316178352505050506109fc565b50565b600260205280600052604060002060009150905080600001805461023490611593565b80601f016020809104026020016040519081016040528092919081815260200182805461026090611593565b80156102ad5780601f10610282576101008083540402835291602001916102ad565b820191906000526020600020905b81548152906001019060200180831161029057829003601f168201915b5050505050908060010180546102c290611593565b80601f01602080910402602001604051908101604052809291908181526020018280546102ee90611593565b801561033b5780601f106103105761010080835404028352916020019161033b565b820191906000526020600020905b81548152906001019060200180831161031e57829003601f168201915b5050505050905082565b60036020528060005260406000206000915090508060000160009054906101000a900473ffffffffffffffffffffffffffffffffffffffff16908060010160009054906101000a900473ffffffffffffffffffffffffffffffffffffffff16908060020154908060030180546103ba90611593565b80601f01602080910402602001604051908101604052809291908181526020018280546103e690611593565b80156104335780601f1061040857610100808354040283529160200191610433565b820191906000526020600020905b81548152906001019060200180831161041657829003601f168201915b5050505050905084565b60008054906101000a900473ffffffffffffffffffffffffffffffffffffffff1673ffffffffffffffffffffffffffffffffffffffff166381e742a13488600360008b6fffffffffffffffffffffffffffffffff19166fffffffffffffffffffffffffffffffff1916815260200190815260200160002060010160009054906101000a900473ffffffffffffffffffffffffffffffffffffffff168989896040518763ffffffff1660e01b81526004016104fb959493929190611272565b6000604051808303818588803b15801561051457600080fd5b505af1158015610528573d6000803e3d6000fd5b505050505060005b8484905081101561063357866fffffffffffffffffffffffffffffffff19167f4d1d573b683a134709ff3acb537c8aa57fbb4284f8e201f5cdb5a3fbe61022b38686848181106105a9577f4e487b7100000000000000000000000000000000000000000000000000000000600052603260045260246000fd5b90506020020160208101906105be9190610de3565b8585858181106105f7577f4e487b7100000000000000000000000000000000000000000000000000000000600052603260045260246000fd5b90506020028101906106099190611391565b60405161061893929190611225565b60405180910390a2808061062b906115f6565b915050610530565b50505050505050565b604051806040016040528085858080601f016020809104026020016040519081016040528093929190818152602001838380828437600081840152601f19601f82011690508083019250505050505050815260200183838080601f016020809104026020016040519081016040528093929190818152602001838380828437600081840152601f19601f82011690508083019250505050505050815250600260003373ffffffffffffffffffffffffffffffffffffffff1673ffffffffffffffffffffffffffffffffffffffff1681526020019081526020016000206000820151816000019080519060200190610734929190610b35565b506020820151816001019080519060200190610751929190610b35565b509050503373ffffffffffffffffffffffffffffffffffffffff167f21e927615156d90b4bb131ee82c2149fe2e1bad9298a065589df5dc79dca1413858585856040516107a194939291906112c0565b60405180910390a250505050565b60006107bb8383610a25565b90506107c681610a9c565b60405180608001604052808373ffffffffffffffffffffffffffffffffffffffff1681526020013373ffffffffffffffffffffffffffffffffffffffff1681526020014281526020018481525060036000836fffffffffffffffffffffffffffffffff19166fffffffffffffffffffffffffffffffff1916815260200190815260200160002060008201518160000160006101000a81548173ffffffffffffffffffffffffffffffffffffffff021916908373ffffffffffffffffffffffffffffffffffffffff16021790555060208201518160010160006101000a81548173ffffffffffffffffffffffffffffffffffffffff021916908373ffffffffffffffffffffffffffffffffffffffff160217905550604082015181600201556060820151816003019080519060200190610900929190610bbb565b509050508173ffffffffffffffffffffffffffffffffffffffff163373ffffffffffffffffffffffffffffffffffffffff167f2f0a57b5e983f6499f8f043d8869037b0eaa4952c8b222d1de7d4fc36ee95130856040516109619190611354565b60405180910390a3505050565b6001805461097b90611593565b80601f01602080910402602001604051908101604052809291908181526020018280546109a790611593565b80156109f45780601f106109c9576101008083540402835291602001916109f4565b820191906000526020600020905b8154815290600101906020018083116109d757829003601f168201915b505050505081565b60008151905060006a636f6e736f6c652e6c6f679050602083016000808483855afa5050505050565b60006001600260008473ffffffffffffffffffffffffffffffffffffffff1673ffffffffffffffffffffffffffffffffffffffff16815260200190815260200160002060000184604051602001610a7e939291906111a8565b60405160208183030381529060405280519060200120905092915050565b610b3281604051602401610ab09190611257565b6040516020818303038152906040527f665c6104000000000000000000000000000000000000000000000000000000007bffffffffffffffffffffffffffffffffffffffffffffffffffffffff19166020820180517bffffffffffffffffffffffffffffffffffffffffffffffffffffffff83818316178352505050506109fc565b50565b828054610b4190611593565b90600052602060002090601f016020900481019282610b635760008555610baa565b82601f10610b7c57805160ff1916838001178555610baa565b82800160010185558215610baa579182015b82811115610ba9578251825591602001919060010190610b8e565b5b509050610bb79190610c41565b5090565b828054610bc790611593565b90600052602060002090601f016020900481019282610be95760008555610c30565b82601f10610c0257805160ff1916838001178555610c30565b82800160010185558215610c30579182015b82811115610c2f578251825591602001919060010190610c14565b5b509050610c3d9190610c41565b5090565b5b80821115610c5a576000816000905550600101610c42565b5090565b6000610c71610c6c8461140d565b6113e8565b905082815260208101848484011115610c8957600080fd5b610c94848285611551565b509392505050565b600081359050610cab816116dd565b92915050565b60008083601f840112610cc357600080fd5b8235905067ffffffffffffffff811115610cdc57600080fd5b602083019150836020820283011115610cf457600080fd5b9250929050565b60008083601f840112610d0d57600080fd5b8235905067ffffffffffffffff811115610d2657600080fd5b602083019150836020820283011115610d3e57600080fd5b9250929050565b600081359050610d54816116f4565b92915050565b60008083601f840112610d6c57600080fd5b8235905067ffffffffffffffff811115610d8557600080fd5b602083019150836001820283011115610d9d57600080fd5b9250929050565b600082601f830112610db557600080fd5b8135610dc5848260208601610c5e565b91505092915050565b600081359050610ddd8161170b565b92915050565b600060208284031215610df557600080fd5b6000610e0384828501610c9c565b91505092915050565b600060208284031215610e1e57600080fd5b6000610e2c84828501610d45565b91505092915050565b60008060008060008060808789031215610e4e57600080fd5b6000610e5c89828a01610d45565b9650506020610e6d89828a01610dce565b955050604087013567ffffffffffffffff811115610e8a57600080fd5b610e9689828a01610cb1565b9450945050606087013567ffffffffffffffff811115610eb557600080fd5b610ec189828a01610cfb565b92509250509295509295509295565b60008060008060408587031215610ee657600080fd5b600085013567ffffffffffffffff811115610f0057600080fd5b610f0c87828801610d5a565b9450945050602085013567ffffffffffffffff811115610f2b57600080fd5b610f3787828801610d5a565b925092505092959194509250565b60008060408385031215610f5857600080fd5b600083013567ffffffffffffffff811115610f7257600080fd5b610f7e85828601610da4565b9250506020610f8f85828601610c9c565b9150509250929050565b6000610fa58383610fb1565b60208301905092915050565b610fba816114d5565b82525050565b610fc9816114d5565b82525050565b6000610fdb8385611480565b9350610fe68261143e565b8060005b8581101561101f57610ffc82846114be565b6110068882610f99565b975061101183611473565b925050600181019050610fea565b5085925050509392505050565b611035816114e7565b82525050565b60006110478385611491565b9350611054838584611551565b61105d836116cc565b840190509392505050565b60006110738261145d565b61107d8185611491565b935061108d818560208601611560565b611096816116cc565b840191505092915050565b60006110ac8261145d565b6110b681856114a2565b93506110c6818560208601611560565b80840191505092915050565b600081546110df81611593565b6110e981866114a2565b94506001821660008114611104576001811461111557611148565b60ff19831686528186019350611148565b61111e85611448565b60005b8381101561114057815481890152600182019150602081019050611121565b838801955050505b50505092915050565b600061115c82611468565b61116681856114ad565b9350611176818560208601611560565b61117f816116cc565b840191505092915050565b61119381611533565b82525050565b6111a28161153d565b82525050565b60006111b482866110d2565b91506111c082856110d2565b91506111cc82846110a1565b9150819050949350505050565b60006080820190506111ee6000830187610fc0565b6111fb6020830186610fc0565b611208604083018561118a565b818103606083015261121a8184611151565b905095945050505050565b600060408201905061123a6000830186610fc0565b818103602083015261124d81848661103b565b9050949350505050565b600060208201905061126c600083018461102c565b92915050565b6000608082019050611287600083018861102c565b6112946020830187610fc0565b6112a16040830186611199565b81810360608301526112b4818486610fcf565b90509695505050505050565b600060408201905081810360008301526112db81868861103b565b905081810360208301526112f081848661103b565b905095945050505050565b600060208201905081810360008301526113158184611068565b905092915050565b600060408201905081810360008301526113378185611068565b9050818103602083015261134b8184611068565b90509392505050565b6000602082019050818103600083015261136e8184611151565b905092915050565b600060208201905061138b600083018461118a565b92915050565b600080833560016020038436030381126113aa57600080fd5b80840192508235915067ffffffffffffffff8211156113c857600080fd5b6020830192506001820236038313156113e057600080fd5b509250929050565b60006113f2611403565b90506113fe82826115c5565b919050565b6000604051905090565b600067ffffffffffffffff8211156114285761142761169d565b5b611431826116cc565b9050602081019050919050565b6000819050919050565b60008190508160005260206000209050919050565b600081519050919050565b600081519050919050565b6000602082019050919050565b600082825260208201905092915050565b600082825260208201905092915050565b600081905092915050565b600082825260208201905092915050565b60006114cd6020840184610c9c565b905092915050565b60006114e082611513565b9050919050565b60007fffffffffffffffffffffffffffffffff0000000000000000000000000000000082169050919050565b600073ffffffffffffffffffffffffffffffffffffffff82169050919050565b6000819050919050565b600067ffffffffffffffff82169050919050565b82818337600083830152505050565b60005b8381101561157e578082015181840152602081019050611563565b8381111561158d576000848401525b50505050565b600060028204905060018216806115ab57607f821691505b602082108114156115bf576115be61166e565b5b50919050565b6115ce826116cc565b810181811067ffffffffffffffff821117156115ed576115ec61169d565b5b80604052505050565b600061160182611533565b91507fffffffffffffffffffffffffffffffffffffffffffffffffffffffffffffffff8214156116345761163361163f565b5b600182019050919050565b7f4e487b7100000000000000000000000000000000000000000000000000000000600052601160045260246000fd5b7f4e487b7100000000000000000000000000000000000000000000000000000000600052602260045260246000fd5b7f4e487b7100000000000000000000000000000000000000000000000000000000600052604160045260246000fd5b6000601f19601f8301169050919050565b6116e6816114d5565b81146116f157600080fd5b50565b6116fd816114e7565b811461170857600080fd5b50565b6117148161153d565b811461171f57600080fd5b5056fea2646970667358221220a9d3cb0a4d0cf7dd85f290d0cd04e4a9c681c1de39f2d0f8152f6979734159ce64736f6c63430008040033",
  "devdoc": {
    "kind": "dev",
    "methods": {
      "createPolicy(bytes16,uint64,address[],bytes[])": {
        "details": "TODO: onlyOwner"
      }
    },
    "version": 1
  },
  "userdoc": {
    "kind": "user",
    "methods": {},
    "version": 1
  },
  "storageLayout": {
    "storage": [
      {
        "astId": 1571,
        "contract": "contracts/AbioticAliceManager.sol:AbioticAliceManager",
        "label": "policyManager",
        "offset": 0,
        "slot": "0",
        "type": "t_contract(IPolicyManager)1871"
      },
      {
        "astId": 1573,
        "contract": "contracts/AbioticAliceManager.sol:AbioticAliceManager",
        "label": "verifyingKey",
        "offset": 0,
        "slot": "1",
        "type": "t_bytes_storage"
      },
      {
        "astId": 1578,
        "contract": "contracts/AbioticAliceManager.sol:AbioticAliceManager",
        "label": "registry",
        "offset": 0,
        "slot": "2",
        "type": "t_mapping(t_address,t_struct(Bob)1568_storage)"
      },
      {
        "astId": 1583,
        "contract": "contracts/AbioticAliceManager.sol:AbioticAliceManager",
        "label": "requests",
        "offset": 0,
        "slot": "3",
        "type": "t_mapping(t_bytes16,t_struct(PolicyRequest)1563_storage)"
      }
    ],
    "types": {
      "t_address": {
        "encoding": "inplace",
        "label": "address",
        "numberOfBytes": "20"
      },
      "t_bytes16": {
        "encoding": "inplace",
        "label": "bytes16",
        "numberOfBytes": "16"
      },
      "t_bytes_storage": {
        "encoding": "bytes",
        "label": "bytes",
        "numberOfBytes": "32"
      },
      "t_contract(IPolicyManager)1871": {
        "encoding": "inplace",
        "label": "contract IPolicyManager",
        "numberOfBytes": "20"
      },
      "t_mapping(t_address,t_struct(Bob)1568_storage)": {
        "encoding": "mapping",
        "key": "t_address",
        "label": "mapping(address => struct AbioticAliceManager.Bob)",
        "numberOfBytes": "32",
        "value": "t_struct(Bob)1568_storage"
      },
      "t_mapping(t_bytes16,t_struct(PolicyRequest)1563_storage)": {
        "encoding": "mapping",
        "key": "t_bytes16",
        "label": "mapping(bytes16 => struct AbioticAliceManager.PolicyRequest)",
        "numberOfBytes": "32",
        "value": "t_struct(PolicyRequest)1563_storage"
      },
      "t_string_storage": {
        "encoding": "bytes",
        "label": "string",
        "numberOfBytes": "32"
      },
      "t_struct(Bob)1568_storage": {
        "encoding": "inplace",
        "label": "struct AbioticAliceManager.Bob",
        "members": [
          {
            "astId": 1565,
            "contract": "contracts/AbioticAliceManager.sol:AbioticAliceManager",
            "label": "bobVerifyingKey",
            "offset": 0,
            "slot": "0",
            "type": "t_bytes_storage"
          },
          {
            "astId": 1567,
            "contract": "contracts/AbioticAliceManager.sol:AbioticAliceManager",
            "label": "bobDecryptingKey",
            "offset": 0,
            "slot": "1",
            "type": "t_bytes_storage"
          }
        ],
        "numberOfBytes": "64"
      },
      "t_struct(PolicyRequest)1563_storage": {
        "encoding": "inplace",
        "label": "struct AbioticAliceManager.PolicyRequest",
        "members": [
          {
            "astId": 1556,
            "contract": "contracts/AbioticAliceManager.sol:AbioticAliceManager",
            "label": "recipient",
            "offset": 0,
            "slot": "0",
            "type": "t_address"
          },
          {
            "astId": 1558,
            "contract": "contracts/AbioticAliceManager.sol:AbioticAliceManager",
            "label": "policyOwner",
            "offset": 0,
            "slot": "1",
            "type": "t_address"
          },
          {
            "astId": 1560,
            "contract": "contracts/AbioticAliceManager.sol:AbioticAliceManager",
            "label": "timestamp",
            "offset": 0,
            "slot": "2",
            "type": "t_uint256"
          },
          {
            "astId": 1562,
            "contract": "contracts/AbioticAliceManager.sol:AbioticAliceManager",
            "label": "label",
            "offset": 0,
            "slot": "3",
            "type": "t_string_storage"
          }
        ],
        "numberOfBytes": "128"
      },
      "t_uint256": {
        "encoding": "inplace",
        "label": "uint256",
        "numberOfBytes": "32"
      }
    }
  }
}