{
  "address": "0xce17c99C774DBE4c2B79862064151D91c3829B1f",
  "abi": [
    {
      "inputs": [
        {
          "internalType": "contract IPolicyManager",
          "name": "_policyManager",
          "type": "address"
        },
        {
          "internalType": "bytes",
          "name": "_verifyingKey",
          "type": "bytes"
        }
      ],
      "stateMutability": "nonpayable",
      "type": "constructor"
    },
    {
      "anonymous": false,
      "inputs": [
        {
          "indexed": true,
          "internalType": "bytes16",
          "name": "policyId",
          "type": "bytes16"
        },
        {
          "indexed": false,
          "internalType": "address",
          "name": "ursula",
          "type": "address"
        },
        {
          "indexed": false,
          "internalType": "bytes",
          "name": "kfrag",
          "type": "bytes"
        }
      ],
      "name": "KfragsCreated",
      "type": "event"
    },
    {
      "anonymous": false,
      "inputs": [
        {
          "indexed": true,
          "internalType": "address",
          "name": "requestor",
          "type": "address"
        },
        {
          "indexed": true,
          "internalType": "address",
          "name": "recipient",
          "type": "address"
        },
        {
          "indexed": false,
          "internalType": "string",
          "name": "label",
          "type": "string"
        }
      ],
      "name": "PolicyRequested",
      "type": "event"
    },
    {
      "anonymous": false,
      "inputs": [
        {
          "indexed": true,
          "internalType": "address",
          "name": "user",
          "type": "address"
        },
        {
          "indexed": false,
          "internalType": "bytes",
          "name": "verifyingKey",
          "type": "bytes"
        },
        {
          "indexed": false,
          "internalType": "bytes",
          "name": "decryptingKey",
          "type": "bytes"
        }
      ],
      "name": "UserRegistered",
      "type": "event"
    },
    {
      "inputs": [
        {
          "internalType": "bytes16",
          "name": "_policyId",
          "type": "bytes16"
        },
        {
          "internalType": "uint64",
          "name": "_endTimestamp",
          "type": "uint64"
        },
        {
          "internalType": "address[]",
          "name": "_nodes",
          "type": "address[]"
        },
        {
          "internalType": "bytes[]",
          "name": "_kfrags",
          "type": "bytes[]"
        }
      ],
      "name": "createPolicy",
      "outputs": [],
      "stateMutability": "payable",
      "type": "function"
    },
    {
      "inputs": [
        {
          "internalType": "bytes",
          "name": "_bobVerifyingKey",
          "type": "bytes"
        },
        {
          "internalType": "bytes",
          "name": "_bobDecryptingKey",
          "type": "bytes"
        }
      ],
      "name": "registerMe",
      "outputs": [],
      "stateMutability": "nonpayable",
      "type": "function"
    },
    {
      "inputs": [
        {
          "internalType": "address",
          "name": "",
          "type": "address"
        }
      ],
      "name": "registry",
      "outputs": [
        {
          "internalType": "bytes",
          "name": "bobVerifyingKey",
          "type": "bytes"
        },
        {
          "internalType": "bytes",
          "name": "bobDecryptingKey",
          "type": "bytes"
        }
      ],
      "stateMutability": "view",
      "type": "function"
    },
    {
      "inputs": [
        {
          "internalType": "string",
          "name": "_label",
          "type": "string"
        },
        {
          "internalType": "address",
          "name": "_recipient",
          "type": "address"
        }
      ],
      "name": "requestPolicy",
      "outputs": [],
      "stateMutability": "payable",
      "type": "function"
    },
    {
      "inputs": [
        {
          "internalType": "bytes16",
          "name": "",
          "type": "bytes16"
        }
      ],
      "name": "requests",
      "outputs": [
        {
          "internalType": "address",
          "name": "recipient",
          "type": "address"
        },
        {
          "internalType": "address",
          "name": "policyOwner",
          "type": "address"
        },
        {
          "internalType": "uint256",
          "name": "timestamp",
          "type": "uint256"
        },
        {
          "internalType": "string",
          "name": "label",
          "type": "string"
        }
      ],
      "stateMutability": "view",
      "type": "function"
    },
    {
      "inputs": [],
      "name": "verifyingKey",
      "outputs": [
        {
          "internalType": "bytes",
          "name": "",
          "type": "bytes"
        }
      ],
      "stateMutability": "view",
      "type": "function"
    }
  ],
  "transactionHash": "0x5ea8530de3b56efa75b133b5735ab98c54cd94cc8c358b6c27ba65ffb5efbef0",
  "args": [
    "0xaC5e34d3FD41809873968c349d1194D23045b9D2",
    "0x036bd8188183e5c251065d1b22cb52c20f31a88fbf01b1eb75b5cbd5896d76c3e0"
  ],
  "solcInputHash": "240e0c91c730c98e29ffb4152cb89640",
  "bytecode": "0x60806040523480156200001157600080fd5b5060405162001c9c38038062001c9c8339818101604052810190620000379190620001d1565b816000806101000a81548173ffffffffffffffffffffffffffffffffffffffff021916908373ffffffffffffffffffffffffffffffffffffffff16021790555080600190805190602001906200008f92919062000098565b505050620003fd565b828054620000a69062000308565b90600052602060002090601f016020900481019282620000ca576000855562000116565b82601f10620000e557805160ff191683800117855562000116565b8280016001018555821562000116579182015b8281111562000115578251825591602001919060010190620000f8565b5b50905062000125919062000129565b5090565b5b80821115620001445760008160009055506001016200012a565b5090565b60006200015f620001598462000254565b6200022b565b9050828152602081018484840111156200017857600080fd5b62000185848285620002d2565b509392505050565b600082601f8301126200019f57600080fd5b8151620001b184826020860162000148565b91505092915050565b600081519050620001cb81620003e3565b92915050565b60008060408385031215620001e557600080fd5b6000620001f585828601620001ba565b925050602083015167ffffffffffffffff8111156200021357600080fd5b62000221858286016200018d565b9150509250929050565b6000620002376200024a565b90506200024582826200033e565b919050565b6000604051905090565b600067ffffffffffffffff821115620002725762000271620003a3565b5b6200027d82620003d2565b9050602081019050919050565b60006200029782620002b2565b9050919050565b6000620002ab826200028a565b9050919050565b600073ffffffffffffffffffffffffffffffffffffffff82169050919050565b60005b83811015620002f2578082015181840152602081019050620002d5565b8381111562000302576000848401525b50505050565b600060028204905060018216806200032157607f821691505b6020821081141562000338576200033762000374565b5b50919050565b6200034982620003d2565b810181811067ffffffffffffffff821117156200036b576200036a620003a3565b5b80604052505050565b7f4e487b7100000000000000000000000000000000000000000000000000000000600052602260045260246000fd5b7f4e487b7100000000000000000000000000000000000000000000000000000000600052604160045260246000fd5b6000601f19601f8301169050919050565b620003ee816200029e565b8114620003fa57600080fd5b50565b61188f806200040d6000396000f3fe6080604052600436106100555760003560e01c8063038defd71461005a5780631a8370dd1461009857806354b50895146100d8578063574267fa146100f457806360c37bd61461011d5780637950c5f814610139575b600080fd5b34801561006657600080fd5b50610081600480360381019061007c9190610f35565b610164565b60405161008f92919061146f565b60405180910390f35b3480156100a457600080fd5b506100bf60048036038101906100ba9190610f5e565b610298565b6040516100cf949392919061132b565b60405180910390f35b6100f260048036038101906100ed9190610f87565b610390565b005b34801561010057600080fd5b5061011b60048036038101906101169190611022565b61058f565b005b61013760048036038101906101329190611097565b610702565b005b34801561014557600080fd5b5061014e6108c1565b60405161015b919061144d565b60405180910390f35b6002602052806000526040600020600091509050806000018054610187906116ca565b80601f01602080910402602001604051908101604052809291908181526020018280546101b3906116ca565b80156102005780601f106101d557610100808354040283529160200191610200565b820191906000526020600020905b8154815290600101906020018083116101e357829003601f168201915b505050505090806001018054610215906116ca565b80601f0160208091040260200160405190810160405280929190818152602001828054610241906116ca565b801561028e5780601f106102635761010080835404028352916020019161028e565b820191906000526020600020905b81548152906001019060200180831161027157829003601f168201915b5050505050905082565b60036020528060005260406000206000915090508060000160009054906101000a900473ffffffffffffffffffffffffffffffffffffffff16908060010160009054906101000a900473ffffffffffffffffffffffffffffffffffffffff169080600201549080600301805461030d906116ca565b80601f0160208091040260200160405190810160405280929190818152602001828054610339906116ca565b80156103865780601f1061035b57610100808354040283529160200191610386565b820191906000526020600020905b81548152906001019060200180831161036957829003601f168201915b5050505050905084565b60008054906101000a900473ffffffffffffffffffffffffffffffffffffffff1673ffffffffffffffffffffffffffffffffffffffff166381e742a13488600360008b6fffffffffffffffffffffffffffffffff19166fffffffffffffffffffffffffffffffff1916815260200190815260200160002060010160009054906101000a900473ffffffffffffffffffffffffffffffffffffffff168989896040518763ffffffff1660e01b815260040161044e9594939291906113c4565b6000604051808303818588803b15801561046757600080fd5b505af115801561047b573d6000803e3d6000fd5b505050505060005b8484905081101561058657866fffffffffffffffffffffffffffffffff19167f4d1d573b683a134709ff3acb537c8aa57fbb4284f8e201f5cdb5a3fbe61022b38686848181106104fc577f4e487b7100000000000000000000000000000000000000000000000000000000600052603260045260246000fd5b90506020020160208101906105119190610f35565b85858581811061054a577f4e487b7100000000000000000000000000000000000000000000000000000000600052603260045260246000fd5b905060200281019061055c91906114c8565b60405161056b93929190611377565b60405180910390a2808061057e9061172d565b915050610483565b50505050505050565b604051806040016040528085858080601f016020809104026020016040519081016040528093929190818152602001838380828437600081840152601f19601f82011690508083019250505050505050815260200183838080601f016020809104026020016040519081016040528093929190818152602001838380828437600081840152601f19601f82011690508083019250505050505050815250600260003373ffffffffffffffffffffffffffffffffffffffff1673ffffffffffffffffffffffffffffffffffffffff1681526020019081526020016000206000820151816000019080519060200190610687929190610c87565b5060208201518160010190805190602001906106a4929190610c87565b509050503373ffffffffffffffffffffffffffffffffffffffff167f21e927615156d90b4bb131ee82c2149fe2e1bad9298a065589df5dc79dca1413858585856040516106f49493929190611412565b60405180910390a250505050565b600061070e838361094f565b905061071981610b2c565b60405180608001604052808373ffffffffffffffffffffffffffffffffffffffff1681526020013373ffffffffffffffffffffffffffffffffffffffff1681526020014281526020018481525060036000836fffffffffffffffffffffffffffffffff19166fffffffffffffffffffffffffffffffff1916815260200190815260200160002060008201518160000160006101000a81548173ffffffffffffffffffffffffffffffffffffffff021916908373ffffffffffffffffffffffffffffffffffffffff16021790555060208201518160010160006101000a81548173ffffffffffffffffffffffffffffffffffffffff021916908373ffffffffffffffffffffffffffffffffffffffff160217905550604082015181600201556060820151816003019080519060200190610853929190610d0d565b509050508173ffffffffffffffffffffffffffffffffffffffff163373ffffffffffffffffffffffffffffffffffffffff167f2f0a57b5e983f6499f8f043d8869037b0eaa4952c8b222d1de7d4fc36ee95130856040516108b491906114a6565b60405180910390a3505050565b600180546108ce906116ca565b80601f01602080910402602001604051908101604052809291908181526020018280546108fa906116ca565b80156109475780601f1061091c57610100808354040283529160200191610947565b820191906000526020600020905b81548152906001019060200180831161092a57829003601f168201915b505050505081565b60006109e460018054610961906116ca565b80601f016020809104026020016040519081016040528092919081815260200182805461098d906116ca565b80156109da5780601f106109af576101008083540402835291602001916109da565b820191906000526020600020905b8154815290600101906020018083116109bd57829003601f168201915b5050505050610bc5565b610ab7600260008473ffffffffffffffffffffffffffffffffffffffff1673ffffffffffffffffffffffffffffffffffffffff1681526020019081526020016000206000018054610a34906116ca565b80601f0160208091040260200160405190810160405280929190818152602001828054610a60906116ca565b8015610aad5780601f10610a8257610100808354040283529160200191610aad565b820191906000526020600020905b815481529060010190602001808311610a9057829003601f168201915b5050505050610bc5565b6001600260008473ffffffffffffffffffffffffffffffffffffffff1673ffffffffffffffffffffffffffffffffffffffff16815260200190815260200160002060000184604051602001610b0e939291906112fa565b60405160208183030381529060405280519060200120905092915050565b610bc281604051602401610b4091906113a9565b6040516020818303038152906040527f665c6104000000000000000000000000000000000000000000000000000000007bffffffffffffffffffffffffffffffffffffffffffffffffffffffff19166020820180517bffffffffffffffffffffffffffffffffffffffffffffffffffffffff8381831617835250505050610c5e565b50565b610c5b81604051602401610bd9919061144d565b6040516020818303038152906040527f0be77f56000000000000000000000000000000000000000000000000000000007bffffffffffffffffffffffffffffffffffffffffffffffffffffffff19166020820180517bffffffffffffffffffffffffffffffffffffffffffffffffffffffff8381831617835250505050610c5e565b50565b60008151905060006a636f6e736f6c652e6c6f679050602083016000808483855afa5050505050565b828054610c93906116ca565b90600052602060002090601f016020900481019282610cb55760008555610cfc565b82601f10610cce57805160ff1916838001178555610cfc565b82800160010185558215610cfc579182015b82811115610cfb578251825591602001919060010190610ce0565b5b509050610d099190610d93565b5090565b828054610d19906116ca565b90600052602060002090601f016020900481019282610d3b5760008555610d82565b82601f10610d5457805160ff1916838001178555610d82565b82800160010185558215610d82579182015b82811115610d81578251825591602001919060010190610d66565b5b509050610d8f9190610d93565b5090565b5b80821115610dac576000816000905550600101610d94565b5090565b6000610dc3610dbe84611544565b61151f565b905082815260208101848484011115610ddb57600080fd5b610de6848285611688565b509392505050565b600081359050610dfd81611814565b92915050565b60008083601f840112610e1557600080fd5b8235905067ffffffffffffffff811115610e2e57600080fd5b602083019150836020820283011115610e4657600080fd5b9250929050565b60008083601f840112610e5f57600080fd5b8235905067ffffffffffffffff811115610e7857600080fd5b602083019150836020820283011115610e9057600080fd5b9250929050565b600081359050610ea68161182b565b92915050565b60008083601f840112610ebe57600080fd5b8235905067ffffffffffffffff811115610ed757600080fd5b602083019150836001820283011115610eef57600080fd5b9250929050565b600082601f830112610f0757600080fd5b8135610f17848260208601610db0565b91505092915050565b600081359050610f2f81611842565b92915050565b600060208284031215610f4757600080fd5b6000610f5584828501610dee565b91505092915050565b600060208284031215610f7057600080fd5b6000610f7e84828501610e97565b91505092915050565b60008060008060008060808789031215610fa057600080fd5b6000610fae89828a01610e97565b9650506020610fbf89828a01610f20565b955050604087013567ffffffffffffffff811115610fdc57600080fd5b610fe889828a01610e03565b9450945050606087013567ffffffffffffffff81111561100757600080fd5b61101389828a01610e4d565b92509250509295509295509295565b6000806000806040858703121561103857600080fd5b600085013567ffffffffffffffff81111561105257600080fd5b61105e87828801610eac565b9450945050602085013567ffffffffffffffff81111561107d57600080fd5b61108987828801610eac565b925092505092959194509250565b600080604083850312156110aa57600080fd5b600083013567ffffffffffffffff8111156110c457600080fd5b6110d085828601610ef6565b92505060206110e185828601610dee565b9150509250929050565b60006110f78383611103565b60208301905092915050565b61110c8161160c565b82525050565b61111b8161160c565b82525050565b600061112d83856115b7565b935061113882611575565b8060005b858110156111715761114e82846115f5565b61115888826110eb565b9750611163836115aa565b92505060018101905061113c565b5085925050509392505050565b6111878161161e565b82525050565b600061119983856115c8565b93506111a6838584611688565b6111af83611803565b840190509392505050565b60006111c582611594565b6111cf81856115c8565b93506111df818560208601611697565b6111e881611803565b840191505092915050565b60006111fe82611594565b61120881856115d9565b9350611218818560208601611697565b80840191505092915050565b60008154611231816116ca565b61123b81866115d9565b9450600182166000811461125657600181146112675761129a565b60ff1983168652818601935061129a565b6112708561157f565b60005b8381101561129257815481890152600182019150602081019050611273565b838801955050505b50505092915050565b60006112ae8261159f565b6112b881856115e4565b93506112c8818560208601611697565b6112d181611803565b840191505092915050565b6112e58161166a565b82525050565b6112f481611674565b82525050565b60006113068286611224565b91506113128285611224565b915061131e82846111f3565b9150819050949350505050565b60006080820190506113406000830187611112565b61134d6020830186611112565b61135a60408301856112dc565b818103606083015261136c81846112a3565b905095945050505050565b600060408201905061138c6000830186611112565b818103602083015261139f81848661118d565b9050949350505050565b60006020820190506113be600083018461117e565b92915050565b60006080820190506113d9600083018861117e565b6113e66020830187611112565b6113f360408301866112eb565b8181036060830152611406818486611121565b90509695505050505050565b6000604082019050818103600083015261142d81868861118d565b9050818103602083015261144281848661118d565b905095945050505050565b6000602082019050818103600083015261146781846111ba565b905092915050565b6000604082019050818103600083015261148981856111ba565b9050818103602083015261149d81846111ba565b90509392505050565b600060208201905081810360008301526114c081846112a3565b905092915050565b600080833560016020038436030381126114e157600080fd5b80840192508235915067ffffffffffffffff8211156114ff57600080fd5b60208301925060018202360383131561151757600080fd5b509250929050565b600061152961153a565b905061153582826116fc565b919050565b6000604051905090565b600067ffffffffffffffff82111561155f5761155e6117d4565b5b61156882611803565b9050602081019050919050565b6000819050919050565b60008190508160005260206000209050919050565b600081519050919050565b600081519050919050565b6000602082019050919050565b600082825260208201905092915050565b600082825260208201905092915050565b600081905092915050565b600082825260208201905092915050565b60006116046020840184610dee565b905092915050565b60006116178261164a565b9050919050565b60007fffffffffffffffffffffffffffffffff0000000000000000000000000000000082169050919050565b600073ffffffffffffffffffffffffffffffffffffffff82169050919050565b6000819050919050565b600067ffffffffffffffff82169050919050565b82818337600083830152505050565b60005b838110156116b557808201518184015260208101905061169a565b838111156116c4576000848401525b50505050565b600060028204905060018216806116e257607f821691505b602082108114156116f6576116f56117a5565b5b50919050565b61170582611803565b810181811067ffffffffffffffff82111715611724576117236117d4565b5b80604052505050565b60006117388261166a565b91507fffffffffffffffffffffffffffffffffffffffffffffffffffffffffffffffff82141561176b5761176a611776565b5b600182019050919050565b7f4e487b7100000000000000000000000000000000000000000000000000000000600052601160045260246000fd5b7f4e487b7100000000000000000000000000000000000000000000000000000000600052602260045260246000fd5b7f4e487b7100000000000000000000000000000000000000000000000000000000600052604160045260246000fd5b6000601f19601f8301169050919050565b61181d8161160c565b811461182857600080fd5b50565b6118348161161e565b811461183f57600080fd5b50565b61184b81611674565b811461185657600080fd5b5056fea2646970667358221220d31cd7c436481677aaad971445f3d44d90c89cd6573b7108c84b008ca4fb414d64736f6c63430008040033",
  "devdoc": {
    "kind": "dev",
    "methods": {
      "createPolicy(bytes16,uint64,address[],bytes[])": {
        "details": "TODO: onlyOwner"
      }
    },
    "version": 1
  },
  "userdoc": {
    "kind": "user",
    "methods": {},
    "version": 1
  },
  "storageLayout": {
    "storage": [
      {
        "astId": 1571,
        "contract": "contracts/AbioticAliceManager.sol:AbioticAliceManager",
        "label": "policyManager",
        "offset": 0,
        "slot": "0",
        "type": "t_contract(IPolicyManager)1858"
      },
      {
        "astId": 1573,
        "contract": "contracts/AbioticAliceManager.sol:AbioticAliceManager",
        "label": "verifyingKey",
        "offset": 0,
        "slot": "1",
        "type": "t_bytes_storage"
      },
      {
        "astId": 1578,
        "contract": "contracts/AbioticAliceManager.sol:AbioticAliceManager",
        "label": "registry",
        "offset": 0,
        "slot": "2",
        "type": "t_mapping(t_address,t_struct(Bob)1568_storage)"
      },
      {
        "astId": 1583,
        "contract": "contracts/AbioticAliceManager.sol:AbioticAliceManager",
        "label": "requests",
        "offset": 0,
        "slot": "3",
        "type": "t_mapping(t_bytes16,t_struct(PolicyRequest)1563_storage)"
      }
    ],
    "types": {
      "t_address": {
        "encoding": "inplace",
        "label": "address",
        "numberOfBytes": "20"
      },
      "t_bytes16": {
        "encoding": "inplace",
        "label": "bytes16",
        "numberOfBytes": "16"
      },
      "t_bytes_storage": {
        "encoding": "bytes",
        "label": "bytes",
        "numberOfBytes": "32"
      },
      "t_contract(IPolicyManager)1858": {
        "encoding": "inplace",
        "label": "contract IPolicyManager",
        "numberOfBytes": "20"
      },
      "t_mapping(t_address,t_struct(Bob)1568_storage)": {
        "encoding": "mapping",
        "key": "t_address",
        "label": "mapping(address => struct AbioticAliceManager.Bob)",
        "numberOfBytes": "32",
        "value": "t_struct(Bob)1568_storage"
      },
      "t_mapping(t_bytes16,t_struct(PolicyRequest)1563_storage)": {
        "encoding": "mapping",
        "key": "t_bytes16",
        "label": "mapping(bytes16 => struct AbioticAliceManager.PolicyRequest)",
        "numberOfBytes": "32",
        "value": "t_struct(PolicyRequest)1563_storage"
      },
      "t_string_storage": {
        "encoding": "bytes",
        "label": "string",
        "numberOfBytes": "32"
      },
      "t_struct(Bob)1568_storage": {
        "encoding": "inplace",
        "label": "struct AbioticAliceManager.Bob",
        "members": [
          {
            "astId": 1565,
            "contract": "contracts/AbioticAliceManager.sol:AbioticAliceManager",
            "label": "bobVerifyingKey",
            "offset": 0,
            "slot": "0",
            "type": "t_bytes_storage"
          },
          {
            "astId": 1567,
            "contract": "contracts/AbioticAliceManager.sol:AbioticAliceManager",
            "label": "bobDecryptingKey",
            "offset": 0,
            "slot": "1",
            "type": "t_bytes_storage"
          }
        ],
        "numberOfBytes": "64"
      },
      "t_struct(PolicyRequest)1563_storage": {
        "encoding": "inplace",
        "label": "struct AbioticAliceManager.PolicyRequest",
        "members": [
          {
            "astId": 1556,
            "contract": "contracts/AbioticAliceManager.sol:AbioticAliceManager",
            "label": "recipient",
            "offset": 0,
            "slot": "0",
            "type": "t_address"
          },
          {
            "astId": 1558,
            "contract": "contracts/AbioticAliceManager.sol:AbioticAliceManager",
            "label": "policyOwner",
            "offset": 0,
            "slot": "1",
            "type": "t_address"
          },
          {
            "astId": 1560,
            "contract": "contracts/AbioticAliceManager.sol:AbioticAliceManager",
            "label": "timestamp",
            "offset": 0,
            "slot": "2",
            "type": "t_uint256"
          },
          {
            "astId": 1562,
            "contract": "contracts/AbioticAliceManager.sol:AbioticAliceManager",
            "label": "label",
            "offset": 0,
            "slot": "3",
            "type": "t_string_storage"
          }
        ],
        "numberOfBytes": "128"
      },
      "t_uint256": {
        "encoding": "inplace",
        "label": "uint256",
        "numberOfBytes": "32"
      }
    }
  }
}