{
  "address": "0x91D68fc81b0048c3a5864AA1C82D4aA58b166872",
  "abi": [
    {
      "inputs": [
        {
          "internalType": "bytes",
          "name": "_verifyingKey",
          "type": "bytes"
        }
      ],
      "stateMutability": "nonpayable",
      "type": "constructor"
    },
    {
      "anonymous": false,
      "inputs": [
        {
          "indexed": true,
          "internalType": "bytes16",
          "name": "policyId",
          "type": "bytes16"
        },
        {
          "indexed": false,
          "internalType": "address",
          "name": "ursula",
          "type": "address"
        },
        {
          "indexed": false,
          "internalType": "bytes",
          "name": "kfrag",
          "type": "bytes"
        }
      ],
      "name": "KfragsCreated",
      "type": "event"
    },
    {
      "anonymous": false,
      "inputs": [
        {
          "indexed": true,
          "internalType": "address",
          "name": "requestor",
          "type": "address"
        },
        {
          "indexed": true,
          "internalType": "address",
          "name": "recipient",
          "type": "address"
        },
        {
          "indexed": false,
          "internalType": "uint256",
          "name": "threshold",
          "type": "uint256"
        },
        {
          "indexed": false,
          "internalType": "uint256",
          "name": "shares",
          "type": "uint256"
        },
        {
          "indexed": false,
          "internalType": "uint256",
          "name": "paymentPeriods",
          "type": "uint256"
        },
        {
          "indexed": false,
          "internalType": "string",
          "name": "label",
          "type": "string"
        }
      ],
      "name": "PolicyRequested",
      "type": "event"
    },
    {
      "anonymous": false,
      "inputs": [
        {
          "indexed": true,
          "internalType": "address",
          "name": "user",
          "type": "address"
        },
        {
          "indexed": false,
          "internalType": "bytes",
          "name": "verifyingKey",
          "type": "bytes"
        },
        {
          "indexed": false,
          "internalType": "bytes",
          "name": "decryptingKey",
          "type": "bytes"
        }
      ],
      "name": "UserRegistered",
      "type": "event"
    },
    {
      "inputs": [
        {
          "internalType": "bytes16",
          "name": "_policyId",
          "type": "bytes16"
        },
        {
          "internalType": "uint64",
          "name": "_endTimestamp",
          "type": "uint64"
        },
        {
          "internalType": "uint256",
          "name": "_valueInWei",
          "type": "uint256"
        },
        {
          "internalType": "address[]",
          "name": "_nodes",
          "type": "address[]"
        }
      ],
      "name": "fulfillPolicy",
      "outputs": [],
      "stateMutability": "payable",
      "type": "function"
    },
    {
      "inputs": [
        {
          "internalType": "bytes16",
          "name": "",
          "type": "bytes16"
        }
      ],
      "name": "policyIdToRequestor",
      "outputs": [
        {
          "internalType": "address payable",
          "name": "",
          "type": "address"
        }
      ],
      "stateMutability": "view",
      "type": "function"
    },
    {
      "inputs": [
        {
          "internalType": "bytes",
          "name": "_bobVerifyingKey",
          "type": "bytes"
        },
        {
          "internalType": "bytes",
          "name": "_bobDecryptingKey",
          "type": "bytes"
        }
      ],
      "name": "registerMe",
      "outputs": [],
      "stateMutability": "nonpayable",
      "type": "function"
    },
    {
      "inputs": [
        {
          "internalType": "address",
          "name": "",
          "type": "address"
        }
      ],
      "name": "registry",
      "outputs": [
        {
          "internalType": "bytes",
          "name": "bobVerifyingKey",
          "type": "bytes"
        },
        {
          "internalType": "bytes",
          "name": "bobDecryptingKey",
          "type": "bytes"
        }
      ],
      "stateMutability": "view",
      "type": "function"
    },
    {
      "inputs": [
        {
          "internalType": "string",
          "name": "_labelSuffix",
          "type": "string"
        },
        {
          "internalType": "address",
          "name": "_recipient",
          "type": "address"
        },
        {
          "internalType": "uint256",
          "name": "_threshold",
          "type": "uint256"
        },
        {
          "internalType": "uint256",
          "name": "_shares",
          "type": "uint256"
        },
        {
          "internalType": "uint256",
          "name": "_paymentPeriods",
          "type": "uint256"
        }
      ],
      "name": "requestPolicy",
      "outputs": [],
      "stateMutability": "payable",
      "type": "function"
    },
    {
      "inputs": [],
      "name": "verifyingKey",
      "outputs": [
        {
          "internalType": "bytes",
          "name": "",
          "type": "bytes"
        }
      ],
      "stateMutability": "view",
      "type": "function"
    },
    {
      "stateMutability": "payable",
      "type": "receive"
    }
  ],
  "transactionHash": "0x5acf11289d3f7c7559e5cdc563199e64b1c6fc8971a76f3d24626059cef51d72",
  "args": [
    "0x036bd8188183e5c251065d1b22cb52c20f31a88fbf01b1eb75b5cbd5896d76c3e0"
  ],
  "solcInputHash": "3bdf08f15b516ae497d4e22c4aa2eedd",
  "bytecode": "0x60806040523480156200001157600080fd5b50604051620020f4380380620020f4833981810160405281019062000037919062000179565b80600090805190602001906200004f92919062000057565b50506200032e565b828054620000659062000253565b90600052602060002090601f016020900481019282620000895760008555620000d5565b82601f10620000a457805160ff1916838001178555620000d5565b82800160010185558215620000d5579182015b82811115620000d4578251825591602001919060010190620000b7565b5b509050620000e49190620000e8565b5090565b5b8082111562000103576000816000905550600101620000e9565b5090565b60006200011e6200011884620001e7565b620001be565b9050828152602081018484840111156200013757600080fd5b620001448482856200021d565b509392505050565b600082601f8301126200015e57600080fd5b81516200017084826020860162000107565b91505092915050565b6000602082840312156200018c57600080fd5b600082015167ffffffffffffffff811115620001a757600080fd5b620001b5848285016200014c565b91505092915050565b6000620001ca620001dd565b9050620001d8828262000289565b919050565b6000604051905090565b600067ffffffffffffffff821115620002055762000204620002ee565b5b62000210826200031d565b9050602081019050919050565b60005b838110156200023d57808201518184015260208101905062000220565b838111156200024d576000848401525b50505050565b600060028204905060018216806200026c57607f821691505b60208210811415620002835762000282620002bf565b5b50919050565b62000294826200031d565b810181811067ffffffffffffffff82111715620002b657620002b5620002ee565b5b80604052505050565b7f4e487b7100000000000000000000000000000000000000000000000000000000600052602260045260246000fd5b7f4e487b7100000000000000000000000000000000000000000000000000000000600052604160045260246000fd5b6000601f19601f8301169050919050565b611db6806200033e6000396000f3fe6080604052600436106100595760003560e01c8063038defd71461006e5780634966d3d5146100ac578063574267fa146100c85780637950c5f8146100f157806389b00f661461011c578063fd4f6aae1461015957610069565b366100695761006734610175565b005b600080fd5b34801561007a57600080fd5b506100956004803603810190610090919061127d565b61020e565b6040516100a3929190611782565b60405180910390f35b6100c660048036038101906100c191906112cf565b610342565b005b3480156100d457600080fd5b506100ef60048036038101906100ea919061134f565b6104e4565b005b3480156100fd57600080fd5b50610106610657565b6040516101139190611760565b60405180910390f35b34801561012857600080fd5b50610143600480360381019061013e91906112a6565b6106e5565b60405161015091906116bc565b60405180910390f35b610173600480360381019061016e91906113c4565b610718565b005b61020b8160405160240161018991906117f9565b6040516020818303038152906040527ff5b1bba9000000000000000000000000000000000000000000000000000000007bffffffffffffffffffffffffffffffffffffffffffffffffffffffff19166020820180517bffffffffffffffffffffffffffffffffffffffffffffffffffffffff838183161783525050505061086c565b50565b600160205280600052604060002060009150905080600001805461023190611b28565b80601f016020809104026020016040519081016040528092919081815260200182805461025d90611b28565b80156102aa5780601f1061027f576101008083540402835291602001916102aa565b820191906000526020600020905b81548152906001019060200180831161028d57829003601f168201915b5050505050908060010180546102bf90611b28565b80601f01602080910402602001604051908101604052809291908181526020018280546102eb90611b28565b80156103385780601f1061030d57610100808354040283529160200191610338565b820191906000526020600020905b81548152906001019060200180831161031b57829003601f168201915b5050505050905082565b600060026000876fffffffffffffffffffffffffffffffff19166fffffffffffffffffffffffffffffffff1916815260200190815260200160002060009054906101000a900473ffffffffffffffffffffffffffffffffffffffff169050600073ffffffffffffffffffffffffffffffffffffffff168173ffffffffffffffffffffffffffffffffffffffff161415610410576040517f08c379a0000000000000000000000000000000000000000000000000000000008152600401610407906117d9565b60405180910390fd5b60026000876fffffffffffffffffffffffffffffffff19166fffffffffffffffffffffffffffffffff1916815260200190815260200160002060009054906101000a900473ffffffffffffffffffffffffffffffffffffffff1673ffffffffffffffffffffffffffffffffffffffff16634966d3d587878787876040518663ffffffff1660e01b81526004016104aa9594939291906116d7565b600060405180830381600087803b1580156104c457600080fd5b505af11580156104d8573d6000803e3d6000fd5b50505050505050505050565b604051806040016040528085858080601f016020809104026020016040519081016040528093929190818152602001838380828437600081840152601f19601f82011690508083019250505050505050815260200183838080601f016020809104026020016040519081016040528093929190818152602001838380828437600081840152601f19601f82011690508083019250505050505050815250600160003373ffffffffffffffffffffffffffffffffffffffff1673ffffffffffffffffffffffffffffffffffffffff16815260200190815260200160002060008201518160000190805190602001906105dc92919061108a565b5060208201518160010190805190602001906105f992919061108a565b509050503373ffffffffffffffffffffffffffffffffffffffff167f21e927615156d90b4bb131ee82c2149fe2e1bad9298a065589df5dc79dca1413858585856040516106499493929190611725565b60405180910390a250505050565b6000805461066490611b28565b80601f016020809104026020016040519081016040528092919081815260200182805461069090611b28565b80156106dd5780601f106106b2576101008083540402835291602001916106dd565b820191906000526020600020905b8154815290600101906020018083116106c057829003601f168201915b505050505081565b60026020528060005260406000206000915054906101000a900473ffffffffffffffffffffffffffffffffffffffff1681565b8183111561075b576040517f08c379a0000000000000000000000000000000000000000000000000000000008152600401610752906117b9565b60405180910390fd5b6000610770338761089590919063ffffffff16565b9050600061077e82876108d3565b90503360026000836fffffffffffffffffffffffffffffffff19166fffffffffffffffffffffffffffffffff1916815260200190815260200160002060006101000a81548173ffffffffffffffffffffffffffffffffffffffff021916908373ffffffffffffffffffffffffffffffffffffffff1602179055508573ffffffffffffffffffffffffffffffffffffffff163373ffffffffffffffffffffffffffffffffffffffff167fb12a98a3e67730a1468aa44a5a62a56898f06148e577b119892d9cb1c6a4a5428787878760405161085b9493929190611814565b60405180910390a350505050505050565b60008151905060006a636f6e736f6c652e6c6f679050602083016000808483855afa5050505050565b60606108a082610a46565b6108a946610ea7565b846040516020016108bc9392919061168b565b604051602081830303815290604052905092915050565b6000610a3e600080546108e590611b28565b80601f016020809104026020016040519081016040528092919081815260200182805461091190611b28565b801561095e5780601f106109335761010080835404028352916020019161095e565b820191906000526020600020905b81548152906001019060200180831161094157829003601f168201915b5050505050600160008573ffffffffffffffffffffffffffffffffffffffff1673ffffffffffffffffffffffffffffffffffffffff16815260200190815260200160002060000180546109b090611b28565b80601f01602080910402602001604051908101604052809291908181526020018280546109dc90611b28565b8015610a295780601f106109fe57610100808354040283529160200191610a29565b820191906000526020600020905b815481529060010190602001808311610a0c57829003601f168201915b5050505050856110549092919063ffffffff16565b905092915050565b606060008273ffffffffffffffffffffffffffffffffffffffff1660001b905060006040518060400160405280601081526020017f303132333435363738396162636465660000000000000000000000000000000081525090506000602a67ffffffffffffffff811115610ae3577f4e487b7100000000000000000000000000000000000000000000000000000000600052604160045260246000fd5b6040519080825280601f01601f191660200182016040528015610b155781602001600182028036833780820191505090505b5090507f300000000000000000000000000000000000000000000000000000000000000081600081518110610b73577f4e487b7100000000000000000000000000000000000000000000000000000000600052603260045260246000fd5b60200101907effffffffffffffffffffffffffffffffffffffffffffffffffffffffffffff1916908160001a9053507f780000000000000000000000000000000000000000000000000000000000000081600181518110610bfd577f4e487b7100000000000000000000000000000000000000000000000000000000600052603260045260246000fd5b60200101907effffffffffffffffffffffffffffffffffffffffffffffffffffffffffffff1916908160001a90535060005b6014811015610e9b5782600485600c84610c499190611943565b60208110610c80577f4e487b7100000000000000000000000000000000000000000000000000000000600052603260045260246000fd5b1a60f81b7effffffffffffffffffffffffffffffffffffffffffffffffffffffffffffff1916901c60f81c60ff1681518110610ce5577f4e487b7100000000000000000000000000000000000000000000000000000000600052603260045260246000fd5b602001015160f81c60f81b82600283610cfe91906119ca565b6002610d0a9190611943565b81518110610d41577f4e487b7100000000000000000000000000000000000000000000000000000000600052603260045260246000fd5b60200101907effffffffffffffffffffffffffffffffffffffffffffffffffffffffffffff1916908160001a90535082600f60f81b85600c84610d849190611943565b60208110610dbb577f4e487b7100000000000000000000000000000000000000000000000000000000600052603260045260246000fd5b1a60f81b1660f81c60ff1681518110610dfd577f4e487b7100000000000000000000000000000000000000000000000000000000600052603260045260246000fd5b602001015160f81c60f81b82600283610e1691906119ca565b6003610e229190611943565b81518110610e59577f4e487b7100000000000000000000000000000000000000000000000000000000600052603260045260246000fd5b60200101907effffffffffffffffffffffffffffffffffffffffffffffffffffffffffffff1916908160001a9053508080610e9390611b8b565b915050610c2f565b50809350505050919050565b60606000821415610eef576040518060400160405280600181526020017f3000000000000000000000000000000000000000000000000000000000000000815250905061104f565b600082905060005b60008214610f21578080610f0a90611b8b565b915050600a82610f1a9190611999565b9150610ef7565b60008167ffffffffffffffff811115610f63577f4e487b7100000000000000000000000000000000000000000000000000000000600052604160045260246000fd5b6040519080825280601f01601f191660200182016040528015610f955781602001600182028036833780820191505090505b5090505b6000851461104857600182610fae9190611a24565b9150600a85610fbd9190611bd4565b6030610fc99190611943565b60f81b818381518110611005577f4e487b7100000000000000000000000000000000000000000000000000000000600052603260045260246000fd5b60200101907effffffffffffffffffffffffffffffffffffffffffffffffffffffffffffff1916908160001a905350600a856110419190611999565b9450610f99565b8093505050505b919050565b600082828560405160200161106b9392919061165a565b6040516020818303038152906040528051906020012090509392505050565b82805461109690611b28565b90600052602060002090601f0160209004810192826110b857600085556110ff565b82601f106110d157805160ff19168380011785556110ff565b828001600101855582156110ff579182015b828111156110fe5782518255916020019190600101906110e3565b5b50905061110c9190611110565b5090565b5b80821115611129576000816000905550600101611111565b5090565b600061114061113b84611885565b611860565b90508281526020810184848401111561115857600080fd5b611163848285611ae6565b509392505050565b60008135905061117a81611d24565b92915050565b60008083601f84011261119257600080fd5b8235905067ffffffffffffffff8111156111ab57600080fd5b6020830191508360208202830111156111c357600080fd5b9250929050565b6000813590506111d981611d3b565b92915050565b60008083601f8401126111f157600080fd5b8235905067ffffffffffffffff81111561120a57600080fd5b60208301915083600182028301111561122257600080fd5b9250929050565b600082601f83011261123a57600080fd5b813561124a84826020860161112d565b91505092915050565b60008135905061126281611d52565b92915050565b60008135905061127781611d69565b92915050565b60006020828403121561128f57600080fd5b600061129d8482850161116b565b91505092915050565b6000602082840312156112b857600080fd5b60006112c6848285016111ca565b91505092915050565b6000806000806000608086880312156112e757600080fd5b60006112f5888289016111ca565b955050602061130688828901611268565b945050604061131788828901611253565b935050606086013567ffffffffffffffff81111561133457600080fd5b61134088828901611180565b92509250509295509295909350565b6000806000806040858703121561136557600080fd5b600085013567ffffffffffffffff81111561137f57600080fd5b61138b878288016111df565b9450945050602085013567ffffffffffffffff8111156113aa57600080fd5b6113b6878288016111df565b925092505092959194509250565b600080600080600060a086880312156113dc57600080fd5b600086013567ffffffffffffffff8111156113f657600080fd5b61140288828901611229565b95505060206114138882890161116b565b945050604061142488828901611253565b935050606061143588828901611253565b925050608061144688828901611253565b9150509295509295909350565b600061145f838361147a565b60208301905092915050565b61147481611a6a565b82525050565b61148381611a58565b82525050565b600061149583856118e3565b93506114a0826118b6565b8060005b858110156114d9576114b6828461192c565b6114c08882611453565b97506114cb836118d6565b9250506001810190506114a4565b5085925050509392505050565b6114ef81611a7c565b82525050565b600061150183856118f4565b935061150e838584611ae6565b61151783611cc1565b840190509392505050565b600061152d826118c0565b61153781856118f4565b9350611547818560208601611af5565b61155081611cc1565b840191505092915050565b6000611566826118c0565b6115708185611905565b9350611580818560208601611af5565b80840191505092915050565b6000611597826118cb565b6115a18185611910565b93506115b1818560208601611af5565b6115ba81611cc1565b840191505092915050565b60006115d0826118cb565b6115da8185611921565b93506115ea818560208601611af5565b80840191505092915050565b6000611603601983611910565b915061160e82611cd2565b602082019050919050565b6000611626601783611910565b915061163182611cfb565b602082019050919050565b61164581611ac8565b82525050565b61165481611ad2565b82525050565b6000611666828661155b565b9150611672828561155b565b915061167e82846115c5565b9150819050949350505050565b600061169782866115c5565b91506116a382856115c5565b91506116af82846115c5565b9150819050949350505050565b60006020820190506116d1600083018461146b565b92915050565b60006080820190506116ec60008301886114e6565b6116f9602083018761164b565b611706604083018661163c565b8181036060830152611719818486611489565b90509695505050505050565b600060408201905081810360008301526117408186886114f5565b905081810360208301526117558184866114f5565b905095945050505050565b6000602082019050818103600083015261177a8184611522565b905092915050565b6000604082019050818103600083015261179c8185611522565b905081810360208301526117b08184611522565b90509392505050565b600060208201905081810360008301526117d2816115f6565b9050919050565b600060208201905081810360008301526117f281611619565b9050919050565b600060208201905061180e600083018461163c565b92915050565b6000608082019050611829600083018761163c565b611836602083018661163c565b611843604083018561163c565b8181036060830152611855818461158c565b905095945050505050565b600061186a61187b565b90506118768282611b5a565b919050565b6000604051905090565b600067ffffffffffffffff8211156118a05761189f611c92565b5b6118a982611cc1565b9050602081019050919050565b6000819050919050565b600081519050919050565b600081519050919050565b6000602082019050919050565b600082825260208201905092915050565b600082825260208201905092915050565b600081905092915050565b600082825260208201905092915050565b600081905092915050565b600061193b602084018461116b565b905092915050565b600061194e82611ac8565b915061195983611ac8565b9250827fffffffffffffffffffffffffffffffffffffffffffffffffffffffffffffffff0382111561198e5761198d611c05565b5b828201905092915050565b60006119a482611ac8565b91506119af83611ac8565b9250826119bf576119be611c34565b5b828204905092915050565b60006119d582611ac8565b91506119e083611ac8565b9250817fffffffffffffffffffffffffffffffffffffffffffffffffffffffffffffffff0483118215151615611a1957611a18611c05565b5b828202905092915050565b6000611a2f82611ac8565b9150611a3a83611ac8565b925082821015611a4d57611a4c611c05565b5b828203905092915050565b6000611a6382611aa8565b9050919050565b6000611a7582611aa8565b9050919050565b60007fffffffffffffffffffffffffffffffff0000000000000000000000000000000082169050919050565b600073ffffffffffffffffffffffffffffffffffffffff82169050919050565b6000819050919050565b600067ffffffffffffffff82169050919050565b82818337600083830152505050565b60005b83811015611b13578082015181840152602081019050611af8565b83811115611b22576000848401525b50505050565b60006002820490506001821680611b4057607f821691505b60208210811415611b5457611b53611c63565b5b50919050565b611b6382611cc1565b810181811067ffffffffffffffff82111715611b8257611b81611c92565b5b80604052505050565b6000611b9682611ac8565b91507fffffffffffffffffffffffffffffffffffffffffffffffffffffffffffffffff821415611bc957611bc8611c05565b5b600182019050919050565b6000611bdf82611ac8565b9150611bea83611ac8565b925082611bfa57611bf9611c34565b5b828206905092915050565b7f4e487b7100000000000000000000000000000000000000000000000000000000600052601160045260246000fd5b7f4e487b7100000000000000000000000000000000000000000000000000000000600052601260045260246000fd5b7f4e487b7100000000000000000000000000000000000000000000000000000000600052602260045260246000fd5b7f4e487b7100000000000000000000000000000000000000000000000000000000600052604160045260246000fd5b6000601f19601f8301169050919050565b7f4572726f723a205468726573686f6c64203e2073686172657300000000000000600082015250565b7f4572726f723a20496e76616c696420706f6c6963794964000000000000000000600082015250565b611d2d81611a58565b8114611d3857600080fd5b50565b611d4481611a7c565b8114611d4f57600080fd5b50565b611d5b81611ac8565b8114611d6657600080fd5b50565b611d7281611ad2565b8114611d7d57600080fd5b5056fea2646970667358221220400b92487768ef3c47aae18f5070554c357135ba3e9a499d578a5d304275aceb64736f6c63430008040033",
  "devdoc": {
    "kind": "dev",
    "methods": {
      "fulfillPolicy(bytes16,uint64,uint256,address[])": {
        "details": "TODO: onlyOwner"
      }
    },
    "version": 1
  },
  "userdoc": {
    "kind": "user",
    "methods": {},
    "version": 1
  },
  "storageLayout": {
    "storage": [
      {
        "astId": 1566,
        "contract": "contracts/AbioticAliceManager.sol:AbioticAliceManager",
        "label": "verifyingKey",
        "offset": 0,
        "slot": "0",
        "type": "t_bytes_storage"
      },
      {
        "astId": 1571,
        "contract": "contracts/AbioticAliceManager.sol:AbioticAliceManager",
        "label": "registry",
        "offset": 0,
        "slot": "1",
        "type": "t_mapping(t_address,t_struct(Bob)1564_storage)"
      },
      {
        "astId": 1575,
        "contract": "contracts/AbioticAliceManager.sol:AbioticAliceManager",
        "label": "policyIdToRequestor",
        "offset": 0,
        "slot": "2",
        "type": "t_mapping(t_bytes16,t_address_payable)"
      }
    ],
    "types": {
      "t_address": {
        "encoding": "inplace",
        "label": "address",
        "numberOfBytes": "20"
      },
      "t_address_payable": {
        "encoding": "inplace",
        "label": "address payable",
        "numberOfBytes": "20"
      },
      "t_bytes16": {
        "encoding": "inplace",
        "label": "bytes16",
        "numberOfBytes": "16"
      },
      "t_bytes_storage": {
        "encoding": "bytes",
        "label": "bytes",
        "numberOfBytes": "32"
      },
      "t_mapping(t_address,t_struct(Bob)1564_storage)": {
        "encoding": "mapping",
        "key": "t_address",
        "label": "mapping(address => struct AbioticAliceManager.Bob)",
        "numberOfBytes": "32",
        "value": "t_struct(Bob)1564_storage"
      },
      "t_mapping(t_bytes16,t_address_payable)": {
        "encoding": "mapping",
        "key": "t_bytes16",
        "label": "mapping(bytes16 => address payable)",
        "numberOfBytes": "32",
        "value": "t_address_payable"
      },
      "t_struct(Bob)1564_storage": {
        "encoding": "inplace",
        "label": "struct AbioticAliceManager.Bob",
        "members": [
          {
            "astId": 1561,
            "contract": "contracts/AbioticAliceManager.sol:AbioticAliceManager",
            "label": "bobVerifyingKey",
            "offset": 0,
            "slot": "0",
            "type": "t_bytes_storage"
          },
          {
            "astId": 1563,
            "contract": "contracts/AbioticAliceManager.sol:AbioticAliceManager",
            "label": "bobDecryptingKey",
            "offset": 0,
            "slot": "1",
            "type": "t_bytes_storage"
          }
        ],
        "numberOfBytes": "64"
      }
    }
  }
}