{
  "address": "0x0C37bEaB48753cA114896dA9444627F96f86A7DD",
  "abi": [
    {
      "inputs": [
        {
          "internalType": "contract IPolicyManager",
          "name": "_policyManager",
          "type": "address"
        },
        {
          "internalType": "contract AbioticAliceManager",
          "name": "_abioticAlice",
          "type": "address"
        }
      ],
      "stateMutability": "nonpayable",
      "type": "constructor"
    },
    {
      "anonymous": false,
      "inputs": [
        {
          "indexed": true,
          "internalType": "address",
          "name": "owner",
          "type": "address"
        },
        {
          "indexed": true,
          "internalType": "address",
          "name": "approved",
          "type": "address"
        },
        {
          "indexed": true,
          "internalType": "uint256",
          "name": "tokenId",
          "type": "uint256"
        }
      ],
      "name": "Approval",
      "type": "event"
    },
    {
      "anonymous": false,
      "inputs": [
        {
          "indexed": true,
          "internalType": "address",
          "name": "owner",
          "type": "address"
        },
        {
          "indexed": true,
          "internalType": "address",
          "name": "operator",
          "type": "address"
        },
        {
          "indexed": false,
          "internalType": "bool",
          "name": "approved",
          "type": "bool"
        }
      ],
      "name": "ApprovalForAll",
      "type": "event"
    },
    {
      "anonymous": false,
      "inputs": [
        {
          "indexed": false,
          "internalType": "bytes16",
          "name": "policyId",
          "type": "bytes16"
        }
      ],
      "name": "PolicyRevoked",
      "type": "event"
    },
    {
      "anonymous": false,
      "inputs": [
        {
          "indexed": true,
          "internalType": "address",
          "name": "from",
          "type": "address"
        },
        {
          "indexed": true,
          "internalType": "address",
          "name": "to",
          "type": "address"
        },
        {
          "indexed": true,
          "internalType": "uint256",
          "name": "tokenId",
          "type": "uint256"
        }
      ],
      "name": "Transfer",
      "type": "event"
    },
    {
      "inputs": [
        {
          "internalType": "address",
          "name": "to",
          "type": "address"
        },
        {
          "internalType": "uint256",
          "name": "tokenId",
          "type": "uint256"
        }
      ],
      "name": "approve",
      "outputs": [],
      "stateMutability": "nonpayable",
      "type": "function"
    },
    {
      "inputs": [
        {
          "internalType": "address",
          "name": "owner",
          "type": "address"
        }
      ],
      "name": "balanceOf",
      "outputs": [
        {
          "internalType": "uint256",
          "name": "",
          "type": "uint256"
        }
      ],
      "stateMutability": "view",
      "type": "function"
    },
    {
      "inputs": [
        {
          "internalType": "uint256",
          "name": "tokenId",
          "type": "uint256"
        }
      ],
      "name": "getApproved",
      "outputs": [
        {
          "internalType": "address",
          "name": "",
          "type": "address"
        }
      ],
      "stateMutability": "view",
      "type": "function"
    },
    {
      "inputs": [
        {
          "internalType": "uint256",
          "name": "tokenId",
          "type": "uint256"
        }
      ],
      "name": "getLabel",
      "outputs": [
        {
          "internalType": "string",
          "name": "label",
          "type": "string"
        }
      ],
      "stateMutability": "view",
      "type": "function"
    },
    {
      "inputs": [
        {
          "internalType": "bytes16",
          "name": "_policyId",
          "type": "bytes16"
        }
      ],
      "name": "getPolicy",
      "outputs": [
        {
          "components": [
            {
              "internalType": "bool",
              "name": "disabled",
              "type": "bool"
            },
            {
              "internalType": "address payable",
              "name": "sponsor",
              "type": "address"
            },
            {
              "internalType": "address",
              "name": "owner",
              "type": "address"
            },
            {
              "internalType": "uint128",
              "name": "feeRate",
              "type": "uint128"
            },
            {
              "internalType": "uint64",
              "name": "startTimestamp",
              "type": "uint64"
            },
            {
              "internalType": "uint64",
              "name": "endTimestamp",
              "type": "uint64"
            },
            {
              "internalType": "uint256",
              "name": "reservedSlot1",
              "type": "uint256"
            },
            {
              "internalType": "uint256",
              "name": "reservedSlot2",
              "type": "uint256"
            },
            {
              "internalType": "uint256",
              "name": "reservedSlot3",
              "type": "uint256"
            },
            {
              "internalType": "uint256",
              "name": "reservedSlot4",
              "type": "uint256"
            },
            {
              "internalType": "uint256",
              "name": "reservedSlot5",
              "type": "uint256"
            }
          ],
          "internalType": "struct IPolicyManager.Policy",
          "name": "_policy",
          "type": "tuple"
        }
      ],
      "stateMutability": "view",
      "type": "function"
    },
    {
      "inputs": [
        {
          "internalType": "address",
          "name": "owner",
          "type": "address"
        },
        {
          "internalType": "address",
          "name": "operator",
          "type": "address"
        }
      ],
      "name": "isApprovedForAll",
      "outputs": [
        {
          "internalType": "bool",
          "name": "",
          "type": "bool"
        }
      ],
      "stateMutability": "view",
      "type": "function"
    },
    {
      "inputs": [
        {
          "internalType": "uint256",
          "name": "tokenId",
          "type": "uint256"
        }
      ],
      "name": "mint",
      "outputs": [],
      "stateMutability": "nonpayable",
      "type": "function"
    },
    {
      "inputs": [],
      "name": "name",
      "outputs": [
        {
          "internalType": "string",
          "name": "",
          "type": "string"
        }
      ],
      "stateMutability": "view",
      "type": "function"
    },
    {
      "inputs": [
        {
          "internalType": "uint256",
          "name": "tokenId",
          "type": "uint256"
        }
      ],
      "name": "ownerOf",
      "outputs": [
        {
          "internalType": "address",
          "name": "",
          "type": "address"
        }
      ],
      "stateMutability": "view",
      "type": "function"
    },
    {
      "inputs": [
        {
          "internalType": "bytes16",
          "name": "_policyId",
          "type": "bytes16"
        }
      ],
      "name": "revokePolicy",
      "outputs": [],
      "stateMutability": "nonpayable",
      "type": "function"
    },
    {
      "inputs": [
        {
          "internalType": "address",
          "name": "from",
          "type": "address"
        },
        {
          "internalType": "address",
          "name": "to",
          "type": "address"
        },
        {
          "internalType": "uint256",
          "name": "tokenId",
          "type": "uint256"
        }
      ],
      "name": "safeTransferFrom",
      "outputs": [],
      "stateMutability": "nonpayable",
      "type": "function"
    },
    {
      "inputs": [
        {
          "internalType": "address",
          "name": "from",
          "type": "address"
        },
        {
          "internalType": "address",
          "name": "to",
          "type": "address"
        },
        {
          "internalType": "uint256",
          "name": "tokenId",
          "type": "uint256"
        },
        {
          "internalType": "bytes",
          "name": "_data",
          "type": "bytes"
        }
      ],
      "name": "safeTransferFrom",
      "outputs": [],
      "stateMutability": "nonpayable",
      "type": "function"
    },
    {
      "inputs": [
        {
          "internalType": "address",
          "name": "operator",
          "type": "address"
        },
        {
          "internalType": "bool",
          "name": "approved",
          "type": "bool"
        }
      ],
      "name": "setApprovalForAll",
      "outputs": [],
      "stateMutability": "nonpayable",
      "type": "function"
    },
    {
      "inputs": [
        {
          "internalType": "bytes4",
          "name": "interfaceId",
          "type": "bytes4"
        }
      ],
      "name": "supportsInterface",
      "outputs": [
        {
          "internalType": "bool",
          "name": "",
          "type": "bool"
        }
      ],
      "stateMutability": "view",
      "type": "function"
    },
    {
      "inputs": [],
      "name": "symbol",
      "outputs": [
        {
          "internalType": "string",
          "name": "",
          "type": "string"
        }
      ],
      "stateMutability": "view",
      "type": "function"
    },
    {
      "inputs": [
        {
          "internalType": "uint256",
          "name": "tokenId",
          "type": "uint256"
        }
      ],
      "name": "tokenURI",
      "outputs": [
        {
          "internalType": "string",
          "name": "",
          "type": "string"
        }
      ],
      "stateMutability": "view",
      "type": "function"
    },
    {
      "inputs": [
        {
          "internalType": "address",
          "name": "from",
          "type": "address"
        },
        {
          "internalType": "address",
          "name": "to",
          "type": "address"
        },
        {
          "internalType": "uint256",
          "name": "tokenId",
          "type": "uint256"
        }
      ],
      "name": "transferFrom",
      "outputs": [],
      "stateMutability": "nonpayable",
      "type": "function"
    }
  ],
  "transactionHash": "0x416faabad4036116289a1f628637e7b62c7f07892699c5ade9185e1c041be925",
  "args": [
    "0xaC5e34d3FD41809873968c349d1194D23045b9D2",
    "0x6517170aaD6f68717D85086332079ba786124A4a"
  ],
  "solcInputHash": "c398d27f2287cae24f771d620b138ea4",
  "bytecode": "0x60806040523480156200001157600080fd5b50604051620040753803806200407583398181016040528101906200003791906200024c565b6040518060400160405280600b81526020017f4f70656e44524d20504f430000000000000000000000000000000000000000008152506040518060400160405280600481526020017f4f44524d000000000000000000000000000000000000000000000000000000008152508160009080519060200190620000bb9291906200016e565b508060019080519060200190620000d49291906200016e565b50505081600660006101000a81548173ffffffffffffffffffffffffffffffffffffffff021916908373ffffffffffffffffffffffffffffffffffffffff16021790555080600760006101000a81548173ffffffffffffffffffffffffffffffffffffffff021916908373ffffffffffffffffffffffffffffffffffffffff16021790555060004690508060088190555050505062000396565b8280546200017c90620002fd565b90600052602060002090601f016020900481019282620001a05760008555620001ec565b82601f10620001bb57805160ff1916838001178555620001ec565b82800160010185558215620001ec579182015b82811115620001eb578251825591602001919060010190620001ce565b5b509050620001fb9190620001ff565b5090565b5b808211156200021a57600081600090555060010162000200565b5090565b6000815190506200022f8162000362565b92915050565b60008151905062000246816200037c565b92915050565b600080604083850312156200026057600080fd5b6000620002708582860162000235565b925050602062000283858286016200021e565b9150509250929050565b60006200029a82620002dd565b9050919050565b6000620002ae82620002dd565b9050919050565b6000620002c282620002a1565b9050919050565b6000620002d6826200028d565b9050919050565b600073ffffffffffffffffffffffffffffffffffffffff82169050919050565b600060028204905060018216806200031657607f821691505b602082108114156200032d576200032c62000333565b5b50919050565b7f4e487b7100000000000000000000000000000000000000000000000000000000600052602260045260246000fd5b6200036d81620002b5565b81146200037957600080fd5b50565b6200038781620002c9565b81146200039357600080fd5b50565b613ccf80620003a66000396000f3fe608060405234801561001057600080fd5b506004361061010b5760003560e01c806370a08231116100a2578063a2d1d5e211610071578063a2d1d5e2146102c8578063b21bf7fa146102e4578063b88d4fde14610314578063c87b56dd14610330578063e985e9c5146103605761010b565b806370a082311461024257806395d89b4114610272578063a0712d6814610290578063a22cb465146102ac5761010b565b806323b872dd116100de57806323b872dd146101aa5780632c815161146101c657806342842e0e146101f65780636352211e146102125761010b565b806301ffc9a71461011057806306fdde0314610140578063081812fc1461015e578063095ea7b31461018e575b600080fd5b61012a60048036038101906101259190612999565b610390565b6040516101379190613036565b60405180910390f35b610148610472565b604051610155919061306c565b60405180910390f35b61017860048036038101906101739190612ac2565b610504565b6040516101859190612fcf565b60405180910390f35b6101a860048036038101906101a39190612934565b610589565b005b6101c460048036038101906101bf919061282e565b6106a1565b005b6101e060048036038101906101db9190612970565b610701565b6040516101ed919061327e565b60405180910390f35b610210600480360381019061020b919061282e565b6107bc565b005b61022c60048036038101906102279190612ac2565b6107dc565b6040516102399190612fcf565b60405180910390f35b61025c600480360381019061025791906127c9565b61088e565b604051610269919061329a565b60405180910390f35b61027a610946565b604051610287919061306c565b60405180910390f35b6102aa60048036038101906102a59190612ac2565b6109d8565b005b6102c660048036038101906102c191906128f8565b610a1b565b005b6102e260048036038101906102dd9190612970565b610a31565b005b6102fe60048036038101906102f99190612ac2565b610ae2565b60405161030b919061306c565b60405180910390f35b61032e6004803603810190610329919061287d565b610b29565b005b61034a60048036038101906103459190612ac2565b610b8b565b604051610357919061306c565b60405180910390f35b61037a600480360381019061037591906127f2565b610c32565b6040516103879190613036565b60405180910390f35b60007f80ac58cd000000000000000000000000000000000000000000000000000000007bffffffffffffffffffffffffffffffffffffffffffffffffffffffff1916827bffffffffffffffffffffffffffffffffffffffffffffffffffffffff1916148061045b57507f5b5e139f000000000000000000000000000000000000000000000000000000007bffffffffffffffffffffffffffffffffffffffffffffffffffffffff1916827bffffffffffffffffffffffffffffffffffffffffffffffffffffffff1916145b8061046b575061046a82610cc6565b5b9050919050565b60606000805461048190613592565b80601f01602080910402602001604051908101604052809291908181526020018280546104ad90613592565b80156104fa5780601f106104cf576101008083540402835291602001916104fa565b820191906000526020600020905b8154815290600101906020018083116104dd57829003601f168201915b5050505050905090565b600061050f82610d30565b61054e576040517f08c379a0000000000000000000000000000000000000000000000000000000008152600401610545906131de565b60405180910390fd5b6004600083815260200190815260200160002060009054906101000a900473ffffffffffffffffffffffffffffffffffffffff169050919050565b6000610594826107dc565b90508073ffffffffffffffffffffffffffffffffffffffff168373ffffffffffffffffffffffffffffffffffffffff161415610605576040517f08c379a00000000000000000000000000000000000000000000000000000000081526004016105fc9061323e565b60405180910390fd5b8073ffffffffffffffffffffffffffffffffffffffff16610624610d9c565b73ffffffffffffffffffffffffffffffffffffffff16148061065357506106528161064d610d9c565b610c32565b5b610692576040517f08c379a00000000000000000000000000000000000000000000000000000000081526004016106899061315e565b60405180910390fd5b61069c8383610da4565b505050565b6106b26106ac610d9c565b82610e5d565b6106f1576040517f08c379a00000000000000000000000000000000000000000000000000000000081526004016106e89061325e565b60405180910390fd5b6106fc838383610f3b565b505050565b6107096123a4565b600660009054906101000a900473ffffffffffffffffffffffffffffffffffffffff1673ffffffffffffffffffffffffffffffffffffffff1663713c0e57836040518263ffffffff1660e01b81526004016107649190613051565b6101606040518083038186803b15801561077d57600080fd5b505afa158015610791573d6000803e3d6000fd5b505050506040513d601f19601f820116820180604052508101906107b59190612a98565b9050919050565b6107d783838360405180602001604052806000815250610b29565b505050565b6000806002600084815260200190815260200160002060009054906101000a900473ffffffffffffffffffffffffffffffffffffffff169050600073ffffffffffffffffffffffffffffffffffffffff168173ffffffffffffffffffffffffffffffffffffffff161415610885576040517f08c379a000000000000000000000000000000000000000000000000000000000815260040161087c9061319e565b60405180910390fd5b80915050919050565b60008073ffffffffffffffffffffffffffffffffffffffff168273ffffffffffffffffffffffffffffffffffffffff1614156108ff576040517f08c379a00000000000000000000000000000000000000000000000000000000081526004016108f69061317e565b60405180910390fd5b600360008373ffffffffffffffffffffffffffffffffffffffff1673ffffffffffffffffffffffffffffffffffffffff168152602001908152602001600020549050919050565b60606001805461095590613592565b80601f016020809104026020016040519081016040528092919081815260200182805461098190613592565b80156109ce5780601f106109a3576101008083540402835291602001916109ce565b820191906000526020600020905b8154815290600101906020018083116109b157829003601f168201915b5050505050905090565b60006109e382610ae2565b90506109ef3383611197565b80600960008481526020019081526020016000209080519060200190610a16929190612452565b505050565b610a2d610a26610d9c565b83836111b5565b5050565b600660009054906101000a900473ffffffffffffffffffffffffffffffffffffffff1673ffffffffffffffffffffffffffffffffffffffff1663a2d1d5e2826040518263ffffffff1660e01b8152600401610a8c9190613051565b602060405180830381600087803b158015610aa657600080fd5b505af1158015610aba573d6000803e3d6000fd5b505050506040513d601f19601f82011682018060405250810190610ade9190612aeb565b5050565b6060610aed30611322565b610af683611783565b610b01600854611783565b604051602001610b1393929190612f9e565b6040516020818303038152906040529050919050565b610b3a610b34610d9c565b83610e5d565b610b79576040517f08c379a0000000000000000000000000000000000000000000000000000000008152600401610b709061325e565b60405180910390fd5b610b8584848484611930565b50505050565b6060610b9682610d30565b610bd5576040517f08c379a0000000000000000000000000000000000000000000000000000000008152600401610bcc9061321e565b60405180910390fd5b6000610bdf61198c565b90506000815111610bff5760405180602001604052806000815250610c2a565b80610c0984611783565b604051602001610c1a929190612f7a565b6040516020818303038152906040525b915050919050565b6000600560008473ffffffffffffffffffffffffffffffffffffffff1673ffffffffffffffffffffffffffffffffffffffff16815260200190815260200160002060008373ffffffffffffffffffffffffffffffffffffffff1673ffffffffffffffffffffffffffffffffffffffff16815260200190815260200160002060009054906101000a900460ff16905092915050565b60007f01ffc9a7000000000000000000000000000000000000000000000000000000007bffffffffffffffffffffffffffffffffffffffffffffffffffffffff1916827bffffffffffffffffffffffffffffffffffffffffffffffffffffffff1916149050919050565b60008073ffffffffffffffffffffffffffffffffffffffff166002600084815260200190815260200160002060009054906101000a900473ffffffffffffffffffffffffffffffffffffffff1673ffffffffffffffffffffffffffffffffffffffff1614159050919050565b600033905090565b816004600083815260200190815260200160002060006101000a81548173ffffffffffffffffffffffffffffffffffffffff021916908373ffffffffffffffffffffffffffffffffffffffff160217905550808273ffffffffffffffffffffffffffffffffffffffff16610e17836107dc565b73ffffffffffffffffffffffffffffffffffffffff167f8c5be1e5ebec7d5bd14f71427d1e84f3dd0314c0f7b2291e5b200ac8c7c3b92560405160405180910390a45050565b6000610e6882610d30565b610ea7576040517f08c379a0000000000000000000000000000000000000000000000000000000008152600401610e9e9061313e565b60405180910390fd5b6000610eb2836107dc565b90508073ffffffffffffffffffffffffffffffffffffffff168473ffffffffffffffffffffffffffffffffffffffff161480610f2157508373ffffffffffffffffffffffffffffffffffffffff16610f0984610504565b73ffffffffffffffffffffffffffffffffffffffff16145b80610f325750610f318185610c32565b5b91505092915050565b8273ffffffffffffffffffffffffffffffffffffffff16610f5b826107dc565b73ffffffffffffffffffffffffffffffffffffffff1614610fb1576040517f08c379a0000000000000000000000000000000000000000000000000000000008152600401610fa8906131fe565b60405180910390fd5b600073ffffffffffffffffffffffffffffffffffffffff168273ffffffffffffffffffffffffffffffffffffffff161415611021576040517f08c379a0000000000000000000000000000000000000000000000000000000008152600401611018906130fe565b60405180910390fd5b61102c8383836119a3565b611037600082610da4565b6001600360008573ffffffffffffffffffffffffffffffffffffffff1673ffffffffffffffffffffffffffffffffffffffff1681526020019081526020016000206000828254611087919061343a565b925050819055506001600360008473ffffffffffffffffffffffffffffffffffffffff1673ffffffffffffffffffffffffffffffffffffffff16815260200190815260200160002060008282546110de9190613359565b92505081905550816002600083815260200190815260200160002060006101000a81548173ffffffffffffffffffffffffffffffffffffffff021916908373ffffffffffffffffffffffffffffffffffffffff160217905550808273ffffffffffffffffffffffffffffffffffffffff168473ffffffffffffffffffffffffffffffffffffffff167fddf252ad1be2c89b69c2b068fc378daa952ba7f163c4a11628f55a4df523b3ef60405160405180910390a4505050565b6111b1828260405180602001604052806000815250611da7565b5050565b8173ffffffffffffffffffffffffffffffffffffffff168373ffffffffffffffffffffffffffffffffffffffff161415611224576040517f08c379a000000000000000000000000000000000000000000000000000000000815260040161121b9061311e565b60405180910390fd5b80600560008573ffffffffffffffffffffffffffffffffffffffff1673ffffffffffffffffffffffffffffffffffffffff16815260200190815260200160002060008473ffffffffffffffffffffffffffffffffffffffff1673ffffffffffffffffffffffffffffffffffffffff16815260200190815260200160002060006101000a81548160ff0219169083151502179055508173ffffffffffffffffffffffffffffffffffffffff168373ffffffffffffffffffffffffffffffffffffffff167f17307eab39ab6107e8899845ad3d59bd9653f200f220920489ca2b5937696c31836040516113159190613036565b60405180910390a3505050565b606060008273ffffffffffffffffffffffffffffffffffffffff1660001b905060006040518060400160405280601081526020017f303132333435363738396162636465660000000000000000000000000000000081525090506000602a67ffffffffffffffff8111156113bf577f4e487b7100000000000000000000000000000000000000000000000000000000600052604160045260246000fd5b6040519080825280601f01601f1916602001820160405280156113f15781602001600182028036833780820191505090505b5090507f30000000000000000000000000000000000000000000000000000000000000008160008151811061144f577f4e487b7100000000000000000000000000000000000000000000000000000000600052603260045260246000fd5b60200101907effffffffffffffffffffffffffffffffffffffffffffffffffffffffffffff1916908160001a9053507f7800000000000000000000000000000000000000000000000000000000000000816001815181106114d9577f4e487b7100000000000000000000000000000000000000000000000000000000600052603260045260246000fd5b60200101907effffffffffffffffffffffffffffffffffffffffffffffffffffffffffffff1916908160001a90535060005b60148110156117775782600485600c846115259190613359565b6020811061155c577f4e487b7100000000000000000000000000000000000000000000000000000000600052603260045260246000fd5b1a60f81b7effffffffffffffffffffffffffffffffffffffffffffffffffffffffffffff1916901c60f81c60ff16815181106115c1577f4e487b7100000000000000000000000000000000000000000000000000000000600052603260045260246000fd5b602001015160f81c60f81b826002836115da91906133e0565b60026115e69190613359565b8151811061161d577f4e487b7100000000000000000000000000000000000000000000000000000000600052603260045260246000fd5b60200101907effffffffffffffffffffffffffffffffffffffffffffffffffffffffffffff1916908160001a90535082600f60f81b85600c846116609190613359565b60208110611697577f4e487b7100000000000000000000000000000000000000000000000000000000600052603260045260246000fd5b1a60f81b1660f81c60ff16815181106116d9577f4e487b7100000000000000000000000000000000000000000000000000000000600052603260045260246000fd5b602001015160f81c60f81b826002836116f291906133e0565b60036116fe9190613359565b81518110611735577f4e487b7100000000000000000000000000000000000000000000000000000000600052603260045260246000fd5b60200101907effffffffffffffffffffffffffffffffffffffffffffffffffffffffffffff1916908160001a905350808061176f906135f5565b91505061150b565b50809350505050919050565b606060008214156117cb576040518060400160405280600181526020017f3000000000000000000000000000000000000000000000000000000000000000815250905061192b565b600082905060005b600082146117fd5780806117e6906135f5565b915050600a826117f691906133af565b91506117d3565b60008167ffffffffffffffff81111561183f577f4e487b7100000000000000000000000000000000000000000000000000000000600052604160045260246000fd5b6040519080825280601f01601f1916602001820160405280156118715781602001600182028036833780820191505090505b5090505b600085146119245760018261188a919061343a565b9150600a85611899919061363e565b60306118a59190613359565b60f81b8183815181106118e1577f4e487b7100000000000000000000000000000000000000000000000000000000600052603260045260246000fd5b60200101907effffffffffffffffffffffffffffffffffffffffffffffffffffffffffffff1916908160001a905350600a8561191d91906133af565b9450611875565b8093505050505b919050565b61193b848484610f3b565b61194784848484611e02565b611986576040517f08c379a000000000000000000000000000000000000000000000000000000000815260040161197d906130be565b60405180910390fd5b50505050565b606060405180602001604052806000815250905090565b60006119ae82610ae2565b90506000600760009054906101000a900473ffffffffffffffffffffffffffffffffffffffff1673ffffffffffffffffffffffffffffffffffffffff1663038defd7866040518263ffffffff1660e01b8152600401611a0d9190612fcf565b60006040518083038186803b158015611a2557600080fd5b505afa158015611a39573d6000803e3d6000fd5b505050506040513d6000823e3d601f19601f82011682018060405250810190611a629190612a2c565b5090506000611b20600760009054906101000a900473ffffffffffffffffffffffffffffffffffffffff1673ffffffffffffffffffffffffffffffffffffffff16637950c5f86040518163ffffffff1660e01b815260040160006040518083038186803b158015611ad257600080fd5b505afa158015611ae6573d6000803e3d6000fd5b505050506040513d6000823e3d601f19601f82011682018060405250810190611b0f91906129eb565b8385611f999092919063ffffffff16565b9050611b2b81611fcf565b600660009054906101000a900473ffffffffffffffffffffffffffffffffffffffff1673ffffffffffffffffffffffffffffffffffffffff1663a2d1d5e2826040518263ffffffff1660e01b8152600401611b869190613051565b602060405180830381600087803b158015611ba057600080fd5b505af1925050508015611bd157506040513d601f19601f82011682018060405250810190611bce9190612aeb565b60015b611c9057611bdd61372b565b806308c379a01415611c4a5750611bf2613b4b565b80611bfd5750611c4c565b611c0681612068565b611c446040518060400160405280600d81526020017f5265766f6b65204661696c656400000000000000000000000000000000000000815250612068565b50611c8b565b505b611c8a6040518060400160405280600d81526020017f5265766f6b65204661696c656400000000000000000000000000000000000000815250612068565b5b611d10565b611cce6040518060400160405280601981526020017f5265766f6b65205375636365656465642c20526566756e643a00000000000000815250612068565b611cd781612101565b7fd5c412018f53b59096d0921fd2ae3a288a62104eff0ce2cb8f7f65a4e7265bb382604051611d069190613051565b60405180910390a1505b5050600760009054906101000a900473ffffffffffffffffffffffffffffffffffffffff1673ffffffffffffffffffffffffffffffffffffffff166360c37bd682856040518363ffffffff1660e01b8152600401611d6f92919061308e565b600060405180830381600087803b158015611d8957600080fd5b505af1158015611d9d573d6000803e3d6000fd5b5050505050505050565b611db1838361219a565b611dbe6000848484611e02565b611dfd576040517f08c379a0000000000000000000000000000000000000000000000000000000008152600401611df4906130be565b60405180910390fd5b505050565b6000611e238473ffffffffffffffffffffffffffffffffffffffff16612368565b15611f8c578373ffffffffffffffffffffffffffffffffffffffff1663150b7a02611e4c610d9c565b8786866040518563ffffffff1660e01b8152600401611e6e9493929190612fea565b602060405180830381600087803b158015611e8857600080fd5b505af1925050508015611eb957506040513d601f19601f82011682018060405250810190611eb691906129c2565b60015b611f3c573d8060008114611ee9576040519150601f19603f3d011682016040523d82523d6000602084013e611eee565b606091505b50600081511415611f34576040517f08c379a0000000000000000000000000000000000000000000000000000000008152600401611f2b906130be565b60405180910390fd5b805181602001fd5b63150b7a0260e01b7bffffffffffffffffffffffffffffffffffffffffffffffffffffffff1916817bffffffffffffffffffffffffffffffffffffffffffffffffffffffff191614915050611f91565b600190505b949350505050565b6000828285604051602001611fb093929190612f49565b6040516020818303038152906040528051906020012090509392505050565b61206581604051602401611fe39190613051565b6040516020818303038152906040527f665c6104000000000000000000000000000000000000000000000000000000007bffffffffffffffffffffffffffffffffffffffffffffffffffffffff19166020820180517bffffffffffffffffffffffffffffffffffffffffffffffffffffffff838183161783525050505061237b565b50565b6120fe8160405160240161207c919061306c565b6040516020818303038152906040527f41304fac000000000000000000000000000000000000000000000000000000007bffffffffffffffffffffffffffffffffffffffffffffffffffffffff19166020820180517bffffffffffffffffffffffffffffffffffffffffffffffffffffffff838183161783525050505061237b565b50565b61219781604051602401612115919061329a565b6040516020818303038152906040527ff5b1bba9000000000000000000000000000000000000000000000000000000007bffffffffffffffffffffffffffffffffffffffffffffffffffffffff19166020820180517bffffffffffffffffffffffffffffffffffffffffffffffffffffffff838183161783525050505061237b565b50565b600073ffffffffffffffffffffffffffffffffffffffff168273ffffffffffffffffffffffffffffffffffffffff16141561220a576040517f08c379a0000000000000000000000000000000000000000000000000000000008152600401612201906131be565b60405180910390fd5b61221381610d30565b15612253576040517f08c379a000000000000000000000000000000000000000000000000000000000815260040161224a906130de565b60405180910390fd5b61225f600083836119a3565b6001600360008473ffffffffffffffffffffffffffffffffffffffff1673ffffffffffffffffffffffffffffffffffffffff16815260200190815260200160002060008282546122af9190613359565b92505081905550816002600083815260200190815260200160002060006101000a81548173ffffffffffffffffffffffffffffffffffffffff021916908373ffffffffffffffffffffffffffffffffffffffff160217905550808273ffffffffffffffffffffffffffffffffffffffff16600073ffffffffffffffffffffffffffffffffffffffff167fddf252ad1be2c89b69c2b068fc378daa952ba7f163c4a11628f55a4df523b3ef60405160405180910390a45050565b600080823b905060008111915050919050565b60008151905060006a636f6e736f6c652e6c6f679050602083016000808483855afa5050505050565b604051806101600160405280600015158152602001600073ffffffffffffffffffffffffffffffffffffffff168152602001600073ffffffffffffffffffffffffffffffffffffffff16815260200160006fffffffffffffffffffffffffffffffff168152602001600067ffffffffffffffff168152602001600067ffffffffffffffff16815260200160008152602001600081526020016000815260200160008152602001600081525090565b82805461245e90613592565b90600052602060002090601f01602090048101928261248057600085556124c7565b82601f1061249957805160ff19168380011785556124c7565b828001600101855582156124c7579182015b828111156124c65782518255916020019190600101906124ab565b5b5090506124d491906124d8565b5090565b5b808211156124f15760008160009055506001016124d9565b5090565b6000612508612503846132da565b6132b5565b90508281526020810184848401111561252057600080fd5b61252b848285613550565b509392505050565b6000612546612541846132da565b6132b5565b90508281526020810184848401111561255e57600080fd5b61256984828561355f565b509392505050565b60008135905061258081613be1565b92915050565b60008151905061259581613be1565b92915050565b6000815190506125aa81613bf8565b92915050565b6000813590506125bf81613c0f565b92915050565b6000815190506125d481613c0f565b92915050565b6000813590506125e981613c26565b92915050565b6000813590506125fe81613c3d565b92915050565b60008151905061261381613c3d565b92915050565b600082601f83011261262a57600080fd5b813561263a8482602086016124f5565b91505092915050565b600082601f83011261265457600080fd5b8151612664848260208601612533565b91505092915050565b6000610160828403121561268057600080fd5b61268b6101606132b5565b9050600061269b848285016125c5565b60008301525060206126af8482850161259b565b60208301525060406126c384828501612586565b60408301525060606126d784828501612775565b60608301525060806126eb848285016127b4565b60808301525060a06126ff848285016127b4565b60a08301525060c06127138482850161279f565b60c08301525060e06127278482850161279f565b60e08301525061010061273c8482850161279f565b610100830152506101206127528482850161279f565b610120830152506101406127688482850161279f565b6101408301525092915050565b60008151905061278481613c54565b92915050565b60008135905061279981613c6b565b92915050565b6000815190506127ae81613c6b565b92915050565b6000815190506127c381613c82565b92915050565b6000602082840312156127db57600080fd5b60006127e984828501612571565b91505092915050565b6000806040838503121561280557600080fd5b600061281385828601612571565b925050602061282485828601612571565b9150509250929050565b60008060006060848603121561284357600080fd5b600061285186828701612571565b935050602061286286828701612571565b92505060406128738682870161278a565b9150509250925092565b6000806000806080858703121561289357600080fd5b60006128a187828801612571565b94505060206128b287828801612571565b93505060406128c38782880161278a565b925050606085013567ffffffffffffffff8111156128e057600080fd5b6128ec87828801612619565b91505092959194509250565b6000806040838503121561290b57600080fd5b600061291985828601612571565b925050602061292a858286016125b0565b9150509250929050565b6000806040838503121561294757600080fd5b600061295585828601612571565b92505060206129668582860161278a565b9150509250929050565b60006020828403121561298257600080fd5b6000612990848285016125da565b91505092915050565b6000602082840312156129ab57600080fd5b60006129b9848285016125ef565b91505092915050565b6000602082840312156129d457600080fd5b60006129e284828501612604565b91505092915050565b6000602082840312156129fd57600080fd5b600082015167ffffffffffffffff811115612a1757600080fd5b612a2384828501612643565b91505092915050565b60008060408385031215612a3f57600080fd5b600083015167ffffffffffffffff811115612a5957600080fd5b612a6585828601612643565b925050602083015167ffffffffffffffff811115612a8257600080fd5b612a8e85828601612643565b9150509250929050565b60006101608284031215612aab57600080fd5b6000612ab98482850161266d565b91505092915050565b600060208284031215612ad457600080fd5b6000612ae28482850161278a565b91505092915050565b600060208284031215612afd57600080fd5b6000612b0b8482850161279f565b91505092915050565b612b1d81613480565b82525050565b612b2c8161346e565b82525050565b612b3b8161346e565b82525050565b612b4a81613492565b82525050565b612b5981613492565b82525050565b612b688161349e565b82525050565b6000612b798261330b565b612b838185613321565b9350612b9381856020860161355f565b612b9c8161374d565b840191505092915050565b6000612bb28261330b565b612bbc8185613332565b9350612bcc81856020860161355f565b80840191505092915050565b6000612be382613316565b612bed818561333d565b9350612bfd81856020860161355f565b612c068161374d565b840191505092915050565b6000612c1c82613316565b612c26818561334e565b9350612c3681856020860161355f565b80840191505092915050565b6000612c4f60328361333d565b9150612c5a8261376b565b604082019050919050565b6000612c72601c8361333d565b9150612c7d826137ba565b602082019050919050565b6000612c9560248361333d565b9150612ca0826137e3565b604082019050919050565b6000612cb860198361333d565b9150612cc382613832565b602082019050919050565b6000612cdb602c8361333d565b9150612ce68261385b565b604082019050919050565b6000612cfe60388361333d565b9150612d09826138aa565b604082019050919050565b6000612d21602a8361333d565b9150612d2c826138f9565b604082019050919050565b6000612d4460298361333d565b9150612d4f82613948565b604082019050919050565b6000612d6760208361333d565b9150612d7282613997565b602082019050919050565b6000612d8a602c8361333d565b9150612d95826139c0565b604082019050919050565b6000612dad60298361333d565b9150612db882613a0f565b604082019050919050565b6000612dd0602f8361333d565b9150612ddb82613a5e565b604082019050919050565b6000612df360218361333d565b9150612dfe82613aad565b604082019050919050565b6000612e1660318361333d565b9150612e2182613afc565b604082019050919050565b61016082016000820151612e436000850182612b41565b506020820151612e566020850182612b14565b506040820151612e696040850182612b23565b506060820151612e7c6060850182612f0d565b506080820151612e8f6080850182612f3a565b5060a0820151612ea260a0850182612f3a565b5060c0820151612eb560c0850182612f1c565b5060e0820151612ec860e0850182612f1c565b50610100820151612edd610100850182612f1c565b50610120820151612ef2610120850182612f1c565b50610140820151612f07610140850182612f1c565b50505050565b612f16816134f6565b82525050565b612f2581613532565b82525050565b612f3481613532565b82525050565b612f438161353c565b82525050565b6000612f558286612ba7565b9150612f618285612ba7565b9150612f6d8284612c11565b9150819050949350505050565b6000612f868285612c11565b9150612f928284612c11565b91508190509392505050565b6000612faa8286612c11565b9150612fb68285612c11565b9150612fc28284612c11565b9150819050949350505050565b6000602082019050612fe46000830184612b32565b92915050565b6000608082019050612fff6000830187612b32565b61300c6020830186612b32565b6130196040830185612f2b565b818103606083015261302b8184612b6e565b905095945050505050565b600060208201905061304b6000830184612b50565b92915050565b60006020820190506130666000830184612b5f565b92915050565b600060208201905081810360008301526130868184612bd8565b905092915050565b600060408201905081810360008301526130a88185612bd8565b90506130b76020830184612b32565b9392505050565b600060208201905081810360008301526130d781612c42565b9050919050565b600060208201905081810360008301526130f781612c65565b9050919050565b6000602082019050818103600083015261311781612c88565b9050919050565b6000602082019050818103600083015261313781612cab565b9050919050565b6000602082019050818103600083015261315781612cce565b9050919050565b6000602082019050818103600083015261317781612cf1565b9050919050565b6000602082019050818103600083015261319781612d14565b9050919050565b600060208201905081810360008301526131b781612d37565b9050919050565b600060208201905081810360008301526131d781612d5a565b9050919050565b600060208201905081810360008301526131f781612d7d565b9050919050565b6000602082019050818103600083015261321781612da0565b9050919050565b6000602082019050818103600083015261323781612dc3565b9050919050565b6000602082019050818103600083015261325781612de6565b9050919050565b6000602082019050818103600083015261327781612e09565b9050919050565b6000610160820190506132946000830184612e2c565b92915050565b60006020820190506132af6000830184612f2b565b92915050565b60006132bf6132d0565b90506132cb82826135c4565b919050565b6000604051905090565b600067ffffffffffffffff8211156132f5576132f46136fc565b5b6132fe8261374d565b9050602081019050919050565b600081519050919050565b600081519050919050565b600082825260208201905092915050565b600081905092915050565b600082825260208201905092915050565b600081905092915050565b600061336482613532565b915061336f83613532565b9250827fffffffffffffffffffffffffffffffffffffffffffffffffffffffffffffffff038211156133a4576133a361366f565b5b828201905092915050565b60006133ba82613532565b91506133c583613532565b9250826133d5576133d461369e565b5b828204905092915050565b60006133eb82613532565b91506133f683613532565b9250817fffffffffffffffffffffffffffffffffffffffffffffffffffffffffffffffff048311821515161561342f5761342e61366f565b5b828202905092915050565b600061344582613532565b915061345083613532565b9250828210156134635761346261366f565b5b828203905092915050565b600061347982613512565b9050919050565b600061348b82613512565b9050919050565b60008115159050919050565b60007fffffffffffffffffffffffffffffffff0000000000000000000000000000000082169050919050565b60007fffffffff0000000000000000000000000000000000000000000000000000000082169050919050565b60006fffffffffffffffffffffffffffffffff82169050919050565b600073ffffffffffffffffffffffffffffffffffffffff82169050919050565b6000819050919050565b600067ffffffffffffffff82169050919050565b82818337600083830152505050565b60005b8381101561357d578082015181840152602081019050613562565b8381111561358c576000848401525b50505050565b600060028204905060018216806135aa57607f821691505b602082108114156135be576135bd6136cd565b5b50919050565b6135cd8261374d565b810181811067ffffffffffffffff821117156135ec576135eb6136fc565b5b80604052505050565b600061360082613532565b91507fffffffffffffffffffffffffffffffffffffffffffffffffffffffffffffffff8214156136335761363261366f565b5b600182019050919050565b600061364982613532565b915061365483613532565b9250826136645761366361369e565b5b828206905092915050565b7f4e487b7100000000000000000000000000000000000000000000000000000000600052601160045260246000fd5b7f4e487b7100000000000000000000000000000000000000000000000000000000600052601260045260246000fd5b7f4e487b7100000000000000000000000000000000000000000000000000000000600052602260045260246000fd5b7f4e487b7100000000000000000000000000000000000000000000000000000000600052604160045260246000fd5b600060033d111561374a5760046000803e61374760005161375e565b90505b90565b6000601f19601f8301169050919050565b60008160e01c9050919050565b7f4552433732313a207472616e7366657220746f206e6f6e20455243373231526560008201527f63656976657220696d706c656d656e7465720000000000000000000000000000602082015250565b7f4552433732313a20746f6b656e20616c7265616479206d696e74656400000000600082015250565b7f4552433732313a207472616e7366657220746f20746865207a65726f2061646460008201527f7265737300000000000000000000000000000000000000000000000000000000602082015250565b7f4552433732313a20617070726f766520746f2063616c6c657200000000000000600082015250565b7f4552433732313a206f70657261746f7220717565727920666f72206e6f6e657860008201527f697374656e7420746f6b656e0000000000000000000000000000000000000000602082015250565b7f4552433732313a20617070726f76652063616c6c6572206973206e6f74206f7760008201527f6e6572206e6f7220617070726f76656420666f7220616c6c0000000000000000602082015250565b7f4552433732313a2062616c616e636520717565727920666f7220746865207a6560008201527f726f206164647265737300000000000000000000000000000000000000000000602082015250565b7f4552433732313a206f776e657220717565727920666f72206e6f6e657869737460008201527f656e7420746f6b656e0000000000000000000000000000000000000000000000602082015250565b7f4552433732313a206d696e7420746f20746865207a65726f2061646472657373600082015250565b7f4552433732313a20617070726f76656420717565727920666f72206e6f6e657860008201527f697374656e7420746f6b656e0000000000000000000000000000000000000000602082015250565b7f4552433732313a207472616e73666572206f6620746f6b656e2074686174206960008201527f73206e6f74206f776e0000000000000000000000000000000000000000000000602082015250565b7f4552433732314d657461646174613a2055524920717565727920666f72206e6f60008201527f6e6578697374656e7420746f6b656e0000000000000000000000000000000000602082015250565b7f4552433732313a20617070726f76616c20746f2063757272656e74206f776e6560008201527f7200000000000000000000000000000000000000000000000000000000000000602082015250565b7f4552433732313a207472616e736665722063616c6c6572206973206e6f74206f60008201527f776e6572206e6f7220617070726f766564000000000000000000000000000000602082015250565b600060443d1015613b5b57613bde565b613b636132d0565b60043d036004823e80513d602482011167ffffffffffffffff82111715613b8b575050613bde565b808201805167ffffffffffffffff811115613ba95750505050613bde565b80602083010160043d038501811115613bc6575050505050613bde565b613bd5826020018501866135c4565b82955050505050505b90565b613bea8161346e565b8114613bf557600080fd5b50565b613c0181613480565b8114613c0c57600080fd5b50565b613c1881613492565b8114613c2357600080fd5b50565b613c2f8161349e565b8114613c3a57600080fd5b50565b613c46816134ca565b8114613c5157600080fd5b50565b613c5d816134f6565b8114613c6857600080fd5b50565b613c7481613532565b8114613c7f57600080fd5b50565b613c8b8161353c565b8114613c9657600080fd5b5056fea26469706673582212203fd5519a22726c899ca4def2ef82624a02d0f782625c1ba426d3e0a1d20e280064736f6c63430008040033",
  "devdoc": {
    "kind": "dev",
    "methods": {
      "approve(address,uint256)": {
        "details": "See {IERC721-approve}."
      },
      "balanceOf(address)": {
        "details": "See {IERC721-balanceOf}."
      },
      "getApproved(uint256)": {
        "details": "See {IERC721-getApproved}."
      },
      "isApprovedForAll(address,address)": {
        "details": "See {IERC721-isApprovedForAll}."
      },
      "name()": {
        "details": "See {IERC721Metadata-name}."
      },
      "ownerOf(uint256)": {
        "details": "See {IERC721-ownerOf}."
      },
      "safeTransferFrom(address,address,uint256)": {
        "details": "See {IERC721-safeTransferFrom}."
      },
      "safeTransferFrom(address,address,uint256,bytes)": {
        "details": "See {IERC721-safeTransferFrom}."
      },
      "setApprovalForAll(address,bool)": {
        "details": "See {IERC721-setApprovalForAll}."
      },
      "supportsInterface(bytes4)": {
        "details": "See {IERC165-supportsInterface}."
      },
      "symbol()": {
        "details": "See {IERC721Metadata-symbol}."
      },
      "tokenURI(uint256)": {
        "details": "See {IERC721Metadata-tokenURI}."
      },
      "transferFrom(address,address,uint256)": {
        "details": "See {IERC721-transferFrom}."
      }
    },
    "version": 1
  },
  "userdoc": {
    "kind": "user",
    "methods": {},
    "version": 1
  },
  "storageLayout": {
    "storage": [
      {
        "astId": 25,
        "contract": "contracts/OpenDRM721.sol:OpenDRM721",
        "label": "_name",
        "offset": 0,
        "slot": "0",
        "type": "t_string_storage"
      },
      {
        "astId": 27,
        "contract": "contracts/OpenDRM721.sol:OpenDRM721",
        "label": "_symbol",
        "offset": 0,
        "slot": "1",
        "type": "t_string_storage"
      },
      {
        "astId": 31,
        "contract": "contracts/OpenDRM721.sol:OpenDRM721",
        "label": "_owners",
        "offset": 0,
        "slot": "2",
        "type": "t_mapping(t_uint256,t_address)"
      },
      {
        "astId": 35,
        "contract": "contracts/OpenDRM721.sol:OpenDRM721",
        "label": "_balances",
        "offset": 0,
        "slot": "3",
        "type": "t_mapping(t_address,t_uint256)"
      },
      {
        "astId": 39,
        "contract": "contracts/OpenDRM721.sol:OpenDRM721",
        "label": "_tokenApprovals",
        "offset": 0,
        "slot": "4",
        "type": "t_mapping(t_uint256,t_address)"
      },
      {
        "astId": 45,
        "contract": "contracts/OpenDRM721.sol:OpenDRM721",
        "label": "_operatorApprovals",
        "offset": 0,
        "slot": "5",
        "type": "t_mapping(t_address,t_mapping(t_address,t_bool))"
      },
      {
        "astId": 1926,
        "contract": "contracts/OpenDRM721.sol:OpenDRM721",
        "label": "policyManager",
        "offset": 0,
        "slot": "6",
        "type": "t_contract(IPolicyManager)1871"
      },
      {
        "astId": 1929,
        "contract": "contracts/OpenDRM721.sol:OpenDRM721",
        "label": "abioticAlice",
        "offset": 0,
        "slot": "7",
        "type": "t_contract(AbioticAliceManager)1782"
      },
      {
        "astId": 1931,
        "contract": "contracts/OpenDRM721.sol:OpenDRM721",
        "label": "chainId",
        "offset": 0,
        "slot": "8",
        "type": "t_uint256"
      },
      {
        "astId": 1935,
        "contract": "contracts/OpenDRM721.sol:OpenDRM721",
        "label": "labels",
        "offset": 0,
        "slot": "9",
        "type": "t_mapping(t_uint256,t_string_storage)"
      }
    ],
    "types": {
      "t_address": {
        "encoding": "inplace",
        "label": "address",
        "numberOfBytes": "20"
      },
      "t_bool": {
        "encoding": "inplace",
        "label": "bool",
        "numberOfBytes": "1"
      },
      "t_contract(AbioticAliceManager)1782": {
        "encoding": "inplace",
        "label": "contract AbioticAliceManager",
        "numberOfBytes": "20"
      },
      "t_contract(IPolicyManager)1871": {
        "encoding": "inplace",
        "label": "contract IPolicyManager",
        "numberOfBytes": "20"
      },
      "t_mapping(t_address,t_bool)": {
        "encoding": "mapping",
        "key": "t_address",
        "label": "mapping(address => bool)",
        "numberOfBytes": "32",
        "value": "t_bool"
      },
      "t_mapping(t_address,t_mapping(t_address,t_bool))": {
        "encoding": "mapping",
        "key": "t_address",
        "label": "mapping(address => mapping(address => bool))",
        "numberOfBytes": "32",
        "value": "t_mapping(t_address,t_bool)"
      },
      "t_mapping(t_address,t_uint256)": {
        "encoding": "mapping",
        "key": "t_address",
        "label": "mapping(address => uint256)",
        "numberOfBytes": "32",
        "value": "t_uint256"
      },
      "t_mapping(t_uint256,t_address)": {
        "encoding": "mapping",
        "key": "t_uint256",
        "label": "mapping(uint256 => address)",
        "numberOfBytes": "32",
        "value": "t_address"
      },
      "t_mapping(t_uint256,t_string_storage)": {
        "encoding": "mapping",
        "key": "t_uint256",
        "label": "mapping(uint256 => string)",
        "numberOfBytes": "32",
        "value": "t_string_storage"
      },
      "t_string_storage": {
        "encoding": "bytes",
        "label": "string",
        "numberOfBytes": "32"
      },
      "t_uint256": {
        "encoding": "inplace",
        "label": "uint256",
        "numberOfBytes": "32"
      }
    }
  }
}