{
  "address": "0x11cCAD764853A3a6f0F5D2C898cD83B3b1d94829",
  "abi": [
    {
      "inputs": [
        {
          "internalType": "address",
          "name": "_policyManager",
          "type": "address"
        },
        {
          "internalType": "address",
          "name": "_abioticAlice",
          "type": "address"
        }
      ],
      "stateMutability": "nonpayable",
      "type": "constructor"
    },
    {
      "anonymous": false,
      "inputs": [
        {
          "indexed": true,
          "internalType": "address",
          "name": "owner",
          "type": "address"
        },
        {
          "indexed": true,
          "internalType": "address",
          "name": "approved",
          "type": "address"
        },
        {
          "indexed": true,
          "internalType": "uint256",
          "name": "tokenId",
          "type": "uint256"
        }
      ],
      "name": "Approval",
      "type": "event"
    },
    {
      "anonymous": false,
      "inputs": [
        {
          "indexed": true,
          "internalType": "address",
          "name": "owner",
          "type": "address"
        },
        {
          "indexed": true,
          "internalType": "address",
          "name": "operator",
          "type": "address"
        },
        {
          "indexed": false,
          "internalType": "bool",
          "name": "approved",
          "type": "bool"
        }
      ],
      "name": "ApprovalForAll",
      "type": "event"
    },
    {
      "anonymous": false,
      "inputs": [
        {
          "indexed": true,
          "internalType": "address",
          "name": "from",
          "type": "address"
        },
        {
          "indexed": true,
          "internalType": "address",
          "name": "to",
          "type": "address"
        },
        {
          "indexed": true,
          "internalType": "uint256",
          "name": "tokenId",
          "type": "uint256"
        }
      ],
      "name": "Transfer",
      "type": "event"
    },
    {
      "inputs": [
        {
          "internalType": "address",
          "name": "to",
          "type": "address"
        },
        {
          "internalType": "uint256",
          "name": "tokenId",
          "type": "uint256"
        }
      ],
      "name": "approve",
      "outputs": [],
      "stateMutability": "nonpayable",
      "type": "function"
    },
    {
      "inputs": [
        {
          "internalType": "address",
          "name": "owner",
          "type": "address"
        }
      ],
      "name": "balanceOf",
      "outputs": [
        {
          "internalType": "uint256",
          "name": "",
          "type": "uint256"
        }
      ],
      "stateMutability": "view",
      "type": "function"
    },
    {
      "inputs": [
        {
          "internalType": "address",
          "name": "from",
          "type": "address"
        },
        {
          "internalType": "address",
          "name": "to",
          "type": "address"
        },
        {
          "internalType": "uint256",
          "name": "tokenId",
          "type": "uint256"
        },
        {
          "internalType": "bytes",
          "name": "fromPublicKey",
          "type": "bytes"
        },
        {
          "internalType": "bytes",
          "name": "toPublicKey",
          "type": "bytes"
        },
        {
          "internalType": "uint64",
          "name": "_endTimestamp",
          "type": "uint64"
        },
        {
          "internalType": "address[]",
          "name": "_nodes",
          "type": "address[]"
        }
      ],
      "name": "encryptedTransferFrom",
      "outputs": [],
      "stateMutability": "payable",
      "type": "function"
    },
    {
      "inputs": [
        {
          "internalType": "uint256",
          "name": "tokenId",
          "type": "uint256"
        }
      ],
      "name": "getApproved",
      "outputs": [
        {
          "internalType": "address",
          "name": "",
          "type": "address"
        }
      ],
      "stateMutability": "view",
      "type": "function"
    },
    {
      "inputs": [
        {
          "internalType": "bytes16",
          "name": "_policyId",
          "type": "bytes16"
        },
        {
          "internalType": "uint64",
          "name": "_endTimestamp",
          "type": "uint64"
        },
        {
          "internalType": "address[]",
          "name": "_nodes",
          "type": "address[]"
        }
      ],
      "name": "getPolicy",
      "outputs": [],
      "stateMutability": "payable",
      "type": "function"
    },
    {
      "inputs": [
        {
          "internalType": "address",
          "name": "owner",
          "type": "address"
        },
        {
          "internalType": "address",
          "name": "operator",
          "type": "address"
        }
      ],
      "name": "isApprovedForAll",
      "outputs": [
        {
          "internalType": "bool",
          "name": "",
          "type": "bool"
        }
      ],
      "stateMutability": "view",
      "type": "function"
    },
    {
      "inputs": [
        {
          "internalType": "uint256",
          "name": "tokenId",
          "type": "uint256"
        },
        {
          "internalType": "string",
          "name": "label",
          "type": "string"
        }
      ],
      "name": "mint",
      "outputs": [],
      "stateMutability": "nonpayable",
      "type": "function"
    },
    {
      "inputs": [],
      "name": "name",
      "outputs": [
        {
          "internalType": "string",
          "name": "",
          "type": "string"
        }
      ],
      "stateMutability": "view",
      "type": "function"
    },
    {
      "inputs": [
        {
          "internalType": "uint256",
          "name": "tokenId",
          "type": "uint256"
        }
      ],
      "name": "ownerOf",
      "outputs": [
        {
          "internalType": "address",
          "name": "",
          "type": "address"
        }
      ],
      "stateMutability": "view",
      "type": "function"
    },
    {
      "inputs": [
        {
          "internalType": "address",
          "name": "from",
          "type": "address"
        },
        {
          "internalType": "address",
          "name": "to",
          "type": "address"
        },
        {
          "internalType": "uint256",
          "name": "tokenId",
          "type": "uint256"
        }
      ],
      "name": "safeTransferFrom",
      "outputs": [],
      "stateMutability": "nonpayable",
      "type": "function"
    },
    {
      "inputs": [
        {
          "internalType": "address",
          "name": "from",
          "type": "address"
        },
        {
          "internalType": "address",
          "name": "to",
          "type": "address"
        },
        {
          "internalType": "uint256",
          "name": "tokenId",
          "type": "uint256"
        },
        {
          "internalType": "bytes",
          "name": "_data",
          "type": "bytes"
        }
      ],
      "name": "safeTransferFrom",
      "outputs": [],
      "stateMutability": "nonpayable",
      "type": "function"
    },
    {
      "inputs": [
        {
          "internalType": "address",
          "name": "operator",
          "type": "address"
        },
        {
          "internalType": "bool",
          "name": "approved",
          "type": "bool"
        }
      ],
      "name": "setApprovalForAll",
      "outputs": [],
      "stateMutability": "nonpayable",
      "type": "function"
    },
    {
      "inputs": [
        {
          "internalType": "bytes4",
          "name": "interfaceId",
          "type": "bytes4"
        }
      ],
      "name": "supportsInterface",
      "outputs": [
        {
          "internalType": "bool",
          "name": "",
          "type": "bool"
        }
      ],
      "stateMutability": "view",
      "type": "function"
    },
    {
      "inputs": [],
      "name": "symbol",
      "outputs": [
        {
          "internalType": "string",
          "name": "",
          "type": "string"
        }
      ],
      "stateMutability": "view",
      "type": "function"
    },
    {
      "inputs": [
        {
          "internalType": "uint256",
          "name": "tokenId",
          "type": "uint256"
        }
      ],
      "name": "tokenURI",
      "outputs": [
        {
          "internalType": "string",
          "name": "",
          "type": "string"
        }
      ],
      "stateMutability": "view",
      "type": "function"
    },
    {
      "inputs": [
        {
          "internalType": "address",
          "name": "from",
          "type": "address"
        },
        {
          "internalType": "address",
          "name": "to",
          "type": "address"
        },
        {
          "internalType": "uint256",
          "name": "tokenId",
          "type": "uint256"
        }
      ],
      "name": "transferFrom",
      "outputs": [],
      "stateMutability": "nonpayable",
      "type": "function"
    }
  ],
  "transactionHash": "0x89a1cf38f9c46e31811adb4dd1fc6e6cd9f329bb24f15b22e7f40b7957ca2320",
  "args": [
    "0xaC5e34d3FD41809873968c349d1194D23045b9D2",
    "0x68E2014DBe10c190640F4fFada397FA6E13dCE64"
  ],
  "solcInputHash": "48d8e73b1e06a5684bc9ab4f182f47aa",
  "bytecode": "0x60806040523480156200001157600080fd5b506040516200341338038062003413833981810160405281019062000037919062000228565b6040518060400160405280600b81526020017f4f70656e44524d20504f430000000000000000000000000000000000000000008152506040518060400160405280600481526020017f4f44524d000000000000000000000000000000000000000000000000000000008152508160009080519060200190620000bb92919062000161565b508060019080519060200190620000d492919062000161565b50505081600660006101000a81548173ffffffffffffffffffffffffffffffffffffffff021916908373ffffffffffffffffffffffffffffffffffffffff16021790555080600760006101000a81548173ffffffffffffffffffffffffffffffffffffffff021916908373ffffffffffffffffffffffffffffffffffffffff16021790555050506200031c565b8280546200016f906200029d565b90600052602060002090601f016020900481019282620001935760008555620001df565b82601f10620001ae57805160ff1916838001178555620001df565b82800160010185558215620001df579182015b82811115620001de578251825591602001919060010190620001c1565b5b509050620001ee9190620001f2565b5090565b5b808211156200020d576000816000905550600101620001f3565b5090565b600081519050620002228162000302565b92915050565b600080604083850312156200023c57600080fd5b60006200024c8582860162000211565b92505060206200025f8582860162000211565b9150509250929050565b600062000276826200027d565b9050919050565b600073ffffffffffffffffffffffffffffffffffffffff82169050919050565b60006002820490506001821680620002b657607f821691505b60208210811415620002cd57620002cc620002d3565b5b50919050565b7f4e487b7100000000000000000000000000000000000000000000000000000000600052602260045260246000fd5b6200030d8162000269565b81146200031957600080fd5b50565b6130e7806200032c6000396000f3fe6080604052600436106100f35760003560e01c806370a082311161008a578063a22cb46511610059578063a22cb4651461031e578063b88d4fde14610347578063c87b56dd14610370578063e985e9c5146103ad576100f3565b806370a082311461027157806377097fc8146102ae57806395d89b41146102d757806396d510e114610302576100f3565b806323b872dd116100c657806323b872dd146101c657806342842e0e146101ef5780636352211e14610218578063697bd77b14610255576100f3565b806301ffc9a7146100f857806306fdde0314610135578063081812fc14610160578063095ea7b31461019d575b600080fd5b34801561010457600080fd5b5061011f600480360381019061011a9190612019565b6103ea565b60405161012c9190612572565b60405180910390f35b34801561014157600080fd5b5061014a6104cc565b60405161015791906125db565b60405180910390f35b34801561016c57600080fd5b50610187600480360381019061018291906120ac565b61055e565b604051610194919061250b565b60405180910390f35b3480156101a957600080fd5b506101c460048036038101906101bf9190611f71565b6105e3565b005b3480156101d257600080fd5b506101ed60048036038101906101e89190611d81565b6106fb565b005b3480156101fb57600080fd5b5061021660048036038101906102119190611d81565b61075b565b005b34801561022457600080fd5b5061023f600480360381019061023a91906120ac565b61077b565b60405161024c919061250b565b60405180910390f35b61026f600480360381019061026a9190611e4b565b61082d565b005b34801561027d57600080fd5b5061029860048036038101906102939190611d1c565b610a40565b6040516102a591906127bd565b60405180910390f35b3480156102ba57600080fd5b506102d560048036038101906102d091906120d5565b610af8565b005b3480156102e357600080fd5b506102ec610b2e565b6040516102f991906125db565b60405180910390f35b61031c60048036038101906103179190611fad565b610bc0565b005b34801561032a57600080fd5b5061034560048036038101906103409190611f35565b610c5d565b005b34801561035357600080fd5b5061036e60048036038101906103699190611dd0565b610c73565b005b34801561037c57600080fd5b50610397600480360381019061039291906120ac565b610cd5565b6040516103a491906125db565b60405180910390f35b3480156103b957600080fd5b506103d460048036038101906103cf9190611d45565b610d7c565b6040516103e19190612572565b60405180910390f35b60007f80ac58cd000000000000000000000000000000000000000000000000000000007bffffffffffffffffffffffffffffffffffffffffffffffffffffffff1916827bffffffffffffffffffffffffffffffffffffffffffffffffffffffff191614806104b557507f5b5e139f000000000000000000000000000000000000000000000000000000007bffffffffffffffffffffffffffffffffffffffffffffffffffffffff1916827bffffffffffffffffffffffffffffffffffffffffffffffffffffffff1916145b806104c557506104c482610e10565b5b9050919050565b6060600080546104db90612a9d565b80601f016020809104026020016040519081016040528092919081815260200182805461050790612a9d565b80156105545780601f1061052957610100808354040283529160200191610554565b820191906000526020600020905b81548152906001019060200180831161053757829003601f168201915b5050505050905090565b600061056982610e7a565b6105a8576040517f08c379a000000000000000000000000000000000000000000000000000000000815260040161059f9061271d565b60405180910390fd5b6004600083815260200190815260200160002060009054906101000a900473ffffffffffffffffffffffffffffffffffffffff169050919050565b60006105ee8261077b565b90508073ffffffffffffffffffffffffffffffffffffffff168373ffffffffffffffffffffffffffffffffffffffff16141561065f576040517f08c379a00000000000000000000000000000000000000000000000000000000081526004016106569061277d565b60405180910390fd5b8073ffffffffffffffffffffffffffffffffffffffff1661067e610ee6565b73ffffffffffffffffffffffffffffffffffffffff1614806106ad57506106ac816106a7610ee6565b610d7c565b5b6106ec576040517f08c379a00000000000000000000000000000000000000000000000000000000081526004016106e39061269d565b60405180910390fd5b6106f68383610eee565b505050565b61070c610706610ee6565b82610fa7565b61074b576040517f08c379a00000000000000000000000000000000000000000000000000000000081526004016107429061279d565b60405180910390fd5b610756838383611085565b505050565b61077683838360405180602001604052806000815250610c73565b505050565b6000806002600084815260200190815260200160002060009054906101000a900473ffffffffffffffffffffffffffffffffffffffff169050600073ffffffffffffffffffffffffffffffffffffffff168173ffffffffffffffffffffffffffffffffffffffff161415610824576040517f08c379a000000000000000000000000000000000000000000000000000000000815260040161081b906126dd565b60405180910390fd5b80915050919050565b6000600760009054906101000a900473ffffffffffffffffffffffffffffffffffffffff1673ffffffffffffffffffffffffffffffffffffffff1663af7f43646040518163ffffffff1660e01b815260040160006040518083038186803b15801561089757600080fd5b505afa1580156108ab573d6000803e3d6000fd5b505050506040513d6000823e3d601f19601f820116820180604052508101906108d4919061206b565b9050600081876040518060400160405280600581526020017f6c6162656c000000000000000000000000000000000000000000000000000000815250604051602001610922939291906124b6565b60405160208183030381529060405280519060200120905050600081866040518060400160405280600581526020017f6c6162656c000000000000000000000000000000000000000000000000000000815250604051602001610987939291906124b6565b604051602081830303815290604052805190602001209050600660009054906101000a900473ffffffffffffffffffffffffffffffffffffffff1673ffffffffffffffffffffffffffffffffffffffff166381e742a182308888886040518663ffffffff1660e01b8152600401610a0295949392919061258d565b600060405180830381600087803b158015610a1c57600080fd5b505af1158015610a30573d6000803e3d6000fd5b5050505050505050505050505050565b60008073ffffffffffffffffffffffffffffffffffffffff168273ffffffffffffffffffffffffffffffffffffffff161415610ab1576040517f08c379a0000000000000000000000000000000000000000000000000000000008152600401610aa8906126bd565b60405180910390fd5b600360008373ffffffffffffffffffffffffffffffffffffffff1673ffffffffffffffffffffffffffffffffffffffff168152602001908152602001600020549050919050565b610b0233836112e1565b80600860008481526020019081526020016000209080519060200190610b29929190611a64565b505050565b606060018054610b3d90612a9d565b80601f0160208091040260200160405190810160405280929190818152602001828054610b6990612a9d565b8015610bb65780601f10610b8b57610100808354040283529160200191610bb6565b820191906000526020600020905b815481529060010190602001808311610b9957829003601f168201915b5050505050905090565b600660009054906101000a900473ffffffffffffffffffffffffffffffffffffffff1673ffffffffffffffffffffffffffffffffffffffff166381e742a1348660008787876040518763ffffffff1660e01b8152600401610c2595949392919061258d565b6000604051808303818588803b158015610c3e57600080fd5b505af1158015610c52573d6000803e3d6000fd5b505050505050505050565b610c6f610c68610ee6565b83836112ff565b5050565b610c84610c7e610ee6565b83610fa7565b610cc3576040517f08c379a0000000000000000000000000000000000000000000000000000000008152600401610cba9061279d565b60405180910390fd5b610ccf8484848461146c565b50505050565b6060610ce082610e7a565b610d1f576040517f08c379a0000000000000000000000000000000000000000000000000000000008152600401610d169061275d565b60405180910390fd5b6000610d296114c8565b90506000815111610d495760405180602001604052806000815250610d74565b80610d53846114df565b604051602001610d649291906124e7565b6040516020818303038152906040525b915050919050565b6000600560008473ffffffffffffffffffffffffffffffffffffffff1673ffffffffffffffffffffffffffffffffffffffff16815260200190815260200160002060008373ffffffffffffffffffffffffffffffffffffffff1673ffffffffffffffffffffffffffffffffffffffff16815260200190815260200160002060009054906101000a900460ff16905092915050565b60007f01ffc9a7000000000000000000000000000000000000000000000000000000007bffffffffffffffffffffffffffffffffffffffffffffffffffffffff1916827bffffffffffffffffffffffffffffffffffffffffffffffffffffffff1916149050919050565b60008073ffffffffffffffffffffffffffffffffffffffff166002600084815260200190815260200160002060009054906101000a900473ffffffffffffffffffffffffffffffffffffffff1673ffffffffffffffffffffffffffffffffffffffff1614159050919050565b600033905090565b816004600083815260200190815260200160002060006101000a81548173ffffffffffffffffffffffffffffffffffffffff021916908373ffffffffffffffffffffffffffffffffffffffff160217905550808273ffffffffffffffffffffffffffffffffffffffff16610f618361077b565b73ffffffffffffffffffffffffffffffffffffffff167f8c5be1e5ebec7d5bd14f71427d1e84f3dd0314c0f7b2291e5b200ac8c7c3b92560405160405180910390a45050565b6000610fb282610e7a565b610ff1576040517f08c379a0000000000000000000000000000000000000000000000000000000008152600401610fe89061267d565b60405180910390fd5b6000610ffc8361077b565b90508073ffffffffffffffffffffffffffffffffffffffff168473ffffffffffffffffffffffffffffffffffffffff16148061106b57508373ffffffffffffffffffffffffffffffffffffffff166110538461055e565b73ffffffffffffffffffffffffffffffffffffffff16145b8061107c575061107b8185610d7c565b5b91505092915050565b8273ffffffffffffffffffffffffffffffffffffffff166110a58261077b565b73ffffffffffffffffffffffffffffffffffffffff16146110fb576040517f08c379a00000000000000000000000000000000000000000000000000000000081526004016110f29061273d565b60405180910390fd5b600073ffffffffffffffffffffffffffffffffffffffff168273ffffffffffffffffffffffffffffffffffffffff16141561116b576040517f08c379a00000000000000000000000000000000000000000000000000000000081526004016111629061263d565b60405180910390fd5b61117683838361168c565b611181600082610eee565b6001600360008573ffffffffffffffffffffffffffffffffffffffff1673ffffffffffffffffffffffffffffffffffffffff16815260200190815260200160002060008282546111d19190612973565b925050819055506001600360008473ffffffffffffffffffffffffffffffffffffffff1673ffffffffffffffffffffffffffffffffffffffff168152602001908152602001600020600082825461122891906128ec565b92505081905550816002600083815260200190815260200160002060006101000a81548173ffffffffffffffffffffffffffffffffffffffff021916908373ffffffffffffffffffffffffffffffffffffffff160217905550808273ffffffffffffffffffffffffffffffffffffffff168473ffffffffffffffffffffffffffffffffffffffff167fddf252ad1be2c89b69c2b068fc378daa952ba7f163c4a11628f55a4df523b3ef60405160405180910390a4505050565b6112fb828260405180602001604052806000815250611691565b5050565b8173ffffffffffffffffffffffffffffffffffffffff168373ffffffffffffffffffffffffffffffffffffffff16141561136e576040517f08c379a00000000000000000000000000000000000000000000000000000000081526004016113659061265d565b60405180910390fd5b80600560008573ffffffffffffffffffffffffffffffffffffffff1673ffffffffffffffffffffffffffffffffffffffff16815260200190815260200160002060008473ffffffffffffffffffffffffffffffffffffffff1673ffffffffffffffffffffffffffffffffffffffff16815260200190815260200160002060006101000a81548160ff0219169083151502179055508173ffffffffffffffffffffffffffffffffffffffff168373ffffffffffffffffffffffffffffffffffffffff167f17307eab39ab6107e8899845ad3d59bd9653f200f220920489ca2b5937696c318360405161145f9190612572565b60405180910390a3505050565b611477848484611085565b611483848484846116ec565b6114c2576040517f08c379a00000000000000000000000000000000000000000000000000000000081526004016114b9906125fd565b60405180910390fd5b50505050565b606060405180602001604052806000815250905090565b60606000821415611527576040518060400160405280600181526020017f30000000000000000000000000000000000000000000000000000000000000008152509050611687565b600082905060005b6000821461155957808061154290612b00565b915050600a826115529190612942565b915061152f565b60008167ffffffffffffffff81111561159b577f4e487b7100000000000000000000000000000000000000000000000000000000600052604160045260246000fd5b6040519080825280601f01601f1916602001820160405280156115cd5781602001600182028036833780820191505090505b5090505b60008514611680576001826115e69190612973565b9150600a856115f59190612b49565b603061160191906128ec565b60f81b81838151811061163d577f4e487b7100000000000000000000000000000000000000000000000000000000600052603260045260246000fd5b60200101907effffffffffffffffffffffffffffffffffffffffffffffffffffffffffffff1916908160001a905350600a856116799190612942565b94506115d1565b8093505050505b919050565b505050565b61169b8383611883565b6116a860008484846116ec565b6116e7576040517f08c379a00000000000000000000000000000000000000000000000000000000081526004016116de906125fd565b60405180910390fd5b505050565b600061170d8473ffffffffffffffffffffffffffffffffffffffff16611a51565b15611876578373ffffffffffffffffffffffffffffffffffffffff1663150b7a02611736610ee6565b8786866040518563ffffffff1660e01b81526004016117589493929190612526565b602060405180830381600087803b15801561177257600080fd5b505af19250505080156117a357506040513d601f19601f820116820180604052508101906117a09190612042565b60015b611826573d80600081146117d3576040519150601f19603f3d011682016040523d82523d6000602084013e6117d8565b606091505b5060008151141561181e576040517f08c379a0000000000000000000000000000000000000000000000000000000008152600401611815906125fd565b60405180910390fd5b805181602001fd5b63150b7a0260e01b7bffffffffffffffffffffffffffffffffffffffffffffffffffffffff1916817bffffffffffffffffffffffffffffffffffffffffffffffffffffffff19161491505061187b565b600190505b949350505050565b600073ffffffffffffffffffffffffffffffffffffffff168273ffffffffffffffffffffffffffffffffffffffff1614156118f3576040517f08c379a00000000000000000000000000000000000000000000000000000000081526004016118ea906126fd565b60405180910390fd5b6118fc81610e7a565b1561193c576040517f08c379a00000000000000000000000000000000000000000000000000000000081526004016119339061261d565b60405180910390fd5b6119486000838361168c565b6001600360008473ffffffffffffffffffffffffffffffffffffffff1673ffffffffffffffffffffffffffffffffffffffff168152602001908152602001600020600082825461199891906128ec565b92505081905550816002600083815260200190815260200160002060006101000a81548173ffffffffffffffffffffffffffffffffffffffff021916908373ffffffffffffffffffffffffffffffffffffffff160217905550808273ffffffffffffffffffffffffffffffffffffffff16600073ffffffffffffffffffffffffffffffffffffffff167fddf252ad1be2c89b69c2b068fc378daa952ba7f163c4a11628f55a4df523b3ef60405160405180910390a45050565b600080823b905060008111915050919050565b828054611a7090612a9d565b90600052602060002090601f016020900481019282611a925760008555611ad9565b82601f10611aab57805160ff1916838001178555611ad9565b82800160010185558215611ad9579182015b82811115611ad8578251825591602001919060010190611abd565b5b509050611ae69190611aea565b5090565b5b80821115611b03576000816000905550600101611aeb565b5090565b6000611b1a611b15846127fd565b6127d8565b905082815260208101848484011115611b3257600080fd5b611b3d848285612a5b565b509392505050565b6000611b58611b53846127fd565b6127d8565b905082815260208101848484011115611b7057600080fd5b611b7b848285612a6a565b509392505050565b6000611b96611b918461282e565b6127d8565b905082815260208101848484011115611bae57600080fd5b611bb9848285612a5b565b509392505050565b600081359050611bd081613027565b92915050565b60008083601f840112611be857600080fd5b8235905067ffffffffffffffff811115611c0157600080fd5b602083019150836020820283011115611c1957600080fd5b9250929050565b600081359050611c2f8161303e565b92915050565b600081359050611c4481613055565b92915050565b600081359050611c598161306c565b92915050565b600081519050611c6e8161306c565b92915050565b600082601f830112611c8557600080fd5b8135611c95848260208601611b07565b91505092915050565b600082601f830112611caf57600080fd5b8151611cbf848260208601611b45565b91505092915050565b600082601f830112611cd957600080fd5b8135611ce9848260208601611b83565b91505092915050565b600081359050611d0181613083565b92915050565b600081359050611d168161309a565b92915050565b600060208284031215611d2e57600080fd5b6000611d3c84828501611bc1565b91505092915050565b60008060408385031215611d5857600080fd5b6000611d6685828601611bc1565b9250506020611d7785828601611bc1565b9150509250929050565b600080600060608486031215611d9657600080fd5b6000611da486828701611bc1565b9350506020611db586828701611bc1565b9250506040611dc686828701611cf2565b9150509250925092565b60008060008060808587031215611de657600080fd5b6000611df487828801611bc1565b9450506020611e0587828801611bc1565b9350506040611e1687828801611cf2565b925050606085013567ffffffffffffffff811115611e3357600080fd5b611e3f87828801611c74565b91505092959194509250565b60008060008060008060008060e0898b031215611e6757600080fd5b6000611e758b828c01611bc1565b9850506020611e868b828c01611bc1565b9750506040611e978b828c01611cf2565b965050606089013567ffffffffffffffff811115611eb457600080fd5b611ec08b828c01611c74565b955050608089013567ffffffffffffffff811115611edd57600080fd5b611ee98b828c01611c74565b94505060a0611efa8b828c01611d07565b93505060c089013567ffffffffffffffff811115611f1757600080fd5b611f238b828c01611bd6565b92509250509295985092959890939650565b60008060408385031215611f4857600080fd5b6000611f5685828601611bc1565b9250506020611f6785828601611c20565b9150509250929050565b60008060408385031215611f8457600080fd5b6000611f9285828601611bc1565b9250506020611fa385828601611cf2565b9150509250929050565b60008060008060608587031215611fc357600080fd5b6000611fd187828801611c35565b9450506020611fe287828801611d07565b935050604085013567ffffffffffffffff811115611fff57600080fd5b61200b87828801611bd6565b925092505092959194509250565b60006020828403121561202b57600080fd5b600061203984828501611c4a565b91505092915050565b60006020828403121561205457600080fd5b600061206284828501611c5f565b91505092915050565b60006020828403121561207d57600080fd5b600082015167ffffffffffffffff81111561209757600080fd5b6120a384828501611c9e565b91505092915050565b6000602082840312156120be57600080fd5b60006120cc84828501611cf2565b91505092915050565b600080604083850312156120e857600080fd5b60006120f685828601611cf2565b925050602083013567ffffffffffffffff81111561211357600080fd5b61211f85828601611cc8565b9150509250929050565b60006121358383612141565b60208301905092915050565b61214a816129a7565b82525050565b612159816129a7565b82525050565b600061216b838561288c565b93506121768261285f565b8060005b858110156121af5761218c82846128d5565b6121968882612129565b97506121a18361287f565b92505060018101905061217a565b5085925050509392505050565b6121c5816129b9565b82525050565b6121d4816129c5565b82525050565b60006121e582612869565b6121ef818561289d565b93506121ff818560208601612a6a565b61220881612c36565b840191505092915050565b600061221e82612869565b61222881856128ae565b9350612238818560208601612a6a565b80840191505092915050565b600061224f82612874565b61225981856128b9565b9350612269818560208601612a6a565b61227281612c36565b840191505092915050565b600061228882612874565b61229281856128ca565b93506122a2818560208601612a6a565b80840191505092915050565b60006122bb6032836128b9565b91506122c682612c47565b604082019050919050565b60006122de601c836128b9565b91506122e982612c96565b602082019050919050565b60006123016024836128b9565b915061230c82612cbf565b604082019050919050565b60006123246019836128b9565b915061232f82612d0e565b602082019050919050565b6000612347602c836128b9565b915061235282612d37565b604082019050919050565b600061236a6038836128b9565b915061237582612d86565b604082019050919050565b600061238d602a836128b9565b915061239882612dd5565b604082019050919050565b60006123b06029836128b9565b91506123bb82612e24565b604082019050919050565b60006123d36020836128b9565b91506123de82612e73565b602082019050919050565b60006123f6602c836128b9565b915061240182612e9c565b604082019050919050565b60006124196029836128b9565b915061242482612eeb565b604082019050919050565b600061243c602f836128b9565b915061244782612f3a565b604082019050919050565b600061245f6021836128b9565b915061246a82612f89565b604082019050919050565b60006124826031836128b9565b915061248d82612fd8565b604082019050919050565b6124a181612a3d565b82525050565b6124b081612a47565b82525050565b60006124c28286612213565b91506124ce8285612213565b91506124da8284612213565b9150819050949350505050565b60006124f3828561227d565b91506124ff828461227d565b91508190509392505050565b60006020820190506125206000830184612150565b92915050565b600060808201905061253b6000830187612150565b6125486020830186612150565b6125556040830185612498565b818103606083015261256781846121da565b905095945050505050565b600060208201905061258760008301846121bc565b92915050565b60006080820190506125a260008301886121cb565b6125af6020830187612150565b6125bc60408301866124a7565b81810360608301526125cf81848661215f565b90509695505050505050565b600060208201905081810360008301526125f58184612244565b905092915050565b60006020820190508181036000830152612616816122ae565b9050919050565b60006020820190508181036000830152612636816122d1565b9050919050565b60006020820190508181036000830152612656816122f4565b9050919050565b6000602082019050818103600083015261267681612317565b9050919050565b600060208201905081810360008301526126968161233a565b9050919050565b600060208201905081810360008301526126b68161235d565b9050919050565b600060208201905081810360008301526126d681612380565b9050919050565b600060208201905081810360008301526126f6816123a3565b9050919050565b60006020820190508181036000830152612716816123c6565b9050919050565b60006020820190508181036000830152612736816123e9565b9050919050565b600060208201905081810360008301526127568161240c565b9050919050565b600060208201905081810360008301526127768161242f565b9050919050565b6000602082019050818103600083015261279681612452565b9050919050565b600060208201905081810360008301526127b681612475565b9050919050565b60006020820190506127d26000830184612498565b92915050565b60006127e26127f3565b90506127ee8282612acf565b919050565b6000604051905090565b600067ffffffffffffffff82111561281857612817612c07565b5b61282182612c36565b9050602081019050919050565b600067ffffffffffffffff82111561284957612848612c07565b5b61285282612c36565b9050602081019050919050565b6000819050919050565b600081519050919050565b600081519050919050565b6000602082019050919050565b600082825260208201905092915050565b600082825260208201905092915050565b600081905092915050565b600082825260208201905092915050565b600081905092915050565b60006128e46020840184611bc1565b905092915050565b60006128f782612a3d565b915061290283612a3d565b9250827fffffffffffffffffffffffffffffffffffffffffffffffffffffffffffffffff0382111561293757612936612b7a565b5b828201905092915050565b600061294d82612a3d565b915061295883612a3d565b92508261296857612967612ba9565b5b828204905092915050565b600061297e82612a3d565b915061298983612a3d565b92508282101561299c5761299b612b7a565b5b828203905092915050565b60006129b282612a1d565b9050919050565b60008115159050919050565b60007fffffffffffffffffffffffffffffffff0000000000000000000000000000000082169050919050565b60007fffffffff0000000000000000000000000000000000000000000000000000000082169050919050565b600073ffffffffffffffffffffffffffffffffffffffff82169050919050565b6000819050919050565b600067ffffffffffffffff82169050919050565b82818337600083830152505050565b60005b83811015612a88578082015181840152602081019050612a6d565b83811115612a97576000848401525b50505050565b60006002820490506001821680612ab557607f821691505b60208210811415612ac957612ac8612bd8565b5b50919050565b612ad882612c36565b810181811067ffffffffffffffff82111715612af757612af6612c07565b5b80604052505050565b6000612b0b82612a3d565b91507fffffffffffffffffffffffffffffffffffffffffffffffffffffffffffffffff821415612b3e57612b3d612b7a565b5b600182019050919050565b6000612b5482612a3d565b9150612b5f83612a3d565b925082612b6f57612b6e612ba9565b5b828206905092915050565b7f4e487b7100000000000000000000000000000000000000000000000000000000600052601160045260246000fd5b7f4e487b7100000000000000000000000000000000000000000000000000000000600052601260045260246000fd5b7f4e487b7100000000000000000000000000000000000000000000000000000000600052602260045260246000fd5b7f4e487b7100000000000000000000000000000000000000000000000000000000600052604160045260246000fd5b6000601f19601f8301169050919050565b7f4552433732313a207472616e7366657220746f206e6f6e20455243373231526560008201527f63656976657220696d706c656d656e7465720000000000000000000000000000602082015250565b7f4552433732313a20746f6b656e20616c7265616479206d696e74656400000000600082015250565b7f4552433732313a207472616e7366657220746f20746865207a65726f2061646460008201527f7265737300000000000000000000000000000000000000000000000000000000602082015250565b7f4552433732313a20617070726f766520746f2063616c6c657200000000000000600082015250565b7f4552433732313a206f70657261746f7220717565727920666f72206e6f6e657860008201527f697374656e7420746f6b656e0000000000000000000000000000000000000000602082015250565b7f4552433732313a20617070726f76652063616c6c6572206973206e6f74206f7760008201527f6e6572206e6f7220617070726f76656420666f7220616c6c0000000000000000602082015250565b7f4552433732313a2062616c616e636520717565727920666f7220746865207a6560008201527f726f206164647265737300000000000000000000000000000000000000000000602082015250565b7f4552433732313a206f776e657220717565727920666f72206e6f6e657869737460008201527f656e7420746f6b656e0000000000000000000000000000000000000000000000602082015250565b7f4552433732313a206d696e7420746f20746865207a65726f2061646472657373600082015250565b7f4552433732313a20617070726f76656420717565727920666f72206e6f6e657860008201527f697374656e7420746f6b656e0000000000000000000000000000000000000000602082015250565b7f4552433732313a207472616e73666572206f6620746f6b656e2074686174206960008201527f73206e6f74206f776e0000000000000000000000000000000000000000000000602082015250565b7f4552433732314d657461646174613a2055524920717565727920666f72206e6f60008201527f6e6578697374656e7420746f6b656e0000000000000000000000000000000000602082015250565b7f4552433732313a20617070726f76616c20746f2063757272656e74206f776e6560008201527f7200000000000000000000000000000000000000000000000000000000000000602082015250565b7f4552433732313a207472616e736665722063616c6c6572206973206e6f74206f60008201527f776e6572206e6f7220617070726f766564000000000000000000000000000000602082015250565b613030816129a7565b811461303b57600080fd5b50565b613047816129b9565b811461305257600080fd5b50565b61305e816129c5565b811461306957600080fd5b50565b613075816129f1565b811461308057600080fd5b50565b61308c81612a3d565b811461309757600080fd5b50565b6130a381612a47565b81146130ae57600080fd5b5056fea264697066735822122033b64f1b765d1ae39fd9f5550e91ad7129d6b7ef0cecd6bb2980b7b4fa25fb8864736f6c63430008040033",
  "devdoc": {
    "kind": "dev",
    "methods": {
      "approve(address,uint256)": {
        "details": "See {IERC721-approve}."
      },
      "balanceOf(address)": {
        "details": "See {IERC721-balanceOf}."
      },
      "getApproved(uint256)": {
        "details": "See {IERC721-getApproved}."
      },
      "isApprovedForAll(address,address)": {
        "details": "See {IERC721-isApprovedForAll}."
      },
      "name()": {
        "details": "See {IERC721Metadata-name}."
      },
      "ownerOf(uint256)": {
        "details": "See {IERC721-ownerOf}."
      },
      "safeTransferFrom(address,address,uint256)": {
        "details": "See {IERC721-safeTransferFrom}."
      },
      "safeTransferFrom(address,address,uint256,bytes)": {
        "details": "See {IERC721-safeTransferFrom}."
      },
      "setApprovalForAll(address,bool)": {
        "details": "See {IERC721-setApprovalForAll}."
      },
      "supportsInterface(bytes4)": {
        "details": "See {IERC165-supportsInterface}."
      },
      "symbol()": {
        "details": "See {IERC721Metadata-symbol}."
      },
      "tokenURI(uint256)": {
        "details": "See {IERC721Metadata-tokenURI}."
      },
      "transferFrom(address,address,uint256)": {
        "details": "See {IERC721-transferFrom}."
      }
    },
    "version": 1
  },
  "userdoc": {
    "kind": "user",
    "methods": {},
    "version": 1
  },
  "storageLayout": {
    "storage": [
      {
        "astId": 25,
        "contract": "contracts/OpenDRM721.sol:OpenDRM721",
        "label": "_name",
        "offset": 0,
        "slot": "0",
        "type": "t_string_storage"
      },
      {
        "astId": 27,
        "contract": "contracts/OpenDRM721.sol:OpenDRM721",
        "label": "_symbol",
        "offset": 0,
        "slot": "1",
        "type": "t_string_storage"
      },
      {
        "astId": 31,
        "contract": "contracts/OpenDRM721.sol:OpenDRM721",
        "label": "_owners",
        "offset": 0,
        "slot": "2",
        "type": "t_mapping(t_uint256,t_address)"
      },
      {
        "astId": 35,
        "contract": "contracts/OpenDRM721.sol:OpenDRM721",
        "label": "_balances",
        "offset": 0,
        "slot": "3",
        "type": "t_mapping(t_address,t_uint256)"
      },
      {
        "astId": 39,
        "contract": "contracts/OpenDRM721.sol:OpenDRM721",
        "label": "_tokenApprovals",
        "offset": 0,
        "slot": "4",
        "type": "t_mapping(t_uint256,t_address)"
      },
      {
        "astId": 45,
        "contract": "contracts/OpenDRM721.sol:OpenDRM721",
        "label": "_operatorApprovals",
        "offset": 0,
        "slot": "5",
        "type": "t_mapping(t_address,t_mapping(t_address,t_bool))"
      },
      {
        "astId": 1650,
        "contract": "contracts/OpenDRM721.sol:OpenDRM721",
        "label": "PolicyManager",
        "offset": 0,
        "slot": "6",
        "type": "t_contract(IPolicyManager)1645"
      },
      {
        "astId": 1653,
        "contract": "contracts/OpenDRM721.sol:OpenDRM721",
        "label": "AbioticAlice",
        "offset": 0,
        "slot": "7",
        "type": "t_contract(AbioticAliceManager)1582"
      },
      {
        "astId": 1657,
        "contract": "contracts/OpenDRM721.sol:OpenDRM721",
        "label": "labels",
        "offset": 0,
        "slot": "8",
        "type": "t_mapping(t_uint256,t_string_storage)"
      }
    ],
    "types": {
      "t_address": {
        "encoding": "inplace",
        "label": "address",
        "numberOfBytes": "20"
      },
      "t_bool": {
        "encoding": "inplace",
        "label": "bool",
        "numberOfBytes": "1"
      },
      "t_contract(AbioticAliceManager)1582": {
        "encoding": "inplace",
        "label": "contract AbioticAliceManager",
        "numberOfBytes": "20"
      },
      "t_contract(IPolicyManager)1645": {
        "encoding": "inplace",
        "label": "contract IPolicyManager",
        "numberOfBytes": "20"
      },
      "t_mapping(t_address,t_bool)": {
        "encoding": "mapping",
        "key": "t_address",
        "label": "mapping(address => bool)",
        "numberOfBytes": "32",
        "value": "t_bool"
      },
      "t_mapping(t_address,t_mapping(t_address,t_bool))": {
        "encoding": "mapping",
        "key": "t_address",
        "label": "mapping(address => mapping(address => bool))",
        "numberOfBytes": "32",
        "value": "t_mapping(t_address,t_bool)"
      },
      "t_mapping(t_address,t_uint256)": {
        "encoding": "mapping",
        "key": "t_address",
        "label": "mapping(address => uint256)",
        "numberOfBytes": "32",
        "value": "t_uint256"
      },
      "t_mapping(t_uint256,t_address)": {
        "encoding": "mapping",
        "key": "t_uint256",
        "label": "mapping(uint256 => address)",
        "numberOfBytes": "32",
        "value": "t_address"
      },
      "t_mapping(t_uint256,t_string_storage)": {
        "encoding": "mapping",
        "key": "t_uint256",
        "label": "mapping(uint256 => string)",
        "numberOfBytes": "32",
        "value": "t_string_storage"
      },
      "t_string_storage": {
        "encoding": "bytes",
        "label": "string",
        "numberOfBytes": "32"
      },
      "t_uint256": {
        "encoding": "inplace",
        "label": "uint256",
        "numberOfBytes": "32"
      }
    }
  }
}