{
  "address": "0x9f373bA0B27b2d1F711d952A405d27EF790c110f",
  "abi": [
    {
      "inputs": [
        {
          "internalType": "contract IPolicyManager",
          "name": "_policyManager",
          "type": "address"
        },
        {
          "internalType": "contract AbioticAliceManager",
          "name": "_abioticAlice",
          "type": "address"
        }
      ],
      "stateMutability": "nonpayable",
      "type": "constructor"
    },
    {
      "anonymous": false,
      "inputs": [
        {
          "indexed": true,
          "internalType": "address",
          "name": "owner",
          "type": "address"
        },
        {
          "indexed": true,
          "internalType": "address",
          "name": "approved",
          "type": "address"
        },
        {
          "indexed": true,
          "internalType": "uint256",
          "name": "tokenId",
          "type": "uint256"
        }
      ],
      "name": "Approval",
      "type": "event"
    },
    {
      "anonymous": false,
      "inputs": [
        {
          "indexed": true,
          "internalType": "address",
          "name": "owner",
          "type": "address"
        },
        {
          "indexed": true,
          "internalType": "address",
          "name": "operator",
          "type": "address"
        },
        {
          "indexed": false,
          "internalType": "bool",
          "name": "approved",
          "type": "bool"
        }
      ],
      "name": "ApprovalForAll",
      "type": "event"
    },
    {
      "anonymous": false,
      "inputs": [
        {
          "indexed": false,
          "internalType": "bytes16",
          "name": "policyId",
          "type": "bytes16"
        }
      ],
      "name": "PolicyRevoked",
      "type": "event"
    },
    {
      "anonymous": false,
      "inputs": [
        {
          "indexed": true,
          "internalType": "address",
          "name": "from",
          "type": "address"
        },
        {
          "indexed": true,
          "internalType": "address",
          "name": "to",
          "type": "address"
        },
        {
          "indexed": true,
          "internalType": "uint256",
          "name": "tokenId",
          "type": "uint256"
        }
      ],
      "name": "Transfer",
      "type": "event"
    },
    {
      "inputs": [
        {
          "internalType": "address",
          "name": "to",
          "type": "address"
        },
        {
          "internalType": "uint256",
          "name": "tokenId",
          "type": "uint256"
        }
      ],
      "name": "approve",
      "outputs": [],
      "stateMutability": "nonpayable",
      "type": "function"
    },
    {
      "inputs": [
        {
          "internalType": "address",
          "name": "owner",
          "type": "address"
        }
      ],
      "name": "balanceOf",
      "outputs": [
        {
          "internalType": "uint256",
          "name": "",
          "type": "uint256"
        }
      ],
      "stateMutability": "view",
      "type": "function"
    },
    {
      "inputs": [
        {
          "internalType": "bytes16",
          "name": "_policyId",
          "type": "bytes16"
        },
        {
          "internalType": "uint64",
          "name": "_endTimestamp",
          "type": "uint64"
        },
        {
          "internalType": "uint256",
          "name": "_valueInWei",
          "type": "uint256"
        },
        {
          "internalType": "address[]",
          "name": "_nodes",
          "type": "address[]"
        }
      ],
      "name": "fulfillPolicy",
      "outputs": [],
      "stateMutability": "payable",
      "type": "function"
    },
    {
      "inputs": [
        {
          "internalType": "uint256",
          "name": "tokenId",
          "type": "uint256"
        }
      ],
      "name": "getApproved",
      "outputs": [
        {
          "internalType": "address",
          "name": "",
          "type": "address"
        }
      ],
      "stateMutability": "view",
      "type": "function"
    },
    {
      "inputs": [
        {
          "internalType": "uint256",
          "name": "tokenId",
          "type": "uint256"
        }
      ],
      "name": "getFullLabel",
      "outputs": [
        {
          "internalType": "string",
          "name": "label",
          "type": "string"
        }
      ],
      "stateMutability": "view",
      "type": "function"
    },
    {
      "inputs": [
        {
          "internalType": "bytes16",
          "name": "_policyId",
          "type": "bytes16"
        }
      ],
      "name": "getPolicy",
      "outputs": [
        {
          "components": [
            {
              "internalType": "bool",
              "name": "disabled",
              "type": "bool"
            },
            {
              "internalType": "address payable",
              "name": "sponsor",
              "type": "address"
            },
            {
              "internalType": "address",
              "name": "owner",
              "type": "address"
            },
            {
              "internalType": "uint128",
              "name": "feeRate",
              "type": "uint128"
            },
            {
              "internalType": "uint64",
              "name": "startTimestamp",
              "type": "uint64"
            },
            {
              "internalType": "uint64",
              "name": "endTimestamp",
              "type": "uint64"
            },
            {
              "internalType": "uint256",
              "name": "reservedSlot1",
              "type": "uint256"
            },
            {
              "internalType": "uint256",
              "name": "reservedSlot2",
              "type": "uint256"
            },
            {
              "internalType": "uint256",
              "name": "reservedSlot3",
              "type": "uint256"
            },
            {
              "internalType": "uint256",
              "name": "reservedSlot4",
              "type": "uint256"
            },
            {
              "internalType": "uint256",
              "name": "reservedSlot5",
              "type": "uint256"
            }
          ],
          "internalType": "struct IPolicyManager.Policy",
          "name": "_policy",
          "type": "tuple"
        }
      ],
      "stateMutability": "view",
      "type": "function"
    },
    {
      "inputs": [
        {
          "internalType": "address",
          "name": "owner",
          "type": "address"
        },
        {
          "internalType": "address",
          "name": "operator",
          "type": "address"
        }
      ],
      "name": "isApprovedForAll",
      "outputs": [
        {
          "internalType": "bool",
          "name": "",
          "type": "bool"
        }
      ],
      "stateMutability": "view",
      "type": "function"
    },
    {
      "inputs": [
        {
          "internalType": "uint256",
          "name": "tokenId",
          "type": "uint256"
        }
      ],
      "name": "mint",
      "outputs": [],
      "stateMutability": "nonpayable",
      "type": "function"
    },
    {
      "inputs": [],
      "name": "name",
      "outputs": [
        {
          "internalType": "string",
          "name": "",
          "type": "string"
        }
      ],
      "stateMutability": "view",
      "type": "function"
    },
    {
      "inputs": [
        {
          "internalType": "uint256",
          "name": "tokenId",
          "type": "uint256"
        }
      ],
      "name": "ownerOf",
      "outputs": [
        {
          "internalType": "address",
          "name": "",
          "type": "address"
        }
      ],
      "stateMutability": "view",
      "type": "function"
    },
    {
      "inputs": [
        {
          "internalType": "address",
          "name": "from",
          "type": "address"
        },
        {
          "internalType": "address",
          "name": "to",
          "type": "address"
        },
        {
          "internalType": "uint256",
          "name": "tokenId",
          "type": "uint256"
        }
      ],
      "name": "safeTransferFrom",
      "outputs": [],
      "stateMutability": "nonpayable",
      "type": "function"
    },
    {
      "inputs": [
        {
          "internalType": "address",
          "name": "from",
          "type": "address"
        },
        {
          "internalType": "address",
          "name": "to",
          "type": "address"
        },
        {
          "internalType": "uint256",
          "name": "tokenId",
          "type": "uint256"
        },
        {
          "internalType": "bytes",
          "name": "_data",
          "type": "bytes"
        }
      ],
      "name": "safeTransferFrom",
      "outputs": [],
      "stateMutability": "nonpayable",
      "type": "function"
    },
    {
      "inputs": [
        {
          "internalType": "address",
          "name": "operator",
          "type": "address"
        },
        {
          "internalType": "bool",
          "name": "approved",
          "type": "bool"
        }
      ],
      "name": "setApprovalForAll",
      "outputs": [],
      "stateMutability": "nonpayable",
      "type": "function"
    },
    {
      "inputs": [
        {
          "internalType": "bytes4",
          "name": "interfaceId",
          "type": "bytes4"
        }
      ],
      "name": "supportsInterface",
      "outputs": [
        {
          "internalType": "bool",
          "name": "",
          "type": "bool"
        }
      ],
      "stateMutability": "view",
      "type": "function"
    },
    {
      "inputs": [],
      "name": "symbol",
      "outputs": [
        {
          "internalType": "string",
          "name": "",
          "type": "string"
        }
      ],
      "stateMutability": "view",
      "type": "function"
    },
    {
      "inputs": [
        {
          "internalType": "uint256",
          "name": "tokenId",
          "type": "uint256"
        }
      ],
      "name": "tokenURI",
      "outputs": [
        {
          "internalType": "string",
          "name": "",
          "type": "string"
        }
      ],
      "stateMutability": "view",
      "type": "function"
    },
    {
      "inputs": [
        {
          "internalType": "address",
          "name": "from",
          "type": "address"
        },
        {
          "internalType": "address",
          "name": "to",
          "type": "address"
        },
        {
          "internalType": "uint256",
          "name": "tokenId",
          "type": "uint256"
        }
      ],
      "name": "transferFrom",
      "outputs": [],
      "stateMutability": "nonpayable",
      "type": "function"
    },
    {
      "stateMutability": "payable",
      "type": "receive"
    }
  ],
  "transactionHash": "0x8a747e46eb02b742da22d5afbbbb2558e333efb8848ab51cfee1abc0d827e2c8",
  "args": [
    "0xaC5e34d3FD41809873968c349d1194D23045b9D2",
    "0x91D68fc81b0048c3a5864AA1C82D4aA58b166872"
  ],
  "solcInputHash": "3bdf08f15b516ae497d4e22c4aa2eedd",
  "bytecode": "0x60806040523480156200001157600080fd5b50604051620047ae380380620047ae83398181016040528101906200003791906200024c565b6040518060400160405280600b81526020017f4f70656e44524d20504f430000000000000000000000000000000000000000008152506040518060400160405280600481526020017f4f44524d000000000000000000000000000000000000000000000000000000008152508160009080519060200190620000bb9291906200016e565b508060019080519060200190620000d49291906200016e565b50505081600660006101000a81548173ffffffffffffffffffffffffffffffffffffffff021916908373ffffffffffffffffffffffffffffffffffffffff16021790555080600760006101000a81548173ffffffffffffffffffffffffffffffffffffffff021916908373ffffffffffffffffffffffffffffffffffffffff16021790555060004690508060088190555050505062000396565b8280546200017c90620002fd565b90600052602060002090601f016020900481019282620001a05760008555620001ec565b82601f10620001bb57805160ff1916838001178555620001ec565b82800160010185558215620001ec579182015b82811115620001eb578251825591602001919060010190620001ce565b5b509050620001fb9190620001ff565b5090565b5b808211156200021a57600081600090555060010162000200565b5090565b6000815190506200022f8162000362565b92915050565b60008151905062000246816200037c565b92915050565b600080604083850312156200026057600080fd5b6000620002708582860162000235565b925050602062000283858286016200021e565b9150509250929050565b60006200029a82620002dd565b9050919050565b6000620002ae82620002dd565b9050919050565b6000620002c282620002a1565b9050919050565b6000620002d6826200028d565b9050919050565b600073ffffffffffffffffffffffffffffffffffffffff82169050919050565b600060028204905060018216806200031657607f821691505b602082108114156200032d576200032c62000333565b5b50919050565b7f4e487b7100000000000000000000000000000000000000000000000000000000600052602260045260246000fd5b6200036d81620002b5565b81146200037957600080fd5b50565b6200038781620002c9565b81146200039357600080fd5b50565b61440880620003a66000396000f3fe6080604052600436106101025760003560e01c80636352211e11610095578063a22cb46511610064578063a22cb46514610355578063b88d4fde1461037e578063c87b56dd146103a7578063e985e9c5146103e4578063f5ed47231461042157610109565b80636352211e1461028757806370a08231146102c457806395d89b4114610301578063a0712d681461032c57610109565b806323b872dd116100d157806323b872dd146101dc5780632c8151611461020557806342842e0e146102425780634966d3d51461026b57610109565b806301ffc9a71461010e57806306fdde031461014b578063081812fc14610176578063095ea7b3146101b357610109565b3661010957005b600080fd5b34801561011a57600080fd5b5061013560048036038101906101309190612ec3565b61045e565b6040516101429190613625565b60405180910390f35b34801561015757600080fd5b50610160610540565b60405161016d91906136a9565b60405180910390f35b34801561018257600080fd5b5061019d60048036038101906101989190612fec565b6105d2565b6040516101aa91906135be565b60405180910390f35b3480156101bf57600080fd5b506101da60048036038101906101d59190612dde565b610657565b005b3480156101e857600080fd5b5061020360048036038101906101fe9190612cd8565b61076f565b005b34801561021157600080fd5b5061022c60048036038101906102279190612e1a565b6107cf565b6040516102399190613905565b60405180910390f35b34801561024e57600080fd5b5061026960048036038101906102649190612cd8565b61088a565b005b61028560048036038101906102809190612e43565b6108aa565b005b34801561029357600080fd5b506102ae60048036038101906102a99190612fec565b610a63565b6040516102bb91906135be565b60405180910390f35b3480156102d057600080fd5b506102eb60048036038101906102e69190612c73565b610b15565b6040516102f89190613921565b60405180910390f35b34801561030d57600080fd5b50610316610bcd565b60405161032391906136a9565b60405180910390f35b34801561033857600080fd5b50610353600480360381019061034e9190612fec565b610c5f565b005b34801561036157600080fd5b5061037c60048036038101906103779190612da2565b610c6c565b005b34801561038a57600080fd5b506103a560048036038101906103a09190612d27565b610c82565b005b3480156103b357600080fd5b506103ce60048036038101906103c99190612fec565b610ce4565b6040516103db91906136a9565b60405180910390f35b3480156103f057600080fd5b5061040b60048036038101906104069190612c9c565b610d8b565b6040516104189190613625565b60405180910390f35b34801561042d57600080fd5b5061044860048036038101906104439190612fec565b610e1f565b60405161045591906136a9565b60405180910390f35b60007f80ac58cd000000000000000000000000000000000000000000000000000000007bffffffffffffffffffffffffffffffffffffffffffffffffffffffff1916827bffffffffffffffffffffffffffffffffffffffffffffffffffffffff1916148061052957507f5b5e139f000000000000000000000000000000000000000000000000000000007bffffffffffffffffffffffffffffffffffffffffffffffffffffffff1916827bffffffffffffffffffffffffffffffffffffffffffffffffffffffff1916145b80610539575061053882610e43565b5b9050919050565b60606000805461054f90613c7c565b80601f016020809104026020016040519081016040528092919081815260200182805461057b90613c7c565b80156105c85780601f1061059d576101008083540402835291602001916105c8565b820191906000526020600020905b8154815290600101906020018083116105ab57829003601f168201915b5050505050905090565b60006105dd82610ead565b61061c576040517f08c379a000000000000000000000000000000000000000000000000000000000815260040161061390613845565b60405180910390fd5b6004600083815260200190815260200160002060009054906101000a900473ffffffffffffffffffffffffffffffffffffffff169050919050565b600061066282610a63565b90508073ffffffffffffffffffffffffffffffffffffffff168373ffffffffffffffffffffffffffffffffffffffff1614156106d3576040517f08c379a00000000000000000000000000000000000000000000000000000000081526004016106ca906138a5565b60405180910390fd5b8073ffffffffffffffffffffffffffffffffffffffff166106f2610f19565b73ffffffffffffffffffffffffffffffffffffffff16148061072157506107208161071b610f19565b610d8b565b5b610760576040517f08c379a0000000000000000000000000000000000000000000000000000000008152600401610757906137c5565b60405180910390fd5b61076a8383610f21565b505050565b61078061077a610f19565b82610fda565b6107bf576040517f08c379a00000000000000000000000000000000000000000000000000000000081526004016107b6906138c5565b60405180910390fd5b6107ca8383836110b8565b505050565b6107d7612892565b600660009054906101000a900473ffffffffffffffffffffffffffffffffffffffff1673ffffffffffffffffffffffffffffffffffffffff1663713c0e57836040518263ffffffff1660e01b81526004016108329190613640565b6101606040518083038186803b15801561084b57600080fd5b505afa15801561085f573d6000803e3d6000fd5b505050506040513d601f19601f820116820180604052508101906108839190612fc2565b9050919050565b6108a583838360405180602001604052806000815250610c82565b505050565b600760009054906101000a900473ffffffffffffffffffffffffffffffffffffffff1673ffffffffffffffffffffffffffffffffffffffff163373ffffffffffffffffffffffffffffffffffffffff161461093a576040517f08c379a0000000000000000000000000000000000000000000000000000000008152600401610931906138e5565b60405180910390fd5b60096000866fffffffffffffffffffffffffffffffff19166fffffffffffffffffffffffffffffffff1916815260200190815260200160002060009054906101000a900460ff1615610a5c57600660009054906101000a900473ffffffffffffffffffffffffffffffffffffffff1673ffffffffffffffffffffffffffffffffffffffff166381e742a1848760008887876040518763ffffffff1660e01b81526004016109eb95949392919061365b565b6000604051808303818588803b158015610a0457600080fd5b505af1158015610a18573d6000803e3d6000fd5b5050505050610a5b6040518060400160405280601081526020017f506f6c6963792066756c66696c6c656400000000000000000000000000000000815250611314565b5b5050505050565b6000806002600084815260200190815260200160002060009054906101000a900473ffffffffffffffffffffffffffffffffffffffff169050600073ffffffffffffffffffffffffffffffffffffffff168173ffffffffffffffffffffffffffffffffffffffff161415610b0c576040517f08c379a0000000000000000000000000000000000000000000000000000000008152600401610b0390613805565b60405180910390fd5b80915050919050565b60008073ffffffffffffffffffffffffffffffffffffffff168273ffffffffffffffffffffffffffffffffffffffff161415610b86576040517f08c379a0000000000000000000000000000000000000000000000000000000008152600401610b7d906137e5565b60405180910390fd5b600360008373ffffffffffffffffffffffffffffffffffffffff1673ffffffffffffffffffffffffffffffffffffffff168152602001908152602001600020549050919050565b606060018054610bdc90613c7c565b80601f0160208091040260200160405190810160405280929190818152602001828054610c0890613c7c565b8015610c555780601f10610c2a57610100808354040283529160200191610c55565b820191906000526020600020905b815481529060010190602001808311610c3857829003601f168201915b5050505050905090565b610c6933826113ad565b50565b610c7e610c77610f19565b83836113cb565b5050565b610c93610c8d610f19565b83610fda565b610cd2576040517f08c379a0000000000000000000000000000000000000000000000000000000008152600401610cc9906138c5565b60405180910390fd5b610cde84848484611538565b50505050565b6060610cef82610ead565b610d2e576040517f08c379a0000000000000000000000000000000000000000000000000000000008152600401610d2590613885565b60405180910390fd5b6000610d38611594565b90506000815111610d585760405180602001604052806000815250610d83565b80610d62846115ab565b604051602001610d73929190613569565b6040516020818303038152906040525b915050919050565b6000600560008473ffffffffffffffffffffffffffffffffffffffff1673ffffffffffffffffffffffffffffffffffffffff16815260200190815260200160002060008373ffffffffffffffffffffffffffffffffffffffff1673ffffffffffffffffffffffffffffffffffffffff16815260200190815260200160002060009054906101000a900460ff16905092915050565b6060610e3c30610e2e846115ab565b61175890919063ffffffff16565b9050919050565b60007f01ffc9a7000000000000000000000000000000000000000000000000000000007bffffffffffffffffffffffffffffffffffffffffffffffffffffffff1916827bffffffffffffffffffffffffffffffffffffffffffffffffffffffff1916149050919050565b60008073ffffffffffffffffffffffffffffffffffffffff166002600084815260200190815260200160002060009054906101000a900473ffffffffffffffffffffffffffffffffffffffff1673ffffffffffffffffffffffffffffffffffffffff1614159050919050565b600033905090565b816004600083815260200190815260200160002060006101000a81548173ffffffffffffffffffffffffffffffffffffffff021916908373ffffffffffffffffffffffffffffffffffffffff160217905550808273ffffffffffffffffffffffffffffffffffffffff16610f9483610a63565b73ffffffffffffffffffffffffffffffffffffffff167f8c5be1e5ebec7d5bd14f71427d1e84f3dd0314c0f7b2291e5b200ac8c7c3b92560405160405180910390a45050565b6000610fe582610ead565b611024576040517f08c379a000000000000000000000000000000000000000000000000000000000815260040161101b906137a5565b60405180910390fd5b600061102f83610a63565b90508073ffffffffffffffffffffffffffffffffffffffff168473ffffffffffffffffffffffffffffffffffffffff16148061109e57508373ffffffffffffffffffffffffffffffffffffffff16611086846105d2565b73ffffffffffffffffffffffffffffffffffffffff16145b806110af57506110ae8185610d8b565b5b91505092915050565b8273ffffffffffffffffffffffffffffffffffffffff166110d882610a63565b73ffffffffffffffffffffffffffffffffffffffff161461112e576040517f08c379a000000000000000000000000000000000000000000000000000000000815260040161112590613865565b60405180910390fd5b600073ffffffffffffffffffffffffffffffffffffffff168273ffffffffffffffffffffffffffffffffffffffff16141561119e576040517f08c379a000000000000000000000000000000000000000000000000000000000815260040161119590613765565b60405180910390fd5b6111a9838383611796565b6111b4600082610f21565b6001600360008573ffffffffffffffffffffffffffffffffffffffff1673ffffffffffffffffffffffffffffffffffffffff16815260200190815260200160002060008282546112049190613b00565b925050819055506001600360008473ffffffffffffffffffffffffffffffffffffffff1673ffffffffffffffffffffffffffffffffffffffff168152602001908152602001600020600082825461125b9190613a1f565b92505081905550816002600083815260200190815260200160002060006101000a81548173ffffffffffffffffffffffffffffffffffffffff021916908373ffffffffffffffffffffffffffffffffffffffff160217905550808273ffffffffffffffffffffffffffffffffffffffff168473ffffffffffffffffffffffffffffffffffffffff167fddf252ad1be2c89b69c2b068fc378daa952ba7f163c4a11628f55a4df523b3ef60405160405180910390a4505050565b6113aa8160405160240161132891906136a9565b6040516020818303038152906040527f41304fac000000000000000000000000000000000000000000000000000000007bffffffffffffffffffffffffffffffffffffffffffffffffffffffff19166020820180517bffffffffffffffffffffffffffffffffffffffffffffffffffffffff8381831617835250505050611d20565b50565b6113c7828260405180602001604052806000815250611d49565b5050565b8173ffffffffffffffffffffffffffffffffffffffff168373ffffffffffffffffffffffffffffffffffffffff16141561143a576040517f08c379a000000000000000000000000000000000000000000000000000000000815260040161143190613785565b60405180910390fd5b80600560008573ffffffffffffffffffffffffffffffffffffffff1673ffffffffffffffffffffffffffffffffffffffff16815260200190815260200160002060008473ffffffffffffffffffffffffffffffffffffffff1673ffffffffffffffffffffffffffffffffffffffff16815260200190815260200160002060006101000a81548160ff0219169083151502179055508173ffffffffffffffffffffffffffffffffffffffff168373ffffffffffffffffffffffffffffffffffffffff167f17307eab39ab6107e8899845ad3d59bd9653f200f220920489ca2b5937696c318360405161152b9190613625565b60405180910390a3505050565b6115438484846110b8565b61154f84848484611da4565b61158e576040517f08c379a000000000000000000000000000000000000000000000000000000000815260040161158590613725565b60405180910390fd5b50505050565b606060405180602001604052806000815250905090565b606060008214156115f3576040518060400160405280600181526020017f30000000000000000000000000000000000000000000000000000000000000008152509050611753565b600082905060005b6000821461162557808061160e90613cdf565b915050600a8261161e9190613a75565b91506115fb565b60008167ffffffffffffffff811115611667577f4e487b7100000000000000000000000000000000000000000000000000000000600052604160045260246000fd5b6040519080825280601f01601f1916602001820160405280156116995781602001600182028036833780820191505090505b5090505b6000851461174c576001826116b29190613b00565b9150600a856116c19190613d28565b60306116cd9190613a1f565b60f81b818381518110611709577f4e487b7100000000000000000000000000000000000000000000000000000000600052603260045260246000fd5b60200101907effffffffffffffffffffffffffffffffffffffffffffffffffffffffffffff1916908160001a905350600a856117459190613a75565b945061169d565b8093505050505b919050565b606061176382611f3b565b61176c4661239c565b8460405160200161177f9392919061358d565b604051602081830303815290604052905092915050565b60006117a182610e1f565b90506000600760009054906101000a900473ffffffffffffffffffffffffffffffffffffffff1673ffffffffffffffffffffffffffffffffffffffff16637950c5f86040518163ffffffff1660e01b815260040160006040518083038186803b15801561180d57600080fd5b505afa158015611821573d6000803e3d6000fd5b505050506040513d6000823e3d601f19601f8201168201806040525081019061184a9190612f15565b9050600080600760009054906101000a900473ffffffffffffffffffffffffffffffffffffffff1673ffffffffffffffffffffffffffffffffffffffff1663038defd7886040518263ffffffff1660e01b81526004016118aa91906135be565b60006040518083038186803b1580156118c257600080fd5b505afa1580156118d6573d6000803e3d6000fd5b505050506040513d6000823e3d601f19601f820116820180604052508101906118ff9190612f56565b5090506119178382866125499092919063ffffffff16565b9150600060096000846fffffffffffffffffffffffffffffffff19166fffffffffffffffffffffffffffffffff1916815260200190815260200160002060006101000a81548160ff0219169083151502179055506119748261257f565b600660009054906101000a900473ffffffffffffffffffffffffffffffffffffffff1673ffffffffffffffffffffffffffffffffffffffff1663a2d1d5e2836040518263ffffffff1660e01b81526004016119cf9190613640565b602060405180830381600087803b1580156119e957600080fd5b505af1925050508015611a1a57506040513d601f19601f82011682018060405250810190611a179190613015565b60015b611ad957611a26613e15565b806308c379a01415611a935750611a3b614284565b80611a465750611a95565b611a4f81611314565b611a8d6040518060400160405280600d81526020017f5265766f6b65204661696c656400000000000000000000000000000000000000815250611314565b50611ad4565b505b611ad36040518060400160405280600d81526020017f5265766f6b65204661696c656400000000000000000000000000000000000000815250611314565b5b611b59565b611b176040518060400160405280601981526020017f5265766f6b65205375636365656465642c20526566756e643a00000000000000815250611314565b611b2081612618565b7fd5c412018f53b59096d0921fd2ae3a288a62104eff0ce2cb8f7f65a4e7265bb383604051611b4f9190613640565b60405180910390a1505b506000600760009054906101000a900473ffffffffffffffffffffffffffffffffffffffff1673ffffffffffffffffffffffffffffffffffffffff1663038defd7876040518263ffffffff1660e01b8152600401611bb791906135be565b60006040518083038186803b158015611bcf57600080fd5b505afa158015611be3573d6000803e3d6000fd5b505050506040513d6000823e3d601f19601f82011682018060405250810190611c0c9190612f56565b509050611c248382866125499092919063ffffffff16565b9150600160096000846fffffffffffffffffffffffffffffffff19166fffffffffffffffffffffffffffffffff1916815260200190815260200160002060006101000a81548160ff021916908315150217905550600760009054906101000a900473ffffffffffffffffffffffffffffffffffffffff1673ffffffffffffffffffffffffffffffffffffffff1663fd4f6aae611cbf876115ab565b8860026003806040518663ffffffff1660e01b8152600401611ce59594939291906136cb565b600060405180830381600087803b158015611cff57600080fd5b505af1158015611d13573d6000803e3d6000fd5b5050505050505050505050565b60008151905060006a636f6e736f6c652e6c6f679050602083016000808483855afa5050505050565b611d5383836126b1565b611d606000848484611da4565b611d9f576040517f08c379a0000000000000000000000000000000000000000000000000000000008152600401611d9690613725565b60405180910390fd5b505050565b6000611dc58473ffffffffffffffffffffffffffffffffffffffff1661287f565b15611f2e578373ffffffffffffffffffffffffffffffffffffffff1663150b7a02611dee610f19565b8786866040518563ffffffff1660e01b8152600401611e1094939291906135d9565b602060405180830381600087803b158015611e2a57600080fd5b505af1925050508015611e5b57506040513d601f19601f82011682018060405250810190611e589190612eec565b60015b611ede573d8060008114611e8b576040519150601f19603f3d011682016040523d82523d6000602084013e611e90565b606091505b50600081511415611ed6576040517f08c379a0000000000000000000000000000000000000000000000000000000008152600401611ecd90613725565b60405180910390fd5b805181602001fd5b63150b7a0260e01b7bffffffffffffffffffffffffffffffffffffffffffffffffffffffff1916817bffffffffffffffffffffffffffffffffffffffffffffffffffffffff191614915050611f33565b600190505b949350505050565b606060008273ffffffffffffffffffffffffffffffffffffffff1660001b905060006040518060400160405280601081526020017f303132333435363738396162636465660000000000000000000000000000000081525090506000602a67ffffffffffffffff811115611fd8577f4e487b7100000000000000000000000000000000000000000000000000000000600052604160045260246000fd5b6040519080825280601f01601f19166020018201604052801561200a5781602001600182028036833780820191505090505b5090507f300000000000000000000000000000000000000000000000000000000000000081600081518110612068577f4e487b7100000000000000000000000000000000000000000000000000000000600052603260045260246000fd5b60200101907effffffffffffffffffffffffffffffffffffffffffffffffffffffffffffff1916908160001a9053507f7800000000000000000000000000000000000000000000000000000000000000816001815181106120f2577f4e487b7100000000000000000000000000000000000000000000000000000000600052603260045260246000fd5b60200101907effffffffffffffffffffffffffffffffffffffffffffffffffffffffffffff1916908160001a90535060005b60148110156123905782600485600c8461213e9190613a1f565b60208110612175577f4e487b7100000000000000000000000000000000000000000000000000000000600052603260045260246000fd5b1a60f81b7effffffffffffffffffffffffffffffffffffffffffffffffffffffffffffff1916901c60f81c60ff16815181106121da577f4e487b7100000000000000000000000000000000000000000000000000000000600052603260045260246000fd5b602001015160f81c60f81b826002836121f39190613aa6565b60026121ff9190613a1f565b81518110612236577f4e487b7100000000000000000000000000000000000000000000000000000000600052603260045260246000fd5b60200101907effffffffffffffffffffffffffffffffffffffffffffffffffffffffffffff1916908160001a90535082600f60f81b85600c846122799190613a1f565b602081106122b0577f4e487b7100000000000000000000000000000000000000000000000000000000600052603260045260246000fd5b1a60f81b1660f81c60ff16815181106122f2577f4e487b7100000000000000000000000000000000000000000000000000000000600052603260045260246000fd5b602001015160f81c60f81b8260028361230b9190613aa6565b60036123179190613a1f565b8151811061234e577f4e487b7100000000000000000000000000000000000000000000000000000000600052603260045260246000fd5b60200101907effffffffffffffffffffffffffffffffffffffffffffffffffffffffffffff1916908160001a905350808061238890613cdf565b915050612124565b50809350505050919050565b606060008214156123e4576040518060400160405280600181526020017f30000000000000000000000000000000000000000000000000000000000000008152509050612544565b600082905060005b600082146124165780806123ff90613cdf565b915050600a8261240f9190613a75565b91506123ec565b60008167ffffffffffffffff811115612458577f4e487b7100000000000000000000000000000000000000000000000000000000600052604160045260246000fd5b6040519080825280601f01601f19166020018201604052801561248a5781602001600182028036833780820191505090505b5090505b6000851461253d576001826124a39190613b00565b9150600a856124b29190613d28565b60306124be9190613a1f565b60f81b8183815181106124fa577f4e487b7100000000000000000000000000000000000000000000000000000000600052603260045260246000fd5b60200101907effffffffffffffffffffffffffffffffffffffffffffffffffffffffffffff1916908160001a905350600a856125369190613a75565b945061248e565b8093505050505b919050565b600082828560405160200161256093929190613538565b6040516020818303038152906040528051906020012090509392505050565b612615816040516024016125939190613640565b6040516020818303038152906040527f665c6104000000000000000000000000000000000000000000000000000000007bffffffffffffffffffffffffffffffffffffffffffffffffffffffff19166020820180517bffffffffffffffffffffffffffffffffffffffffffffffffffffffff8381831617835250505050611d20565b50565b6126ae8160405160240161262c9190613921565b6040516020818303038152906040527ff5b1bba9000000000000000000000000000000000000000000000000000000007bffffffffffffffffffffffffffffffffffffffffffffffffffffffff19166020820180517bffffffffffffffffffffffffffffffffffffffffffffffffffffffff8381831617835250505050611d20565b50565b600073ffffffffffffffffffffffffffffffffffffffff168273ffffffffffffffffffffffffffffffffffffffff161415612721576040517f08c379a000000000000000000000000000000000000000000000000000000000815260040161271890613825565b60405180910390fd5b61272a81610ead565b1561276a576040517f08c379a000000000000000000000000000000000000000000000000000000000815260040161276190613745565b60405180910390fd5b61277660008383611796565b6001600360008473ffffffffffffffffffffffffffffffffffffffff1673ffffffffffffffffffffffffffffffffffffffff16815260200190815260200160002060008282546127c69190613a1f565b92505081905550816002600083815260200190815260200160002060006101000a81548173ffffffffffffffffffffffffffffffffffffffff021916908373ffffffffffffffffffffffffffffffffffffffff160217905550808273ffffffffffffffffffffffffffffffffffffffff16600073ffffffffffffffffffffffffffffffffffffffff167fddf252ad1be2c89b69c2b068fc378daa952ba7f163c4a11628f55a4df523b3ef60405160405180910390a45050565b600080823b905060008111915050919050565b604051806101600160405280600015158152602001600073ffffffffffffffffffffffffffffffffffffffff168152602001600073ffffffffffffffffffffffffffffffffffffffff16815260200160006fffffffffffffffffffffffffffffffff168152602001600067ffffffffffffffff168152602001600067ffffffffffffffff16815260200160008152602001600081526020016000815260200160008152602001600081525090565b600061295361294e84613961565b61393c565b90508281526020810184848401111561296b57600080fd5b612976848285613c3a565b509392505050565b600061299161298c84613961565b61393c565b9050828152602081018484840111156129a957600080fd5b6129b4848285613c49565b509392505050565b6000813590506129cb8161431a565b92915050565b6000815190506129e08161431a565b92915050565b6000815190506129f581614331565b92915050565b60008083601f840112612a0d57600080fd5b8235905067ffffffffffffffff811115612a2657600080fd5b602083019150836020820283011115612a3e57600080fd5b9250929050565b600081359050612a5481614348565b92915050565b600081519050612a6981614348565b92915050565b600081359050612a7e8161435f565b92915050565b600081359050612a9381614376565b92915050565b600081519050612aa881614376565b92915050565b600082601f830112612abf57600080fd5b8135612acf848260208601612940565b91505092915050565b600082601f830112612ae957600080fd5b8151612af984826020860161297e565b91505092915050565b60006101608284031215612b1557600080fd5b612b2061016061393c565b90506000612b3084828501612a5a565b6000830152506020612b44848285016129e6565b6020830152506040612b58848285016129d1565b6040830152506060612b6c84828501612c0a565b6060830152506080612b8084828501612c5e565b60808301525060a0612b9484828501612c5e565b60a08301525060c0612ba884828501612c34565b60c08301525060e0612bbc84828501612c34565b60e083015250610100612bd184828501612c34565b61010083015250610120612be784828501612c34565b61012083015250610140612bfd84828501612c34565b6101408301525092915050565b600081519050612c198161438d565b92915050565b600081359050612c2e816143a4565b92915050565b600081519050612c43816143a4565b92915050565b600081359050612c58816143bb565b92915050565b600081519050612c6d816143bb565b92915050565b600060208284031215612c8557600080fd5b6000612c93848285016129bc565b91505092915050565b60008060408385031215612caf57600080fd5b6000612cbd858286016129bc565b9250506020612cce858286016129bc565b9150509250929050565b600080600060608486031215612ced57600080fd5b6000612cfb868287016129bc565b9350506020612d0c868287016129bc565b9250506040612d1d86828701612c1f565b9150509250925092565b60008060008060808587031215612d3d57600080fd5b6000612d4b878288016129bc565b9450506020612d5c878288016129bc565b9350506040612d6d87828801612c1f565b925050606085013567ffffffffffffffff811115612d8a57600080fd5b612d9687828801612aae565b91505092959194509250565b60008060408385031215612db557600080fd5b6000612dc3858286016129bc565b9250506020612dd485828601612a45565b9150509250929050565b60008060408385031215612df157600080fd5b6000612dff858286016129bc565b9250506020612e1085828601612c1f565b9150509250929050565b600060208284031215612e2c57600080fd5b6000612e3a84828501612a6f565b91505092915050565b600080600080600060808688031215612e5b57600080fd5b6000612e6988828901612a6f565b9550506020612e7a88828901612c49565b9450506040612e8b88828901612c1f565b935050606086013567ffffffffffffffff811115612ea857600080fd5b612eb4888289016129fb565b92509250509295509295909350565b600060208284031215612ed557600080fd5b6000612ee384828501612a84565b91505092915050565b600060208284031215612efe57600080fd5b6000612f0c84828501612a99565b91505092915050565b600060208284031215612f2757600080fd5b600082015167ffffffffffffffff811115612f4157600080fd5b612f4d84828501612ad8565b91505092915050565b60008060408385031215612f6957600080fd5b600083015167ffffffffffffffff811115612f8357600080fd5b612f8f85828601612ad8565b925050602083015167ffffffffffffffff811115612fac57600080fd5b612fb885828601612ad8565b9150509250929050565b60006101608284031215612fd557600080fd5b6000612fe384828501612b02565b91505092915050565b600060208284031215612ffe57600080fd5b600061300c84828501612c1f565b91505092915050565b60006020828403121561302757600080fd5b600061303584828501612c34565b91505092915050565b600061304a8383613065565b60208301905092915050565b61305f81613b46565b82525050565b61306e81613b34565b82525050565b61307d81613b34565b82525050565b600061308f83856139bf565b935061309a82613992565b8060005b858110156130d3576130b08284613a08565b6130ba888261303e565b97506130c5836139b2565b92505060018101905061309e565b5085925050509392505050565b6130e981613b58565b82525050565b6130f881613b58565b82525050565b61310781613b64565b82525050565b60006131188261399c565b61312281856139d0565b9350613132818560208601613c49565b61313b81613e37565b840191505092915050565b60006131518261399c565b61315b81856139e1565b935061316b818560208601613c49565b80840191505092915050565b61318081613c16565b82525050565b61318f81613c28565b82525050565b60006131a0826139a7565b6131aa81856139ec565b93506131ba818560208601613c49565b6131c381613e37565b840191505092915050565b60006131d9826139a7565b6131e381856139fd565b93506131f3818560208601613c49565b80840191505092915050565b600061320c6032836139ec565b915061321782613e55565b604082019050919050565b600061322f601c836139ec565b915061323a82613ea4565b602082019050919050565b60006132526024836139ec565b915061325d82613ecd565b604082019050919050565b60006132756019836139ec565b915061328082613f1c565b602082019050919050565b6000613298602c836139ec565b91506132a382613f45565b604082019050919050565b60006132bb6038836139ec565b91506132c682613f94565b604082019050919050565b60006132de602a836139ec565b91506132e982613fe3565b604082019050919050565b60006133016029836139ec565b915061330c82614032565b604082019050919050565b60006133246020836139ec565b915061332f82614081565b602082019050919050565b6000613347602c836139ec565b9150613352826140aa565b604082019050919050565b600061336a6029836139ec565b9150613375826140f9565b604082019050919050565b600061338d602f836139ec565b915061339882614148565b604082019050919050565b60006133b06021836139ec565b91506133bb82614197565b604082019050919050565b60006133d36031836139ec565b91506133de826141e6565b604082019050919050565b60006133f66024836139ec565b915061340182614235565b604082019050919050565b6101608201600082015161342360008501826130e0565b5060208201516134366020850182613056565b5060408201516134496040850182613065565b50606082015161345c60608501826134ed565b50608082015161346f608085018261351a565b5060a082015161348260a085018261351a565b5060c082015161349560c08501826134fc565b5060e08201516134a860e08501826134fc565b506101008201516134bd6101008501826134fc565b506101208201516134d26101208501826134fc565b506101408201516134e76101408501826134fc565b50505050565b6134f681613bbc565b82525050565b61350581613bf8565b82525050565b61351481613bf8565b82525050565b61352381613c02565b82525050565b61353281613c02565b82525050565b60006135448286613146565b91506135508285613146565b915061355c82846131ce565b9150819050949350505050565b600061357582856131ce565b915061358182846131ce565b91508190509392505050565b600061359982866131ce565b91506135a582856131ce565b91506135b182846131ce565b9150819050949350505050565b60006020820190506135d36000830184613074565b92915050565b60006080820190506135ee6000830187613074565b6135fb6020830186613074565b613608604083018561350b565b818103606083015261361a818461310d565b905095945050505050565b600060208201905061363a60008301846130ef565b92915050565b600060208201905061365560008301846130fe565b92915050565b600060808201905061367060008301886130fe565b61367d6020830187613074565b61368a6040830186613529565b818103606083015261369d818486613083565b90509695505050505050565b600060208201905081810360008301526136c38184613195565b905092915050565b600060a08201905081810360008301526136e58188613195565b90506136f46020830187613074565b6137016040830186613177565b61370e6060830185613186565b61371b6080830184613186565b9695505050505050565b6000602082019050818103600083015261373e816131ff565b9050919050565b6000602082019050818103600083015261375e81613222565b9050919050565b6000602082019050818103600083015261377e81613245565b9050919050565b6000602082019050818103600083015261379e81613268565b9050919050565b600060208201905081810360008301526137be8161328b565b9050919050565b600060208201905081810360008301526137de816132ae565b9050919050565b600060208201905081810360008301526137fe816132d1565b9050919050565b6000602082019050818103600083015261381e816132f4565b9050919050565b6000602082019050818103600083015261383e81613317565b9050919050565b6000602082019050818103600083015261385e8161333a565b9050919050565b6000602082019050818103600083015261387e8161335d565b9050919050565b6000602082019050818103600083015261389e81613380565b9050919050565b600060208201905081810360008301526138be816133a3565b9050919050565b600060208201905081810360008301526138de816133c6565b9050919050565b600060208201905081810360008301526138fe816133e9565b9050919050565b60006101608201905061391b600083018461340c565b92915050565b6000602082019050613936600083018461350b565b92915050565b6000613946613957565b90506139528282613cae565b919050565b6000604051905090565b600067ffffffffffffffff82111561397c5761397b613de6565b5b61398582613e37565b9050602081019050919050565b6000819050919050565b600081519050919050565b600081519050919050565b6000602082019050919050565b600082825260208201905092915050565b600082825260208201905092915050565b600081905092915050565b600082825260208201905092915050565b600081905092915050565b6000613a1760208401846129bc565b905092915050565b6000613a2a82613bf8565b9150613a3583613bf8565b9250827fffffffffffffffffffffffffffffffffffffffffffffffffffffffffffffffff03821115613a6a57613a69613d59565b5b828201905092915050565b6000613a8082613bf8565b9150613a8b83613bf8565b925082613a9b57613a9a613d88565b5b828204905092915050565b6000613ab182613bf8565b9150613abc83613bf8565b9250817fffffffffffffffffffffffffffffffffffffffffffffffffffffffffffffffff0483118215151615613af557613af4613d59565b5b828202905092915050565b6000613b0b82613bf8565b9150613b1683613bf8565b925082821015613b2957613b28613d59565b5b828203905092915050565b6000613b3f82613bd8565b9050919050565b6000613b5182613bd8565b9050919050565b60008115159050919050565b60007fffffffffffffffffffffffffffffffff0000000000000000000000000000000082169050919050565b60007fffffffff0000000000000000000000000000000000000000000000000000000082169050919050565b60006fffffffffffffffffffffffffffffffff82169050919050565b600073ffffffffffffffffffffffffffffffffffffffff82169050919050565b6000819050919050565b600067ffffffffffffffff82169050919050565b6000613c2182613bf8565b9050919050565b6000613c3382613bf8565b9050919050565b82818337600083830152505050565b60005b83811015613c67578082015181840152602081019050613c4c565b83811115613c76576000848401525b50505050565b60006002820490506001821680613c9457607f821691505b60208210811415613ca857613ca7613db7565b5b50919050565b613cb782613e37565b810181811067ffffffffffffffff82111715613cd657613cd5613de6565b5b80604052505050565b6000613cea82613bf8565b91507fffffffffffffffffffffffffffffffffffffffffffffffffffffffffffffffff821415613d1d57613d1c613d59565b5b600182019050919050565b6000613d3382613bf8565b9150613d3e83613bf8565b925082613d4e57613d4d613d88565b5b828206905092915050565b7f4e487b7100000000000000000000000000000000000000000000000000000000600052601160045260246000fd5b7f4e487b7100000000000000000000000000000000000000000000000000000000600052601260045260246000fd5b7f4e487b7100000000000000000000000000000000000000000000000000000000600052602260045260246000fd5b7f4e487b7100000000000000000000000000000000000000000000000000000000600052604160045260246000fd5b600060033d1115613e345760046000803e613e31600051613e48565b90505b90565b6000601f19601f8301169050919050565b60008160e01c9050919050565b7f4552433732313a207472616e7366657220746f206e6f6e20455243373231526560008201527f63656976657220696d706c656d656e7465720000000000000000000000000000602082015250565b7f4552433732313a20746f6b656e20616c7265616479206d696e74656400000000600082015250565b7f4552433732313a207472616e7366657220746f20746865207a65726f2061646460008201527f7265737300000000000000000000000000000000000000000000000000000000602082015250565b7f4552433732313a20617070726f766520746f2063616c6c657200000000000000600082015250565b7f4552433732313a206f70657261746f7220717565727920666f72206e6f6e657860008201527f697374656e7420746f6b656e0000000000000000000000000000000000000000602082015250565b7f4552433732313a20617070726f76652063616c6c6572206973206e6f74206f7760008201527f6e6572206e6f7220617070726f76656420666f7220616c6c0000000000000000602082015250565b7f4552433732313a2062616c616e636520717565727920666f7220746865207a6560008201527f726f206164647265737300000000000000000000000000000000000000000000602082015250565b7f4552433732313a206f776e657220717565727920666f72206e6f6e657869737460008201527f656e7420746f6b656e0000000000000000000000000000000000000000000000602082015250565b7f4552433732313a206d696e7420746f20746865207a65726f2061646472657373600082015250565b7f4552433732313a20617070726f76656420717565727920666f72206e6f6e657860008201527f697374656e7420746f6b656e0000000000000000000000000000000000000000602082015250565b7f4552433732313a207472616e73666572206f6620746f6b656e2074686174206960008201527f73206e6f74206f776e0000000000000000000000000000000000000000000000602082015250565b7f4552433732314d657461646174613a2055524920717565727920666f72206e6f60008201527f6e6578697374656e7420746f6b656e0000000000000000000000000000000000602082015250565b7f4552433732313a20617070726f76616c20746f2063757272656e74206f776e6560008201527f7200000000000000000000000000000000000000000000000000000000000000602082015250565b7f4552433732313a207472616e736665722063616c6c6572206973206e6f74206f60008201527f776e6572206e6f7220617070726f766564000000000000000000000000000000602082015250565b7f4f6e6c792063616c6c61626c65206279204162696f746963416c6963654d616e60008201527f6167657200000000000000000000000000000000000000000000000000000000602082015250565b600060443d101561429457614317565b61429c613957565b60043d036004823e80513d602482011167ffffffffffffffff821117156142c4575050614317565b808201805167ffffffffffffffff8111156142e25750505050614317565b80602083010160043d0385018111156142ff575050505050614317565b61430e82602001850186613cae565b82955050505050505b90565b61432381613b34565b811461432e57600080fd5b50565b61433a81613b46565b811461434557600080fd5b50565b61435181613b58565b811461435c57600080fd5b50565b61436881613b64565b811461437357600080fd5b50565b61437f81613b90565b811461438a57600080fd5b50565b61439681613bbc565b81146143a157600080fd5b50565b6143ad81613bf8565b81146143b857600080fd5b50565b6143c481613c02565b81146143cf57600080fd5b5056fea264697066735822122071c01d6e8d29c888dea18b633ebcbd2283d0e02df15ced8244181189692bd7b464736f6c63430008040033",
  "devdoc": {
    "kind": "dev",
    "methods": {
      "approve(address,uint256)": {
        "details": "See {IERC721-approve}."
      },
      "balanceOf(address)": {
        "details": "See {IERC721-balanceOf}."
      },
      "getApproved(uint256)": {
        "details": "See {IERC721-getApproved}."
      },
      "isApprovedForAll(address,address)": {
        "details": "See {IERC721-isApprovedForAll}."
      },
      "name()": {
        "details": "See {IERC721Metadata-name}."
      },
      "ownerOf(uint256)": {
        "details": "See {IERC721-ownerOf}."
      },
      "safeTransferFrom(address,address,uint256)": {
        "details": "See {IERC721-safeTransferFrom}."
      },
      "safeTransferFrom(address,address,uint256,bytes)": {
        "details": "See {IERC721-safeTransferFrom}."
      },
      "setApprovalForAll(address,bool)": {
        "details": "See {IERC721-setApprovalForAll}."
      },
      "supportsInterface(bytes4)": {
        "details": "See {IERC165-supportsInterface}."
      },
      "symbol()": {
        "details": "See {IERC721Metadata-symbol}."
      },
      "tokenURI(uint256)": {
        "details": "See {IERC721Metadata-tokenURI}."
      },
      "transferFrom(address,address,uint256)": {
        "details": "See {IERC721-transferFrom}."
      }
    },
    "version": 1
  },
  "userdoc": {
    "kind": "user",
    "methods": {},
    "version": 1
  },
  "storageLayout": {
    "storage": [
      {
        "astId": 25,
        "contract": "contracts/OpenDRM721.sol:OpenDRM721",
        "label": "_name",
        "offset": 0,
        "slot": "0",
        "type": "t_string_storage"
      },
      {
        "astId": 27,
        "contract": "contracts/OpenDRM721.sol:OpenDRM721",
        "label": "_symbol",
        "offset": 0,
        "slot": "1",
        "type": "t_string_storage"
      },
      {
        "astId": 31,
        "contract": "contracts/OpenDRM721.sol:OpenDRM721",
        "label": "_owners",
        "offset": 0,
        "slot": "2",
        "type": "t_mapping(t_uint256,t_address)"
      },
      {
        "astId": 35,
        "contract": "contracts/OpenDRM721.sol:OpenDRM721",
        "label": "_balances",
        "offset": 0,
        "slot": "3",
        "type": "t_mapping(t_address,t_uint256)"
      },
      {
        "astId": 39,
        "contract": "contracts/OpenDRM721.sol:OpenDRM721",
        "label": "_tokenApprovals",
        "offset": 0,
        "slot": "4",
        "type": "t_mapping(t_uint256,t_address)"
      },
      {
        "astId": 45,
        "contract": "contracts/OpenDRM721.sol:OpenDRM721",
        "label": "_operatorApprovals",
        "offset": 0,
        "slot": "5",
        "type": "t_mapping(t_address,t_mapping(t_address,t_bool))"
      },
      {
        "astId": 2120,
        "contract": "contracts/OpenDRM721.sol:OpenDRM721",
        "label": "policyManager",
        "offset": 0,
        "slot": "6",
        "type": "t_contract(IPolicyManager)1858"
      },
      {
        "astId": 2123,
        "contract": "contracts/OpenDRM721.sol:OpenDRM721",
        "label": "abioticAlice",
        "offset": 0,
        "slot": "7",
        "type": "t_contract(AbioticAliceManager)1769"
      },
      {
        "astId": 2125,
        "contract": "contracts/OpenDRM721.sol:OpenDRM721",
        "label": "chainId",
        "offset": 0,
        "slot": "8",
        "type": "t_uint256"
      },
      {
        "astId": 2129,
        "contract": "contracts/OpenDRM721.sol:OpenDRM721",
        "label": "validPolicy",
        "offset": 0,
        "slot": "9",
        "type": "t_mapping(t_bytes16,t_bool)"
      }
    ],
    "types": {
      "t_address": {
        "encoding": "inplace",
        "label": "address",
        "numberOfBytes": "20"
      },
      "t_bool": {
        "encoding": "inplace",
        "label": "bool",
        "numberOfBytes": "1"
      },
      "t_bytes16": {
        "encoding": "inplace",
        "label": "bytes16",
        "numberOfBytes": "16"
      },
      "t_contract(AbioticAliceManager)1769": {
        "encoding": "inplace",
        "label": "contract AbioticAliceManager",
        "numberOfBytes": "20"
      },
      "t_contract(IPolicyManager)1858": {
        "encoding": "inplace",
        "label": "contract IPolicyManager",
        "numberOfBytes": "20"
      },
      "t_mapping(t_address,t_bool)": {
        "encoding": "mapping",
        "key": "t_address",
        "label": "mapping(address => bool)",
        "numberOfBytes": "32",
        "value": "t_bool"
      },
      "t_mapping(t_address,t_mapping(t_address,t_bool))": {
        "encoding": "mapping",
        "key": "t_address",
        "label": "mapping(address => mapping(address => bool))",
        "numberOfBytes": "32",
        "value": "t_mapping(t_address,t_bool)"
      },
      "t_mapping(t_address,t_uint256)": {
        "encoding": "mapping",
        "key": "t_address",
        "label": "mapping(address => uint256)",
        "numberOfBytes": "32",
        "value": "t_uint256"
      },
      "t_mapping(t_bytes16,t_bool)": {
        "encoding": "mapping",
        "key": "t_bytes16",
        "label": "mapping(bytes16 => bool)",
        "numberOfBytes": "32",
        "value": "t_bool"
      },
      "t_mapping(t_uint256,t_address)": {
        "encoding": "mapping",
        "key": "t_uint256",
        "label": "mapping(uint256 => address)",
        "numberOfBytes": "32",
        "value": "t_address"
      },
      "t_string_storage": {
        "encoding": "bytes",
        "label": "string",
        "numberOfBytes": "32"
      },
      "t_uint256": {
        "encoding": "inplace",
        "label": "uint256",
        "numberOfBytes": "32"
      }
    }
  }
}