{
  "address": "0xFFd659896A653cD510E3CfE8288a354E14C32403",
  "abi": [
    {
      "inputs": [
        {
          "internalType": "contract IPolicyManager",
          "name": "_policyManager",
          "type": "address"
        },
        {
          "internalType": "contract AbioticAliceManager",
          "name": "_abioticAlice",
          "type": "address"
        }
      ],
      "stateMutability": "nonpayable",
      "type": "constructor"
    },
    {
      "anonymous": false,
      "inputs": [
        {
          "indexed": true,
          "internalType": "address",
          "name": "owner",
          "type": "address"
        },
        {
          "indexed": true,
          "internalType": "address",
          "name": "approved",
          "type": "address"
        },
        {
          "indexed": true,
          "internalType": "uint256",
          "name": "tokenId",
          "type": "uint256"
        }
      ],
      "name": "Approval",
      "type": "event"
    },
    {
      "anonymous": false,
      "inputs": [
        {
          "indexed": true,
          "internalType": "address",
          "name": "owner",
          "type": "address"
        },
        {
          "indexed": true,
          "internalType": "address",
          "name": "operator",
          "type": "address"
        },
        {
          "indexed": false,
          "internalType": "bool",
          "name": "approved",
          "type": "bool"
        }
      ],
      "name": "ApprovalForAll",
      "type": "event"
    },
    {
      "anonymous": false,
      "inputs": [
        {
          "indexed": false,
          "internalType": "bytes16",
          "name": "policyId",
          "type": "bytes16"
        }
      ],
      "name": "PolicyRevoked",
      "type": "event"
    },
    {
      "anonymous": false,
      "inputs": [
        {
          "indexed": true,
          "internalType": "address",
          "name": "from",
          "type": "address"
        },
        {
          "indexed": true,
          "internalType": "address",
          "name": "to",
          "type": "address"
        },
        {
          "indexed": true,
          "internalType": "uint256",
          "name": "tokenId",
          "type": "uint256"
        }
      ],
      "name": "Transfer",
      "type": "event"
    },
    {
      "inputs": [
        {
          "internalType": "address",
          "name": "to",
          "type": "address"
        },
        {
          "internalType": "uint256",
          "name": "tokenId",
          "type": "uint256"
        }
      ],
      "name": "approve",
      "outputs": [],
      "stateMutability": "nonpayable",
      "type": "function"
    },
    {
      "inputs": [
        {
          "internalType": "address",
          "name": "owner",
          "type": "address"
        }
      ],
      "name": "balanceOf",
      "outputs": [
        {
          "internalType": "uint256",
          "name": "",
          "type": "uint256"
        }
      ],
      "stateMutability": "view",
      "type": "function"
    },
    {
      "inputs": [
        {
          "internalType": "uint256",
          "name": "tokenId",
          "type": "uint256"
        }
      ],
      "name": "getApproved",
      "outputs": [
        {
          "internalType": "address",
          "name": "",
          "type": "address"
        }
      ],
      "stateMutability": "view",
      "type": "function"
    },
    {
      "inputs": [
        {
          "internalType": "uint256",
          "name": "tokenId",
          "type": "uint256"
        }
      ],
      "name": "getLabel",
      "outputs": [
        {
          "internalType": "string",
          "name": "label",
          "type": "string"
        }
      ],
      "stateMutability": "view",
      "type": "function"
    },
    {
      "inputs": [
        {
          "internalType": "address",
          "name": "owner",
          "type": "address"
        },
        {
          "internalType": "address",
          "name": "operator",
          "type": "address"
        }
      ],
      "name": "isApprovedForAll",
      "outputs": [
        {
          "internalType": "bool",
          "name": "",
          "type": "bool"
        }
      ],
      "stateMutability": "view",
      "type": "function"
    },
    {
      "inputs": [
        {
          "internalType": "uint256",
          "name": "tokenId",
          "type": "uint256"
        }
      ],
      "name": "mint",
      "outputs": [],
      "stateMutability": "nonpayable",
      "type": "function"
    },
    {
      "inputs": [],
      "name": "name",
      "outputs": [
        {
          "internalType": "string",
          "name": "",
          "type": "string"
        }
      ],
      "stateMutability": "view",
      "type": "function"
    },
    {
      "inputs": [
        {
          "internalType": "uint256",
          "name": "tokenId",
          "type": "uint256"
        }
      ],
      "name": "ownerOf",
      "outputs": [
        {
          "internalType": "address",
          "name": "",
          "type": "address"
        }
      ],
      "stateMutability": "view",
      "type": "function"
    },
    {
      "inputs": [
        {
          "internalType": "bytes16",
          "name": "_policyId",
          "type": "bytes16"
        }
      ],
      "name": "revokePolicy",
      "outputs": [],
      "stateMutability": "nonpayable",
      "type": "function"
    },
    {
      "inputs": [
        {
          "internalType": "address",
          "name": "from",
          "type": "address"
        },
        {
          "internalType": "address",
          "name": "to",
          "type": "address"
        },
        {
          "internalType": "uint256",
          "name": "tokenId",
          "type": "uint256"
        }
      ],
      "name": "safeTransferFrom",
      "outputs": [],
      "stateMutability": "nonpayable",
      "type": "function"
    },
    {
      "inputs": [
        {
          "internalType": "address",
          "name": "from",
          "type": "address"
        },
        {
          "internalType": "address",
          "name": "to",
          "type": "address"
        },
        {
          "internalType": "uint256",
          "name": "tokenId",
          "type": "uint256"
        },
        {
          "internalType": "bytes",
          "name": "_data",
          "type": "bytes"
        }
      ],
      "name": "safeTransferFrom",
      "outputs": [],
      "stateMutability": "nonpayable",
      "type": "function"
    },
    {
      "inputs": [
        {
          "internalType": "address",
          "name": "operator",
          "type": "address"
        },
        {
          "internalType": "bool",
          "name": "approved",
          "type": "bool"
        }
      ],
      "name": "setApprovalForAll",
      "outputs": [],
      "stateMutability": "nonpayable",
      "type": "function"
    },
    {
      "inputs": [
        {
          "internalType": "bytes4",
          "name": "interfaceId",
          "type": "bytes4"
        }
      ],
      "name": "supportsInterface",
      "outputs": [
        {
          "internalType": "bool",
          "name": "",
          "type": "bool"
        }
      ],
      "stateMutability": "view",
      "type": "function"
    },
    {
      "inputs": [],
      "name": "symbol",
      "outputs": [
        {
          "internalType": "string",
          "name": "",
          "type": "string"
        }
      ],
      "stateMutability": "view",
      "type": "function"
    },
    {
      "inputs": [
        {
          "internalType": "uint256",
          "name": "tokenId",
          "type": "uint256"
        }
      ],
      "name": "tokenURI",
      "outputs": [
        {
          "internalType": "string",
          "name": "",
          "type": "string"
        }
      ],
      "stateMutability": "view",
      "type": "function"
    },
    {
      "inputs": [
        {
          "internalType": "address",
          "name": "from",
          "type": "address"
        },
        {
          "internalType": "address",
          "name": "to",
          "type": "address"
        },
        {
          "internalType": "uint256",
          "name": "tokenId",
          "type": "uint256"
        }
      ],
      "name": "transferFrom",
      "outputs": [],
      "stateMutability": "nonpayable",
      "type": "function"
    }
  ],
  "transactionHash": "0x5f1aec4e142cecf1a2952b66cd601aa1c6f5b166d9c301e82df69184cf118ca0",
  "args": [
    "0xaC5e34d3FD41809873968c349d1194D23045b9D2",
    "0xce17c99C774DBE4c2B79862064151D91c3829B1f"
  ],
  "solcInputHash": "240e0c91c730c98e29ffb4152cb89640",
  "bytecode": "0x60806040523480156200001157600080fd5b5060405162003b5838038062003b5883398181016040528101906200003791906200024c565b6040518060400160405280600b81526020017f4f70656e44524d20504f430000000000000000000000000000000000000000008152506040518060400160405280600481526020017f4f44524d000000000000000000000000000000000000000000000000000000008152508160009080519060200190620000bb9291906200016e565b508060019080519060200190620000d49291906200016e565b50505081600660006101000a81548173ffffffffffffffffffffffffffffffffffffffff021916908373ffffffffffffffffffffffffffffffffffffffff16021790555080600760006101000a81548173ffffffffffffffffffffffffffffffffffffffff021916908373ffffffffffffffffffffffffffffffffffffffff16021790555060004690508060088190555050505062000382565b8280546200017c90620002e9565b90600052602060002090601f016020900481019282620001a05760008555620001ec565b82601f10620001bb57805160ff1916838001178555620001ec565b82800160010185558215620001ec579182015b82811115620001eb578251825591602001919060010190620001ce565b5b509050620001fb9190620001ff565b5090565b5b808211156200021a57600081600090555060010162000200565b5090565b6000815190506200022f816200034e565b92915050565b600081519050620002468162000368565b92915050565b600080604083850312156200026057600080fd5b6000620002708582860162000235565b925050602062000283858286016200021e565b9150509250929050565b60006200029a82620002c9565b9050919050565b6000620002ae826200028d565b9050919050565b6000620002c2826200028d565b9050919050565b600073ffffffffffffffffffffffffffffffffffffffff82169050919050565b600060028204905060018216806200030257607f821691505b602082108114156200031957620003186200031f565b5b50919050565b7f4e487b7100000000000000000000000000000000000000000000000000000000600052602260045260246000fd5b6200035981620002a1565b81146200036557600080fd5b50565b6200037381620002b5565b81146200037f57600080fd5b50565b6137c680620003926000396000f3fe608060405234801561001057600080fd5b50600436106101005760003560e01c806395d89b4111610097578063b21bf7fa11610066578063b21bf7fa146102a9578063b88d4fde146102d9578063c87b56dd146102f5578063e985e9c51461032557610100565b806395d89b4114610237578063a0712d6814610255578063a22cb46514610271578063a2d1d5e21461028d57610100565b806323b872dd116100d357806323b872dd1461019f57806342842e0e146101bb5780636352211e146101d757806370a082311461020757610100565b806301ffc9a71461010557806306fdde0314610135578063081812fc14610153578063095ea7b314610183575b600080fd5b61011f600480360381019061011a9190612698565b610355565b60405161012c9190612bd0565b60405180910390f35b61013d610437565b60405161014a9190612c06565b60405180910390f35b61016d60048036038101906101689190612797565b6104c9565b60405161017a9190612b69565b60405180910390f35b61019d60048036038101906101989190612633565b61054e565b005b6101b960048036038101906101b4919061252d565b610666565b005b6101d560048036038101906101d0919061252d565b6106c6565b005b6101f160048036038101906101ec9190612797565b6106e6565b6040516101fe9190612b69565b60405180910390f35b610221600480360381019061021c91906124c8565b610798565b60405161022e9190612e18565b60405180910390f35b61023f610850565b60405161024c9190612c06565b60405180910390f35b61026f600480360381019061026a9190612797565b6108e2565b005b61028b600480360381019061028691906125f7565b610925565b005b6102a760048036038101906102a2919061266f565b61093b565b005b6102c360048036038101906102be9190612797565b6109ec565b6040516102d09190612c06565b60405180910390f35b6102f360048036038101906102ee919061257c565b610a33565b005b61030f600480360381019061030a9190612797565b610a95565b60405161031c9190612c06565b60405180910390f35b61033f600480360381019061033a91906124f1565b610b3c565b60405161034c9190612bd0565b60405180910390f35b60007f80ac58cd000000000000000000000000000000000000000000000000000000007bffffffffffffffffffffffffffffffffffffffffffffffffffffffff1916827bffffffffffffffffffffffffffffffffffffffffffffffffffffffff1916148061042057507f5b5e139f000000000000000000000000000000000000000000000000000000007bffffffffffffffffffffffffffffffffffffffffffffffffffffffff1916827bffffffffffffffffffffffffffffffffffffffffffffffffffffffff1916145b80610430575061042f82610bd0565b5b9050919050565b606060008054610446906130ce565b80601f0160208091040260200160405190810160405280929190818152602001828054610472906130ce565b80156104bf5780601f10610494576101008083540402835291602001916104bf565b820191906000526020600020905b8154815290600101906020018083116104a257829003601f168201915b5050505050905090565b60006104d482610c3a565b610513576040517f08c379a000000000000000000000000000000000000000000000000000000000815260040161050a90612d78565b60405180910390fd5b6004600083815260200190815260200160002060009054906101000a900473ffffffffffffffffffffffffffffffffffffffff169050919050565b6000610559826106e6565b90508073ffffffffffffffffffffffffffffffffffffffff168373ffffffffffffffffffffffffffffffffffffffff1614156105ca576040517f08c379a00000000000000000000000000000000000000000000000000000000081526004016105c190612dd8565b60405180910390fd5b8073ffffffffffffffffffffffffffffffffffffffff166105e9610ca6565b73ffffffffffffffffffffffffffffffffffffffff161480610618575061061781610612610ca6565b610b3c565b5b610657576040517f08c379a000000000000000000000000000000000000000000000000000000000815260040161064e90612cf8565b60405180910390fd5b6106618383610cae565b505050565b610677610671610ca6565b82610d67565b6106b6576040517f08c379a00000000000000000000000000000000000000000000000000000000081526004016106ad90612df8565b60405180910390fd5b6106c1838383610e45565b505050565b6106e183838360405180602001604052806000815250610a33565b505050565b6000806002600084815260200190815260200160002060009054906101000a900473ffffffffffffffffffffffffffffffffffffffff169050600073ffffffffffffffffffffffffffffffffffffffff168173ffffffffffffffffffffffffffffffffffffffff16141561078f576040517f08c379a000000000000000000000000000000000000000000000000000000000815260040161078690612d38565b60405180910390fd5b80915050919050565b60008073ffffffffffffffffffffffffffffffffffffffff168273ffffffffffffffffffffffffffffffffffffffff161415610809576040517f08c379a000000000000000000000000000000000000000000000000000000000815260040161080090612d18565b60405180910390fd5b600360008373ffffffffffffffffffffffffffffffffffffffff1673ffffffffffffffffffffffffffffffffffffffff168152602001908152602001600020549050919050565b60606001805461085f906130ce565b80601f016020809104026020016040519081016040528092919081815260200182805461088b906130ce565b80156108d85780601f106108ad576101008083540402835291602001916108d8565b820191906000526020600020905b8154815290600101906020018083116108bb57829003601f168201915b5050505050905090565b60006108ed826109ec565b90506108f933836110a1565b806009600084815260200190815260200160002090805190602001906109209291906122c2565b505050565b610937610930610ca6565b83836110bf565b5050565b600660009054906101000a900473ffffffffffffffffffffffffffffffffffffffff1673ffffffffffffffffffffffffffffffffffffffff1663a2d1d5e2826040518263ffffffff1660e01b81526004016109969190612beb565b602060405180830381600087803b1580156109b057600080fd5b505af11580156109c4573d6000803e3d6000fd5b505050506040513d601f19601f820116820180604052508101906109e891906127c0565b5050565b60606109f73061122c565b610a008361168d565b610a0b60085461168d565b604051602001610a1d93929190612b38565b6040516020818303038152906040529050919050565b610a44610a3e610ca6565b83610d67565b610a83576040517f08c379a0000000000000000000000000000000000000000000000000000000008152600401610a7a90612df8565b60405180910390fd5b610a8f8484848461183a565b50505050565b6060610aa082610c3a565b610adf576040517f08c379a0000000000000000000000000000000000000000000000000000000008152600401610ad690612db8565b60405180910390fd5b6000610ae9611896565b90506000815111610b095760405180602001604052806000815250610b34565b80610b138461168d565b604051602001610b24929190612b14565b6040516020818303038152906040525b915050919050565b6000600560008473ffffffffffffffffffffffffffffffffffffffff1673ffffffffffffffffffffffffffffffffffffffff16815260200190815260200160002060008373ffffffffffffffffffffffffffffffffffffffff1673ffffffffffffffffffffffffffffffffffffffff16815260200190815260200160002060009054906101000a900460ff16905092915050565b60007f01ffc9a7000000000000000000000000000000000000000000000000000000007bffffffffffffffffffffffffffffffffffffffffffffffffffffffff1916827bffffffffffffffffffffffffffffffffffffffffffffffffffffffff1916149050919050565b60008073ffffffffffffffffffffffffffffffffffffffff166002600084815260200190815260200160002060009054906101000a900473ffffffffffffffffffffffffffffffffffffffff1673ffffffffffffffffffffffffffffffffffffffff1614159050919050565b600033905090565b816004600083815260200190815260200160002060006101000a81548173ffffffffffffffffffffffffffffffffffffffff021916908373ffffffffffffffffffffffffffffffffffffffff160217905550808273ffffffffffffffffffffffffffffffffffffffff16610d21836106e6565b73ffffffffffffffffffffffffffffffffffffffff167f8c5be1e5ebec7d5bd14f71427d1e84f3dd0314c0f7b2291e5b200ac8c7c3b92560405160405180910390a45050565b6000610d7282610c3a565b610db1576040517f08c379a0000000000000000000000000000000000000000000000000000000008152600401610da890612cd8565b60405180910390fd5b6000610dbc836106e6565b90508073ffffffffffffffffffffffffffffffffffffffff168473ffffffffffffffffffffffffffffffffffffffff161480610e2b57508373ffffffffffffffffffffffffffffffffffffffff16610e13846104c9565b73ffffffffffffffffffffffffffffffffffffffff16145b80610e3c5750610e3b8185610b3c565b5b91505092915050565b8273ffffffffffffffffffffffffffffffffffffffff16610e65826106e6565b73ffffffffffffffffffffffffffffffffffffffff1614610ebb576040517f08c379a0000000000000000000000000000000000000000000000000000000008152600401610eb290612d98565b60405180910390fd5b600073ffffffffffffffffffffffffffffffffffffffff168273ffffffffffffffffffffffffffffffffffffffff161415610f2b576040517f08c379a0000000000000000000000000000000000000000000000000000000008152600401610f2290612c98565b60405180910390fd5b610f368383836118ad565b610f41600082610cae565b6001600360008573ffffffffffffffffffffffffffffffffffffffff1673ffffffffffffffffffffffffffffffffffffffff1681526020019081526020016000206000828254610f919190612fb8565b925050819055506001600360008473ffffffffffffffffffffffffffffffffffffffff1673ffffffffffffffffffffffffffffffffffffffff1681526020019081526020016000206000828254610fe89190612ed7565b92505081905550816002600083815260200190815260200160002060006101000a81548173ffffffffffffffffffffffffffffffffffffffff021916908373ffffffffffffffffffffffffffffffffffffffff160217905550808273ffffffffffffffffffffffffffffffffffffffff168473ffffffffffffffffffffffffffffffffffffffff167fddf252ad1be2c89b69c2b068fc378daa952ba7f163c4a11628f55a4df523b3ef60405160405180910390a4505050565b6110bb828260405180602001604052806000815250611d5e565b5050565b8173ffffffffffffffffffffffffffffffffffffffff168373ffffffffffffffffffffffffffffffffffffffff16141561112e576040517f08c379a000000000000000000000000000000000000000000000000000000000815260040161112590612cb8565b60405180910390fd5b80600560008573ffffffffffffffffffffffffffffffffffffffff1673ffffffffffffffffffffffffffffffffffffffff16815260200190815260200160002060008473ffffffffffffffffffffffffffffffffffffffff1673ffffffffffffffffffffffffffffffffffffffff16815260200190815260200160002060006101000a81548160ff0219169083151502179055508173ffffffffffffffffffffffffffffffffffffffff168373ffffffffffffffffffffffffffffffffffffffff167f17307eab39ab6107e8899845ad3d59bd9653f200f220920489ca2b5937696c318360405161121f9190612bd0565b60405180910390a3505050565b606060008273ffffffffffffffffffffffffffffffffffffffff1660001b905060006040518060400160405280601081526020017f303132333435363738396162636465660000000000000000000000000000000081525090506000602a67ffffffffffffffff8111156112c9577f4e487b7100000000000000000000000000000000000000000000000000000000600052604160045260246000fd5b6040519080825280601f01601f1916602001820160405280156112fb5781602001600182028036833780820191505090505b5090507f300000000000000000000000000000000000000000000000000000000000000081600081518110611359577f4e487b7100000000000000000000000000000000000000000000000000000000600052603260045260246000fd5b60200101907effffffffffffffffffffffffffffffffffffffffffffffffffffffffffffff1916908160001a9053507f7800000000000000000000000000000000000000000000000000000000000000816001815181106113e3577f4e487b7100000000000000000000000000000000000000000000000000000000600052603260045260246000fd5b60200101907effffffffffffffffffffffffffffffffffffffffffffffffffffffffffffff1916908160001a90535060005b60148110156116815782600485600c8461142f9190612ed7565b60208110611466577f4e487b7100000000000000000000000000000000000000000000000000000000600052603260045260246000fd5b1a60f81b7effffffffffffffffffffffffffffffffffffffffffffffffffffffffffffff1916901c60f81c60ff16815181106114cb577f4e487b7100000000000000000000000000000000000000000000000000000000600052603260045260246000fd5b602001015160f81c60f81b826002836114e49190612f5e565b60026114f09190612ed7565b81518110611527577f4e487b7100000000000000000000000000000000000000000000000000000000600052603260045260246000fd5b60200101907effffffffffffffffffffffffffffffffffffffffffffffffffffffffffffff1916908160001a90535082600f60f81b85600c8461156a9190612ed7565b602081106115a1577f4e487b7100000000000000000000000000000000000000000000000000000000600052603260045260246000fd5b1a60f81b1660f81c60ff16815181106115e3577f4e487b7100000000000000000000000000000000000000000000000000000000600052603260045260246000fd5b602001015160f81c60f81b826002836115fc9190612f5e565b60036116089190612ed7565b8151811061163f577f4e487b7100000000000000000000000000000000000000000000000000000000600052603260045260246000fd5b60200101907effffffffffffffffffffffffffffffffffffffffffffffffffffffffffffff1916908160001a905350808061167990613131565b915050611415565b50809350505050919050565b606060008214156116d5576040518060400160405280600181526020017f30000000000000000000000000000000000000000000000000000000000000008152509050611835565b600082905060005b600082146117075780806116f090613131565b915050600a826117009190612f2d565b91506116dd565b60008167ffffffffffffffff811115611749577f4e487b7100000000000000000000000000000000000000000000000000000000600052604160045260246000fd5b6040519080825280601f01601f19166020018201604052801561177b5781602001600182028036833780820191505090505b5090505b6000851461182e576001826117949190612fb8565b9150600a856117a3919061317a565b60306117af9190612ed7565b60f81b8183815181106117eb577f4e487b7100000000000000000000000000000000000000000000000000000000600052603260045260246000fd5b60200101907effffffffffffffffffffffffffffffffffffffffffffffffffffffffffffff1916908160001a905350600a856118279190612f2d565b945061177f565b8093505050505b919050565b611845848484610e45565b61185184848484611db9565b611890576040517f08c379a000000000000000000000000000000000000000000000000000000000815260040161188790612c58565b60405180910390fd5b50505050565b606060405180602001604052806000815250905090565b60006118b8826109ec565b90506000600760009054906101000a900473ffffffffffffffffffffffffffffffffffffffff1673ffffffffffffffffffffffffffffffffffffffff1663038defd7866040518263ffffffff1660e01b81526004016119179190612b69565b60006040518083038186803b15801561192f57600080fd5b505afa158015611943573d6000803e3d6000fd5b505050506040513d6000823e3d601f19601f8201168201806040525081019061196c919061272b565b5090506000611a2a600760009054906101000a900473ffffffffffffffffffffffffffffffffffffffff1673ffffffffffffffffffffffffffffffffffffffff16637950c5f86040518163ffffffff1660e01b815260040160006040518083038186803b1580156119dc57600080fd5b505afa1580156119f0573d6000803e3d6000fd5b505050506040513d6000823e3d601f19601f82011682018060405250810190611a1991906126ea565b8385611f509092919063ffffffff16565b9050611a3581611f86565b600660009054906101000a900473ffffffffffffffffffffffffffffffffffffffff1673ffffffffffffffffffffffffffffffffffffffff1663e665830d826040518263ffffffff1660e01b8152600401611a909190612beb565b60206040518083038186803b158015611aa857600080fd5b505afa925050508015611ad957506040513d601f19601f82011682018060405250810190611ad691906127c0565b60015b611b9857611ae5613267565b806308c379a01415611b525750611afa613687565b80611b055750611b54565b611b0e8161201f565b611b4c6040518060400160405280600d81526020017f5265766f6b65204661696c65640000000000000000000000000000000000000081525061201f565b50611b93565b505b611b926040518060400160405280600d81526020017f5265766f6b65204661696c65640000000000000000000000000000000000000081525061201f565b5b611cc7565b6000811115611cc557600660009054906101000a900473ffffffffffffffffffffffffffffffffffffffff1673ffffffffffffffffffffffffffffffffffffffff1663a2d1d5e2836040518263ffffffff1660e01b8152600401611bfc9190612beb565b602060405180830381600087803b158015611c1657600080fd5b505af1158015611c2a573d6000803e3d6000fd5b505050506040513d601f19601f82011682018060405250810190611c4e91906127c0565b50611c8d6040518060400160405280601081526020017f5265766f6b65205375636365656465640000000000000000000000000000000081525061201f565b7fd5c412018f53b59096d0921fd2ae3a288a62104eff0ce2cb8f7f65a4e7265bb382604051611cbc9190612beb565b60405180910390a15b505b5050600760009054906101000a900473ffffffffffffffffffffffffffffffffffffffff1673ffffffffffffffffffffffffffffffffffffffff166360c37bd682856040518363ffffffff1660e01b8152600401611d26929190612c28565b600060405180830381600087803b158015611d4057600080fd5b505af1158015611d54573d6000803e3d6000fd5b5050505050505050565b611d6883836120b8565b611d756000848484611db9565b611db4576040517f08c379a0000000000000000000000000000000000000000000000000000000008152600401611dab90612c58565b60405180910390fd5b505050565b6000611dda8473ffffffffffffffffffffffffffffffffffffffff16612286565b15611f43578373ffffffffffffffffffffffffffffffffffffffff1663150b7a02611e03610ca6565b8786866040518563ffffffff1660e01b8152600401611e259493929190612b84565b602060405180830381600087803b158015611e3f57600080fd5b505af1925050508015611e7057506040513d601f19601f82011682018060405250810190611e6d91906126c1565b60015b611ef3573d8060008114611ea0576040519150601f19603f3d011682016040523d82523d6000602084013e611ea5565b606091505b50600081511415611eeb576040517f08c379a0000000000000000000000000000000000000000000000000000000008152600401611ee290612c58565b60405180910390fd5b805181602001fd5b63150b7a0260e01b7bffffffffffffffffffffffffffffffffffffffffffffffffffffffff1916817bffffffffffffffffffffffffffffffffffffffffffffffffffffffff191614915050611f48565b600190505b949350505050565b6000828285604051602001611f6793929190612ae3565b6040516020818303038152906040528051906020012090509392505050565b61201c81604051602401611f9a9190612beb565b6040516020818303038152906040527f665c6104000000000000000000000000000000000000000000000000000000007bffffffffffffffffffffffffffffffffffffffffffffffffffffffff19166020820180517bffffffffffffffffffffffffffffffffffffffffffffffffffffffff8381831617835250505050612299565b50565b6120b5816040516024016120339190612c06565b6040516020818303038152906040527f41304fac000000000000000000000000000000000000000000000000000000007bffffffffffffffffffffffffffffffffffffffffffffffffffffffff19166020820180517bffffffffffffffffffffffffffffffffffffffffffffffffffffffff8381831617835250505050612299565b50565b600073ffffffffffffffffffffffffffffffffffffffff168273ffffffffffffffffffffffffffffffffffffffff161415612128576040517f08c379a000000000000000000000000000000000000000000000000000000000815260040161211f90612d58565b60405180910390fd5b61213181610c3a565b15612171576040517f08c379a000000000000000000000000000000000000000000000000000000000815260040161216890612c78565b60405180910390fd5b61217d600083836118ad565b6001600360008473ffffffffffffffffffffffffffffffffffffffff1673ffffffffffffffffffffffffffffffffffffffff16815260200190815260200160002060008282546121cd9190612ed7565b92505081905550816002600083815260200190815260200160002060006101000a81548173ffffffffffffffffffffffffffffffffffffffff021916908373ffffffffffffffffffffffffffffffffffffffff160217905550808273ffffffffffffffffffffffffffffffffffffffff16600073ffffffffffffffffffffffffffffffffffffffff167fddf252ad1be2c89b69c2b068fc378daa952ba7f163c4a11628f55a4df523b3ef60405160405180910390a45050565b600080823b905060008111915050919050565b60008151905060006a636f6e736f6c652e6c6f679050602083016000808483855afa5050505050565b8280546122ce906130ce565b90600052602060002090601f0160209004810192826122f05760008555612337565b82601f1061230957805160ff1916838001178555612337565b82800160010185558215612337579182015b8281111561233657825182559160200191906001019061231b565b5b5090506123449190612348565b5090565b5b80821115612361576000816000905550600101612349565b5090565b600061237861237384612e58565b612e33565b90508281526020810184848401111561239057600080fd5b61239b84828561308c565b509392505050565b60006123b66123b184612e58565b612e33565b9050828152602081018484840111156123ce57600080fd5b6123d984828561309b565b509392505050565b6000813590506123f08161371d565b92915050565b60008135905061240581613734565b92915050565b60008135905061241a8161374b565b92915050565b60008135905061242f81613762565b92915050565b60008151905061244481613762565b92915050565b600082601f83011261245b57600080fd5b813561246b848260208601612365565b91505092915050565b600082601f83011261248557600080fd5b81516124958482602086016123a3565b91505092915050565b6000813590506124ad81613779565b92915050565b6000815190506124c281613779565b92915050565b6000602082840312156124da57600080fd5b60006124e8848285016123e1565b91505092915050565b6000806040838503121561250457600080fd5b6000612512858286016123e1565b9250506020612523858286016123e1565b9150509250929050565b60008060006060848603121561254257600080fd5b6000612550868287016123e1565b9350506020612561868287016123e1565b92505060406125728682870161249e565b9150509250925092565b6000806000806080858703121561259257600080fd5b60006125a0878288016123e1565b94505060206125b1878288016123e1565b93505060406125c28782880161249e565b925050606085013567ffffffffffffffff8111156125df57600080fd5b6125eb8782880161244a565b91505092959194509250565b6000806040838503121561260a57600080fd5b6000612618858286016123e1565b9250506020612629858286016123f6565b9150509250929050565b6000806040838503121561264657600080fd5b6000612654858286016123e1565b92505060206126658582860161249e565b9150509250929050565b60006020828403121561268157600080fd5b600061268f8482850161240b565b91505092915050565b6000602082840312156126aa57600080fd5b60006126b884828501612420565b91505092915050565b6000602082840312156126d357600080fd5b60006126e184828501612435565b91505092915050565b6000602082840312156126fc57600080fd5b600082015167ffffffffffffffff81111561271657600080fd5b61272284828501612474565b91505092915050565b6000806040838503121561273e57600080fd5b600083015167ffffffffffffffff81111561275857600080fd5b61276485828601612474565b925050602083015167ffffffffffffffff81111561278157600080fd5b61278d85828601612474565b9150509250929050565b6000602082840312156127a957600080fd5b60006127b78482850161249e565b91505092915050565b6000602082840312156127d257600080fd5b60006127e0848285016124b3565b91505092915050565b6127f281612fec565b82525050565b61280181612ffe565b82525050565b6128108161300a565b82525050565b600061282182612e89565b61282b8185612e9f565b935061283b81856020860161309b565b61284481613289565b840191505092915050565b600061285a82612e89565b6128648185612eb0565b935061287481856020860161309b565b80840191505092915050565b600061288b82612e94565b6128958185612ebb565b93506128a581856020860161309b565b6128ae81613289565b840191505092915050565b60006128c482612e94565b6128ce8185612ecc565b93506128de81856020860161309b565b80840191505092915050565b60006128f7603283612ebb565b9150612902826132a7565b604082019050919050565b600061291a601c83612ebb565b9150612925826132f6565b602082019050919050565b600061293d602483612ebb565b91506129488261331f565b604082019050919050565b6000612960601983612ebb565b915061296b8261336e565b602082019050919050565b6000612983602c83612ebb565b915061298e82613397565b604082019050919050565b60006129a6603883612ebb565b91506129b1826133e6565b604082019050919050565b60006129c9602a83612ebb565b91506129d482613435565b604082019050919050565b60006129ec602983612ebb565b91506129f782613484565b604082019050919050565b6000612a0f602083612ebb565b9150612a1a826134d3565b602082019050919050565b6000612a32602c83612ebb565b9150612a3d826134fc565b604082019050919050565b6000612a55602983612ebb565b9150612a608261354b565b604082019050919050565b6000612a78602f83612ebb565b9150612a838261359a565b604082019050919050565b6000612a9b602183612ebb565b9150612aa6826135e9565b604082019050919050565b6000612abe603183612ebb565b9150612ac982613638565b604082019050919050565b612add81613082565b82525050565b6000612aef828661284f565b9150612afb828561284f565b9150612b0782846128b9565b9150819050949350505050565b6000612b2082856128b9565b9150612b2c82846128b9565b91508190509392505050565b6000612b4482866128b9565b9150612b5082856128b9565b9150612b5c82846128b9565b9150819050949350505050565b6000602082019050612b7e60008301846127e9565b92915050565b6000608082019050612b9960008301876127e9565b612ba660208301866127e9565b612bb36040830185612ad4565b8181036060830152612bc58184612816565b905095945050505050565b6000602082019050612be560008301846127f8565b92915050565b6000602082019050612c006000830184612807565b92915050565b60006020820190508181036000830152612c208184612880565b905092915050565b60006040820190508181036000830152612c428185612880565b9050612c5160208301846127e9565b9392505050565b60006020820190508181036000830152612c71816128ea565b9050919050565b60006020820190508181036000830152612c918161290d565b9050919050565b60006020820190508181036000830152612cb181612930565b9050919050565b60006020820190508181036000830152612cd181612953565b9050919050565b60006020820190508181036000830152612cf181612976565b9050919050565b60006020820190508181036000830152612d1181612999565b9050919050565b60006020820190508181036000830152612d31816129bc565b9050919050565b60006020820190508181036000830152612d51816129df565b9050919050565b60006020820190508181036000830152612d7181612a02565b9050919050565b60006020820190508181036000830152612d9181612a25565b9050919050565b60006020820190508181036000830152612db181612a48565b9050919050565b60006020820190508181036000830152612dd181612a6b565b9050919050565b60006020820190508181036000830152612df181612a8e565b9050919050565b60006020820190508181036000830152612e1181612ab1565b9050919050565b6000602082019050612e2d6000830184612ad4565b92915050565b6000612e3d612e4e565b9050612e498282613100565b919050565b6000604051905090565b600067ffffffffffffffff821115612e7357612e72613238565b5b612e7c82613289565b9050602081019050919050565b600081519050919050565b600081519050919050565b600082825260208201905092915050565b600081905092915050565b600082825260208201905092915050565b600081905092915050565b6000612ee282613082565b9150612eed83613082565b9250827fffffffffffffffffffffffffffffffffffffffffffffffffffffffffffffffff03821115612f2257612f216131ab565b5b828201905092915050565b6000612f3882613082565b9150612f4383613082565b925082612f5357612f526131da565b5b828204905092915050565b6000612f6982613082565b9150612f7483613082565b9250817fffffffffffffffffffffffffffffffffffffffffffffffffffffffffffffffff0483118215151615612fad57612fac6131ab565b5b828202905092915050565b6000612fc382613082565b9150612fce83613082565b925082821015612fe157612fe06131ab565b5b828203905092915050565b6000612ff782613062565b9050919050565b60008115159050919050565b60007fffffffffffffffffffffffffffffffff0000000000000000000000000000000082169050919050565b60007fffffffff0000000000000000000000000000000000000000000000000000000082169050919050565b600073ffffffffffffffffffffffffffffffffffffffff82169050919050565b6000819050919050565b82818337600083830152505050565b60005b838110156130b957808201518184015260208101905061309e565b838111156130c8576000848401525b50505050565b600060028204905060018216806130e657607f821691505b602082108114156130fa576130f9613209565b5b50919050565b61310982613289565b810181811067ffffffffffffffff8211171561312857613127613238565b5b80604052505050565b600061313c82613082565b91507fffffffffffffffffffffffffffffffffffffffffffffffffffffffffffffffff82141561316f5761316e6131ab565b5b600182019050919050565b600061318582613082565b915061319083613082565b9250826131a05761319f6131da565b5b828206905092915050565b7f4e487b7100000000000000000000000000000000000000000000000000000000600052601160045260246000fd5b7f4e487b7100000000000000000000000000000000000000000000000000000000600052601260045260246000fd5b7f4e487b7100000000000000000000000000000000000000000000000000000000600052602260045260246000fd5b7f4e487b7100000000000000000000000000000000000000000000000000000000600052604160045260246000fd5b600060033d11156132865760046000803e61328360005161329a565b90505b90565b6000601f19601f8301169050919050565b60008160e01c9050919050565b7f4552433732313a207472616e7366657220746f206e6f6e20455243373231526560008201527f63656976657220696d706c656d656e7465720000000000000000000000000000602082015250565b7f4552433732313a20746f6b656e20616c7265616479206d696e74656400000000600082015250565b7f4552433732313a207472616e7366657220746f20746865207a65726f2061646460008201527f7265737300000000000000000000000000000000000000000000000000000000602082015250565b7f4552433732313a20617070726f766520746f2063616c6c657200000000000000600082015250565b7f4552433732313a206f70657261746f7220717565727920666f72206e6f6e657860008201527f697374656e7420746f6b656e0000000000000000000000000000000000000000602082015250565b7f4552433732313a20617070726f76652063616c6c6572206973206e6f74206f7760008201527f6e6572206e6f7220617070726f76656420666f7220616c6c0000000000000000602082015250565b7f4552433732313a2062616c616e636520717565727920666f7220746865207a6560008201527f726f206164647265737300000000000000000000000000000000000000000000602082015250565b7f4552433732313a206f776e657220717565727920666f72206e6f6e657869737460008201527f656e7420746f6b656e0000000000000000000000000000000000000000000000602082015250565b7f4552433732313a206d696e7420746f20746865207a65726f2061646472657373600082015250565b7f4552433732313a20617070726f76656420717565727920666f72206e6f6e657860008201527f697374656e7420746f6b656e0000000000000000000000000000000000000000602082015250565b7f4552433732313a207472616e73666572206f6620746f6b656e2074686174206960008201527f73206e6f74206f776e0000000000000000000000000000000000000000000000602082015250565b7f4552433732314d657461646174613a2055524920717565727920666f72206e6f60008201527f6e6578697374656e7420746f6b656e0000000000000000000000000000000000602082015250565b7f4552433732313a20617070726f76616c20746f2063757272656e74206f776e6560008201527f7200000000000000000000000000000000000000000000000000000000000000602082015250565b7f4552433732313a207472616e736665722063616c6c6572206973206e6f74206f60008201527f776e6572206e6f7220617070726f766564000000000000000000000000000000602082015250565b600060443d10156136975761371a565b61369f612e4e565b60043d036004823e80513d602482011167ffffffffffffffff821117156136c757505061371a565b808201805167ffffffffffffffff8111156136e5575050505061371a565b80602083010160043d03850181111561370257505050505061371a565b61371182602001850186613100565b82955050505050505b90565b61372681612fec565b811461373157600080fd5b50565b61373d81612ffe565b811461374857600080fd5b50565b6137548161300a565b811461375f57600080fd5b50565b61376b81613036565b811461377657600080fd5b50565b61378281613082565b811461378d57600080fd5b5056fea2646970667358221220afe7de1ce209baa2d38d128054d2d4864113c16399d0ea1c16ebf3ba70fbe41764736f6c63430008040033",
  "devdoc": {
    "kind": "dev",
    "methods": {
      "approve(address,uint256)": {
        "details": "See {IERC721-approve}."
      },
      "balanceOf(address)": {
        "details": "See {IERC721-balanceOf}."
      },
      "getApproved(uint256)": {
        "details": "See {IERC721-getApproved}."
      },
      "isApprovedForAll(address,address)": {
        "details": "See {IERC721-isApprovedForAll}."
      },
      "name()": {
        "details": "See {IERC721Metadata-name}."
      },
      "ownerOf(uint256)": {
        "details": "See {IERC721-ownerOf}."
      },
      "safeTransferFrom(address,address,uint256)": {
        "details": "See {IERC721-safeTransferFrom}."
      },
      "safeTransferFrom(address,address,uint256,bytes)": {
        "details": "See {IERC721-safeTransferFrom}."
      },
      "setApprovalForAll(address,bool)": {
        "details": "See {IERC721-setApprovalForAll}."
      },
      "supportsInterface(bytes4)": {
        "details": "See {IERC165-supportsInterface}."
      },
      "symbol()": {
        "details": "See {IERC721Metadata-symbol}."
      },
      "tokenURI(uint256)": {
        "details": "See {IERC721Metadata-tokenURI}."
      },
      "transferFrom(address,address,uint256)": {
        "details": "See {IERC721-transferFrom}."
      }
    },
    "version": 1
  },
  "userdoc": {
    "kind": "user",
    "methods": {},
    "version": 1
  },
  "storageLayout": {
    "storage": [
      {
        "astId": 25,
        "contract": "contracts/OpenDRM721.sol:OpenDRM721",
        "label": "_name",
        "offset": 0,
        "slot": "0",
        "type": "t_string_storage"
      },
      {
        "astId": 27,
        "contract": "contracts/OpenDRM721.sol:OpenDRM721",
        "label": "_symbol",
        "offset": 0,
        "slot": "1",
        "type": "t_string_storage"
      },
      {
        "astId": 31,
        "contract": "contracts/OpenDRM721.sol:OpenDRM721",
        "label": "_owners",
        "offset": 0,
        "slot": "2",
        "type": "t_mapping(t_uint256,t_address)"
      },
      {
        "astId": 35,
        "contract": "contracts/OpenDRM721.sol:OpenDRM721",
        "label": "_balances",
        "offset": 0,
        "slot": "3",
        "type": "t_mapping(t_address,t_uint256)"
      },
      {
        "astId": 39,
        "contract": "contracts/OpenDRM721.sol:OpenDRM721",
        "label": "_tokenApprovals",
        "offset": 0,
        "slot": "4",
        "type": "t_mapping(t_uint256,t_address)"
      },
      {
        "astId": 45,
        "contract": "contracts/OpenDRM721.sol:OpenDRM721",
        "label": "_operatorApprovals",
        "offset": 0,
        "slot": "5",
        "type": "t_mapping(t_address,t_mapping(t_address,t_bool))"
      },
      {
        "astId": 1913,
        "contract": "contracts/OpenDRM721.sol:OpenDRM721",
        "label": "policyManager",
        "offset": 0,
        "slot": "6",
        "type": "t_contract(IPolicyManager)1858"
      },
      {
        "astId": 1916,
        "contract": "contracts/OpenDRM721.sol:OpenDRM721",
        "label": "abioticAlice",
        "offset": 0,
        "slot": "7",
        "type": "t_contract(AbioticAliceManager)1786"
      },
      {
        "astId": 1918,
        "contract": "contracts/OpenDRM721.sol:OpenDRM721",
        "label": "chainId",
        "offset": 0,
        "slot": "8",
        "type": "t_uint256"
      },
      {
        "astId": 1922,
        "contract": "contracts/OpenDRM721.sol:OpenDRM721",
        "label": "labels",
        "offset": 0,
        "slot": "9",
        "type": "t_mapping(t_uint256,t_string_storage)"
      }
    ],
    "types": {
      "t_address": {
        "encoding": "inplace",
        "label": "address",
        "numberOfBytes": "20"
      },
      "t_bool": {
        "encoding": "inplace",
        "label": "bool",
        "numberOfBytes": "1"
      },
      "t_contract(AbioticAliceManager)1786": {
        "encoding": "inplace",
        "label": "contract AbioticAliceManager",
        "numberOfBytes": "20"
      },
      "t_contract(IPolicyManager)1858": {
        "encoding": "inplace",
        "label": "contract IPolicyManager",
        "numberOfBytes": "20"
      },
      "t_mapping(t_address,t_bool)": {
        "encoding": "mapping",
        "key": "t_address",
        "label": "mapping(address => bool)",
        "numberOfBytes": "32",
        "value": "t_bool"
      },
      "t_mapping(t_address,t_mapping(t_address,t_bool))": {
        "encoding": "mapping",
        "key": "t_address",
        "label": "mapping(address => mapping(address => bool))",
        "numberOfBytes": "32",
        "value": "t_mapping(t_address,t_bool)"
      },
      "t_mapping(t_address,t_uint256)": {
        "encoding": "mapping",
        "key": "t_address",
        "label": "mapping(address => uint256)",
        "numberOfBytes": "32",
        "value": "t_uint256"
      },
      "t_mapping(t_uint256,t_address)": {
        "encoding": "mapping",
        "key": "t_uint256",
        "label": "mapping(uint256 => address)",
        "numberOfBytes": "32",
        "value": "t_address"
      },
      "t_mapping(t_uint256,t_string_storage)": {
        "encoding": "mapping",
        "key": "t_uint256",
        "label": "mapping(uint256 => string)",
        "numberOfBytes": "32",
        "value": "t_string_storage"
      },
      "t_string_storage": {
        "encoding": "bytes",
        "label": "string",
        "numberOfBytes": "32"
      },
      "t_uint256": {
        "encoding": "inplace",
        "label": "uint256",
        "numberOfBytes": "32"
      }
    }
  }
}