{
  "address": "0x763f641579e3ea3f88a478fBD020003cdcF90f96",
  "abi": [
    {
      "inputs": [
        {
          "internalType": "bytes",
          "name": "_verifyingKey",
          "type": "bytes"
        }
      ],
      "stateMutability": "nonpayable",
      "type": "constructor"
    },
    {
      "anonymous": false,
      "inputs": [
        {
          "indexed": true,
          "internalType": "address",
          "name": "requestor",
          "type": "address"
        },
        {
          "indexed": true,
          "internalType": "address",
          "name": "recipient",
          "type": "address"
        },
        {
          "indexed": false,
          "internalType": "uint256",
          "name": "threshold",
          "type": "uint256"
        },
        {
          "indexed": false,
          "internalType": "uint256",
          "name": "shares",
          "type": "uint256"
        },
        {
          "indexed": false,
          "internalType": "uint256",
          "name": "paymentPeriods",
          "type": "uint256"
        },
        {
          "indexed": false,
          "internalType": "string",
          "name": "label",
          "type": "string"
        }
      ],
      "name": "PolicyRequested",
      "type": "event"
    },
    {
      "anonymous": false,
      "inputs": [
        {
          "indexed": true,
          "internalType": "address",
          "name": "user",
          "type": "address"
        },
        {
          "indexed": false,
          "internalType": "bytes",
          "name": "verifyingKey",
          "type": "bytes"
        },
        {
          "indexed": false,
          "internalType": "bytes",
          "name": "decryptingKey",
          "type": "bytes"
        }
      ],
      "name": "UserRegistered",
      "type": "event"
    },
    {
      "inputs": [
        {
          "internalType": "bytes16",
          "name": "_policyId",
          "type": "bytes16"
        },
        {
          "internalType": "uint64",
          "name": "_endTimestamp",
          "type": "uint64"
        },
        {
          "internalType": "uint256",
          "name": "_valueInWei",
          "type": "uint256"
        },
        {
          "internalType": "address[]",
          "name": "_nodes",
          "type": "address[]"
        }
      ],
      "name": "fulfillPolicy",
      "outputs": [],
      "stateMutability": "payable",
      "type": "function"
    },
    {
      "inputs": [
        {
          "internalType": "bytes16",
          "name": "",
          "type": "bytes16"
        }
      ],
      "name": "policyIdToRequestor",
      "outputs": [
        {
          "internalType": "address payable",
          "name": "",
          "type": "address"
        }
      ],
      "stateMutability": "view",
      "type": "function"
    },
    {
      "inputs": [
        {
          "internalType": "bytes",
          "name": "_bobVerifyingKey",
          "type": "bytes"
        },
        {
          "internalType": "bytes",
          "name": "_bobDecryptingKey",
          "type": "bytes"
        }
      ],
      "name": "registerMe",
      "outputs": [],
      "stateMutability": "nonpayable",
      "type": "function"
    },
    {
      "inputs": [
        {
          "internalType": "address",
          "name": "",
          "type": "address"
        }
      ],
      "name": "registry",
      "outputs": [
        {
          "internalType": "bytes",
          "name": "bobVerifyingKey",
          "type": "bytes"
        },
        {
          "internalType": "bytes",
          "name": "bobDecryptingKey",
          "type": "bytes"
        }
      ],
      "stateMutability": "view",
      "type": "function"
    },
    {
      "inputs": [
        {
          "internalType": "string",
          "name": "_labelSuffix",
          "type": "string"
        },
        {
          "internalType": "address",
          "name": "_recipient",
          "type": "address"
        },
        {
          "internalType": "uint256",
          "name": "_threshold",
          "type": "uint256"
        },
        {
          "internalType": "uint256",
          "name": "_shares",
          "type": "uint256"
        },
        {
          "internalType": "uint256",
          "name": "_paymentPeriods",
          "type": "uint256"
        }
      ],
      "name": "requestPolicy",
      "outputs": [],
      "stateMutability": "payable",
      "type": "function"
    },
    {
      "inputs": [],
      "name": "verifyingKey",
      "outputs": [
        {
          "internalType": "bytes",
          "name": "",
          "type": "bytes"
        }
      ],
      "stateMutability": "view",
      "type": "function"
    }
  ],
  "transactionHash": "0xb083e4b5a4ed993ad55d5f817a81fa1c8d65abd4df1e0d35acd1277a2dc1f65b",
  "args": [
    "0x036bd8188183e5c251065d1b22cb52c20f31a88fbf01b1eb75b5cbd5896d76c3e0"
  ],
  "solcInputHash": "7b3552f495911537193216c41c5f3b92",
  "bytecode": "0x60806040523480156200001157600080fd5b50604051620021e2380380620021e2833981810160405281019062000037919062000179565b80600090805190602001906200004f92919062000057565b50506200032e565b828054620000659062000253565b90600052602060002090601f016020900481019282620000895760008555620000d5565b82601f10620000a457805160ff1916838001178555620000d5565b82800160010185558215620000d5579182015b82811115620000d4578251825591602001919060010190620000b7565b5b509050620000e49190620000e8565b5090565b5b8082111562000103576000816000905550600101620000e9565b5090565b60006200011e6200011884620001e7565b620001be565b9050828152602081018484840111156200013757600080fd5b620001448482856200021d565b509392505050565b600082601f8301126200015e57600080fd5b81516200017084826020860162000107565b91505092915050565b6000602082840312156200018c57600080fd5b600082015167ffffffffffffffff811115620001a757600080fd5b620001b5848285016200014c565b91505092915050565b6000620001ca620001dd565b9050620001d8828262000289565b919050565b6000604051905090565b600067ffffffffffffffff821115620002055762000204620002ee565b5b62000210826200031d565b9050602081019050919050565b60005b838110156200023d57808201518184015260208101905062000220565b838111156200024d576000848401525b50505050565b600060028204905060018216806200026c57607f821691505b60208210811415620002835762000282620002bf565b5b50919050565b62000294826200031d565b810181811067ffffffffffffffff82111715620002b657620002b5620002ee565b5b80604052505050565b7f4e487b7100000000000000000000000000000000000000000000000000000000600052602260045260246000fd5b7f4e487b7100000000000000000000000000000000000000000000000000000000600052604160045260246000fd5b6000601f19601f8301169050919050565b611ea4806200033e6000396000f3fe6080604052600436106100555760003560e01c8063038defd71461005a5780634966d3d514610098578063574267fa146100b45780637950c5f8146100dd57806389b00f6614610108578063fd4f6aae14610145575b600080fd5b34801561006657600080fd5b50610081600480360381019061007c9190611349565b610161565b60405161008f929190611869565b60405180910390f35b6100b260048036038101906100ad919061139b565b610295565b005b3480156100c057600080fd5b506100db60048036038101906100d6919061141b565b610437565b005b3480156100e957600080fd5b506100f26105aa565b6040516100ff9190611847565b60405180910390f35b34801561011457600080fd5b5061012f600480360381019061012a9190611372565b610638565b60405161013c9190611788565b60405180910390f35b61015f600480360381019061015a9190611490565b61066b565b005b600160205280600052604060002060009150905080600001805461018490611c16565b80601f01602080910402602001604051908101604052809291908181526020018280546101b090611c16565b80156101fd5780601f106101d2576101008083540402835291602001916101fd565b820191906000526020600020905b8154815290600101906020018083116101e057829003601f168201915b50505050509080600101805461021290611c16565b80601f016020809104026020016040519081016040528092919081815260200182805461023e90611c16565b801561028b5780601f106102605761010080835404028352916020019161028b565b820191906000526020600020905b81548152906001019060200180831161026e57829003601f168201915b5050505050905082565b600060026000876fffffffffffffffffffffffffffffffff19166fffffffffffffffffffffffffffffffff1916815260200190815260200160002060009054906101000a900473ffffffffffffffffffffffffffffffffffffffff169050600073ffffffffffffffffffffffffffffffffffffffff168173ffffffffffffffffffffffffffffffffffffffff161415610363576040517f08c379a000000000000000000000000000000000000000000000000000000000815260040161035a906118e2565b60405180910390fd5b60026000876fffffffffffffffffffffffffffffffff19166fffffffffffffffffffffffffffffffff1916815260200190815260200160002060009054906101000a900473ffffffffffffffffffffffffffffffffffffffff1673ffffffffffffffffffffffffffffffffffffffff16634966d3d587878787876040518663ffffffff1660e01b81526004016103fd9594939291906117be565b600060405180830381600087803b15801561041757600080fd5b505af115801561042b573d6000803e3d6000fd5b50505050505050505050565b604051806040016040528085858080601f016020809104026020016040519081016040528093929190818152602001838380828437600081840152601f19601f82011690508083019250505050505050815260200183838080601f016020809104026020016040519081016040528093929190818152602001838380828437600081840152601f19601f82011690508083019250505050505050815250600160003373ffffffffffffffffffffffffffffffffffffffff1673ffffffffffffffffffffffffffffffffffffffff168152602001908152602001600020600082015181600001908051906020019061052f929190611156565b50602082015181600101908051906020019061054c929190611156565b509050503373ffffffffffffffffffffffffffffffffffffffff167f21e927615156d90b4bb131ee82c2149fe2e1bad9298a065589df5dc79dca14138585858560405161059c949392919061180c565b60405180910390a250505050565b600080546105b790611c16565b80601f01602080910402602001604051908101604052809291908181526020018280546105e390611c16565b80156106305780601f1061060557610100808354040283529160200191610630565b820191906000526020600020905b81548152906001019060200180831161061357829003601f168201915b505050505081565b60026020528060005260406000206000915054906101000a900473ffffffffffffffffffffffffffffffffffffffff1681565b818311156106ae576040517f08c379a00000000000000000000000000000000000000000000000000000000081526004016106a5906118c2565b60405180910390fd5b60006106c3338761080690919063ffffffff16565b905060006106d18287610844565b90506107116040518060400160405280601681526020017f506f6c6963792072657175657374656420776974683a000000000000000000008152506109b7565b61071a81610a50565b3360026000836fffffffffffffffffffffffffffffffff19166fffffffffffffffffffffffffffffffff1916815260200190815260200160002060006101000a81548173ffffffffffffffffffffffffffffffffffffffff021916908373ffffffffffffffffffffffffffffffffffffffff1602179055508573ffffffffffffffffffffffffffffffffffffffff163373ffffffffffffffffffffffffffffffffffffffff167fb12a98a3e67730a1468aa44a5a62a56898f06148e577b119892d9cb1c6a4a542878787876040516107f59493929190611902565b60405180910390a350505050505050565b606061081182610ae9565b61081a46610f4a565b8460405160200161082d93929190611757565b604051602081830303815290604052905092915050565b60006109af6000805461085690611c16565b80601f016020809104026020016040519081016040528092919081815260200182805461088290611c16565b80156108cf5780601f106108a4576101008083540402835291602001916108cf565b820191906000526020600020905b8154815290600101906020018083116108b257829003601f168201915b5050505050600160008573ffffffffffffffffffffffffffffffffffffffff1673ffffffffffffffffffffffffffffffffffffffff168152602001908152602001600020600001805461092190611c16565b80601f016020809104026020016040519081016040528092919081815260200182805461094d90611c16565b801561099a5780601f1061096f5761010080835404028352916020019161099a565b820191906000526020600020905b81548152906001019060200180831161097d57829003601f168201915b5050505050856110f79092919063ffffffff16565b905092915050565b610a4d816040516024016109cb91906118a0565b6040516020818303038152906040527f41304fac000000000000000000000000000000000000000000000000000000007bffffffffffffffffffffffffffffffffffffffffffffffffffffffff19166020820180517bffffffffffffffffffffffffffffffffffffffffffffffffffffffff838183161783525050505061112d565b50565b610ae681604051602401610a6491906117a3565b6040516020818303038152906040527f665c6104000000000000000000000000000000000000000000000000000000007bffffffffffffffffffffffffffffffffffffffffffffffffffffffff19166020820180517bffffffffffffffffffffffffffffffffffffffffffffffffffffffff838183161783525050505061112d565b50565b606060008273ffffffffffffffffffffffffffffffffffffffff1660001b905060006040518060400160405280601081526020017f303132333435363738396162636465660000000000000000000000000000000081525090506000602a67ffffffffffffffff811115610b86577f4e487b7100000000000000000000000000000000000000000000000000000000600052604160045260246000fd5b6040519080825280601f01601f191660200182016040528015610bb85781602001600182028036833780820191505090505b5090507f300000000000000000000000000000000000000000000000000000000000000081600081518110610c16577f4e487b7100000000000000000000000000000000000000000000000000000000600052603260045260246000fd5b60200101907effffffffffffffffffffffffffffffffffffffffffffffffffffffffffffff1916908160001a9053507f780000000000000000000000000000000000000000000000000000000000000081600181518110610ca0577f4e487b7100000000000000000000000000000000000000000000000000000000600052603260045260246000fd5b60200101907effffffffffffffffffffffffffffffffffffffffffffffffffffffffffffff1916908160001a90535060005b6014811015610f3e5782600485600c84610cec9190611a31565b60208110610d23577f4e487b7100000000000000000000000000000000000000000000000000000000600052603260045260246000fd5b1a60f81b7effffffffffffffffffffffffffffffffffffffffffffffffffffffffffffff1916901c60f81c60ff1681518110610d88577f4e487b7100000000000000000000000000000000000000000000000000000000600052603260045260246000fd5b602001015160f81c60f81b82600283610da19190611ab8565b6002610dad9190611a31565b81518110610de4577f4e487b7100000000000000000000000000000000000000000000000000000000600052603260045260246000fd5b60200101907effffffffffffffffffffffffffffffffffffffffffffffffffffffffffffff1916908160001a90535082600f60f81b85600c84610e279190611a31565b60208110610e5e577f4e487b7100000000000000000000000000000000000000000000000000000000600052603260045260246000fd5b1a60f81b1660f81c60ff1681518110610ea0577f4e487b7100000000000000000000000000000000000000000000000000000000600052603260045260246000fd5b602001015160f81c60f81b82600283610eb99190611ab8565b6003610ec59190611a31565b81518110610efc577f4e487b7100000000000000000000000000000000000000000000000000000000600052603260045260246000fd5b60200101907effffffffffffffffffffffffffffffffffffffffffffffffffffffffffffff1916908160001a9053508080610f3690611c79565b915050610cd2565b50809350505050919050565b60606000821415610f92576040518060400160405280600181526020017f300000000000000000000000000000000000000000000000000000000000000081525090506110f2565b600082905060005b60008214610fc4578080610fad90611c79565b915050600a82610fbd9190611a87565b9150610f9a565b60008167ffffffffffffffff811115611006577f4e487b7100000000000000000000000000000000000000000000000000000000600052604160045260246000fd5b6040519080825280601f01601f1916602001820160405280156110385781602001600182028036833780820191505090505b5090505b600085146110eb576001826110519190611b12565b9150600a856110609190611cc2565b603061106c9190611a31565b60f81b8183815181106110a8577f4e487b7100000000000000000000000000000000000000000000000000000000600052603260045260246000fd5b60200101907effffffffffffffffffffffffffffffffffffffffffffffffffffffffffffff1916908160001a905350600a856110e49190611a87565b945061103c565b8093505050505b919050565b600082828560405160200161110e93929190611726565b6040516020818303038152906040528051906020012090509392505050565b60008151905060006a636f6e736f6c652e6c6f679050602083016000808483855afa5050505050565b82805461116290611c16565b90600052602060002090601f01602090048101928261118457600085556111cb565b82601f1061119d57805160ff19168380011785556111cb565b828001600101855582156111cb579182015b828111156111ca5782518255916020019190600101906111af565b5b5090506111d891906111dc565b5090565b5b808211156111f55760008160009055506001016111dd565b5090565b600061120c61120784611973565b61194e565b90508281526020810184848401111561122457600080fd5b61122f848285611bd4565b509392505050565b60008135905061124681611e12565b92915050565b60008083601f84011261125e57600080fd5b8235905067ffffffffffffffff81111561127757600080fd5b60208301915083602082028301111561128f57600080fd5b9250929050565b6000813590506112a581611e29565b92915050565b60008083601f8401126112bd57600080fd5b8235905067ffffffffffffffff8111156112d657600080fd5b6020830191508360018202830111156112ee57600080fd5b9250929050565b600082601f83011261130657600080fd5b81356113168482602086016111f9565b91505092915050565b60008135905061132e81611e40565b92915050565b60008135905061134381611e57565b92915050565b60006020828403121561135b57600080fd5b600061136984828501611237565b91505092915050565b60006020828403121561138457600080fd5b600061139284828501611296565b91505092915050565b6000806000806000608086880312156113b357600080fd5b60006113c188828901611296565b95505060206113d288828901611334565b94505060406113e38882890161131f565b935050606086013567ffffffffffffffff81111561140057600080fd5b61140c8882890161124c565b92509250509295509295909350565b6000806000806040858703121561143157600080fd5b600085013567ffffffffffffffff81111561144b57600080fd5b611457878288016112ab565b9450945050602085013567ffffffffffffffff81111561147657600080fd5b611482878288016112ab565b925092505092959194509250565b600080600080600060a086880312156114a857600080fd5b600086013567ffffffffffffffff8111156114c257600080fd5b6114ce888289016112f5565b95505060206114df88828901611237565b94505060406114f08882890161131f565b93505060606115018882890161131f565b92505060806115128882890161131f565b9150509295509295909350565b600061152b8383611546565b60208301905092915050565b61154081611b58565b82525050565b61154f81611b46565b82525050565b600061156183856119d1565b935061156c826119a4565b8060005b858110156115a5576115828284611a1a565b61158c888261151f565b9750611597836119c4565b925050600181019050611570565b5085925050509392505050565b6115bb81611b6a565b82525050565b60006115cd83856119e2565b93506115da838584611bd4565b6115e383611daf565b840190509392505050565b60006115f9826119ae565b61160381856119e2565b9350611613818560208601611be3565b61161c81611daf565b840191505092915050565b6000611632826119ae565b61163c81856119f3565b935061164c818560208601611be3565b80840191505092915050565b6000611663826119b9565b61166d81856119fe565b935061167d818560208601611be3565b61168681611daf565b840191505092915050565b600061169c826119b9565b6116a68185611a0f565b93506116b6818560208601611be3565b80840191505092915050565b60006116cf6019836119fe565b91506116da82611dc0565b602082019050919050565b60006116f26017836119fe565b91506116fd82611de9565b602082019050919050565b61171181611bb6565b82525050565b61172081611bc0565b82525050565b60006117328286611627565b915061173e8285611627565b915061174a8284611691565b9150819050949350505050565b60006117638286611691565b915061176f8285611691565b915061177b8284611691565b9150819050949350505050565b600060208201905061179d6000830184611537565b92915050565b60006020820190506117b860008301846115b2565b92915050565b60006080820190506117d360008301886115b2565b6117e06020830187611717565b6117ed6040830186611708565b8181036060830152611800818486611555565b90509695505050505050565b600060408201905081810360008301526118278186886115c1565b9050818103602083015261183c8184866115c1565b905095945050505050565b6000602082019050818103600083015261186181846115ee565b905092915050565b6000604082019050818103600083015261188381856115ee565b9050818103602083015261189781846115ee565b90509392505050565b600060208201905081810360008301526118ba8184611658565b905092915050565b600060208201905081810360008301526118db816116c2565b9050919050565b600060208201905081810360008301526118fb816116e5565b9050919050565b60006080820190506119176000830187611708565b6119246020830186611708565b6119316040830185611708565b81810360608301526119438184611658565b905095945050505050565b6000611958611969565b90506119648282611c48565b919050565b6000604051905090565b600067ffffffffffffffff82111561198e5761198d611d80565b5b61199782611daf565b9050602081019050919050565b6000819050919050565b600081519050919050565b600081519050919050565b6000602082019050919050565b600082825260208201905092915050565b600082825260208201905092915050565b600081905092915050565b600082825260208201905092915050565b600081905092915050565b6000611a296020840184611237565b905092915050565b6000611a3c82611bb6565b9150611a4783611bb6565b9250827fffffffffffffffffffffffffffffffffffffffffffffffffffffffffffffffff03821115611a7c57611a7b611cf3565b5b828201905092915050565b6000611a9282611bb6565b9150611a9d83611bb6565b925082611aad57611aac611d22565b5b828204905092915050565b6000611ac382611bb6565b9150611ace83611bb6565b9250817fffffffffffffffffffffffffffffffffffffffffffffffffffffffffffffffff0483118215151615611b0757611b06611cf3565b5b828202905092915050565b6000611b1d82611bb6565b9150611b2883611bb6565b925082821015611b3b57611b3a611cf3565b5b828203905092915050565b6000611b5182611b96565b9050919050565b6000611b6382611b96565b9050919050565b60007fffffffffffffffffffffffffffffffff0000000000000000000000000000000082169050919050565b600073ffffffffffffffffffffffffffffffffffffffff82169050919050565b6000819050919050565b600067ffffffffffffffff82169050919050565b82818337600083830152505050565b60005b83811015611c01578082015181840152602081019050611be6565b83811115611c10576000848401525b50505050565b60006002820490506001821680611c2e57607f821691505b60208210811415611c4257611c41611d51565b5b50919050565b611c5182611daf565b810181811067ffffffffffffffff82111715611c7057611c6f611d80565b5b80604052505050565b6000611c8482611bb6565b91507fffffffffffffffffffffffffffffffffffffffffffffffffffffffffffffffff821415611cb757611cb6611cf3565b5b600182019050919050565b6000611ccd82611bb6565b9150611cd883611bb6565b925082611ce857611ce7611d22565b5b828206905092915050565b7f4e487b7100000000000000000000000000000000000000000000000000000000600052601160045260246000fd5b7f4e487b7100000000000000000000000000000000000000000000000000000000600052601260045260246000fd5b7f4e487b7100000000000000000000000000000000000000000000000000000000600052602260045260246000fd5b7f4e487b7100000000000000000000000000000000000000000000000000000000600052604160045260246000fd5b6000601f19601f8301169050919050565b7f4572726f723a205468726573686f6c64203e2073686172657300000000000000600082015250565b7f4572726f723a20496e76616c696420706f6c6963794964000000000000000000600082015250565b611e1b81611b46565b8114611e2657600080fd5b50565b611e3281611b6a565b8114611e3d57600080fd5b50565b611e4981611bb6565b8114611e5457600080fd5b50565b611e6081611bc0565b8114611e6b57600080fd5b5056fea26469706673582212207d057c9bffc6a33f87e4855d542a90d201a31e2797937e5e8fab81ad970cc88a64736f6c63430008040033",
  "devdoc": {
    "kind": "dev",
    "methods": {
      "fulfillPolicy(bytes16,uint64,uint256,address[])": {
        "details": "TODO: onlyOwner"
      },
      "registerMe(bytes,bytes)": {
        "details": "Would be very nice to get rid of this step and have determanistic mapping"
      },
      "requestPolicy(string,address,uint256,uint256,uint256)": {
        "details": "This should require some payment, most likely escrowed until request is fulfilled"
      }
    },
    "version": 1
  },
  "userdoc": {
    "kind": "user",
    "methods": {
      "registerMe(bytes,bytes)": {
        "notice": "Quick and dirty way to map eth material -> PRE material."
      }
    },
    "version": 1
  },
  "storageLayout": {
    "storage": [
      {
        "astId": 1566,
        "contract": "contracts/AbioticAliceManager.sol:AbioticAliceManager",
        "label": "verifyingKey",
        "offset": 0,
        "slot": "0",
        "type": "t_bytes_storage"
      },
      {
        "astId": 1571,
        "contract": "contracts/AbioticAliceManager.sol:AbioticAliceManager",
        "label": "registry",
        "offset": 0,
        "slot": "1",
        "type": "t_mapping(t_address,t_struct(Bob)1564_storage)"
      },
      {
        "astId": 1575,
        "contract": "contracts/AbioticAliceManager.sol:AbioticAliceManager",
        "label": "policyIdToRequestor",
        "offset": 0,
        "slot": "2",
        "type": "t_mapping(t_bytes16,t_address_payable)"
      }
    ],
    "types": {
      "t_address": {
        "encoding": "inplace",
        "label": "address",
        "numberOfBytes": "20"
      },
      "t_address_payable": {
        "encoding": "inplace",
        "label": "address payable",
        "numberOfBytes": "20"
      },
      "t_bytes16": {
        "encoding": "inplace",
        "label": "bytes16",
        "numberOfBytes": "16"
      },
      "t_bytes_storage": {
        "encoding": "bytes",
        "label": "bytes",
        "numberOfBytes": "32"
      },
      "t_mapping(t_address,t_struct(Bob)1564_storage)": {
        "encoding": "mapping",
        "key": "t_address",
        "label": "mapping(address => struct AbioticAliceManager.Bob)",
        "numberOfBytes": "32",
        "value": "t_struct(Bob)1564_storage"
      },
      "t_mapping(t_bytes16,t_address_payable)": {
        "encoding": "mapping",
        "key": "t_bytes16",
        "label": "mapping(bytes16 => address payable)",
        "numberOfBytes": "32",
        "value": "t_address_payable"
      },
      "t_struct(Bob)1564_storage": {
        "encoding": "inplace",
        "label": "struct AbioticAliceManager.Bob",
        "members": [
          {
            "astId": 1561,
            "contract": "contracts/AbioticAliceManager.sol:AbioticAliceManager",
            "label": "bobVerifyingKey",
            "offset": 0,
            "slot": "0",
            "type": "t_bytes_storage"
          },
          {
            "astId": 1563,
            "contract": "contracts/AbioticAliceManager.sol:AbioticAliceManager",
            "label": "bobDecryptingKey",
            "offset": 0,
            "slot": "1",
            "type": "t_bytes_storage"
          }
        ],
        "numberOfBytes": "64"
      }
    }
  }
}