{
  "address": "0x95d177EAE21988DDEb2c3244f9B12F103DC61d3d",
  "abi": [
    {
      "inputs": [
        {
          "internalType": "contract IPolicyManager",
          "name": "_policyManager",
          "type": "address"
        },
        {
          "internalType": "contract AbioticAliceManager",
          "name": "_abioticAlice",
          "type": "address"
        }
      ],
      "stateMutability": "nonpayable",
      "type": "constructor"
    },
    {
      "anonymous": false,
      "inputs": [
        {
          "indexed": true,
          "internalType": "address",
          "name": "owner",
          "type": "address"
        },
        {
          "indexed": true,
          "internalType": "address",
          "name": "approved",
          "type": "address"
        },
        {
          "indexed": true,
          "internalType": "uint256",
          "name": "tokenId",
          "type": "uint256"
        }
      ],
      "name": "Approval",
      "type": "event"
    },
    {
      "anonymous": false,
      "inputs": [
        {
          "indexed": true,
          "internalType": "address",
          "name": "owner",
          "type": "address"
        },
        {
          "indexed": true,
          "internalType": "address",
          "name": "operator",
          "type": "address"
        },
        {
          "indexed": false,
          "internalType": "bool",
          "name": "approved",
          "type": "bool"
        }
      ],
      "name": "ApprovalForAll",
      "type": "event"
    },
    {
      "anonymous": false,
      "inputs": [
        {
          "indexed": true,
          "internalType": "bytes16",
          "name": "policyId",
          "type": "bytes16"
        }
      ],
      "name": "PolicyFulfilled",
      "type": "event"
    },
    {
      "anonymous": false,
      "inputs": [
        {
          "indexed": true,
          "internalType": "bytes16",
          "name": "policyId",
          "type": "bytes16"
        }
      ],
      "name": "PolicyRevoked",
      "type": "event"
    },
    {
      "anonymous": false,
      "inputs": [
        {
          "indexed": true,
          "internalType": "address",
          "name": "from",
          "type": "address"
        },
        {
          "indexed": true,
          "internalType": "address",
          "name": "to",
          "type": "address"
        },
        {
          "indexed": true,
          "internalType": "uint256",
          "name": "tokenId",
          "type": "uint256"
        }
      ],
      "name": "Transfer",
      "type": "event"
    },
    {
      "inputs": [
        {
          "internalType": "address",
          "name": "to",
          "type": "address"
        },
        {
          "internalType": "uint256",
          "name": "tokenId",
          "type": "uint256"
        }
      ],
      "name": "approve",
      "outputs": [],
      "stateMutability": "nonpayable",
      "type": "function"
    },
    {
      "inputs": [
        {
          "internalType": "address",
          "name": "owner",
          "type": "address"
        }
      ],
      "name": "balanceOf",
      "outputs": [
        {
          "internalType": "uint256",
          "name": "",
          "type": "uint256"
        }
      ],
      "stateMutability": "view",
      "type": "function"
    },
    {
      "inputs": [
        {
          "internalType": "bytes16",
          "name": "_policyId",
          "type": "bytes16"
        },
        {
          "internalType": "uint64",
          "name": "_endTimestamp",
          "type": "uint64"
        },
        {
          "internalType": "uint256",
          "name": "_valueInWei",
          "type": "uint256"
        },
        {
          "internalType": "address[]",
          "name": "_nodes",
          "type": "address[]"
        }
      ],
      "name": "fulfillPolicy",
      "outputs": [],
      "stateMutability": "payable",
      "type": "function"
    },
    {
      "inputs": [
        {
          "internalType": "uint256",
          "name": "tokenId",
          "type": "uint256"
        }
      ],
      "name": "getApproved",
      "outputs": [
        {
          "internalType": "address",
          "name": "",
          "type": "address"
        }
      ],
      "stateMutability": "view",
      "type": "function"
    },
    {
      "inputs": [
        {
          "internalType": "uint256",
          "name": "tokenId",
          "type": "uint256"
        }
      ],
      "name": "getFullLabel",
      "outputs": [
        {
          "internalType": "string",
          "name": "label",
          "type": "string"
        }
      ],
      "stateMutability": "view",
      "type": "function"
    },
    {
      "inputs": [
        {
          "internalType": "bytes16",
          "name": "_policyId",
          "type": "bytes16"
        }
      ],
      "name": "getPolicy",
      "outputs": [
        {
          "components": [
            {
              "internalType": "bool",
              "name": "disabled",
              "type": "bool"
            },
            {
              "internalType": "address payable",
              "name": "sponsor",
              "type": "address"
            },
            {
              "internalType": "address",
              "name": "owner",
              "type": "address"
            },
            {
              "internalType": "uint128",
              "name": "feeRate",
              "type": "uint128"
            },
            {
              "internalType": "uint64",
              "name": "startTimestamp",
              "type": "uint64"
            },
            {
              "internalType": "uint64",
              "name": "endTimestamp",
              "type": "uint64"
            },
            {
              "internalType": "uint256",
              "name": "reservedSlot1",
              "type": "uint256"
            },
            {
              "internalType": "uint256",
              "name": "reservedSlot2",
              "type": "uint256"
            },
            {
              "internalType": "uint256",
              "name": "reservedSlot3",
              "type": "uint256"
            },
            {
              "internalType": "uint256",
              "name": "reservedSlot4",
              "type": "uint256"
            },
            {
              "internalType": "uint256",
              "name": "reservedSlot5",
              "type": "uint256"
            }
          ],
          "internalType": "struct IPolicyManager.Policy",
          "name": "_policy",
          "type": "tuple"
        }
      ],
      "stateMutability": "view",
      "type": "function"
    },
    {
      "inputs": [
        {
          "internalType": "address",
          "name": "owner",
          "type": "address"
        },
        {
          "internalType": "address",
          "name": "operator",
          "type": "address"
        }
      ],
      "name": "isApprovedForAll",
      "outputs": [
        {
          "internalType": "bool",
          "name": "",
          "type": "bool"
        }
      ],
      "stateMutability": "view",
      "type": "function"
    },
    {
      "inputs": [
        {
          "internalType": "uint256",
          "name": "tokenId",
          "type": "uint256"
        }
      ],
      "name": "mint",
      "outputs": [],
      "stateMutability": "nonpayable",
      "type": "function"
    },
    {
      "inputs": [],
      "name": "name",
      "outputs": [
        {
          "internalType": "string",
          "name": "",
          "type": "string"
        }
      ],
      "stateMutability": "view",
      "type": "function"
    },
    {
      "inputs": [
        {
          "internalType": "uint256",
          "name": "tokenId",
          "type": "uint256"
        }
      ],
      "name": "ownerOf",
      "outputs": [
        {
          "internalType": "address",
          "name": "",
          "type": "address"
        }
      ],
      "stateMutability": "view",
      "type": "function"
    },
    {
      "inputs": [
        {
          "internalType": "address",
          "name": "from",
          "type": "address"
        },
        {
          "internalType": "address",
          "name": "to",
          "type": "address"
        },
        {
          "internalType": "uint256",
          "name": "tokenId",
          "type": "uint256"
        }
      ],
      "name": "safeTransferFrom",
      "outputs": [],
      "stateMutability": "nonpayable",
      "type": "function"
    },
    {
      "inputs": [
        {
          "internalType": "address",
          "name": "from",
          "type": "address"
        },
        {
          "internalType": "address",
          "name": "to",
          "type": "address"
        },
        {
          "internalType": "uint256",
          "name": "tokenId",
          "type": "uint256"
        },
        {
          "internalType": "bytes",
          "name": "_data",
          "type": "bytes"
        }
      ],
      "name": "safeTransferFrom",
      "outputs": [],
      "stateMutability": "nonpayable",
      "type": "function"
    },
    {
      "inputs": [
        {
          "internalType": "address",
          "name": "operator",
          "type": "address"
        },
        {
          "internalType": "bool",
          "name": "approved",
          "type": "bool"
        }
      ],
      "name": "setApprovalForAll",
      "outputs": [],
      "stateMutability": "nonpayable",
      "type": "function"
    },
    {
      "inputs": [
        {
          "internalType": "bytes4",
          "name": "interfaceId",
          "type": "bytes4"
        }
      ],
      "name": "supportsInterface",
      "outputs": [
        {
          "internalType": "bool",
          "name": "",
          "type": "bool"
        }
      ],
      "stateMutability": "view",
      "type": "function"
    },
    {
      "inputs": [],
      "name": "symbol",
      "outputs": [
        {
          "internalType": "string",
          "name": "",
          "type": "string"
        }
      ],
      "stateMutability": "view",
      "type": "function"
    },
    {
      "inputs": [
        {
          "internalType": "uint256",
          "name": "tokenId",
          "type": "uint256"
        }
      ],
      "name": "tokenURI",
      "outputs": [
        {
          "internalType": "string",
          "name": "",
          "type": "string"
        }
      ],
      "stateMutability": "view",
      "type": "function"
    },
    {
      "inputs": [
        {
          "internalType": "address",
          "name": "from",
          "type": "address"
        },
        {
          "internalType": "address",
          "name": "to",
          "type": "address"
        },
        {
          "internalType": "uint256",
          "name": "tokenId",
          "type": "uint256"
        }
      ],
      "name": "transferFrom",
      "outputs": [],
      "stateMutability": "nonpayable",
      "type": "function"
    },
    {
      "stateMutability": "payable",
      "type": "receive"
    }
  ],
  "transactionHash": "0x4d514dff1412b4cc3c3f1cd8737f8e989f415b458ac2e1db35bbbd53a3738286",
  "args": [
    "0xaC5e34d3FD41809873968c349d1194D23045b9D2",
    "0x763f641579e3ea3f88a478fBD020003cdcF90f96"
  ],
  "solcInputHash": "7b3552f495911537193216c41c5f3b92",
  "bytecode": "0x60806040523480156200001157600080fd5b50604051620049b1380380620049b183398181016040528101906200003791906200024c565b6040518060400160405280600b81526020017f4f70656e44524d20504f430000000000000000000000000000000000000000008152506040518060400160405280600481526020017f4f44524d000000000000000000000000000000000000000000000000000000008152508160009080519060200190620000bb9291906200016e565b508060019080519060200190620000d49291906200016e565b50505081600660006101000a81548173ffffffffffffffffffffffffffffffffffffffff021916908373ffffffffffffffffffffffffffffffffffffffff16021790555080600760006101000a81548173ffffffffffffffffffffffffffffffffffffffff021916908373ffffffffffffffffffffffffffffffffffffffff16021790555060004690508060088190555050505062000382565b8280546200017c90620002e9565b90600052602060002090601f016020900481019282620001a05760008555620001ec565b82601f10620001bb57805160ff1916838001178555620001ec565b82800160010185558215620001ec579182015b82811115620001eb578251825591602001919060010190620001ce565b5b509050620001fb9190620001ff565b5090565b5b808211156200021a57600081600090555060010162000200565b5090565b6000815190506200022f816200034e565b92915050565b600081519050620002468162000368565b92915050565b600080604083850312156200026057600080fd5b6000620002708582860162000235565b925050602062000283858286016200021e565b9150509250929050565b60006200029a82620002c9565b9050919050565b6000620002ae826200028d565b9050919050565b6000620002c2826200028d565b9050919050565b600073ffffffffffffffffffffffffffffffffffffffff82169050919050565b600060028204905060018216806200030257607f821691505b602082108114156200031957620003186200031f565b5b50919050565b7f4e487b7100000000000000000000000000000000000000000000000000000000600052602260045260246000fd5b6200035981620002a1565b81146200036557600080fd5b50565b6200037381620002b5565b81146200037f57600080fd5b50565b61461f80620003926000396000f3fe6080604052600436106101025760003560e01c80636352211e11610095578063a22cb46511610064578063a22cb46514610355578063b88d4fde1461037e578063c87b56dd146103a7578063e985e9c5146103e4578063f5ed47231461042157610109565b80636352211e1461028757806370a08231146102c457806395d89b4114610301578063a0712d681461032c57610109565b806323b872dd116100d157806323b872dd146101dc5780632c8151611461020557806342842e0e146102425780634966d3d51461026b57610109565b806301ffc9a71461010e57806306fdde031461014b578063081812fc14610176578063095ea7b3146101b357610109565b3661010957005b600080fd5b34801561011a57600080fd5b50610135600480360381019061013091906130b8565b61045e565b604051610142919061381a565b60405180910390f35b34801561015757600080fd5b50610160610540565b60405161016d91906138c0565b60405180910390f35b34801561018257600080fd5b5061019d600480360381019061019891906131e1565b6105d2565b6040516101aa91906137b3565b60405180910390f35b3480156101bf57600080fd5b506101da60048036038101906101d59190612fd3565b610657565b005b3480156101e857600080fd5b5061020360048036038101906101fe9190612ecd565b61076f565b005b34801561021157600080fd5b5061022c6004803603810190610227919061300f565b6107cf565b6040516102399190613b1c565b60405180910390f35b34801561024e57600080fd5b5061026960048036038101906102649190612ecd565b61088a565b005b61028560048036038101906102809190613038565b6108aa565b005b34801561029357600080fd5b506102ae60048036038101906102a991906131e1565b610aa3565b6040516102bb91906137b3565b60405180910390f35b3480156102d057600080fd5b506102eb60048036038101906102e69190612e68565b610b55565b6040516102f89190613b38565b60405180910390f35b34801561030d57600080fd5b50610316610c0d565b60405161032391906138c0565b60405180910390f35b34801561033857600080fd5b50610353600480360381019061034e91906131e1565b610c9f565b005b34801561036157600080fd5b5061037c60048036038101906103779190612f97565b610cac565b005b34801561038a57600080fd5b506103a560048036038101906103a09190612f1c565b610cc2565b005b3480156103b357600080fd5b506103ce60048036038101906103c991906131e1565b610d24565b6040516103db91906138c0565b60405180910390f35b3480156103f057600080fd5b5061040b60048036038101906104069190612e91565b610dcb565b604051610418919061381a565b60405180910390f35b34801561042d57600080fd5b50610448600480360381019061044391906131e1565b610e5f565b60405161045591906138c0565b60405180910390f35b60007f80ac58cd000000000000000000000000000000000000000000000000000000007bffffffffffffffffffffffffffffffffffffffffffffffffffffffff1916827bffffffffffffffffffffffffffffffffffffffffffffffffffffffff1916148061052957507f5b5e139f000000000000000000000000000000000000000000000000000000007bffffffffffffffffffffffffffffffffffffffffffffffffffffffff1916827bffffffffffffffffffffffffffffffffffffffffffffffffffffffff1916145b80610539575061053882610e83565b5b9050919050565b60606000805461054f90613e93565b80601f016020809104026020016040519081016040528092919081815260200182805461057b90613e93565b80156105c85780601f1061059d576101008083540402835291602001916105c8565b820191906000526020600020905b8154815290600101906020018083116105ab57829003601f168201915b5050505050905090565b60006105dd82610eed565b61061c576040517f08c379a000000000000000000000000000000000000000000000000000000000815260040161061390613a5c565b60405180910390fd5b6004600083815260200190815260200160002060009054906101000a900473ffffffffffffffffffffffffffffffffffffffff169050919050565b600061066282610aa3565b90508073ffffffffffffffffffffffffffffffffffffffff168373ffffffffffffffffffffffffffffffffffffffff1614156106d3576040517f08c379a00000000000000000000000000000000000000000000000000000000081526004016106ca90613abc565b60405180910390fd5b8073ffffffffffffffffffffffffffffffffffffffff166106f2610f59565b73ffffffffffffffffffffffffffffffffffffffff16148061072157506107208161071b610f59565b610dcb565b5b610760576040517f08c379a0000000000000000000000000000000000000000000000000000000008152600401610757906139dc565b60405180910390fd5b61076a8383610f61565b505050565b61078061077a610f59565b8261101a565b6107bf576040517f08c379a00000000000000000000000000000000000000000000000000000000081526004016107b690613adc565b60405180910390fd5b6107ca8383836110f8565b505050565b6107d7612a87565b600660009054906101000a900473ffffffffffffffffffffffffffffffffffffffff1673ffffffffffffffffffffffffffffffffffffffff1663713c0e57836040518263ffffffff1660e01b81526004016108329190613835565b6101606040518083038186803b15801561084b57600080fd5b505afa15801561085f573d6000803e3d6000fd5b505050506040513d601f19601f8201168201806040525081019061088391906131b7565b9050919050565b6108a583838360405180602001604052806000815250610cc2565b505050565b600760009054906101000a900473ffffffffffffffffffffffffffffffffffffffff1673ffffffffffffffffffffffffffffffffffffffff163373ffffffffffffffffffffffffffffffffffffffff161461093a576040517f08c379a000000000000000000000000000000000000000000000000000000000815260040161093190613afc565b60405180910390fd5b60096000866fffffffffffffffffffffffffffffffff19166fffffffffffffffffffffffffffffffff1916815260200190815260200160002060009054906101000a900460ff1615610a9c57600660009054906101000a900473ffffffffffffffffffffffffffffffffffffffff1673ffffffffffffffffffffffffffffffffffffffff166381e742a1848760008887876040518763ffffffff1660e01b81526004016109eb959493929190613850565b6000604051808303818588803b158015610a0457600080fd5b505af1158015610a18573d6000803e3d6000fd5b5050505050610a5b6040518060400160405280601081526020017f506f6c6963792066756c66696c6c656400000000000000000000000000000000815250611354565b846fffffffffffffffffffffffffffffffff19167ffa02362dcb78333c9c70829c7b929f9848241513face39c5b43077550de3362a60405160405180910390a25b5050505050565b6000806002600084815260200190815260200160002060009054906101000a900473ffffffffffffffffffffffffffffffffffffffff169050600073ffffffffffffffffffffffffffffffffffffffff168173ffffffffffffffffffffffffffffffffffffffff161415610b4c576040517f08c379a0000000000000000000000000000000000000000000000000000000008152600401610b4390613a1c565b60405180910390fd5b80915050919050565b60008073ffffffffffffffffffffffffffffffffffffffff168273ffffffffffffffffffffffffffffffffffffffff161415610bc6576040517f08c379a0000000000000000000000000000000000000000000000000000000008152600401610bbd906139fc565b60405180910390fd5b600360008373ffffffffffffffffffffffffffffffffffffffff1673ffffffffffffffffffffffffffffffffffffffff168152602001908152602001600020549050919050565b606060018054610c1c90613e93565b80601f0160208091040260200160405190810160405280929190818152602001828054610c4890613e93565b8015610c955780601f10610c6a57610100808354040283529160200191610c95565b820191906000526020600020905b815481529060010190602001808311610c7857829003601f168201915b5050505050905090565b610ca933826113ed565b50565b610cbe610cb7610f59565b838361140b565b5050565b610cd3610ccd610f59565b8361101a565b610d12576040517f08c379a0000000000000000000000000000000000000000000000000000000008152600401610d0990613adc565b60405180910390fd5b610d1e84848484611578565b50505050565b6060610d2f82610eed565b610d6e576040517f08c379a0000000000000000000000000000000000000000000000000000000008152600401610d6590613a9c565b60405180910390fd5b6000610d786115d4565b90506000815111610d985760405180602001604052806000815250610dc3565b80610da2846115eb565b604051602001610db392919061375e565b6040516020818303038152906040525b915050919050565b6000600560008473ffffffffffffffffffffffffffffffffffffffff1673ffffffffffffffffffffffffffffffffffffffff16815260200190815260200160002060008373ffffffffffffffffffffffffffffffffffffffff1673ffffffffffffffffffffffffffffffffffffffff16815260200190815260200160002060009054906101000a900460ff16905092915050565b6060610e7c30610e6e846115eb565b61179890919063ffffffff16565b9050919050565b60007f01ffc9a7000000000000000000000000000000000000000000000000000000007bffffffffffffffffffffffffffffffffffffffffffffffffffffffff1916827bffffffffffffffffffffffffffffffffffffffffffffffffffffffff1916149050919050565b60008073ffffffffffffffffffffffffffffffffffffffff166002600084815260200190815260200160002060009054906101000a900473ffffffffffffffffffffffffffffffffffffffff1673ffffffffffffffffffffffffffffffffffffffff1614159050919050565b600033905090565b816004600083815260200190815260200160002060006101000a81548173ffffffffffffffffffffffffffffffffffffffff021916908373ffffffffffffffffffffffffffffffffffffffff160217905550808273ffffffffffffffffffffffffffffffffffffffff16610fd483610aa3565b73ffffffffffffffffffffffffffffffffffffffff167f8c5be1e5ebec7d5bd14f71427d1e84f3dd0314c0f7b2291e5b200ac8c7c3b92560405160405180910390a45050565b600061102582610eed565b611064576040517f08c379a000000000000000000000000000000000000000000000000000000000815260040161105b906139bc565b60405180910390fd5b600061106f83610aa3565b90508073ffffffffffffffffffffffffffffffffffffffff168473ffffffffffffffffffffffffffffffffffffffff1614806110de57508373ffffffffffffffffffffffffffffffffffffffff166110c6846105d2565b73ffffffffffffffffffffffffffffffffffffffff16145b806110ef57506110ee8185610dcb565b5b91505092915050565b8273ffffffffffffffffffffffffffffffffffffffff1661111882610aa3565b73ffffffffffffffffffffffffffffffffffffffff161461116e576040517f08c379a000000000000000000000000000000000000000000000000000000000815260040161116590613a7c565b60405180910390fd5b600073ffffffffffffffffffffffffffffffffffffffff168273ffffffffffffffffffffffffffffffffffffffff1614156111de576040517f08c379a00000000000000000000000000000000000000000000000000000000081526004016111d59061397c565b60405180910390fd5b6111e98383836117d6565b6111f4600082610f61565b6001600360008573ffffffffffffffffffffffffffffffffffffffff1673ffffffffffffffffffffffffffffffffffffffff16815260200190815260200160002060008282546112449190613d17565b925050819055506001600360008473ffffffffffffffffffffffffffffffffffffffff1673ffffffffffffffffffffffffffffffffffffffff168152602001908152602001600020600082825461129b9190613c36565b92505081905550816002600083815260200190815260200160002060006101000a81548173ffffffffffffffffffffffffffffffffffffffff021916908373ffffffffffffffffffffffffffffffffffffffff160217905550808273ffffffffffffffffffffffffffffffffffffffff168473ffffffffffffffffffffffffffffffffffffffff167fddf252ad1be2c89b69c2b068fc378daa952ba7f163c4a11628f55a4df523b3ef60405160405180910390a4505050565b6113ea8160405160240161136891906138c0565b6040516020818303038152906040527f41304fac000000000000000000000000000000000000000000000000000000007bffffffffffffffffffffffffffffffffffffffffffffffffffffffff19166020820180517bffffffffffffffffffffffffffffffffffffffffffffffffffffffff8381831617835250505050611e7c565b50565b611407828260405180602001604052806000815250611ea5565b5050565b8173ffffffffffffffffffffffffffffffffffffffff168373ffffffffffffffffffffffffffffffffffffffff16141561147a576040517f08c379a00000000000000000000000000000000000000000000000000000000081526004016114719061399c565b60405180910390fd5b80600560008573ffffffffffffffffffffffffffffffffffffffff1673ffffffffffffffffffffffffffffffffffffffff16815260200190815260200160002060008473ffffffffffffffffffffffffffffffffffffffff1673ffffffffffffffffffffffffffffffffffffffff16815260200190815260200160002060006101000a81548160ff0219169083151502179055508173ffffffffffffffffffffffffffffffffffffffff168373ffffffffffffffffffffffffffffffffffffffff167f17307eab39ab6107e8899845ad3d59bd9653f200f220920489ca2b5937696c318360405161156b919061381a565b60405180910390a3505050565b6115838484846110f8565b61158f84848484611f00565b6115ce576040517f08c379a00000000000000000000000000000000000000000000000000000000081526004016115c59061393c565b60405180910390fd5b50505050565b606060405180602001604052806000815250905090565b60606000821415611633576040518060400160405280600181526020017f30000000000000000000000000000000000000000000000000000000000000008152509050611793565b600082905060005b6000821461166557808061164e90613ef6565b915050600a8261165e9190613c8c565b915061163b565b60008167ffffffffffffffff8111156116a7577f4e487b7100000000000000000000000000000000000000000000000000000000600052604160045260246000fd5b6040519080825280601f01601f1916602001820160405280156116d95781602001600182028036833780820191505090505b5090505b6000851461178c576001826116f29190613d17565b9150600a856117019190613f3f565b603061170d9190613c36565b60f81b818381518110611749577f4e487b7100000000000000000000000000000000000000000000000000000000600052603260045260246000fd5b60200101907effffffffffffffffffffffffffffffffffffffffffffffffffffffffffffff1916908160001a905350600a856117859190613c8c565b94506116dd565b8093505050505b919050565b60606117a382612097565b6117ac466124f8565b846040516020016117bf93929190613782565b604051602081830303815290604052905092915050565b60006117e182610e5f565b90506118216040518060400160405280600d81526020017f506f6c696379204c6162656c3a00000000000000000000000000000000000000815250611354565b61182a81611354565b6000600760009054906101000a900473ffffffffffffffffffffffffffffffffffffffff1673ffffffffffffffffffffffffffffffffffffffff16637950c5f86040518163ffffffff1660e01b815260040160006040518083038186803b15801561189457600080fd5b505afa1580156118a8573d6000803e3d6000fd5b505050506040513d6000823e3d601f19601f820116820180604052508101906118d1919061310a565b9050600080600760009054906101000a900473ffffffffffffffffffffffffffffffffffffffff1673ffffffffffffffffffffffffffffffffffffffff1663038defd7886040518263ffffffff1660e01b815260040161193191906137b3565b60006040518083038186803b15801561194957600080fd5b505afa15801561195d573d6000803e3d6000fd5b505050506040513d6000823e3d601f19601f82011682018060405250810190611986919061314b565b50905061199e8382866126a59092919063ffffffff16565b9150600060096000846fffffffffffffffffffffffffffffffff19166fffffffffffffffffffffffffffffffff1916815260200190815260200160002060006101000a81548160ff021916908315150217905550611a306040518060400160405280600f81526020017f50726576696f757320506f6c6963790000000000000000000000000000000000815250611354565b611a39826126db565b600660009054906101000a900473ffffffffffffffffffffffffffffffffffffffff1673ffffffffffffffffffffffffffffffffffffffff1663a2d1d5e2836040518263ffffffff1660e01b8152600401611a949190613835565b602060405180830381600087803b158015611aae57600080fd5b505af1925050508015611adf57506040513d601f19601f82011682018060405250810190611adc919061320a565b60015b611b9e57611aeb61402c565b806308c379a01415611b585750611b0061449b565b80611b0b5750611b5a565b611b1481611354565b611b526040518060400160405280600d81526020017f5265766f6b65204661696c656400000000000000000000000000000000000000815250611354565b50611b99565b505b611b986040518060400160405280600d81526020017f5265766f6b65204661696c656400000000000000000000000000000000000000815250611354565b5b611c27565b611bdc6040518060400160405280601981526020017f5265766f6b65205375636365656465642c20526566756e643a00000000000000815250611354565b611be581612774565b826fffffffffffffffffffffffffffffffff19167fd5c412018f53b59096d0921fd2ae3a288a62104eff0ce2cb8f7f65a4e7265bb360405160405180910390a2505b506000600760009054906101000a900473ffffffffffffffffffffffffffffffffffffffff1673ffffffffffffffffffffffffffffffffffffffff1663038defd7876040518263ffffffff1660e01b8152600401611c8591906137b3565b60006040518083038186803b158015611c9d57600080fd5b505afa158015611cb1573d6000803e3d6000fd5b505050506040513d6000823e3d601f19601f82011682018060405250810190611cda919061314b565b509050611cf28382866126a59092919063ffffffff16565b9150611d326040518060400160405280601181526020017f4e657720766572696679696e67206b6579000000000000000000000000000000815250611354565b611d3b8161280d565b611d796040518060400160405280600a81526020017f4e657720506f6c69637900000000000000000000000000000000000000000000815250611354565b611d82826126db565b600160096000846fffffffffffffffffffffffffffffffff19166fffffffffffffffffffffffffffffffff1916815260200190815260200160002060006101000a81548160ff021916908315150217905550600760009054906101000a900473ffffffffffffffffffffffffffffffffffffffff1673ffffffffffffffffffffffffffffffffffffffff1663fd4f6aae611e1b876115eb565b8860026003806040518663ffffffff1660e01b8152600401611e419594939291906138e2565b600060405180830381600087803b158015611e5b57600080fd5b505af1158015611e6f573d6000803e3d6000fd5b5050505050505050505050565b60008151905060006a636f6e736f6c652e6c6f679050602083016000808483855afa5050505050565b611eaf83836128a6565b611ebc6000848484611f00565b611efb576040517f08c379a0000000000000000000000000000000000000000000000000000000008152600401611ef29061393c565b60405180910390fd5b505050565b6000611f218473ffffffffffffffffffffffffffffffffffffffff16612a74565b1561208a578373ffffffffffffffffffffffffffffffffffffffff1663150b7a02611f4a610f59565b8786866040518563ffffffff1660e01b8152600401611f6c94939291906137ce565b602060405180830381600087803b158015611f8657600080fd5b505af1925050508015611fb757506040513d601f19601f82011682018060405250810190611fb491906130e1565b60015b61203a573d8060008114611fe7576040519150601f19603f3d011682016040523d82523d6000602084013e611fec565b606091505b50600081511415612032576040517f08c379a00000000000000000000000000000000000000000000000000000000081526004016120299061393c565b60405180910390fd5b805181602001fd5b63150b7a0260e01b7bffffffffffffffffffffffffffffffffffffffffffffffffffffffff1916817bffffffffffffffffffffffffffffffffffffffffffffffffffffffff19161491505061208f565b600190505b949350505050565b606060008273ffffffffffffffffffffffffffffffffffffffff1660001b905060006040518060400160405280601081526020017f303132333435363738396162636465660000000000000000000000000000000081525090506000602a67ffffffffffffffff811115612134577f4e487b7100000000000000000000000000000000000000000000000000000000600052604160045260246000fd5b6040519080825280601f01601f1916602001820160405280156121665781602001600182028036833780820191505090505b5090507f3000000000000000000000000000000000000000000000000000000000000000816000815181106121c4577f4e487b7100000000000000000000000000000000000000000000000000000000600052603260045260246000fd5b60200101907effffffffffffffffffffffffffffffffffffffffffffffffffffffffffffff1916908160001a9053507f78000000000000000000000000000000000000000000000000000000000000008160018151811061224e577f4e487b7100000000000000000000000000000000000000000000000000000000600052603260045260246000fd5b60200101907effffffffffffffffffffffffffffffffffffffffffffffffffffffffffffff1916908160001a90535060005b60148110156124ec5782600485600c8461229a9190613c36565b602081106122d1577f4e487b7100000000000000000000000000000000000000000000000000000000600052603260045260246000fd5b1a60f81b7effffffffffffffffffffffffffffffffffffffffffffffffffffffffffffff1916901c60f81c60ff1681518110612336577f4e487b7100000000000000000000000000000000000000000000000000000000600052603260045260246000fd5b602001015160f81c60f81b8260028361234f9190613cbd565b600261235b9190613c36565b81518110612392577f4e487b7100000000000000000000000000000000000000000000000000000000600052603260045260246000fd5b60200101907effffffffffffffffffffffffffffffffffffffffffffffffffffffffffffff1916908160001a90535082600f60f81b85600c846123d59190613c36565b6020811061240c577f4e487b7100000000000000000000000000000000000000000000000000000000600052603260045260246000fd5b1a60f81b1660f81c60ff168151811061244e577f4e487b7100000000000000000000000000000000000000000000000000000000600052603260045260246000fd5b602001015160f81c60f81b826002836124679190613cbd565b60036124739190613c36565b815181106124aa577f4e487b7100000000000000000000000000000000000000000000000000000000600052603260045260246000fd5b60200101907effffffffffffffffffffffffffffffffffffffffffffffffffffffffffffff1916908160001a90535080806124e490613ef6565b915050612280565b50809350505050919050565b60606000821415612540576040518060400160405280600181526020017f300000000000000000000000000000000000000000000000000000000000000081525090506126a0565b600082905060005b6000821461257257808061255b90613ef6565b915050600a8261256b9190613c8c565b9150612548565b60008167ffffffffffffffff8111156125b4577f4e487b7100000000000000000000000000000000000000000000000000000000600052604160045260246000fd5b6040519080825280601f01601f1916602001820160405280156125e65781602001600182028036833780820191505090505b5090505b60008514612699576001826125ff9190613d17565b9150600a8561260e9190613f3f565b603061261a9190613c36565b60f81b818381518110612656577f4e487b7100000000000000000000000000000000000000000000000000000000600052603260045260246000fd5b60200101907effffffffffffffffffffffffffffffffffffffffffffffffffffffffffffff1916908160001a905350600a856126929190613c8c565b94506125ea565b8093505050505b919050565b60008282856040516020016126bc9392919061372d565b6040516020818303038152906040528051906020012090509392505050565b612771816040516024016126ef9190613835565b6040516020818303038152906040527f665c6104000000000000000000000000000000000000000000000000000000007bffffffffffffffffffffffffffffffffffffffffffffffffffffffff19166020820180517bffffffffffffffffffffffffffffffffffffffffffffffffffffffff8381831617835250505050611e7c565b50565b61280a816040516024016127889190613b38565b6040516020818303038152906040527ff5b1bba9000000000000000000000000000000000000000000000000000000007bffffffffffffffffffffffffffffffffffffffffffffffffffffffff19166020820180517bffffffffffffffffffffffffffffffffffffffffffffffffffffffff8381831617835250505050611e7c565b50565b6128a381604051602401612821919061389e565b6040516020818303038152906040527f0be77f56000000000000000000000000000000000000000000000000000000007bffffffffffffffffffffffffffffffffffffffffffffffffffffffff19166020820180517bffffffffffffffffffffffffffffffffffffffffffffffffffffffff8381831617835250505050611e7c565b50565b600073ffffffffffffffffffffffffffffffffffffffff168273ffffffffffffffffffffffffffffffffffffffff161415612916576040517f08c379a000000000000000000000000000000000000000000000000000000000815260040161290d90613a3c565b60405180910390fd5b61291f81610eed565b1561295f576040517f08c379a00000000000000000000000000000000000000000000000000000000081526004016129569061395c565b60405180910390fd5b61296b600083836117d6565b6001600360008473ffffffffffffffffffffffffffffffffffffffff1673ffffffffffffffffffffffffffffffffffffffff16815260200190815260200160002060008282546129bb9190613c36565b92505081905550816002600083815260200190815260200160002060006101000a81548173ffffffffffffffffffffffffffffffffffffffff021916908373ffffffffffffffffffffffffffffffffffffffff160217905550808273ffffffffffffffffffffffffffffffffffffffff16600073ffffffffffffffffffffffffffffffffffffffff167fddf252ad1be2c89b69c2b068fc378daa952ba7f163c4a11628f55a4df523b3ef60405160405180910390a45050565b600080823b905060008111915050919050565b604051806101600160405280600015158152602001600073ffffffffffffffffffffffffffffffffffffffff168152602001600073ffffffffffffffffffffffffffffffffffffffff16815260200160006fffffffffffffffffffffffffffffffff168152602001600067ffffffffffffffff168152602001600067ffffffffffffffff16815260200160008152602001600081526020016000815260200160008152602001600081525090565b6000612b48612b4384613b78565b613b53565b905082815260208101848484011115612b6057600080fd5b612b6b848285613e51565b509392505050565b6000612b86612b8184613b78565b613b53565b905082815260208101848484011115612b9e57600080fd5b612ba9848285613e60565b509392505050565b600081359050612bc081614531565b92915050565b600081519050612bd581614531565b92915050565b600081519050612bea81614548565b92915050565b60008083601f840112612c0257600080fd5b8235905067ffffffffffffffff811115612c1b57600080fd5b602083019150836020820283011115612c3357600080fd5b9250929050565b600081359050612c498161455f565b92915050565b600081519050612c5e8161455f565b92915050565b600081359050612c7381614576565b92915050565b600081359050612c888161458d565b92915050565b600081519050612c9d8161458d565b92915050565b600082601f830112612cb457600080fd5b8135612cc4848260208601612b35565b91505092915050565b600082601f830112612cde57600080fd5b8151612cee848260208601612b73565b91505092915050565b60006101608284031215612d0a57600080fd5b612d15610160613b53565b90506000612d2584828501612c4f565b6000830152506020612d3984828501612bdb565b6020830152506040612d4d84828501612bc6565b6040830152506060612d6184828501612dff565b6060830152506080612d7584828501612e53565b60808301525060a0612d8984828501612e53565b60a08301525060c0612d9d84828501612e29565b60c08301525060e0612db184828501612e29565b60e083015250610100612dc684828501612e29565b61010083015250610120612ddc84828501612e29565b61012083015250610140612df284828501612e29565b6101408301525092915050565b600081519050612e0e816145a4565b92915050565b600081359050612e23816145bb565b92915050565b600081519050612e38816145bb565b92915050565b600081359050612e4d816145d2565b92915050565b600081519050612e62816145d2565b92915050565b600060208284031215612e7a57600080fd5b6000612e8884828501612bb1565b91505092915050565b60008060408385031215612ea457600080fd5b6000612eb285828601612bb1565b9250506020612ec385828601612bb1565b9150509250929050565b600080600060608486031215612ee257600080fd5b6000612ef086828701612bb1565b9350506020612f0186828701612bb1565b9250506040612f1286828701612e14565b9150509250925092565b60008060008060808587031215612f3257600080fd5b6000612f4087828801612bb1565b9450506020612f5187828801612bb1565b9350506040612f6287828801612e14565b925050606085013567ffffffffffffffff811115612f7f57600080fd5b612f8b87828801612ca3565b91505092959194509250565b60008060408385031215612faa57600080fd5b6000612fb885828601612bb1565b9250506020612fc985828601612c3a565b9150509250929050565b60008060408385031215612fe657600080fd5b6000612ff485828601612bb1565b925050602061300585828601612e14565b9150509250929050565b60006020828403121561302157600080fd5b600061302f84828501612c64565b91505092915050565b60008060008060006080868803121561305057600080fd5b600061305e88828901612c64565b955050602061306f88828901612e3e565b945050604061308088828901612e14565b935050606086013567ffffffffffffffff81111561309d57600080fd5b6130a988828901612bf0565b92509250509295509295909350565b6000602082840312156130ca57600080fd5b60006130d884828501612c79565b91505092915050565b6000602082840312156130f357600080fd5b600061310184828501612c8e565b91505092915050565b60006020828403121561311c57600080fd5b600082015167ffffffffffffffff81111561313657600080fd5b61314284828501612ccd565b91505092915050565b6000806040838503121561315e57600080fd5b600083015167ffffffffffffffff81111561317857600080fd5b61318485828601612ccd565b925050602083015167ffffffffffffffff8111156131a157600080fd5b6131ad85828601612ccd565b9150509250929050565b600061016082840312156131ca57600080fd5b60006131d884828501612cf7565b91505092915050565b6000602082840312156131f357600080fd5b600061320184828501612e14565b91505092915050565b60006020828403121561321c57600080fd5b600061322a84828501612e29565b91505092915050565b600061323f838361325a565b60208301905092915050565b61325481613d5d565b82525050565b61326381613d4b565b82525050565b61327281613d4b565b82525050565b60006132848385613bd6565b935061328f82613ba9565b8060005b858110156132c8576132a58284613c1f565b6132af8882613233565b97506132ba83613bc9565b925050600181019050613293565b5085925050509392505050565b6132de81613d6f565b82525050565b6132ed81613d6f565b82525050565b6132fc81613d7b565b82525050565b600061330d82613bb3565b6133178185613be7565b9350613327818560208601613e60565b6133308161404e565b840191505092915050565b600061334682613bb3565b6133508185613bf8565b9350613360818560208601613e60565b80840191505092915050565b61337581613e2d565b82525050565b61338481613e3f565b82525050565b600061339582613bbe565b61339f8185613c03565b93506133af818560208601613e60565b6133b88161404e565b840191505092915050565b60006133ce82613bbe565b6133d88185613c14565b93506133e8818560208601613e60565b80840191505092915050565b6000613401603283613c03565b915061340c8261406c565b604082019050919050565b6000613424601c83613c03565b915061342f826140bb565b602082019050919050565b6000613447602483613c03565b9150613452826140e4565b604082019050919050565b600061346a601983613c03565b915061347582614133565b602082019050919050565b600061348d602c83613c03565b91506134988261415c565b604082019050919050565b60006134b0603883613c03565b91506134bb826141ab565b604082019050919050565b60006134d3602a83613c03565b91506134de826141fa565b604082019050919050565b60006134f6602983613c03565b915061350182614249565b604082019050919050565b6000613519602083613c03565b915061352482614298565b602082019050919050565b600061353c602c83613c03565b9150613547826142c1565b604082019050919050565b600061355f602983613c03565b915061356a82614310565b604082019050919050565b6000613582602f83613c03565b915061358d8261435f565b604082019050919050565b60006135a5602183613c03565b91506135b0826143ae565b604082019050919050565b60006135c8603183613c03565b91506135d3826143fd565b604082019050919050565b60006135eb602483613c03565b91506135f68261444c565b604082019050919050565b6101608201600082015161361860008501826132d5565b50602082015161362b602085018261324b565b50604082015161363e604085018261325a565b50606082015161365160608501826136e2565b506080820151613664608085018261370f565b5060a082015161367760a085018261370f565b5060c082015161368a60c08501826136f1565b5060e082015161369d60e08501826136f1565b506101008201516136b26101008501826136f1565b506101208201516136c76101208501826136f1565b506101408201516136dc6101408501826136f1565b50505050565b6136eb81613dd3565b82525050565b6136fa81613e0f565b82525050565b61370981613e0f565b82525050565b61371881613e19565b82525050565b61372781613e19565b82525050565b6000613739828661333b565b9150613745828561333b565b915061375182846133c3565b9150819050949350505050565b600061376a82856133c3565b915061377682846133c3565b91508190509392505050565b600061378e82866133c3565b915061379a82856133c3565b91506137a682846133c3565b9150819050949350505050565b60006020820190506137c86000830184613269565b92915050565b60006080820190506137e36000830187613269565b6137f06020830186613269565b6137fd6040830185613700565b818103606083015261380f8184613302565b905095945050505050565b600060208201905061382f60008301846132e4565b92915050565b600060208201905061384a60008301846132f3565b92915050565b600060808201905061386560008301886132f3565b6138726020830187613269565b61387f604083018661371e565b8181036060830152613892818486613278565b90509695505050505050565b600060208201905081810360008301526138b88184613302565b905092915050565b600060208201905081810360008301526138da818461338a565b905092915050565b600060a08201905081810360008301526138fc818861338a565b905061390b6020830187613269565b613918604083018661336c565b613925606083018561337b565b613932608083018461337b565b9695505050505050565b60006020820190508181036000830152613955816133f4565b9050919050565b6000602082019050818103600083015261397581613417565b9050919050565b600060208201905081810360008301526139958161343a565b9050919050565b600060208201905081810360008301526139b58161345d565b9050919050565b600060208201905081810360008301526139d581613480565b9050919050565b600060208201905081810360008301526139f5816134a3565b9050919050565b60006020820190508181036000830152613a15816134c6565b9050919050565b60006020820190508181036000830152613a35816134e9565b9050919050565b60006020820190508181036000830152613a558161350c565b9050919050565b60006020820190508181036000830152613a758161352f565b9050919050565b60006020820190508181036000830152613a9581613552565b9050919050565b60006020820190508181036000830152613ab581613575565b9050919050565b60006020820190508181036000830152613ad581613598565b9050919050565b60006020820190508181036000830152613af5816135bb565b9050919050565b60006020820190508181036000830152613b15816135de565b9050919050565b600061016082019050613b326000830184613601565b92915050565b6000602082019050613b4d6000830184613700565b92915050565b6000613b5d613b6e565b9050613b698282613ec5565b919050565b6000604051905090565b600067ffffffffffffffff821115613b9357613b92613ffd565b5b613b9c8261404e565b9050602081019050919050565b6000819050919050565b600081519050919050565b600081519050919050565b6000602082019050919050565b600082825260208201905092915050565b600082825260208201905092915050565b600081905092915050565b600082825260208201905092915050565b600081905092915050565b6000613c2e6020840184612bb1565b905092915050565b6000613c4182613e0f565b9150613c4c83613e0f565b9250827fffffffffffffffffffffffffffffffffffffffffffffffffffffffffffffffff03821115613c8157613c80613f70565b5b828201905092915050565b6000613c9782613e0f565b9150613ca283613e0f565b925082613cb257613cb1613f9f565b5b828204905092915050565b6000613cc882613e0f565b9150613cd383613e0f565b9250817fffffffffffffffffffffffffffffffffffffffffffffffffffffffffffffffff0483118215151615613d0c57613d0b613f70565b5b828202905092915050565b6000613d2282613e0f565b9150613d2d83613e0f565b925082821015613d4057613d3f613f70565b5b828203905092915050565b6000613d5682613def565b9050919050565b6000613d6882613def565b9050919050565b60008115159050919050565b60007fffffffffffffffffffffffffffffffff0000000000000000000000000000000082169050919050565b60007fffffffff0000000000000000000000000000000000000000000000000000000082169050919050565b60006fffffffffffffffffffffffffffffffff82169050919050565b600073ffffffffffffffffffffffffffffffffffffffff82169050919050565b6000819050919050565b600067ffffffffffffffff82169050919050565b6000613e3882613e0f565b9050919050565b6000613e4a82613e0f565b9050919050565b82818337600083830152505050565b60005b83811015613e7e578082015181840152602081019050613e63565b83811115613e8d576000848401525b50505050565b60006002820490506001821680613eab57607f821691505b60208210811415613ebf57613ebe613fce565b5b50919050565b613ece8261404e565b810181811067ffffffffffffffff82111715613eed57613eec613ffd565b5b80604052505050565b6000613f0182613e0f565b91507fffffffffffffffffffffffffffffffffffffffffffffffffffffffffffffffff821415613f3457613f33613f70565b5b600182019050919050565b6000613f4a82613e0f565b9150613f5583613e0f565b925082613f6557613f64613f9f565b5b828206905092915050565b7f4e487b7100000000000000000000000000000000000000000000000000000000600052601160045260246000fd5b7f4e487b7100000000000000000000000000000000000000000000000000000000600052601260045260246000fd5b7f4e487b7100000000000000000000000000000000000000000000000000000000600052602260045260246000fd5b7f4e487b7100000000000000000000000000000000000000000000000000000000600052604160045260246000fd5b600060033d111561404b5760046000803e61404860005161405f565b90505b90565b6000601f19601f8301169050919050565b60008160e01c9050919050565b7f4552433732313a207472616e7366657220746f206e6f6e20455243373231526560008201527f63656976657220696d706c656d656e7465720000000000000000000000000000602082015250565b7f4552433732313a20746f6b656e20616c7265616479206d696e74656400000000600082015250565b7f4552433732313a207472616e7366657220746f20746865207a65726f2061646460008201527f7265737300000000000000000000000000000000000000000000000000000000602082015250565b7f4552433732313a20617070726f766520746f2063616c6c657200000000000000600082015250565b7f4552433732313a206f70657261746f7220717565727920666f72206e6f6e657860008201527f697374656e7420746f6b656e0000000000000000000000000000000000000000602082015250565b7f4552433732313a20617070726f76652063616c6c6572206973206e6f74206f7760008201527f6e6572206e6f7220617070726f76656420666f7220616c6c0000000000000000602082015250565b7f4552433732313a2062616c616e636520717565727920666f7220746865207a6560008201527f726f206164647265737300000000000000000000000000000000000000000000602082015250565b7f4552433732313a206f776e657220717565727920666f72206e6f6e657869737460008201527f656e7420746f6b656e0000000000000000000000000000000000000000000000602082015250565b7f4552433732313a206d696e7420746f20746865207a65726f2061646472657373600082015250565b7f4552433732313a20617070726f76656420717565727920666f72206e6f6e657860008201527f697374656e7420746f6b656e0000000000000000000000000000000000000000602082015250565b7f4552433732313a207472616e73666572206f6620746f6b656e2074686174206960008201527f73206e6f74206f776e0000000000000000000000000000000000000000000000602082015250565b7f4552433732314d657461646174613a2055524920717565727920666f72206e6f60008201527f6e6578697374656e7420746f6b656e0000000000000000000000000000000000602082015250565b7f4552433732313a20617070726f76616c20746f2063757272656e74206f776e6560008201527f7200000000000000000000000000000000000000000000000000000000000000602082015250565b7f4552433732313a207472616e736665722063616c6c6572206973206e6f74206f60008201527f776e6572206e6f7220617070726f766564000000000000000000000000000000602082015250565b7f4f6e6c792063616c6c61626c65206279204162696f746963416c6963654d616e60008201527f6167657200000000000000000000000000000000000000000000000000000000602082015250565b600060443d10156144ab5761452e565b6144b3613b6e565b60043d036004823e80513d602482011167ffffffffffffffff821117156144db57505061452e565b808201805167ffffffffffffffff8111156144f9575050505061452e565b80602083010160043d03850181111561451657505050505061452e565b61452582602001850186613ec5565b82955050505050505b90565b61453a81613d4b565b811461454557600080fd5b50565b61455181613d5d565b811461455c57600080fd5b50565b61456881613d6f565b811461457357600080fd5b50565b61457f81613d7b565b811461458a57600080fd5b50565b61459681613da7565b81146145a157600080fd5b50565b6145ad81613dd3565b81146145b857600080fd5b50565b6145c481613e0f565b81146145cf57600080fd5b50565b6145db81613e19565b81146145e657600080fd5b5056fea2646970667358221220d7a12cac24f501c8f4f14171fb121f0e1ca3304c7fc50b55b34fabebb35c156d64736f6c63430008040033",
  "devdoc": {
    "kind": "dev",
    "methods": {
      "approve(address,uint256)": {
        "details": "See {IERC721-approve}."
      },
      "balanceOf(address)": {
        "details": "See {IERC721-balanceOf}."
      },
      "getApproved(uint256)": {
        "details": "See {IERC721-getApproved}."
      },
      "isApprovedForAll(address,address)": {
        "details": "See {IERC721-isApprovedForAll}."
      },
      "name()": {
        "details": "See {IERC721Metadata-name}."
      },
      "ownerOf(uint256)": {
        "details": "See {IERC721-ownerOf}."
      },
      "safeTransferFrom(address,address,uint256)": {
        "details": "See {IERC721-safeTransferFrom}."
      },
      "safeTransferFrom(address,address,uint256,bytes)": {
        "details": "See {IERC721-safeTransferFrom}."
      },
      "setApprovalForAll(address,bool)": {
        "details": "See {IERC721-setApprovalForAll}."
      },
      "supportsInterface(bytes4)": {
        "details": "See {IERC165-supportsInterface}."
      },
      "symbol()": {
        "details": "See {IERC721Metadata-symbol}."
      },
      "tokenURI(uint256)": {
        "details": "See {IERC721Metadata-tokenURI}."
      },
      "transferFrom(address,address,uint256)": {
        "details": "See {IERC721-transferFrom}."
      }
    },
    "version": 1
  },
  "userdoc": {
    "kind": "user",
    "methods": {},
    "version": 1
  },
  "storageLayout": {
    "storage": [
      {
        "astId": 25,
        "contract": "contracts/OpenDRM721.sol:OpenDRM721",
        "label": "_name",
        "offset": 0,
        "slot": "0",
        "type": "t_string_storage"
      },
      {
        "astId": 27,
        "contract": "contracts/OpenDRM721.sol:OpenDRM721",
        "label": "_symbol",
        "offset": 0,
        "slot": "1",
        "type": "t_string_storage"
      },
      {
        "astId": 31,
        "contract": "contracts/OpenDRM721.sol:OpenDRM721",
        "label": "_owners",
        "offset": 0,
        "slot": "2",
        "type": "t_mapping(t_uint256,t_address)"
      },
      {
        "astId": 35,
        "contract": "contracts/OpenDRM721.sol:OpenDRM721",
        "label": "_balances",
        "offset": 0,
        "slot": "3",
        "type": "t_mapping(t_address,t_uint256)"
      },
      {
        "astId": 39,
        "contract": "contracts/OpenDRM721.sol:OpenDRM721",
        "label": "_tokenApprovals",
        "offset": 0,
        "slot": "4",
        "type": "t_mapping(t_uint256,t_address)"
      },
      {
        "astId": 45,
        "contract": "contracts/OpenDRM721.sol:OpenDRM721",
        "label": "_operatorApprovals",
        "offset": 0,
        "slot": "5",
        "type": "t_mapping(t_address,t_mapping(t_address,t_bool))"
      },
      {
        "astId": 2119,
        "contract": "contracts/OpenDRM721.sol:OpenDRM721",
        "label": "policyManager",
        "offset": 0,
        "slot": "6",
        "type": "t_contract(IPolicyManager)1853"
      },
      {
        "astId": 2122,
        "contract": "contracts/OpenDRM721.sol:OpenDRM721",
        "label": "abioticAlice",
        "offset": 0,
        "slot": "7",
        "type": "t_contract(AbioticAliceManager)1764"
      },
      {
        "astId": 2124,
        "contract": "contracts/OpenDRM721.sol:OpenDRM721",
        "label": "chainId",
        "offset": 0,
        "slot": "8",
        "type": "t_uint256"
      },
      {
        "astId": 2128,
        "contract": "contracts/OpenDRM721.sol:OpenDRM721",
        "label": "validPolicy",
        "offset": 0,
        "slot": "9",
        "type": "t_mapping(t_bytes16,t_bool)"
      }
    ],
    "types": {
      "t_address": {
        "encoding": "inplace",
        "label": "address",
        "numberOfBytes": "20"
      },
      "t_bool": {
        "encoding": "inplace",
        "label": "bool",
        "numberOfBytes": "1"
      },
      "t_bytes16": {
        "encoding": "inplace",
        "label": "bytes16",
        "numberOfBytes": "16"
      },
      "t_contract(AbioticAliceManager)1764": {
        "encoding": "inplace",
        "label": "contract AbioticAliceManager",
        "numberOfBytes": "20"
      },
      "t_contract(IPolicyManager)1853": {
        "encoding": "inplace",
        "label": "contract IPolicyManager",
        "numberOfBytes": "20"
      },
      "t_mapping(t_address,t_bool)": {
        "encoding": "mapping",
        "key": "t_address",
        "label": "mapping(address => bool)",
        "numberOfBytes": "32",
        "value": "t_bool"
      },
      "t_mapping(t_address,t_mapping(t_address,t_bool))": {
        "encoding": "mapping",
        "key": "t_address",
        "label": "mapping(address => mapping(address => bool))",
        "numberOfBytes": "32",
        "value": "t_mapping(t_address,t_bool)"
      },
      "t_mapping(t_address,t_uint256)": {
        "encoding": "mapping",
        "key": "t_address",
        "label": "mapping(address => uint256)",
        "numberOfBytes": "32",
        "value": "t_uint256"
      },
      "t_mapping(t_bytes16,t_bool)": {
        "encoding": "mapping",
        "key": "t_bytes16",
        "label": "mapping(bytes16 => bool)",
        "numberOfBytes": "32",
        "value": "t_bool"
      },
      "t_mapping(t_uint256,t_address)": {
        "encoding": "mapping",
        "key": "t_uint256",
        "label": "mapping(uint256 => address)",
        "numberOfBytes": "32",
        "value": "t_address"
      },
      "t_string_storage": {
        "encoding": "bytes",
        "label": "string",
        "numberOfBytes": "32"
      },
      "t_uint256": {
        "encoding": "inplace",
        "label": "uint256",
        "numberOfBytes": "32"
      }
    }
  }
}